:0A007F00C008858108058105810590
:0E00890081E582FF24F8FE8EF005F074018000
:010097000266
:0200980025E061
:07009A00D5F0FBFEBF0800DA
:0A00A100501AE552540124FF921892
:0C00AB0092F0C007C00685F0238F82127F
:0600B7000464D006D0072E
:0800BD00EF24F840030202E702
:0300C500BF0C006D
:0500C80040030202E705
:0C00CD0074015552FD7C00C007C006C045
:0E00D90005C0048F821203A915811581D0067F
:0D00E700D0077D007C007B008F027F00A809
:0C00F400080808EA24F8F6EF34FF08F6CC
:0C010000A8080808B6000608B600028037
:01010C002BC7
:0C010D00A8080808B6010608B600028029
:01011900479E
:0C011A00A8080808B6020608B60002801B
:010126006672
:0C012700A8080808B6030708B600030289
:0201330001B514
:030135000201DFE5
:0D013800C006901DD8E493FE740F5EFD908C
:0E0145001DEFE493FE74035EFC901DEFE49347
:0E0153000303543FFE74035EFBD0060201DF7F
:0E016100C006901DD8E49354F0C4540FFD90D6
:0D016F001DEFE493C4540FFE74035EFC907A
:0E017C001DEFE49323235403FE74035EFBD0B7
:03018A000680529A
:0D018D00C006901DD9E493FE740F5EFD9036
:0E019A001DF0E493FE74035EFC901DF0E493F0
:0D01A8000303543FFE74035EFBD006802A63
:0E01B500C006901DD9E49354F0C4540FFD9081
:0D01C3001DF0E493C4540FFE74035EFC9025
:0E01D0001DF0E49323235403FE74035EFBD062
:0101DE00061A
:0E01DF00C006901DEDE493FEEA24F8FAEF341A
:0E01ED00FFCA25E0CA33FF8AF005F0EE80025B
:0201FB00C3132C
:0E01FD00D5F0FBFE74035EFAED14FF8FF005E3
:08020B00F0A80808740180024C
:0202130025E0E4
:0B021500D5F0FBF6BA0004D006800A0A
:07022000D006BA010280487C
:030227000202E7E9
:07022A00AF52BF8002800506
:05023100BF8113800BEA
:0A023600A8080874FFC396523E802A
:0102400006B7
:06024100A80808E6423E99
:0E024700ED14FFF582C007120301AE82AD83F5
:0C025500ACF0FBD007EE4D4C4B24FF92A8
:090261001892F085F0238F82123F
:05026A0004640202E73C
:0C026F00901DF1E49352068E07AE52E49D
:04027B00BE8001043C
:06027F00FA6003EF6006C7
:06028500BE8129EF602696
:09028B00A80808E6553D601EA814
:0A029400080874FFC396523DBB0139
:0A029E0009A8080874FFC396523B3C
:0902A800BB0206A80808E6423B6F
:0602B100BE8103EF6006B0
:0602B700EA602DEF602A51
:0902BD00A80808E6553D7022A8CE
:0902C6000808E6423DBC0109A84C
:0802CF00080874FFC396523BBE
:0902D700BC0206A80808E6423B3F
:0702E000ED14242CF8760058
:0702E700E53CB53B0280027B
:0202EE00D2013B
:0602F000850881D0082200
:0B02F600AF8274402FF5821216242204
:07030100AF827E00BF08007F
:0E030800E433FD6027C0068FF005F07B017C1A
:030316000080065E
:06031900EB2BFBEC33FCB2
:0C031F00D5F0F7AA387E00EA5203EE5237
:09032B0004D006EB4C60027E01D7
:06033400ED7033BF0C0068
:0E033A00502E8F047D00EC24F8FCED34FF8C77
:09034800F005F07C017D00800647
:06035100EC2CFCED33FD75
:0C035700D5F0F7AA3A7B00EA5204EB5202
:0703630005EC4D60027E0174
:03036A00BF0C00C5
:0E036D00402C7D00EF24F4FFED34FF8FF005EF
:07037B00F07F017D00800608
:06038200EF2FFFED33FD3B
:0C038800D5F0F7AB397C00EB5207EC52CB
:0703940005EF4D60027E0140
:0E039B007F007D007C008E828F838DF0EC222F
:0A03A900C008858108AF82BF08007C
:0C03B300E433FE6030E50824FCF8E608A6
:0B03BF004670168FF005F074018002FC
:0203CA0025E02C
:0C03CC00D5F0FBFD74FFC39D523880107B
:0803D8008FF005F074018002B2
:0203E00025E016
:0603E200D5F0FBFD4238DE
:0603E800EE703BBF0C00AB
:0C03EE005036E50824FCF8E608467019BB
:0B03FA00EF24F8F5F005F0740180021C
:0204050025E0F0
:0C040700D5F0FBFE740FC39E523A801328
:0B041300EF24F8F5F005F07401800202
:02041E0025E0D7
:06042000D5F0FBFE423A9C
:03042600BF0C0008
:0C0429004036E50824FCF8E6084670198F
:0B043500EF24F4F5F005F074018002E4
:0204400025E0B5
:0C044200D5F0FBFE74FFC39E52398013FE
:0B044E00EF24F4F5F005F074018002CB
:0204590025E09C
:06045B00D5F0FBFF423961
:03046100D008229E
:0A046400C00885810805810581AFFD
:0E046E0082901DEBE493FE8FF005F0EE80020D
:02047C00C313A8
:0B047E00D5F0FB5401FE24FF92192072
:05048900180330190604
:06048E002018030207D54F
:0A049400A218E433FD7E00C007C08B
:0C049E0023C005C0068F821203A915813F
:0A04AA001581D023D007A808080828
:0C04B4007600A808087600901DD8E4939C
:0E04C000FC53040F8F027B00C00774012AFE5C
:0E04CE00E43BFF7D00ECB50606EDB5070280AD
:0104DC00041B
:0404DD00D0078008BC
:0804E100D007A8080808760105
:0E04E900C007901DD8E49354F0C4540FFE7465
:0E04F700012AFCE43BFD7F00EEB50406EFB5E4
:040505000502800467
:04050900D00780088F
:08050D00D007A80808087602D7
:0E051500C007901DD9E493FE53060F74012A0F
:0E052300FCE43BFD7F00EEB50406EFB50502DB
:02053100800444
:04053300D007800865
:08053700D007A80808087603AC
:0E053F00C007901DD9E49354F0C4540FFE740D
:0E054D00012AFCE43BFD7F00EEB50406EFB58D
:04055B000502800411
:04055F00D007800839
:08056300D007A808080876047F
:0C056B00A8080808E6605FC002C003900A
:0C0577001DEDE493FEA808080886047D32
:0E05830000EC24FFFAED34FFCA25E0CA33FB7A
:070591008AF005F0EE800284
:02059800C3138B
:0D059A00D5F0FB54036006D003D002802A88
:0E05A700D003D002901DEEE493FE1CBCFF01B9
:0105B5001D28
:0E05B600EDCC25E0CC33FD8CF005F0EE80029C
:0205C400C3135F
:0B05C600D5F0FBFEA8080874035EF6E9
:0E05D100C002C0038FF005F07D017E008006A1
:0605DF00ED2DFDEE33FEE0
:0C05E500D5F0F7AB3D7C00EB5205EC526A
:0C05F10006D003D002ED4E60030207D5D7
:0B05FD008F82C007C003C002C02312A1
:0C060800197DE582D023D002D003D0077A
:080614005414FEBE1402800321
:03061C000207D5FD
:05061F000ABA00010B06
:0E062400EBA2E713CA13CAFB74F92A901D005B
:0E06320093FE74015FFDBD010553060F8008A5
:0806400074F05EFDC4540FFECE
:0A0648007D007C00201824A808089B
:0C065200E66043A80808B601108FF00510
:05065E00F0E53E800202
:02066300C313BF
:06066500D5F0FB30E02D92
:06066B00A80808B6020019
:02067100502512
:0A067300A218E433FBBB0102800370
:03067D000206F77B
:06068000A80808B6020004
:0A068600406F8FF005F0E53E8002A2
:02069000C31392
:06069200D5F0FB20E05F43
:0E06980074E22F901D0093FBFD6018901DEA88
:0A06A600E493FB8FF005F0EB8002F7
:0206B000C31372
:0906B200D5F0FB5401FBBB013A39
:0D06BB00901DF2E493FB8FF005F0EB800240
:0206C800C3135A
:0E06CA00D5F0FB20E0138FF005F074018002E4
:0206D80025E01B
:0906DA00D5F0FBF4FB523B801447
:0806E3008FF005F074018002A4
:0206EB0025E008
:0806ED00D5F0FBFB423B80024B
:0206F5007C0186
:0A06F700A218E433FBBB012BA80896
:0C07010008E66049A80808B60102804123
:06070D00A80808B6020076
:0A07130040158FF005F0E53E80026E
:02071D00C31304
:0B071F00D5F0FB5401FBBB010280245D
:06072A003018030207B8BD
:08073000A80808B601028003CD
:030738000207B8FD
:08073B008FF005F0E53E80029D
:02074300C313DE
:09074500D5F0FB5401FBBB016A75
:0E074E0074DA2F901D0093FBFD705D901DEA84
:0A075C00E493FB8FF005F0EB800240
:02076600C313BB
:0E076800D5F0FB5401FBBB010B7C8074E22F2B
:06077600901D0093FBFD45
:0D077C00901DF2E493FB8FF005F0EB80027E
:02078900C31398
:0E078B00D5F0FB20E0128FF005F07401800223
:0207990025E059
:08079B00D5F0FBFB423B801589
:0807A3008FF005F074018002E3
:0207AB0025E047
:0907AD00D5F0FBF4FB523B800285
:0207B6007C11B4
:0C07B800EC6014EF242CF974804DF7EF76
:0B07C4002424F95304F0EC4EF78006EB
:0607CF00EF242CF8760077
:0607D500850881D0082216
:0707DB000534E4B53402050A
:0107E20035E1
:0A07E300E53424FFFEE53534FFFF86
:0B07ED00EEF4FEEFF4FFE5345206E5E9
:0507F8003552077D00F1
:0307FD00BD10002C
:080800005032EE30E0247C00D0
:03080800BC080029
:0C080B00501DEC2424F9870353030FEB6D
:0C081700B5050DEC242CF9E7FB247F5004
:0408230003EB14F7D8
:030827000C80DE64
:0A082A00EFC313CE13CEFF0D80C9FB
:020834007F0043
:08083600EF24F8500302091140
:0B083E00EF242CF98706BE8002800327
:0308490002090D94
:0A084C00D2018FF005F07401800264
:0208560025E09B
:0C085800D5F0FBFEEF2424F9E7FD20E4BE
:04086400030208E89B
:0D086800901DF2E493FD8FF005F0ED80028D
:02087500C313AB
:0B087700D5F0FB20E005EE423B8005C1
:05088200EEF4FD523B05
:0C088700EF242CF87600901DEAE493FDAD
:070893008FF005F0ED80027B
:02089A00C31386
:0E089C00D5F0FBFC74015CFDBD01668F037C92
:0608AA00000BBB00010C75
:0E08B000ECA2E713CB13CB74F92B901D009331
:0D08BE00FC74015FFBBB010553040F8008B3
:0808CB0074F05CFBC4540FFC47
:0E08D30074E22F901D0093FB6030ED602D74D9
:0708E100804BF6A7048025FF
:0D08E800901DF2E493FD8FF005F0ED80020D
:0208F500C3132B
:0C08F700D5F0FB20E007EEF4FD523B8042
:0109030003F0
:03090400EE423B85
:06090700EF242CF876003D
:04090D000F02083697
:0109110022C3
:0C091200C0E0754201C28C53A2E9C29201
:0E091E00C28D758CC7758AF174F0558904F589
:0D092C0089758F00D28CC2A8D2A9D0E0320C
:0E093900C0E0C082C083C007C0D075D000E50A
:0C09470042FF24FC4059EF2F2F90095470
:010953007330
:0709540002096002096202C2
:05095B00097802098A81
:020960008044D1
:0A096200754202854080C28D74B614
:0C096C00C39543F58C758AFFD28C802E59
:0A097800754203854180C28D758C25
:0809820002758A00D28C801C72
:0E098A0074F055892402F589758F01758C5023
:0C099800C28D43A210D292D28CC2A9756D
:0209A40042000F
:0B09A600D0D0D007D083D082D0E03248
:0A09B10020A847E5427043E53C45ED
:0409BB003BF5408543
:0709BF003B41C289D2A89060
:0709C6001DF3E493653BF50E
:0309CD00397F006F
:0309D000BF08005D
:0A09D30050218FF005F0740180023E
:0209DD0025E013
:0A09DF00D5F0FBFE553BFDEE553C44
:0709E900FCEDB504028003E0
:0309F000EE423F95
:0309F3000F80DA98
:0409F600853B3CC23F
:0109FA0001FB
:0109FB0022D9
:0C09FC00AF82E53C6FFEE4FCFDEE30E055
:0B0A08000EEF30E0067C207D00800433
:040A13007C107D00D6
:0D0A1700EE30E10CEF30E1054305088003EF
:030A240043050483
:0D0A2700EE30E20CEF30E205430480800366
:030A340043044038
:0D0A3700EE30E30CEF30E3054305028003D1
:030A440043050166
:0D0A4700EE30E40CEF30E405430580800341
:030A540043054017
:0D0A5700EE30E50CEF30E5054304028003AE
:030A640043040147
:0D0A6700EE30E60CEF30E60543052080037D
:030A740043051027
:0D0A7700EE30E70CEF30E705430408800384
:030A840043040424
:050A87008C828D83222A
:0A0A8C00C008858108C082C0830500
:0A0A960081A80808088605A80808D2
:040AA00086037C004D
:0A0AA4008D028B07E5082403F8A675
:070AAE003BC282C2837E00FF
:0E0AB500EE24F84038C00574805A2354012402
:0D0AC300FF9280EA2AFAD283D283C283E533
:0C0AD000082403F874805623540124FF0E
:0C0ADC009284E5082403F8E625E0F6D239
:0A0AE80085D285C2850ED00580C3BB
:060AF200D286C2867E00E0
:0E0AF800EE24F8401774805F235401FA24FFA7
:0E0B06009280EF2FFFD283D283C2830E80E451
:0A0B1400D2827E007F00C2827A00C8
:0B0B1E00EA24F0401930930343060165
:050B2900D283BA0F00A9
:090B2E005007EFCE25E0CE33FFA5
:050B3700C2830A80E208
:0C0B3C00A80808E6B5060708E6B50702A1
:020B4800800328
:030B4A00020AA4F8
:060B4D00850881D008229A
:080B5300901D99E493F53B901D
:070B5B001DF6E493FF7E008C
:0E0B6200EE24FC4046EE75F002A4FCADF08CD3
:060B7000F005F0EF800229
:020B7600C313A7
:0E0B7800D5F0FBFC74035CFDBD01148EF0058E
:050B8600F07401800283
:020B8B0025E063
:0A0B8D00D5F0FBFC74FFC39C523B43
:0B0B9700BD02108EF005F0740180021A
:020BA20025E04C
:060BA400D5F0FBFC423B12
:030BAA000E80B505
:080BAD00901DF7E493FF7E00A8
:0E0BB500EE24FC404CEE75F002A4FBACF08B7D
:060BC300F005F0EF8002D6
:020BC900C31354
:0E0BCB00D5F0FBFB74035BFDBD011774042E17
:080BD900F5F005F07401800243
:020BE10025E00D
:0A0BE300D5F0FBFC74FFC39C523BED
:0E0BED00BD021374042EF5F005F074018002B1
:020BFB0025E0F3
:060BFD00D5F0FBFD423BB8
:030C03000E80AFB1
:060C0600753C00D20190D4
:070C0C001DF3E493653BF5C5
:050C130039E53BF4424D
:020C18003F2279
:0E0C1A007580007584007585FF74F05589247F
:0E0C280002F589758F01758C5043A210D28C95
:0A0C3600754200C2A9D288753A0089
:060C4000E4F53DF534F57A
:040C460035F53EC280
:070C4A0000C28875D1812270
:0819E1000102040810204080FF
:06000000020023020912B8
:03000B00020939AE
:03001300020F5F7A
:03001B00020F8F42
:03007C0002001E61
:05001E00120C5180FEF0
:0A0C5100C00885810805817F007E40
:0B0C5B0000C218E5A703540124FF921B
:080C660019C007C006C02312EB
:0C0C6E001993D023D006D007D29720970E
:0A0C7A000A301907A8080876008068
:010C84000B64
:0B0C8500901BFFE493FCA80808A604E5
:0E0C9000C297901BFFE493AB962BFC8C9653FF
:0D0C9E00963F901BFEE493FC24CB40099090
:080CAB001BFEE493F5438003F6
:030CB30075431076
:070CB600D28C2019217C0003
:030CBD00BC320046
:0E0CC000501AC28C901D17E493F58C901D18ED
:080CCE00E493F58AC28DD28C7B
:060CD600308DFD0C80E1F1
:0E0CDC0075C1FFC2AF75A7E575C2A575C35AF5
:0E0CEA00D2AFC2AF43A70475C2A575C35AD2DC
:0B0CF800AFC007C006C023120C1AD0CA
:0A0D030023D006D00720190FC00707
:080D0D00C006C023120B53D0F5
:050D150023D006D00709
:0E0D1A0053BDFE75985043BAE043BD0275BF4D
:0C0D28002F75BEF043BD017599557C008D
:0E0D3400C2AF75C2A575C35AD2AF901D0DE4B3
:070D420093FBBBFF028003DD
:030D4900020E2B6C
:060D4C00300E03020E2B25
:080D5200E57230E003020E2BF4
:0E0D5A00748025D1502775D16075D20375D3F2
:0E0D68009A75D1610C74035CFBBB0313C007CA
:0A0D7600C006C004C0231207DBD042
:070D800023D004D006D007C8
:0A0D8700300113C007C006C004C00D
:050D9100231209B1D09E
:070D960023D004D006D007B2
:0C0D9D00E53F605FC0048EF005F07A01B5
:040DA9007B00800645
:060DAD00EA2AFAEB33FB19
:0C0DB300D5F0F7AC3F7D00EC5202ED5291
:0E0DBF0003D004EA4B6034740C2EF582C0079A
:0A0DCD00C006C004C023121624D093
:0C0DD70023D004D006D00750228EF00577
:050DE300F07401800224
:020DE80025E004
:0C0DEA00D5F0FBFD74FFC39D523F0E537B
:040DF6000607800864
:060DFA000E530607800203
:020E00007E0072
:0B0E0200E56E70517440258D404B20C0
:090E0D000B48901D99E493FDB51A
:040E16003B02803DDE
:0C0E1A0075E40075E71D75E699853BE561
:050E260075E468802C5A
:0C0E2B00748025D15026300E2375D16153
:0A0E3700E573249140040573801652
:0C0E4100758285C007C006C004C02312E3
:0A0E4D001624D023D004D006D007ED
:060E570020080330091918
:0A0E5D00C208C209C007C006C004A5
:060E6700C023121677D033
:090E6D0023D004D006D007800A4E
:020E76007D6499
:080E78008D031B8B05ED70F8E2
:060E8000109803020F2987
:050E8600AD99BD6308F9
:050E8B0010990280FB3C
:030E9000759955FC
:090E9300BD2B061596A8080816EF
:090E9C00BD2D060596A808080604
:0E0EA500BD7718C2AF75E40075E71B75E6FE59
:0A0EB3008543E5A8080886E575E40C
:030EBD0068D2AF49
:060EC000BD7003637281A6
:0A0EC600BD3C0BE54360071543C275
:040ED0009985439924
:0A0ED400BD3E0D74CD254340070517
:060EDE0043C2998543990F
:030EE400BD7608D0
:050EE70010990280FBE0
:030EEC0075992ACB
:030EEF00BD7408C7
:050EF20010990280FBD5
:030EF700759900EA
:030EFA00BD310007
:0E0EFD00402AED24C74025ED24CFF5F005F086
:040F0B0074018002EB
:020F0F0025E0DB
:0C0F1100D5F0FB623BC007C006C004C066
:050F1D00231209B1D010
:070F220023D004D006D00724
:080F2900D297209712BFFF00D0
:050F310050030F8012C7
:060F360020180363728124
:040F3C00D21880083F
:060F4000EF60031F8002B8
:020F4600C218CF
:080F4800E5725401FDB4010043
:0D0F5000E433FD24FF9297020D341581D08B
:020F5D00082268
:011D0000FFE3
:021D0100002AB6
:021D03000004DA
:021D050020605C
:011D0C0000D6
:011D0D00FBDA
:021D1700FFFFCC
:011BFE0010D6
:0E0F5F00C0E0C0D0C2AAC28E740F55892420F3
:0E0F6D00F589758B35758D80C28FD28ED2AB13
:060F7B00756E02C204D2F3
:050F810002756D007512
:090F86006C00D203D0D0D0E0329F
:0C0F8F00C023C0E0C0F0C082C083C007D7
:0E0F9B00C006C005C004C003C002C001C000F3
:0A0FA900C0D075D000C008E581F546
:0A0FB300082404F581E56EFF24F127
:050FBD00500302153A8B
:070FC200EF2F2F900FC97300
:070FC900020FF602153A02C7
:060FD00012CD02138D0298
:060FD6001396021427022D
:060FDC00153A02153A026D
:060FE200153A02153A0267
:060FE80014490214B102DD
:060FEE00153A0214D502C1
:020FF4001523C3
:0E0FF600C28E740F55892420F589758B807585
:0A1004008D80C28FD28EE570B571A9
:04100E00030212C601
:08101200E5712462F98707C2B1
:0C101A00187DFE7E00EFA2E5E433FC240C
:06102600FF9219BF8000DB
:05102C00400302116CFD
:0C103100C005C006EF2323540124FF92E9
:0B103D001A53071F8F82C007C005C0B8
:0C10480023120301AA82AB83ACF0FED09F
:0A10540023D005D007A80808A60263
:0E105E0008A60308A60408A606901D11E49338
:0E106C00FE0EEF2FFD2EFC04901D0093FEB52E
:04107A0007028006E3
:06107E00D006D005800F32
:0E108400D006D0058C8275831DE493FCFD7EA2
:01109200005D
:09109300BDFE06BE000302127549
:0E109C00901D12E4932F2F2FFC0C0C0C8C8255
:0E10AA0075831DE493540325E025E0FB74B02C
:0A10B8004BF54B901D17E493FB8BE2
:0A10C2004C901D18E493FB8B4DEDDC
:0C10CC002DFD2417901D0093FE8E4E7425
:0A10D800182D901D0093FE8E4F7539
:0610E2005100301A0575F3
:0410E80052408003EF
:0310EC00755280BA
:0E10EF00EC04901D0093FE24F95006EE24FB45
:0310FD00FE800270
:021100007E016E
:0C11020074E02EF550EE24FE500F740631
:0A110E002E244BF9A808088605A757
:031118000580103F
:0C111B00A80808743F56FAE4FBFCFDEA4B
:041127002552F55206
:0C112B00EE24FD500E74052E244BF9A894
:071137000808088605A70562
:0C113E00EE24FC500F74042E244BF9A882
:08114A00080808088605A70546
:0C115200EE24FB501074032E244BF9A86F
:09115E0008080808088606A70627
:05116700D21802127510
:0A116C00754BB0901D17E493FE8E42
:0A1176004C901D18E493FE8E4D8589
:03118000444E8555
:0A118300454F53071FEF24F85003F7
:03118D00021273D8
:07119000EF2F2F9011977360
:071197000212730211AF0206
:06119E0011BB0211D20298
:0611A40011E402124402F6
:0511AA00124E02126A62
:0811AF0075506074C2254AF579
:0411B700510212735C
:0811BB0075506374432546F5ED
:0511C30051755240755A
:0611C8005300755412D221
:0411CE000F02127387
:0711D200754E00754F00751A
:0611D90050E175510175A3
:0511DF005240021273F2
:0211E4007F008A
:0A11E600C3EF9547503CE548702622
:0A11F000740A2F244BF87600AD4975
:0E11FA007E008F037C00EB2DFDEC3EFEBD6001
:0B1208001CBE0019740A2F244BF8A62E
:0312130072800FD7
:0A121600740A2F244BF9EF254990CC
:051220001D0093FEF724
:031225000F80BE79
:0912280074632547F5507442453A
:0612310046F55174404532
:0412370047F55285A0
:03123B0048538590
:03123E004954D23E
:031241000F802FEC
:07124400755060755181C275
:03124B000E8025ED
:08124E0075506474414546F53A
:061256005174404548F50B
:03125C005285496F
:05125F005375540575F4
:0612640055A0D20F800925
:08126A0075506074C22546F5C1
:01127200512A
:02127300D2188F
:0812750030190674DF554BF53A
:01127D004B25
:0A127E0030183DC2AAE56E7032E59B
:0A128800712462F9E7FF20E5077406
:06129200204FF7756F000C
:0B12980074FC256F400512158C8016B9
:0612A3000571537107C242
:0412A9000BC20F1253
:0C12AD00155EC28E758DF0758B00D28E20
:0512B900D2AA02153A63
:0612BE00057153710702E7
:0212C400153AD9
:0712C600C28ED2AA02153A04
:0A12CD00A28BB39218C28B756E035A
:0A12D700758D00E56D700A756D015C
:0512E100C205C2060277
:0212E600153AB7
:0A12E800747F256D401C301808B219
:0412F20004E56D257D
:0312F6006CF56C28
:0512F900E56D256DF517
:0612FE006D600302153AC9
:06130400756D8102153A2F
:0A130A00C28EC28FA204201801B3A6
:0A131400502CE56A700E74CCB56C25
:03131E0002D205F3
:07132100740CB56C02D2064A
:07132800200519200616E55F
:08132F006A24E94010E56A247C
:061337004BF8E56CF662C4
:05133D006B056A80024F
:02134200C202E5
:05134400100B02801DEA
:07134900300514300211759C
:071350006F04100F02800979
:07135700E5462404F54653AE
:02135E00463C0B
:0613600012155E02153AB1
:0713660030021E20051B20D0
:0C136D000618740F55892410F589758D41
:0C137900FA758B70D28E756E04D2AA0239
:02138500153A17
:0613870012155E02153A8A
:09138D00758D80756E0202153A9F
:0A13960074D3554BFFBF9002800393
:0313A00002142113
:0C13A300E56A24F85078C28E740F55895A
:0D13AF002410F589758DEF758B42D28EC22A
:0713BC0007E55030E71F8533
:0513C3004E82C04F1234
:0B13C80015D6AF821581BFFF02800226
:0213D300D2073F
:0913D500E54E701CE54F7018D2C2
:0313DE0007801471
:0C13E100901D17E493FFB54E0B901D18F3
:0813ED00E493FFB54F02D207A3
:0A13F50074FFB56B21740F5550FF13
:0C13FF007E0074082FFFE43EFEAC6A7D07
:0C140B0000EFB5040BEEB50507D2103061
:041417000702D208EE
:06141B00756E0502153A92
:0614210012155E02153AEF
:09142700C28E30101330070AD206
:051430000C12158CC236
:041435000B02153A57
:0614390012155E02153AD7
:06143F00D20D12158CC253
:041445000B02153A47
:08144900E56A244BF987073026
:041451000C027FCC3E
:05145500300D027F0CC8
:09145A00C2AA740AB56E028003F7
:0314630002153A35
:0A146600E56D247F402CE56D5F70FA
:0914700008D296C20AB2048002FF
:02147900D20A95
:08147B00E56D7007756D01C2FB
:03148300048006DC
:05148600E56D256DF588
:01148B006DF3
:07148C00E56D7003756D8131
:05149300756E0B8013D3
:09149800200406D296C20A80026B
:0214A100D20A6D
:0614A300056A756D00757D
:0214A9006E0DC6
:0614AB00758D1202153AD6
:0A14B100E56A70077401B56D0205CD
:0114BB006FC1
:0A14BC00C296A20A828B5007C20BF1
:0514C60012155E800616
:0614CB00756E0A758D6EBE
:0414D100C28B8065E5
:0E14D500C296C28E740F55892410F589758D4C
:0A14E300FB758B90D28E200C0330B5
:0214ED000D05EB
:0514EF0012155E802BC8
:0C14F400740F5550FF7E0074072FFFE4BA
:0C1500003EFEAC6A7D00C3EF9CEE6480F0
:0C150C008DF063F08095F05007D20912BA
:04151800155E8003D9
:03151C00756E0EDB
:04151F00C28B8017E4
:0E152300C28E740F55892420F589758D6E7562
:091531008B80C28FD28E756E0A08
:06153A00D203850881D0F8
:0C15400008D0D0D000D001D002D003D0E1
:0E154C0004D005D006D007D083D082D0F0D0D6
:04155A00E0D0233288
:0A155E00756E00C28BC28EC2AB7521
:0A1568006B00756A00C28E740F5507
:0C157200892410F589758D89758BAFC236
:0A157E000CC20DC28FD28ED2AAD289
:04158800ABC21022C0
:0E158C00C28E740F55892420F589758D6E75F9
:0C159A008B80C28F740F55502407FF7522
:0415A6006BFF7E0059
:0C15AA00C3EE9F500BEE244BF9E7FD62EE
:0415B6006B0E80F048
:0715BA00EF244BF8A66BC201
:0415C10005C206D287
:0515C5000B756E0A75B4
:0A15CA006D00756A00C2AAD28ED22D
:0215D400AB2248
:0A15D600C008858108AF827EFF90F7
:0815E0001D16E493FDBDFF00A0
:0E15E8005035901D16E493602E901D16E4936E
:0215F600FD1DD9
:0E15F800ED6024ED2DFC2417901D0093FBEFF9
:0C160600B5031374182C901D0093FCE534
:0A1612000824FDF8E6B504028D0679
:03161C001D80D955
:05161F008E82D00822BC
:07162400AF82C218BF4000B5
:0C162B00501B8F82C007C02312197DE500
:0C16370082D023D0075444FEBE44028041
:0116430004A2
:04164400D218802A0E
:09164800AD707E000DBD00010E25
:0C1651005305077E00AB717C00EBB50573
:07165D0006ECB50602800E49
:08166400E5702462F8A60705F9
:05166C0070537007D26D
:011671001860
:05167200D28EA2182237
:0A167700C008E581F5082404F581A0
:09168100C208AF5174C35FFEAD55
:07168A0052A80808A605E5BF
:091691004EFB7049E54F7045E580
:07169A007220E00302197742
:0916A100EE7020A80808B6C01A7A
:0C16AA00E56E70FCC2AF75E40075E71D32
:0A16B60075E6178553E58554E575C8
:0416C000E468D2AF59
:0516C400BE01028003DD
:0316C9000219778C
:0916CC00A80808E6600302197782
:0916D500758283121624021977B4
:0816DE00E55030E7030218C2D9
:0C16E600901D17E493FAEBB5020280039C
:0316F20002197763
:0B16F500901D18E493FAB54F0280032B
:0317000002197754
:08170300757300BE4102802055
:05170B00BE4202802F28
:06171000BE43030218565F
:06171600BE800302187CF6
:06171C00BE810302189ECD
:06172200BE83030218B7AC
:031728000219772C
:04172B008D4885530D
:0B172F0049758287121624758286120D
:05173A001624021977DE
:06173F00200E03021977E1
:0A174500743C5FF54AA80808E6545A
:0A174F00F0F6A80808B68002800337
:031759000218353E
:0B175C00758281121624740F5552FF95
:0A176700E56E70FCC2AF75E400AA45
:0A1771005374015A241CFBAE54A867
:05177B000808087600DB
:0C178000A8080808C3E69F4003021830C8
:0C178C00EA703CC002E5082403F8A60641
:0C179800087600A808080886047D00E51B
:0C17A400082403F8EC26FCED0836FDBC20
:0717B0006005BD000280048A
:0417B700D0028026B6
:0A17BB00D002A8080808740A2624CA
:0617C5004BF9877280164B
:0B17CB008BE7A8080808E62EF5E6A84A
:0A17D600080808740A26244BF9875E
:0117E000E523
:0A17E1008E047D00A8080808E50842
:0C17EB002403F9E6F7097700E508240361
:0E17F700F8E62CFC08E63D53043F7D00BC3FA5
:0D18050022BD001F8F047D001CBCFF011DD3
:0C181200E5082403F8E6B5040708E6B575
:04181E000502800639
:0618220075E46875E400A6
:08182800A80808080602178059
:0518300075E468D2AF71
:09183500A80808E6600302197717
:04183E008552478503
:0318420053488583
:0618450054497582811276
:09184B0016247582841216240291
:02185400197702
:0A185600743C5FF54AA80808B6804C
:041860000343A20894
:09186400A80808E66003021977E8
:0D186D0075828112162475828212162402E3
:02187A001977DC
:06187C00300E0302197793
:04188200D20E854CB1
:0318860044854D49
:0518890045754600C298
:0C188E000F75D16075D20B75D3B375D106
:04189A006102197757
:07189E00E54CB54402800394
:0318A500021977AE
:0718A800E54DB54502800388
:0318AF00021977A4
:0518B200C20E021977CF
:0918B700758285121624C20E028E
:0218C000197796
:0618C200EE60030219773D
:0C18C800C04F8B821215D6AF821581BF75
:0518D400FF030219777B
:0E18D900901D11E493FEF58275831DE49325A6
:0C18E700E02EFD0EA8080874C056FCE4BA
:0418F300BC800104B0
:0118F700FCF4
:0818F800C3EE9D4003021977C5
:0E1900008E8275831DE493FBEFB50366EE0443
:0E190E00901D0093FBF582C007C006C005C007
:0E191C0004C00312197DAA82D003D004D005A6
:0E192A00D006D007EC602EC00474145AFCBC2A
:041938001402800411
:04193C00D004801F34
:0E194000D0048B82C007C006C005C004C003DF
:0E194E00C00212007FD002D003D004D005D01A
:03195C0006D007AB
:0C195F00A80808E6700D53020CBA0C0C2E
:07196B008B821202F68005D9
:051972000E0E0218F842
:06197700850881D0082262
:0E197D00AF82901D12E493FE0E0E0EEF2E2F81
:08198B002F901D0093F582224C
:0E19930075950075911475924CC29675892158
:0E19A100758F00C28CC28E758D80758B80C2D2
:0C19AF008FC20375A88075E80075B804AD
:0A19BB0075B70CD28A75722EC205B2
:0519C500C206C20CC2C5
:0419CA000DC20875CD
:0619CE0070007571007548
:0519D4004600C20FC235
:0419D9000E02155E87
:06005200E478FFF6D8FD82
:080030007900E94400601B7A2D
:05003800009019E978B9
:03003D000075A0AB
:0A00400000E493F2A308B8000205E3
:08004A00A0D9F4DAF275A0FF61
:080058007800E84400600A7919
:030060000075A088
:0600630000E4F309D8FCE3
:080069007800E84400600C7906
:0B00710000900000E4F0A3D8FCD9FAD6
:0300230075817371
:0A0026001219DDE582600302001EDE
:0419DD0075820022ED
:00000001FF
