:060085007F00D282C2855B
:09008B00300406C282D282C204D4
:020094007E00EC
:0E009600EE24F84012C280EF2FFF3081010FE0
:0900A400A2819283D2800E80E952
:0A00AD002004DBC282D2858F82227C
:0400000002002332A5
:01000B0032C2
:030013000211F3E4
:03001B00021223AB
:0300820002001E5B
:05001E001200B780FE96
:0A00B700C07C85817C05810581A8CD
:0A00C1007C087600A87C0808760091
:0A00CB00C218C219E5A7035401FD95
:0A00D50024FF921AD29720970730FB
:0600DF001A047D008007F9
:0700E500901CFFE493FCFDF9
:0E00EC00901CFFE493AB962BFC8C9653963F32
:0A00FA00C297C005C023121BC4D03A
:0C0104002353BDFE75985043BAE043BD84
:0E0110000275BF2F75BEF043BD01759955C035
:05011E00231211E1D0E5
:0A01230023D005201A527B007C0057
:0E012D00C005901DD4E493FA7D00901DFEE401
:0B013B0093C4540FFF8FF005F0800606
:06014600EA2AFAED33FD88
:0E014C00D5F0F7C3EA9BED9CD005402375D19A
:0A015A006075D21D75D34075D161A8
:0E016400E5D1248050FAC2AF75C2A575C35A0A
:09017200D2AF0BBB00B50C80B24A
:0E017B0075C1FFC2AF75A7E575C2A575C35A61
:0E018900D2AFC2AF43A70475C2A575C35AD248
:01019700AFB8
:0E019800C2AF75C2A575C35AD2AFC2AF75C251
:0E01A600A575C35AD2AF901D0DE493FFBFFFA5
:0301B400028003C3
:0301B700020363DD
:0601BA0030100302036394
:0801C000E57A30E0030203635D
:0701C8008580252019138535
:0301CF00252420C4
:0701D2001A0BC005C0231247
:0601D9000EF9D023D00551
:0201DF00D21933
:0701E100E524B52502804A68
:0601E800E5246525FFA8D7
:0C01EE007C0808E6901C3793FC5F60164C
:0A01FA00EC55287011A87C08088657
:0902040082C005C02312043AD0A7
:03020D0023D005F6
:0B021000A87C0808E6901C3793FF55FF
:07021B00254224EFF4FF452A
:04022200255224A895
:0A0226007C080806A87C0808E654CE
:0202300007F6CF
:0B023200748025D1500BC005C02312C2
:06023D0009EED023D005FC
:020243007F003A
:08024500EF24F850030203321C
:0E024D00C005EF2F25E024D5901D0093FC5333
:0B025B00040C8F82C007C004C02312F7
:0C0266001032AA82AB83ADF0D023D0048C
:0E027200D007EFC31324CE901D0093FE74013D
:0C0280005F75F004A4F5F005F0EE8002BC
:02028C00C3139A
:0B028E00D5F0FB540FFEBE01028005FE
:05029900D00502032E58
:0A029E00D005BC0405BA0102800E71
:0602A800BC0803EA600837
:0502AE00BC0C028003FE
:0302B3000203281B
:0C02B600EF2436F9E7FE547F706EEF2F46
:0E02C20025E024D6901D0093FC743F5C248040
:0C02D000F7EF242DF98F037C000BBB001E
:0202DC00010C13
:0E02DE00ECA2E713CB13CB74F62B901D00930C
:0E02EC00FC74015F640175F004A4F5F005F0E8
:0302FA00EC800293
:0202FD00C31329
:0E02FF00D5F0FB5407F7EE30E725EF901C37E3
:06030D0093FC5528701B53
:0C0313008F82C007C005C023121870D0F4
:09031F0023D005D00750ED800643
:06032800EF2436F8760018
:04032E000F02024573
:020332007F004A
:0C033400EF24FE404EEF243FF9E770205C
:0C034000EF242DF9870474405CFBBB40E7
:0C034C0013208E10EF2FFB2419F8760010
:080358000876005304BFA7045E
:030360000F80D13A
:0C036300748025D1501E30101B75D16134
:0A036F00E57B24914004057B800E1D
:0B037900758285C005C023121870D0EB
:0303840023D0057E
:06038700200903300A11F9
:07038D00C209C20AC005C04D
:05039400231218C3D084
:0503990023D005800ADD
:02039E007E647B
:0803A0008E071F8F06EE70F8B6
:0503A800109802804ADC
:0503AD00AF99BF6308D9
:0503B20010990280FB20
:0303B700759955E0
:0603BA00BF2B0315961D88
:0603C000BF2D0305960DA0
:0E03C600BF7712C2AF75E40075E71C75E6FF45
:0703D4008DE575E468D2AF6E
:0603DB00BF7003637A818C
:0303E100BF7608DC
:0503E40010990280FBEE
:0303E90075990BF8
:0303EC00BF7408D3
:0503EF0010990280FBE3
:0303F400759902F6
:0B03F700D297209718A87C08B6FF00E2
:080402005006A87C08068018D2
:06040A00201803637A8153
:04041000D218800E70
:0A041400A87C08E66006A87C081624
:02041E0080025A
:02042000C21800
:08042200E57A5401FFB401006A
:0C042A00E433FF24FF9297020198857CC8
:0404360081D07C22D3
:081C37000102040810204080A6
:021D03000004DA
:011D0C0000D6
:011D0D00FFD6
:021D1700FFFFCC
:05007C00C200C201C238
:01008100027C
:09043A00C07C85817C058185826E
:090443004AA87C087608E4FEF5E5
:04044C0029F54BE55E
:060450004A254A25E0F5F3
:060456004824D5F549859C
:0C045C004A82C006120BDEE582D006705A
:040468000302096A18
:09046C00AC4A7D000CBC00010D3E
:0E047500EDA2E713CC13CC74F62C901D00936F
:0C048300FD7401554A640175F004A4F5F5
:06048F00F005F0ED800213
:02049500C3138F
:0A049700D5F0FB5407F529854AF063
:0604A10005F0E5248002D5
:0204A700C3137D
:0904A900D5F0FB5401FDB4010083
:0B04B200E433FD6016854AF005F0E51C
:0304BD0025800295
:0204C000C31364
:0B04C200D5F0FB5401FDBD01028004D9
:0404CD00C2188002CF
:0204D100D2183F
:0504D300A2189202E5F1
:0504D8004A243FF987F2
:0804DD002AE54AC31324CE9066
:0C04E5001D0093FD7401554A75F004A43D
:0704F100F5F005F0ED8002BB
:0204F800C3132C
:0D04FA00D5F0FB540FFD24F55003020963FB
:07050700ED2D2D90050E7390
:07050E0002096302052F0240
:06051500054F0205520231
:06051B00062A0206D402CC
:060521000963020634022A
:06052700063702073A024C
:02052D00087B49
:08052F00A20292F085F0238581
:080537004A82120B89740825A9
:09053F004AF582A20292F085F057
:0505480023120B8902E3
:02054D00096340
:03054F000209633B
:0A055200E54A254A25E024D8FDF50E
:0C055C008275831DE4935430FCC4540FDE
:09056800F54B7401B54B02800E45
:070571007402B54B02800B80
:070578007403B54B29800854
:04057F00C201802312
:04058300D201801F02
:0C058700C0057408254AF582121032AA43
:0E05930082AB83ACF0FD630201EA4B4C4D24B9
:0505A100FF9201D005EE
:0A05A60030025A8D8275831DE49324
:0C05B000FC30E313A201E433FC2480F5CE
:0405BC002AE54A24BE
:0705C00036F87680020963A2
:0C05C700A201E433FB7C00C003C00485EB
:0A05D3004A82120EC515811581E55C
:0505DD004A2436F9E597
:0805E2004A254A25E024D690C9
:0905EA001D00932480F7E54A246A
:0505F3002DF8A629A26D
:0905F80001E433FC2480F52A0221
:0206010009638B
:0A060300E52A30E418A201E433FBFD
:0C060D007C00C003C004854A82120EC5A8
:070619001581158102096340
:08062000E54A2436F8760002D9
:02062800096364
:0A062A00754BFF7E01A87C087600E6
:0306340043060278
:09063700434B1F430604E54A256C
:0A0640004A25E024D5FDF5827583FC
:0C064A001DE49354040303543FFCED0432
:0E065600901D0093548023235403FB42043074
:090664000237EC20E003020963F7
:0C066D0074022D901D0093FBE54B52031E
:0E067900C0068B8212096FAA82AB831581A87E
:0A0687007C08E6254AFFC002C0030C
:0C0691008F82120EC515811581020963CD
:03069D00BC02009C
:0506A000500302096394
:0C06A500EC2D901D0093FFE54B5207C0A8
:0D06B100068F8212096FAE82AF831581A8FB
:0A06BE007C08E6254AFBC006C007D1
:0C06C8008B82120EC5158115810209639A
:0A06D400E54A254A25E024D5FDF58E
:0B06DE008275831DE493FF740C5FF530
:0706E9004B3002267404B53A
:0506F0004B0302096349
:0E06F50074022D901D0093FF53077F7E00C0FE
:0C07030007C006854A82120EC51581153C
:04070F0081020963F7
:0907130074FC254B40030209634C
:0E071C0074032D901D0093FF53077F7E00C0D5
:0C072A0007C006854A82120EC515811515
:0407360081020963D0
:09073A00E54A254A25E024D5908A
:0C0743001D0093FFFDE54A24FE4049ED37
:06074F0030E0032002125D
:0A07550074025DFFA202B39218E4E3
:08075F0033FE5F700302096321
:0A076700E54A254AFF2419F987032B
:0D077100098706C3EB94FFEE94FF400302DE
:02077E0009630D
:0E078000EF2419F98706098707190EBE00013C
:01078E000F5B
:08078F00A70609A70702096390
:0B079700E54A24FE25E025E024D59073
:0B07A2001D0093FFFD30E20320020F5A
:0A07AD0074085DFFA202B39218E485
:0507B70033FE5F604409
:0B07BC007402B54A22E4F519F51A900A
:0B07C7001DD6E493FF74804FF53690C0
:0E07D2001DF6E49354F0C4540FFF74804FF5ED
:0307E0002D801D4C
:0E07E300E4F51BF51C901DD6E493FF74804FC7
:0C07F100F537901DF7E493FF740F5F4490
:0307FD0080F52E56
:0C0800005305F07C00300220BD40028057
:01080C0003E8
:03080D00BD6002C9
:020810007C1159
:05081200BD800280031F
:03081700BD90028F
:02081A007C1050
:05081C00BDC0028003D5
:03082100BDF02205
:040824007C12801EA4
:05082800BD1002800379
:03082D00BD900279
:020830007C1139
:05083200BD200280035F
:03083700BD60029F
:02083A007C1030
:05083C00BD3002800345
:03084100BDF00205
:020844007C1224
:0C084600BC1215854A82121032AA82AB47
:0C08520083AEF0FF6302014302108A0431
:06085E00EC7003020963C7
:0C08640074015CFF7E00C007C006854ADE
:0B08700082120EC5158115810209637C
:09087B00E54A254A25E024D59048
:0B0884001D0093FFFD30E00320021276
:0A088F0074025DFFA202B39218E4A8
:0808990033FE5F7003020963E6
:0A08A100C005E54A254AFF2419F9B5
:0B08AB008703098706190BBB00010E34
:0C08B600A70309A706E54A241EF907E77E
:0C08C20074022549901D0093FB7E007419
:0C08CE00032549901D0093FA7D002EFECA
:0E08DA00ED3BFBEF2419F98705098707C3EDF5
:0E08E8009EEF9BD0054050ED23235403FCBC33
:0C08F6000312854A82121032AB82AD83DF
:08090200AEF0FF6303018B045A
:05090A00BC02027C00AC
:0C090F007F00C004C007854A82120EC59C
:0B091B00158115817408254AF5821231
:090926001870E54A241EF8760061
:0A092F00208EFDE54A254AFF241939
:06093900F87600087600CC
:0A093F00E54A241EF98707E5490484
:0D094900901D0093FEC3EF9E401074082522
:070956004AF582121870E55A
:06095D004A241EF876009A
:06096300E54A243FF8A65E
:010969002A63
:05096A001581D07C2284
:0A096F00C07C85817CAF82E4FEFCB1
:0C097900FDE57C24FDF8B604247E038F0D
:0E098500027B00C007C006C002C003900271D2
:0E099300121C11AA82AB8315811581D006D0EB
:0509A100078A048B052C
:0C09A600E57C24FDF8B6060CEF75F0644B
:0809B200A4FAABF08A048B05E6
:0C09BA00E57C24FDF8B607068F047D00E4
:0209C60080139C
:0209C8008E0798
:0E09CA00ED54F8600AEDC313CC13CCFD0F8082
:0109D800F12D
:0209D9008F0687
:0E09DB00EEC40354F8FFE42CFCEF3DFD8C82CB
:0509E9008D83D07C228B
:0D09EE0075D16075D20E75D3A075D161056D
:0609FB002BE4B52B020500
:010A01002CC8
:0A0A0200E52B24FFFEE52C34FFFF76
:0B0A0C00EEF4FEEFF4FFE52B5206E5D0
:050A17002C52077D00D8
:030A1C00BD10000A
:080A1F005032EE30E0247C00AF
:030A2700BC090007
:0C0A2A00501DEC242DF9870353030FEB43
:0C0A3600B5050DEC2436F9E7FB247F50D9
:040A420003EB14F7B7
:030A46000C80DE43
:0A0A4900EFC313CE13CEFF0D80C9DA
:020A53007F0022
:030A5500BF0800D7
:050A58004003020B88C1
:080A5D00EF243FF9872AEF2482
:090A650036F98706BE8002800309
:030A6E00020B84F4
:080A7100E52A20E703020B1740
:0C0A79007401552AFE7D0074082FF582E0
:0E0A8500C007C006C005120EC515811581D030
:0E0A930007EF2F25E0FE24D7901D0093FE24D0
:0C0AA100FC506DEF242DF98F047D000C3B
:040AAD00BC00010D7B
:0E0AB100EDA2E713CC13CC74FA2C901D009329
:0E0ABF00FD74015F640175F004A4F5F005F00C
:030ACD00ED8002B7
:020AD000C3134E
:0E0AD200D5F0FB5407F774075F2408F582C0C7
:0E0AE00007C006121032AA82AB83ACF0FDD024
:0C0AEE0006D007EA4B4C4D24FF9218EF95
:0A0AFA00243FF9A218E433FD430580
:0C0B040010A705EF2436F974802EF7804E
:010B100006DE
:060B1100EF2436F8760027
:0A0B17007450552AFEBE1006EF24AC
:040B21003FF8760023
:0A0B2500E52A705BEF242DF9870626
:0C0B2F00530680BE804FEF2436F8EF2FF5
:0E0B3B0025E024D6901D0093FE74804EF68FA8
:080B4900057E000DBD00010E48
:0E0B5100EEA2E713CD13CD74F62D901D009388
:0E0B5F00FE74015F640175F004A4F5F005F06A
:030B6D00EE800215
:020B7000C313AD
:0E0B7200D5F0FB44C0F774082FF582C00712BF
:040B80001870D00712
:040B84000F020A55FD
:010B8800224A
:0E0B8900AF8274075F25E025E024D7901D00A1
:050B970093FEBF080001
:070B9C004005EEC4540FFEFA
:090BA300301806EE0303543FFE76
:0E0BAC00530603EE602BBE03158F82C00712A6
:0E0BBA001032AA82AB83ACF0FDD007630201BB
:020BC8008004A7
:040BCA0074015EFA5A
:0E0BCE007E00C002C0068F82120EC515811572
:010BDC008197
:010BDD0022F5
:0C0BDE00AF82901DD2E493FE601B7D00EE
:070BEA00C3ED9E50147C7066
:070BF100EC60047B018002AF
:020BF8007B0080
:060BFA00EB60031C80F11A
:030C00000D80E77D
:0C0C0300E5256580F4FEEF901C37935E41
:030C0F00F5822249
:0A0C1200C07CE581F57C2404F58127
:0D0C1C00AF82901D12E4932F2F2F2404901F
:070C29001D0093FEBF100047
:050C30004003020CB7B7
:0C0C3500EE24F94026743F555AFD7C0067
:0E0C41007B007A00C007C006C005C004C003D7
:0E0C4F00C0028F8212112EE58124FCF581D0A7
:030C5D0006D007B7
:0C0C6000BE0723AA5B7B007C007D00C067
:0E0C6C0007C006C002C003C004C0058F82127C
:0C0C7A00112EE58124FCF581D006D00786
:050C8600BE080280031E
:030C8B00020D5CFB
:0A0C8E00AD5C7E00AB5B8B04E42D2F
:0E0C9800FDEC3EFE3395E0FCFBC005C006C03F
:0E0CA60004C0038F8212112EE58124FCF5811B
:030CB400020D5CD2
:0C0CB7007401555AFA8F82C007C0021267
:0C0CC3001032A87C08A68208A68308A6B0
:0E0CCF00F008F6D0028A047D007E007F00A8A7
:0C0CDD007C08E6620408E6620508E66296
:0E0CE9000608E66207EC4D4E4FD00760668AA3
:0E0CF700037C007D007E00C007C002C003C069
:0E0D050004C005C0068F8212112EE58124FC69
:0E0D1300F581D002D00774075F25E025E024AB
:0E0D2100D5901D0093FE53060374015EFD6223
:0E0D2F0002EE6029EA601074075F901C379393
:090D3D00FE74FFC39E5228800AD7
:0A0D460074075F901C3793FE4228EB
:0C0D5000530707C0028F82120D6215814C
:060D5C00857C81D07C22A1
:080D6200C07C85817CAF82C2D8
:0C0D6A00187EFFEFC31324CE901D0093F1
:0E0D7600FD74015F75F004A4F5F005F0ED804A
:010D8400026C
:020D8500C31396
:0B0D8700D5F0FB540FFDBD0102800FF2
:060D9200BD0203020E8504
:060D9800BD0303020E2260
:030D9E00020E85BD
:0E0DA100EFFE25E025E024D5901D0093FDE532
:0C0DAF007C24FDF874016675F002A4F5C8
:060DBB00F005F0ED8002DE
:020DC100C3135A
:0B0DC300D5F0FB540CFDBD0402800ABB
:050DCE00BD0802800ACF
:050DD300BD0C48800A80
:050DD800D218020E8597
:050DDD00C218020E85A2
:0C0DE200E57C24FDF8E660178FF005F0BA
:040DEE00E524800276
:020DF200C31329
:0B0DF400D5F0FB5401FD24FF92180213
:020DFF000E855F
:0E0E01008F82C006121032AA82AB83ACF0FDC5
:0C0E0F00D006630201EA4B4C4D24FF9218
:030E1B00188067D5
:040E1E007EFF806370
:0E0E220074082FFEEF2F25E024D5901D0093BD
:0C0E3000FDE57C24FDF874016675F002FD
:080E3C00A4F5F005F0ED8002C1
:020E4400C313D6
:0B0E4600D5F0FB540CFDBD0402800A37
:050E5100BD080280094C
:050E5600BD0C2A80081C
:040E5B00C218802613
:040E5F00D218802203
:0E0E630074082FF582C006121032AB82AC83E9
:0E0E7100ADF0FFD006630301EB4C4D4F24FFA4
:040E7F009218800243
:020E83007EFFF0
:0C0E8500EE24EF402DA218E433FB7C00AB
:0E0E91007D007F00C006C003C004C005C0077E
:0D0E9F008E8212112EE58124FCF581D00613
:0B0EAC008E82C006121870D00650F5B0
:030EB700D07C22CA
:0B0EBA00AF8274402FF58212187022E6
:080EC500C07C85817CAF82E551
:0C0ECD007C24FCF886030886047D007E6F
:0E0ED90000C007C003C004C005C0068F82120F
:0D0EE700112EE58124FCF581D0078F8212C9
:050EF4001870D07C2203
:070EF900C2187528007F00FC
:030F0000BF080027
:050F0300400302103163
:0C0F08007E00EF2436F97700EF2408F893
:0E0F14007600EF2410F87600EFC31324CE9081
:0E0F22001D0093FD74015F75F004A4F5F00549
:040F3000F0ED80025E
:020F3400C313E5
:0B0F3600D5F0FB540FFDBD010280133D
:050F4100BD0202804F1B
:050F4600BD0302800F55
:060F4B00BD0903020FB90D
:030F5100020FD1BB
:060F5400EF243FF87600D7
:0E0F5A00EF2F25E024D5901D0093FD5305C018
:050F6800BD4002800AFB
:050F6D00BD8002800BB5
:050F7200BDC05C800C15
:060F7700D2187E01805437
:060F7D00C2187E01804E47
:080F83008FF005F074018002FB
:020F8B0025E05F
:080F8D00D5F0FBFD6224803C5D
:0E0F9500EF2F25E0FD24D7901D0093FC30E7E0
:050FA30004C2187E01EC
:0C0FA80074D82D901D0093FD30E71ED280
:050FB400187E01801809
:0C0FB900EF24FE40137780EF242DF87623
:0C0FC50080EF2FFD2419F876000876005C
:0C0FD100EE6035A218E433FB7C007D00CC
:0C0FDD007E00C007C023C003C004C00594
:0E0FE900C0068F8212112EE58124FCF581D006
:030FF70023D007FD
:0A0FFA008F82C007C023121870D0C8
:0510040023D00750F1AC
:0E100900EF2F25E024D5901D0093FE53060323
:0D101700BE020AEF901C3793FE42188009BC
:09102400EF901C3793F4FE521802
:04102D000F020F009F
:01103100229C
:0A103200C07CE581F57C2404F58103
:0D103C00AF82901D12E4932F2F2F240490FB
:0C1049001D0093FEEF24F050030210F194
:03105500BE0800D2
:051058004067BF080025
:0E105D004023EF24F6401E74015F25E02419A5
:0C106B00F98704098705A87C08A6040882
:0B107700A60508760008760002111B99
:0E10820074075FFE2410F987078F057F00A812
:0C1090007C08A60708A605ED3395E008D3
:0E109C00F608F6EE2408F987078F037C007D26
:0C10AA00007F00A87C08EB26F6EC08365E
:0B10B600F6ED0836F6EF0836F6805A1B
:0E10C100EF2408F987077D007407C39EFEE444
:0A10CF009DFD8EF005F074FF800215
:0210D900C3133F
:0C10DB00D5F0FBFE5207A87C08A6070811
:0A10E7007600087600087600802AE3
:0E10F1008F067F00EE24F0FEEF34FFFF8EF03E
:0610FF0005F0E518800277
:02110500C31312
:0C110700D5F0FB5401FFA87C08A60708E7
:08111300760008760008760062
:0C111B00A87C0886820886830886F008FD
:07112700E6857C81D07C22EB
:08112E00C07C85817CAF82903A
:0E1136001D12E4932F2F2F2404901D0093FE12
:08114400EF24F04063BE080037
:05114C004049BF08004E
:0E115100401EEF24F6401974015F25E02419BA
:0C115F00F9E57C24FAF88605088606A74E
:06116B000509A706806DD6
:0C11710074075FFE2410F9E57C24FAF8F6
:0C117D00088605A705EE2408F9E57C248F
:0E118900FAF886037C007D007E00A7038047F5
:0C119700EF2408F9E57C24FAF886037CBC
:0911A300007D007E00A7038032EC
:0E11AC00EF24F0FF901C3793FE74FFC39E5299
:0C11BA0018E57C24FAF8740156FB7C0058
:0B11C6007D007E008FF005F0EB800242
:0211D10025E017
:0B11D300D5F0FBFFE518FE42078F1867
:0311DE00D07C22A0
:0E11E1007584FF7585007580FF75D181E4F57A
:0411EF002BF52C228E
:0E11F300C0E0C0D0C2AAC28E740F558924205D
:0E120100F589758B35758D80C28FD28ED2AB7C
:06120F00757602C205D253
:05121500037575007572
:09121A007400D204D0D0D0E032FF
:0C122300C023C0E0C0F0C082C083C00740
:0E122F00C006C005C004C003C002C001C0005C
:0A123D00C0D075D000C07CE581F53B
:0A1247007C2404F581E576FF24F114
:051251005003021786A6
:07125600EF2F2F90125D73D2
:07125D0002128A021786024B
:0612640015200215E00256
:06126A0015E902167302F3
:061270001786021786023A
:0612760017860217860234
:06127C0016950216FD02AA
:061282001786021721028D
:02128800176FDE
:0E128A00C28E740F55892420F589758B8075EE
:0A1298008D80C28FD28EE578B57903
:0412A2000302151915
:0812A600E579246AF98707C20B
:0C12AE00187DFE7E00EFA2E5E433FC2476
:0612BA00FF9219BF800045
:0512C00040030213EDE4
:0C12C500C005C006EF2323540124FF9253
:0B12D1001A53071F8F82C007C005C022
:0C12DC0023121032AA82AB83ACF0FED0CB
:0A12E80023D005D007A87C08A60259
:0E12F20008A60308A60408A606901D11E493A2
:0E130000FE0EEF2FFD2EFC04901D0093FEB597
:04130E00070280064C
:06131200D006D005800F9B
:0E131800D006D0058C8275831DE493FCFD7E0B
:0113260000C6
:09132700BDFE06BE00030214C85D
:0A1330007553BC901D17E493FC8C6C
:0A133A0054901D18E493FC8C55ED4F
:0C1344002DFD2417901D0093FE8E5674A2
:0A135000182D901D0093FE8E5775B6
:06135A005900301A057570
:041360005A4080036C
:03136400755A8037
:0E136700901D12E4932F2FFE2F2404901D00E2
:0C13750093FE24F95006EE24FBFE8002DB
:021381007E01EB
:0C13830074E02EF558EE24FE500F7406A6
:0A138F002E2453F9A87C088605A758
:03139900058010BC
:0C139C00A87C08743F56FAE4FBFCFDEA54
:0413A800255AF55A73
:0C13AC00EE24FD500E74052E2453F9A809
:0713B8007C08088605A7056B
:0C13BF00EE24FC500F74042E2453F9A8F7
:0813CB007C0808088605A7054F
:0C13D300EE24FB501074032E2453F9A8E4
:0913DF007C080808088606A70630
:0513E800D2180214C838
:0A13ED007553B0901D17E493FE8EB7
:0A13F70054901D18E493FE8E5585F6
:031401004C5685C1
:0A1404004D5753071FEF24FA500361
:03140E000214C6FF
:07141100EF2F2F9014187358
:071418000214C602142A02AF
:06141F00143602144D0218
:05142500145E0214BE7C
:08142A0075586074C22552F5EB
:04143200590214C681
:081436007558637443254EF55F
:05143E0059755A4075CC
:061443005B00755C12D293
:04144900110214C6B2
:07144D00755600755700758C
:0614540058E17559017515
:04145A005A4080680C
:02145E007F000D
:0A146000C3EF954F503CE550702695
:0A146A00740A2F2453F87600AD51E8
:0E1474007E008F037C00EB2DFDEC3EFEBD6084
:0B1482001CBE0019740A2F2453F8A6AA
:03148D007A800F53
:0A149000740A2F2453F9EF25519040
:05149A001D0093FEF7A8
:03149F000F80BEFD
:0914A2007463254FF558744245AE
:0614AB004EF559744045A6
:0414B1004FF55A8514
:0314B500505B8504
:0314B800515CD2B2
:0314BB0011800895
:0714BE00755860755981C2E9
:0114C5001016
:0214C600D2183A
:0814C80030190674DF5553F5DD
:0114D00053C8
:0A14D10030183DC2AAE5767032E53E
:0A14DB0079246AF9E7FF20E50774A1
:0614E500204FF7757700AF
:0B14EB0074FC257740051217D880160E
:0614F6000579537907C2DD
:0414FC000DC21112FA
:0C15000017AAC28E758DF0758B00D28E7C
:05150C00D2AA021786BF
:0615110005795379070281
:02151700178635
:07151900C28ED2AA02178660
:0A152000A28BB39218C28B757603FC
:0A152A00758D00E575700A757501F6
:05153400C206C207021F
:02153900178613
:0A153B00747F2575401C301808B2BB
:0415450005E575251E
:0315490074F574C2
:05154C00E5752575F5B1
:061551007560030217861D
:0615570075758102178684
:0A155D00C28EC28FA205201801B350
:0A156700502CE572700E74CCB574C0
:0315710002D2069D
:07157400740CB57402D207EC
:07157B00200619200716E508
:081582007224E94010E5722417
:06158A0053F8E574F6625F
:051590007305728002EA
:02159500C2038F
:05159700100D02801D93
:07159C003006143003117545
:0715A300770410110280091A
:0715AA00E54E2404F54E5349
:0215B1004E3CAE
:0615B3001217AA021786C0
:0715B90030031E20061B2079
:0C15C0000718740F55892410F589758DEB
:0C15CC00FA758B70D28E757604D2AA02DC
:0215D800178674
:0615DA001217AA02178699
:0915E000758D80757602021786F4
:0615E900200B0302166D49
:0C15EF00E57224F85078C28E740F558904
:0D15FB002410F589758DEF758B42D28EC2DC
:0716080008E55830E71F85DB
:05160F005682C05712D5
:0B1614001822AF821581BFFF02800288
:02161F00D208EF
:09162100E556701CE5577018D263
:03162A0008801421
:0C162D00901D17E493FFB5560B901D189C
:08163900E493FFB55702D2084B
:0A16410074FFB57321740F5558FFB4
:0C164B007E0074082FFFE43EFEAC727DB0
:0C16570000EFB5040BEEB50507D2123011
:041663000802D2099E
:06166700757605021786EE
:06166D001217AA02178605
:09167300C28E30121330080AD2B5
:05167C000E1217D8C298
:041681000D021786B9
:061685001217AA021786ED
:06168B00D20F1217D8C2B5
:041691000D021786A9
:08169500E5722453F9870730C8
:04169D000E027FCCEE
:0516A100300F027F0C78
:0916A600C2AA740AB576028003A1
:0316AF0002178699
:0A16B200E575247F402CE5755F709C
:0916BC0008D296C20CB2058002AE
:0216C500D20C45
:0816C700E5757007757501C29D
:0316CF000580068D
:0516D200E5752575F52A
:0116D700759D
:0716D800E5757003757581D3
:0516DF0075760B80137D
:0916E400200506D296C20C80021A
:0216ED00D20C1D
:0616EF000572757500751F
:0216F500760D70
:0616F700758D120217863A
:0A16FD00E57270077401B57502056F
:01170700776A
:0A170800C296A20C828B5007C20D9E
:051712001217AA800679
:0617170075760A758D6E67
:04171D00C28B806596
:0E172100C296C28E740F55892410F589758DFD
:0A172F00FB758B90D28E200E033064
:021739000F059A
:05173B001217AA802B2B
:0C174000740F5558FF7E0074072FFFE463
:0C174C003EFEAC727D00C3EF9CEE64809A
:0C1758008DF063F08095F05007D20A126B
:0417640017AA80033D
:0317680075760E85
:04176B00C28B801796
:0E176F00C28E740F55892420F589758D6E7514
:09177D008B80C28FD28E75760AB2
:06178600D204857C81D035
:0C178C007CD0D0D000D001D002D003D01F
:0E17980004D005D006D007D083D082D0F0D088
:0417A600E0D023323A
:0A17AA00757600C28BC28EC2AB75CB
:0A17B4007300757200C28E740F55A9
:0C17BE00892410F589758D89758BAFC2E8
:0A17CA000EC20FC28FD28ED2AAD237
:0417D400ABC2122270
:0E17D800C28E740F55892420F589758D6E75AB
:0C17E6008B80C28F740F55582407FF75CC
:0417F20073FF7E0003
:0C17F600C3EE9F500BEE2453F9E7FD6298
:04180200730E80F0F1
:07180600EF2453F8A673C2A2
:04180D0006C207D236
:051811000D75760A755B
:0A1816007500757200C2AAD28ED2CE
:02182000AB22F9
:0A182200C07C85817CAF827EFF90C0
:08182C001D16E493FDBDFF0051
:0E1834005035901D16E493602E901D16E4931F
:02184200FD1D8A
:0E184400ED6024ED2DFC2417901D0093FBEFAA
:0C185200B5031374182C901D0093FCE5E6
:0A185E007C24FDF8E6B504028D06B7
:031868001D80D907
:05186B008E82D07C22FA
:07187000AF82C218BF400067
:0C187700501B8F82C007C023121BAEE57F
:0C18830082D023D0075444FEBE440280F3
:01188F000454
:04189000D218802AC0
:09189400AD787E000DBD00010ECF
:0C189D005305077E00AB797C00EBB5051D
:0718A90006ECB50602800EFB
:0818B000E578246AF8A607059B
:0518B80078537807D20F
:0118BD001812
:0518BE00D28EA21822E9
:0A18C300C07CE581F57C2404F5816A
:0918CD00C209AF5974C35FFEA803
:0518D6007C08A65AE5A4
:0918DB0056FC7049E5577045E523
:0718E4007A20E003021BA8BB
:0918EB00EE7020A87C08B6C01ABA
:0C18F400E57670FCC2AF75E40075E71DDE
:0A19000075E617855BE5855CE5756B
:04190A00E468D2AF0C
:05190E00BE0102800390
:03191300021BA80C
:09191600A87C08E66003021BA88E
:09191F00758283121870021BA8E6
:08192800E55830E703021AF351
:0C193000901D17E493FBECB5030280034C
:03193C00021BA8E3
:0B193F00901D18E493FBB557028003D5
:03194A00021BA8D5
:08194D00757B00BE4202801B05
:06195500BE4303021A87E5
:06195B00BE8003021AAD7C
:06196100BE8103021ACF53
:06196700BE8303021AE832
:03196D00021BA8B2
:06197000201003021BA879
:0A197600743C5FF552A87C08E654AB
:0A198000F0F6A87C08B68002800390
:03198A00021A66D8
:0B198D00758281121870740F555AFF0C
:0A199800E57670FCC2AF75E400AA0A
:0A19A2005B74015A241CFCAE5CA823
:0519AC007C0808760034
:0C19B100A87C0808C3E69F4003021A61EE
:0C19BD00EA703CC002E57C2403F8A6069A
:0C19C900087600A87C080886037D00E575
:0C19D5007C2403F8EB26FBED0836FDBB7C
:0719E1006005BD0002800457
:0419E800D002802683
:0A19EC00D002A87C0808740A262423
:0619F60053F9877A801608
:0B19FC008CE7A87C0808E62EF5E6A8A2
:0A1A07007C0808740A262453F987AE
:011A1100E5EF
:0A1A12008E037D00A87C0808E57C27
:0C1A1C002403F9E6F7097700E57C2403B9
:0E1A2800F8E62BFB08E63D53033F7D00BB3F75
:0D1A360022BD001F8F037D001BBBFF011DA3
:0C1A4300E57C2403F8E6B5030708E6B5CF
:041A4F000502800606
:061A530075E46875E40073
:081A5900A87C0808060219B17F
:051A610075E468D2AF3E
:091A6600A87C08E66003021BA83D
:041A6F00855A4F85C0
:031A73005B508540
:061A76005C517582811233
:091A7C00187075828412187002C2
:021A85001BA89C
:0A1A8700743C5FF552A87C08B6809D
:041A91000343A20861
:091A9500A87C08E66003021BA80E
:0D1A9E007582811218707582821218700214
:021AAB001BA876
:061AAD00301003021BA82B
:041AB300D210855474
:031AB7004C855506
:051ABA004D754E00C255
:0C1ABF001175D16075D20B75D3B375D1D1
:041ACB0061021BA8F1
:071ACF00E554B54C02800351
:031AD600021BA848
:071AD900E555B54D02800345
:031AE000021BA83E
:051AE300C210021BA867
:091AE800758285121870C210020B
:021AF1001BA830
:061AF300EE6003021BA8D7
:0C1AF900C0578C82121822AF821581BFEA
:051B0500FF03021BA814
:0E1B0A00901D11E493FEF58275831DE4932572
:0C1B1800E02EFD0EA87C0874C056FCE412
:041B2400BC8001047C
:011B2800FCC0
:081B2900C3EE9D4003021BA85E
:0E1B31008E8275831DE493FBEFB50366EE0410
:0E1B3F00901D0093FBF582C007C006C005C0D4
:0E1B4D0004C003121BAEAA82D003D004D00540
:0E1B5B00D006D007EC602EC00474145AFCBCF7
:041B690014028004DE
:041B6D00D004801F01
:0E1B7100D0048B82C007C006C005C004C003AC
:0E1B7F00C002120C12D002D003D004D005D048
:031B8D0006D00778
:0C1B9000A87C08E6700D53020CBA0C0C87
:071B9C008B82120EBA8005D6
:051BA3000E0E021B29DB
:061BA800857C81D07C2247
:0E1BAE00AF82901D12E493FE0E0E0EEF2E2F4E
:081BBC002F901D0093F5822219
:0E1BC40075950075911475924CC29675892125
:0E1BD200758F00C28CC28E758D80758B80C29F
:0C1BE0008FC20475A88075E80075B80479
:0A1BEC0075B70CD28A757A2EC20676
:051BF600C207C20EC28F
:041BFB000FC209D23A
:051BFF000B7578007574
:061C04007900754E00C2DC
:041C0A0011C21012E1
:031C0E0017AA22F0
:06005200E478FFF6D8FD82
:080030007900E94400601B7A2D
:0500380000901C3F7860
:03003D000075A0AB
:0A00400000E493F2A308B8000205E3
:08004A00A0D9F4DAF275A0FF61
:0E1C110074FE2581F8E68582F0A4C0E085828D
:0E1C1F00F018E6A4F582D0E025F0C58386F02B
:061C2D00A42583F58322CB
:080058007800E84400600A7919
:030060000075A088
:0600630000E4F309D8FCE3
:080069007800E84400600C7906
:0B00710000900000E4F0A3D8FCD9FAD6
:0300230075817C68
:0A002600121C33E582600302001E85
:041C33007582002294
:00000001FF
