:060085007F00D282C2855B
:09008B00300406C282D282C204D4
:020094007E00EC
:0E009600EE24F84012C280EF2FFF3081010FE0
:0900A400A2819283D2800E80E952
:0A00AD002004DBC282D2858F82227C
:0400000002002332A5
:01000B0032C2
:03001300021221B5
:03001B000212517D
:0300820002001E5B
:05001E001200B780FE96
:0800B700C07C85817C0581A855
:0900BF007C0876007E00C218C224
:0A00C80019E5A7035401FD24FF927F
:0A00D2001AD297209707301A047D18
:0300DC000080079A
:0700DF00901CFFE493FCFDFF
:0E00E600901CFFE493AB962BFC8C9653963F38
:0C00F400C297C006C005C023121BF2D04A
:0C0100002353BDFE75985043BAE043BD88
:0E010C000275BF2F75BEF043BD01759955C039
:05011A002312120FD0BA
:0A011F0023D005D006201A527B0001
:020129007C0058
:0E012B00C005901DD4E493FA7D00901DFEE403
:0B01390093C4540FFF8FF005F0800608
:06014400EA2AFAED33FD8A
:0E014A00D5F0F7C3EA9BED9CD005402375D19C
:0A0158006075D21D75D34075D161AA
:0E016200E5D1248050FAC2AF75C2A575C35A0C
:09017000D2AF0BBB00B50C80B24C
:0E01790075C1FFC2AF75A7E575C2A575C35A63
:0E018700D2AFC2AF43A70475C2A575C35AD24A
:01019500AFBA
:0E019600C2AF75C2A575C35AD2AFC2AF75C253
:0E01A400A575C35AD2AF901D0DE493FFBFFFA7
:0301B200028003C5
:0301B500020278CB
:0601B80030100302027882
:0801BE00E57A30E0030202784B
:0B01C600C006C005C023120085858222
:0801D10025D023D005D0062043
:0401D9001917852548
:0901DD0024201A0FC006C005C061
:0501E60023120F27D0D9
:0501EB0023D005D00641
:0201F000D21922
:0701F200E524B52502803968
:0701F900E5246525FFEE90EF
:0C0200001C4393FC5F6016EC5528701145
:0C020C008E82C006C005C023120356D02D
:0502180023D005D00613
:09021D00EE901C4393FF552542AD
:0702260024EFF4FF4525520F
:05022D00240E5306073A
:0C023200748025D1500FC006C005C02309
:09023E001208DDD023D005D00622
:020247007F0036
:0C024900EF24FE4052EF243FF9E7702044
:0C025500EF242DF9870474405CFBBB40D3
:0C02610013208E10EF2FFB2419F87600FC
:08026D000876005304BFA7044A
:030275000F80D126
:0C027800748025D1502230101F75D16118
:0A028400E57B24914004057B801205
:0C028E00758285C006C005C02312189EB2
:06029A00D023D005D006C0
:0602A000200903300A15DD
:0902A600C209C20AC006C005C06D
:0502AF00231218F1D03C
:0702B40023D005D006800AEB
:0202BB007F645E
:0802BD008F041C8C07EF70F8A0
:0502C500109802804AC0
:0502CA00AF99BF6308BD
:0502CF0010990280FB04
:0302D400759955C4
:0602D700BF2B0315961D6C
:0602DD00BF2D0305960D84
:0E02E300BF7712C2AF75E40075E71C75E6FF29
:0702F1008DE575E468D2AF52
:0602F800BF7003637A8170
:0302FE00BF7608C0
:0503010010990280FBD1
:0303060075990BDB
:03030900BF7408B6
:05030C0010990280FBC6
:0303110075990CCF
:0B031400D297209718A87C08B6FF00C5
:08031F005006A87C08068018B6
:06032700201803637A8137
:04032D00D218800E54
:0A033100A87C08E66006A87C081608
:02033B0080023E
:02033D00C218E4
:08033F00E57A5401FFB401004E
:0D034700E433FF24FF92970201961581D048
:020354007C2209
:081C430001020408102040809A
:021D03000004DA
:011D0C0000D6
:011D0D00FFD6
:021D1700FFFFCC
:05007C00C200C201C238
:01008100027C
:0703560085824AE4F529F558
:04035D004BE54A25FD
:080361004A25E0F54824D5F51A
:0503690049854A8212E3
:09036E000B9CE58270030208DC1F
:09037700AE4A7F000EBE00010F2A
:0E038000EFA2E713CE13CE74F62E901D00935D
:0C038E00FF7401554A640175F004A4F5E9
:06039A00F005F0EF800207
:0203A000C31385
:0A03A200D5F0FB5407F529854AF059
:0603AC0005F0E5248002CB
:0203B200C31373
:0903B400D5F0FB5401FFB4010077
:0B03BD00E433FF6016854AF005F0E510
:0303C8002580028B
:0203CB00C3135A
:0B03CD00D5F0FB5401FFBF01028004CB
:0403D800C2188002C5
:0203DC00D21835
:0503DE00A2189202E5E7
:0503E3004A243FF987E8
:0803E8002AE54AC31324CE905C
:0C03F0001D0093FF7401554A75F004A431
:0703FC00F5F005F0EF8002AF
:02040300C31321
:0B040500D5F0FB540FFFBF0102801B6D
:06041000BF020302048D8F
:06041600BF03030205D440
:06041C00BF09030206AC5B
:06042200BF0A030207ED12
:030428000208D5F2
:08042B00A20292F085F0238586
:060433004A82120B47850E
:0A043900498275831DE493FF530709
:070443000CBF0403200206B8
:06044A00BF08262002237A
:06045000E54A2436F9E53F
:0A0456004904901D00932480F7E58F
:070460004A242DF87600A2EA
:0A04670002E433FE4306208E2A0251
:0204710008D5AC
:0A047300E54A2436F87600740825E7
:09047D004AF582A20292F085F01A
:0504860023120B4702E8
:02048B0008D592
:06048D0020020302051627
:08049300E54A2436F974D7256F
:0C049B0048901D0093FE747F5E2480F7E3
:0604A700E54A242DF8A631
:0804AD00297408254AF58212AA
:0E04B5001060AB82AC83ADF0EBA2E3E433FB4E
:0904C30024FF9200854982758333
:0C04CC001DE493FE530670BE0002800A7F
:0504D800BE10028009C6
:0504DD00BE300A80049E
:0404E200B2008006DE
:0404E600D2008002BE
:0204EA00C2004E
:0704EC00300015E549049002
:0D04F3001D00935438C423541FFE2448F507
:040500002A0208D5EE
:0C050400E54904901D0093FE74075E247E
:0605100040F52A0208D5A7
:0A0516007450552AFEBE4054854A79
:0E05200082121060AB82AC83ADF0FEEB4C4D4E
:0A052E004E24FF9200854982758378
:0C0538001DE493FE530670BE1002800507
:05054400BE200A800446
:04054900D200800656
:04054D00C200800266
:02055100B200F6
:0C055300A200E433FD7E00C005C0068558
:0A055F004A82120EF315811581E5A2
:070569004A2436F876000277
:0205700008D5AC
:0C0572007408254AF582121060AB82ACC0
:0C057E0083ADF08B0774D52548901D005C
:0E058A0093FE30E31974085FFE7D00740825AF
:0C0598004AF582C006C005120EF3158162
:0405A4001581801F1E
:0C05A80074085FFEE4FDFCFB7408254AAB
:0E05B400F582C006C005C004C00312115CE54C
:0505C2008124FCF5811D
:0605C700752A00E54A243C
:0705CD0036F876000208D5A4
:0A05D400E54A254A25E024D8FEF58B
:0C05DE008275831DE4935430FDC4540F5B
:0905EA00F54B7401B54B02800EC3
:0705F3007402B54B02800BFE
:0705FA007403B54B298008D2
:04060100C20180238F
:04060500D201801F7F
:0C0609007408254AF582C006121060AA91
:0E06150082AB83ACF0FDD006630201EA4B4CD1
:050623004D24FF9201CF
:0A06280030025A8E8275831DE493A0
:0C063200FD30E313A201E433FD2480F549
:04063E002AE54A243B
:0706420036F876800208D5AE
:0C064900A201E433FC7D00C004C0058564
:0A0655004A82120EF315811581E5AB
:05065F004A2436F9E514
:080664004A254A25E024D69046
:09066C001D00932480F7E54A24E7
:050675002DF8A629A2EA
:09067A0001E433FD2480F52A029D
:0206830008D598
:0A068500E52A30E418A201E433FC7A
:0C068F007D00C004C005854A82120EF3F5
:07069B00158115810208D54D
:0806A200E54A2436F876000257
:0206AA0008D571
:0906AC00E54A254A25E024D59019
:0C06B5001D0093FDFEE54A24FE4049EEC6
:0606C10030E003200212EC
:0A06C70074025EFDA202B39218E473
:0806D10033FC5D70030208D543
:0A06D900E54A254AFD2419F98703BC
:0D06E300098704C3EB94FFEC94FF40030271
:0206F00008D52B
:0E06F200ED2419F98704098705190CBC0001D5
:010700000DEB
:08070100A70409A7050208D5B1
:0B070900E54A24FE25E025E024D59001
:0B0714001D0093FDFE30E20320020FE9
:0A071F0074085EFDA202B39218E414
:0507290033FC5D60449B
:0B072E007402B54A22E4F519F51A9098
:0B0739001DD6E493FD74804DF5369052
:0E0744001DF6E49354F0C4540FFD74804DF57F
:030752002D801DDA
:0E075500E4F51BF51C901DD6E493FD74804D59
:0C076300F537901DF7E493FD740F5D4422
:03076F0080F52EE4
:0C0772005306F07F00300220BE400280E1
:01077E000377
:03077F00BE600257
:020782007F11E5
:05078400BE80028003AD
:03078900BE90021D
:02078C007F10DC
:05078E00BEC002800363
:03079300BEF02293
:040796007F12801E30
:05079A00BE1002800307
:03079F00BE900207
:0207A2007F11C5
:0507A400BE20028003ED
:0307A900BE60022D
:0207AC007F10BC
:0507AE00BE30028003D3
:0307B300BEF00293
:0207B6007F12B0
:0C07B800BF1215854A82121060AA82ABA5
:0C07C40083ACF0FD6302014302108A07C1
:0607D000EF70030208D5E2
:0C07D60074015FFD7C00C005C004854A72
:0B07E20082120EF3158115810208D56C
:0907ED00E54A254A25E024D590D7
:0B07F6001D0093FDFE30E00320021206
:0A08010074025EFDA202B39218E437
:08080B0033FC5D70030208D507
:0A081300C006E54A254AFD2419F944
:0B081D008703098704190BBB00010CC6
:0C082800A70309A704E54A241EF907E70E
:0C08340074022549901D0093FB7C0074A9
:0C084000032549901D0093FA7E002CFC5B
:0E084C00EE3BFBED2419F98705098706C3ED85
:0E085A009CEE9BD0064050EE23235403FFBFBC
:0C0868000312854A82121060AB82AC8340
:08087400ADF0FE6303018B07E8
:05087C00BF02027F0035
:0C0881007E00C007C006854A82120EF3FC
:0B088D00158115817408254AF58212C0
:09089800189EE54A241EF87600C2
:0A08A100208EFDE54A254AFF2419C8
:0608AB00F876000876005B
:0A08B100E54A241EF98707E5490413
:0D08BB00901D0093FEC3EF9E4010740825B1
:0708C8004AF58212189EE5BB
:0608CF004A241EF8760029
:0608D500E54A243FF8A6ED
:0108DB002AF2
:0108DC0022F9
:0D08DD0075D16075D20E75D3A075D161057F
:0608EA002BE4B52B020512
:0108F0002CDB
:0A08F100E52B24FFFEE52C34FFFF89
:0B08FB00EEF4FEEFF4FFE52B5206E5E3
:050906002C52077D00EA
:03090B00BD10001C
:08090E005032EE30E0247C00C1
:03091600BC090019
:0C091900501DEC242DF9870353030FEB55
:0C092500B5050DEC2436F9E7FB247F50EB
:0409310003EB14F7C9
:030935000C80DE55
:0A093800EFC313CE13CEFF0D80C9EC
:020942007F0034
:03094400BF0800E9
:050947004003020B4615
:08094C00EF243FF9872AEF2494
:0909540036F98706BE800280031B
:03095D00020B4248
:0B096000E52A30E52D74082FF582E534
:0A096B002A540124FF921892F0C0F4
:0C0975000785F023120B47D00774075FC2
:0D0981002408F582C007121060D007EF2493
:04098E0036F87600C1
:08099200E52A20E703020A3800
:0C099A007401552AFE7D0074082FF582C0
:0E09A600C007C006C005120EF315811581D0E2
:0E09B40007EF2F25E0FE24D7901D0093FE24B0
:0C09C200FC506DEF242DF98F047D000C1B
:0409CE00BC00010D5B
:0E09D200EDA2E713CC13CC74FA2C901D009309
:0E09E000FD74015F640175F004A4F5F005F0EC
:0309EE00ED800297
:0209F100C3132E
:0E09F300D5F0FB5407F774075F2408F582C0A7
:0E0A010007C006121060AA82AB83ACF0FDD0D5
:0C0A0F0006D007EA4B4C4D24FF9218EF74
:0A0A1B00243FF9A218E433FD43055F
:0C0A250010A705EF2436F974802EF7802E
:010A310006BE
:060A3200EF2436F8760007
:0A0A38007450552AFEBE1002800E15
:050A4200BE400280121D
:060A4700BE5003020AC4C8
:030A4D00020AE3B7
:090A5000EF243FF87600020AE3EE
:0C0A5900AD2A7E0074082FF582C007C093
:0E0A650005C006120EF315811581D007EF248F
:0A0A73003FF9870674104EF7EF24D8
:0C0A7D0036F9EF2F25E024D8901D0093DF
:0C0A8900FE74804EF7EF242DF98F057EDF
:060A9500000DBD00010E82
:0E0A9B00EEA2E713CD13CD74FA2D901D00933B
:0E0AA900FE74015F640175F004A4F5F005F021
:030AB700EE8002CC
:020ABA00C31364
:080ABC00D5F0FB540FF7801F79
:0B0AC400EF2436F9EF2F25E024D89036
:0E0ACF001D0093FE74804EF774082FF582C050
:060ADD000712189ED0076D
:0A0AE300E52A705BEF242DF9870669
:0C0AED00530680BE804FEF2436F8EF2F38
:0E0AF90025E024D6901D0093FE74804EF68FEB
:080B0700057E000DBD00010E8A
:0E0B0F00EEA2E713CD13CD74F62D901D0093CA
:0E0B1D00FE74015F640175F004A4F5F005F0AC
:030B2B00EE800257
:020B2E00C313EF
:0E0B3000D5F0FB44C0F774082FF582C0071201
:040B3E00189ED00726
:040B42000F02094451
:010B4600228C
:0E0B4700AF8274075F25E025E024D7901D00E3
:050B550093FEBF080043
:070B5A004005EEC4540FFE3C
:090B6100301806EE0303543FFEB8
:0E0B6A00530603EE602BBE03158F82C00712E8
:0E0B78001060AA82AB83ACF0FDD007630201CF
:020B86008004E9
:040B880074015EFA9C
:0E0B8C007E00C002C0068F82120EF315811586
:010B9A0081D9
:010B9B002237
:0C0B9C00AF82901DD2E493FE601B7D0030
:070BA800C3ED9E50147C70A8
:070BAF00EC60047B018002F1
:020BB6007B00C2
:060BB800EB60031C80F15C
:030BBE000D80E7C0
:0C0BC100C007120085E582D0076525F40E
:0A0BCD00FEEF901C43935EF58222B8
:0A0BD700C07CE581F57C2404F58163
:0D0BE100AF82901D12E4932F2F2F2404905B
:070BEE001D0093FEBF100083
:050BF5004003020C7C2E
:0C0BFA00EE24F94026743F555AFD7C00A3
:0E0C06007B007A00C007C006C005C004C00312
:0E0C1400C0028F8212115CE58124FCF581D0B4
:030C220006D007F2
:0C0C2500BE0723AA5B7B007C007D00C0A2
:0E0C310007C006C002C003C004C0058F8212B7
:0C0C3F00115CE58124FCF581D006D00793
:050C4B00BE0802800359
:030C5000020D2171
:0A0C5300AD5C7E00AB5B8B04E42D6A
:0E0C5D00FDEC3EFE3395E0FCFBC005C006C07A
:0E0C6B0004C0038F8212115CE58124FCF58128
:030C7900020D2148
:0C0C7C007401555AFA8F82C007C00212A2
:0C0C88001060A87C08A68208A68308A6BD
:0E0C9400F008F6D0028A047D007E007F00A8E2
:0C0CA2007C08E6620408E6620508E662D1
:0E0CAE000608E66207EC4D4E4FD00760668ADE
:0E0CBC00037C007D007E00C007C002C003C0A4
:0E0CCA0004C005C0068F8212115CE58124FC77
:0E0CD800F581D002D00774075F25E025E024E7
:0E0CE600D5901D0093FE53060374015EFD625F
:0E0CF40002EE6029EA601074075F901C4393C3
:090D0200FE74FFC39E5228800A12
:0A0D0B0074075F901C4393FE42281A
:0C0D1500530707C0028F82120D271581C2
:060D2100857C81D07C22DC
:080D2700C07C85817CAF82C213
:0C0D2F00187EFFEFC31324CE901D00932C
:0E0D3B00FD74015F75F004A4F5F005F0ED8085
:010D490002A7
:020D4A00C313D1
:0B0D4C00D5F0FB540FFDBD0102800F2D
:060D5700BD0203020DE9DC
:060D5D00BD0303020E506D
:030D6300020EB3CA
:0E0D6600EFFE25E025E024D5901D0093FDE56D
:0C0D74007C24FDF874016675F002A4F503
:060D8000F005F0ED800219
:020D8600C31395
:0B0D8800D5F0FB540CFDBD0402800AF6
:050D9300BD0802800A0A
:050D9800BD0C49800ABA
:050D9D00D218020EB3A4
:050DA200C218020EB3AF
:0C0DA700E57C24FDF8E660178FF005F0F5
:040DB300E5248002B1
:020DB700C31364
:0B0DB900D5F0FB5401FD24FF9218024E
:020DC4000EB36C
:0E0DC6008F82C006121060AA82AB83ACF0FDD3
:0C0DD400D006630201EA4B4C4D24FF9254
:040DE00018020EB334
:050DE4007EFF020EB3CA
:0E0DE9008F82C007121060AA82AB83ACF0FDAF
:0C0DF700D007EA4B4C4D24FF92188F06E9
:0C0E0300E57C24FDF8E66018EF2F25E0E8
:0C0E0F0024D5901D0093FD30E705C218AB
:030E1B00020EB311
:050E1E007EFF020EB38F
:0E0E2300EF2F25E024D6901D0093FD5305C04F
:050E3100BD4002800A33
:050E3600BD80028009EF
:050E3B00BDC00E80089F
:040E4000D218806FD5
:040E4400C218806BE5
:040E4800B2188067F5
:040E4C007EFF806342
:0E0E500074082FFEEF2F25E024D5901D00938F
:0C0E5E00FDE57C24FDF874016675F002CF
:080E6A00A4F5F005F0ED800293
:020E7200C313A8
:0B0E7400D5F0FB540CFDBD0402800A09
:050E7F00BD080280091E
:050E8400BD0C2A8008EE
:040E8900C2188026E5
:040E8D00D2188022D5
:0E0E910074082FF582C006121060AB82AC838D
:0E0E9F00ADF0FFD006630301EB4C4D4F24FF76
:040EAD009218800215
:020EB1007EFFC2
:0C0EB300EE24EF402DA218E433FB7C007D
:0E0EBF007D007F00C006C003C004C005C00750
:0D0ECD008E8212115CE58124FCF581D006B7
:0B0EDA008E82C00612189ED00650F554
:030EE500D07C229C
:0B0EE800AF8274402FF58212189E228A
:080EF300C07C85817CAF82E523
:0C0EFB007C24FCF886030886047D007E41
:0E0F070000C007C003C004C005C0068F8212E0
:0D0F1500115CE58124FCF581D0078F82126C
:050F2200189ED07C22A6
:070F2700C2187528007F00CD
:030F2E00BF0800F9
:050F3100400302105F07
:0C0F36007E00EF2436F97700EF2408F865
:0E0F42007600EF2410F87600EFC31324CE9053
:0E0F50001D0093FD74015F75F004A4F5F0051B
:040F5E00F0ED800230
:020F6200C313B7
:0B0F6400D5F0FB540FFDBD010280130F
:050F6F00BD0202804FED
:050F7400BD0302800F27
:060F7900BD0903020FE7B1
:030F7F00020FFF5F
:060F8200EF243FF87600A9
:0E0F8800EF2F25E024D5901D0093FD5305C0EA
:050F9600BD4002800ACD
:050F9B00BD8002800B87
:050FA000BDC05C800CE7
:060FA500D2187E01805409
:060FAB00C2187E01804E19
:080FB1008FF005F074018002CD
:020FB90025E031
:080FBB00D5F0FBFD6224803C2F
:0E0FC300EF2F25E0FD24D7901D0093FC30E7B2
:050FD10004C2187E01BE
:0C0FD60074D82D901D0093FD30E71ED252
:050FE200187E018018DB
:0C0FE700EF24FE40137780EF242DF876F5
:0C0FF30080EF2FFD2419F876000876002E
:0C0FFF00EE6035A218E433FB7C007D009E
:0C100B007E00C007C023C003C004C00565
:0E101700C0068F8212115CE58124FCF581D0A9
:0310250023D007CE
:0A1028008F82C007C02312189ED06B
:0510320023D00750F17E
:0E103700EF2F25E024D5901D0093FE530603F5
:0D104500BE020AEF901C4393FE4218800982
:09105200EF901C4393F4FE5218C8
:04105B000F020F2E43
:01105F00226E
:0A106000C07CE581F57C2404F581D5
:0D106A00AF82901D12E4932F2F2F240490CD
:0C1077001D0093FEEF24F0500302111F37
:03108300BE0800A4
:051086004067BF0800F7
:0E108B004023EF24F6401E74015F25E0241977
:0C109900F98704098705A87C08A6040854
:0B10A500A6050876000876000211493D
:0E10B00074075FFE2410F987078F057F00A8E4
:0C10BE007C08A60708A605ED3395E008A5
:0E10CA00F608F6EE2408F987078F037C007DF8
:0C10D800007F00A87C08EB26F6EC083630
:0B10E400F6ED0836F6EF0836F6805AED
:0E10EF00EF2408F987077D007407C39EFEE416
:0A10FD009DFD8EF005F074FF8002E7
:02110700C31310
:0C110900D5F0FBFE5207A87C08A60708E2
:0A1115007600087600087600802AB4
:0E111F008F067F00EE24F0FEEF34FFFF8EF00F
:06112D0005F0E518800248
:02113300C313E4
:0C113500D5F0FB5401FFA87C08A60708B9
:08114100760008760008760034
:0C114900A87C0886820886830886F008CF
:07115500E6857C81D07C22BD
:08115C00C07C85817CAF82900C
:0E1164001D12E4932F2F2F2404901D0093FEE4
:08117200EF24F04063BE080009
:05117A004049BF080020
:0E117F00401EEF24F6401974015F25E024198C
:0C118D00F9E57C24FAF88605088606A720
:061199000509A706806DA8
:0C119F0074075FFE2410F9E57C24FAF8C8
:0C11AB00088605A705EE2408F9E57C2461
:0E11B700FAF886037C007D007E00A7038047C7
:0C11C500EF2408F9E57C24FAF886037C8E
:0911D100007D007E00A7038032BE
:0E11DA00EF24F0FF901C4393FE74FFC39E525F
:0C11E80018E57C24FAF8740156FB7C002A
:0B11F4007D007E008FF005F0EB800214
:0211FF0025E0E9
:0B120100D5F0FBFFE518FE42078F1838
:03120C00D07C2271
:0E120F007584007585FD75802275D181E4F52A
:04121D002BF52C225F
:0E122100C0E0C0D0C2AAC28E740F558924202E
:0E122F00F589758B35758D80C28FD28ED2AB4E
:06123D00757602C205D225
:05124300037575007544
:091248007400D204D0D0D0E032D1
:0C125100C023C0E0C0F0C082C083C00712
:0E125D00C006C005C004C003C002C001C0002E
:0A126B00C0D075D000C07CE581F50D
:0A1275007C2404F581E576FF24F1E6
:05127F0050030217B44A
:07128400EF2F2F90128B7376
:07128B000212B80217B402C1
:06129200154E02160E02CB
:0612980016170216A10268
:06129E0017B40217B402B0
:0612A40017B40217B402AA
:0612AA0016C302172B021F
:0612B00017B402174F0203
:0212B600179D82
:0E12B800C28E740F55892420F589758B8075C0
:0A12C6008D80C28FD28EE578B579D5
:0412D00003021547B9
:0812D400E579246AF98707C2DD
:0C12DC00187DFE7E00EFA2E5E433FC2448
:0612E800FF9219BF800017
:0512EE00400302141B87
:0C12F300C005C006EF2323540124FF9225
:0B12FF001A53071F8F82C007C005C0F4
:0C130A0023121060AA82AB83ACF0FED06E
:0A13160023D005D007A87C08A6022A
:0E13200008A60308A60408A606901D11E49373
:0E132E00FE0EEF2FFD2EFC04901D0093FEB569
:04133C00070280061E
:06134000D006D005800F6D
:0E134600D006D0058C8275831DE493FCFD7EDD
:011354000098
:09135500BDFE06BE00030214F601
:0A135E007553BC901D17E493FC8C3E
:0A13680054901D18E493FC8C55ED21
:0C1372002DFD2417901D0093FE8E567474
:0A137E00182D901D0093FE8E577588
:061388005900301A057542
:04138E005A4080033E
:03139200755A8009
:0E139500901D12E4932F2FFE2F2404901D00B4
:0C13A30093FE24F95006EE24FBFE8002AD
:0213AF007E01BD
:0C13B10074E02EF558EE24FE500F740678
:0A13BD002E2453F9A87C088605A72A
:0313C7000580108E
:0C13CA00A87C08743F56FAE4FBFCFDEA26
:0413D600255AF55A45
:0C13DA00EE24FD500E74052E2453F9A8DB
:0713E6007C08088605A7053D
:0C13ED00EE24FC500F74042E2453F9A8C9
:0813F9007C0808088605A70521
:0C140100EE24FB501074032E2453F9A8B5
:09140D007C080808088606A70601
:05141600D2180214F6DB
:0A141B007553B0901D17E493FE8E88
:0A14250054901D18E493FE8E5585C7
:03142F004C568593
:0A1432004D5753071FEF24FA500333
:03143C000214F4A3
:07143F00EF2F2F90144673FC
:071446000214F40214580225
:06144D00146402147B028E
:05145300148C0214ECF2
:0814580075586074C22552F5BD
:04146000590214F425
:081464007558637443254EF531
:05146C0059755A40759E
:061471005B00755C12D265
:04147700110214F456
:07147B00755600755700755E
:0614820058E175590175E7
:041488005A408068DE
:02148C007F00DF
:0A148E00C3EF954F503CE550702667
:0A149800740A2F2453F87600AD51BA
:0E14A2007E008F037C00EB2DFDEC3EFEBD6056
:0B14B0001CBE0019740A2F2453F8A67C
:0314BB007A800F25
:0A14BE00740A2F2453F9EF25519012
:0514C8001D0093FEF77A
:0314CD000F80BECF
:0914D0007463254FF55874424580
:0614D9004EF55974404578
:0414DF004FF55A85E6
:0314E300505B85D6
:0314E600515CD284
:0314E90011800867
:0714EC00755860755981C2BB
:0114F30010E8
:0214F400D2180C
:0814F60030190674DF5553F5AF
:0114FE00539A
:0A14FF0030183DC2AAE5767032E510
:0A15090079246AF9E7FF20E5077472
:06151300204FF775770080
:0B15190074FC257740051218068016B0
:061524000579537907C2AE
:04152A000DC21112CB
:0C152E0017D8C28E758DF0758B00D28E20
:05153A00D2AA0217B463
:06153F0005795379070253
:0215450017B4D9
:07154700C28ED2AA0217B404
:0A154E00A28BB39218C28B757603CE
:0A155800758D00E575700A757501C8
:05156200C206C20702F1
:0215670017B4B7
:0A156900747F2575401C301808B28D
:0415730005E57525F0
:0315770074F57494
:05157A00E5752575F583
:06157F007560030217B4C1
:061585007575810217B428
:0A158B00C28EC28FA205201801B322
:0A159500502CE572700E74CCB57492
:03159F0002D2066F
:0715A200740CB57402D207BE
:0715A900200619200716E5DA
:0815B0007224E94010E57224E9
:0615B80053F8E574F66231
:0515BE007305728002BC
:0215C300C20361
:0515C500100D02801D65
:0715CA003006143003117517
:0715D10077041011028009EC
:0715D800E54E2404F54E531B
:0215DF004E3C80
:0615E1001217D80217B436
:0715E70030031E20061B204B
:0C15EE000718740F55892410F589758DBD
:0C15FA00FA758B70D28E757604D2AA02AE
:0216060017B417
:061608001217D80217B40E
:09160E00758D807576020217B497
:06161700200B0302169BEC
:0C161D00E57224F85078C28E740F5589D5
:0D1629002410F589758DEF758B42D28EC2AD
:0716360008E55830E71F85AD
:05163D005682C05712A7
:0B1642001850AF821581BFFF0280022C
:02164D00D208C1
:09164F00E556701CE5577018D235
:03165800088014F3
:0C165B00901D17E493FFB5560B901D186E
:08166700E493FFB55702D2081D
:0A166F0074FFB57321740F5558FF86
:0C1679007E0074082FFFE43EFEAC727D82
:0C16850000EFB5040BEEB50507D21230E3
:041691000802D20970
:061695007576050217B492
:06169B001217D80217B47B
:0916A100C28E30121330080AD287
:0516AA000E121806C23B
:0416AF000D0217B45D
:0616B3001217D80217B463
:0616B900D20F121806C258
:0416BF000D0217B44D
:0816C300E5722453F98707309A
:0416CB000E027FCCC0
:0516CF00300F027F0C4A
:0916D400C2AA740AB57602800373
:0316DD000217B43D
:0A16E000E575247F402CE5755F706E
:0916EA0008D296C20CB205800280
:0216F300D20C17
:0816F500E5757007757501C26F
:0316FD000580065F
:05170000E5752575F5FB
:01170500756E
:07170600E5757003757581A4
:05170D0075760B80134E
:09171200200506D296C20C8002EB
:02171B00D20CEE
:06171D00057275750075F0
:02172300760D41
:06172500758D120217B4DD
:0A172B00E57270077401B575020540
:01173500773C
:0A173600C296A20C828B5007C20D70
:051740001217D880061D
:0617450075760A758D6E39
:04174B00C28B806568
:0E174F00C296C28E740F55892410F589758DCF
:0A175D00FB758B90D28E200E033036
:021767000F056C
:051769001217D8802BCF
:0C176E00740F5558FF7E0074072FFFE435
:0C177A003EFEAC727D00C3EF9CEE64806C
:0C1786008DF063F08095F05007D20A123D
:0417920017D88003E1
:0317960075760E57
:04179900C28B801768
:0E179D00C28E740F55892420F589758D6E75E6
:0917AB008B80C28FD28E75760A84
:0617B400D204857C81D007
:0C17BA007CD0D0D000D001D002D003D0F1
:0E17C60004D005D006D007D083D082D0F0D05A
:0417D400E0D023320C
:0A17D800757600C28BC28EC2AB759D
:0A17E2007300757200C28E740F557B
:0C17EC00892410F589758D89758BAFC2BA
:0A17F8000EC20FC28FD28ED2AAD209
:04180200ABC2122241
:0E180600C28E740F55892420F589758D6E757C
:0C1814008B80C28F740F55582407FF759D
:0418200073FF7E00D4
:0C182400C3EE9F500BEE2453F9E7FD6269
:04183000730E80F0C3
:07183400EF2453F8A673C274
:04183B0006C207D208
:05183F000D75760A752D
:0A1844007500757200C2AAD28ED2A0
:02184E00AB22CB
:0A185000C07C85817CAF827EFF9092
:08185A001D16E493FDBDFF0023
:0E1862005035901D16E493602E901D16E493F1
:02187000FD1D5C
:0E187200ED6024ED2DFC2417901D0093FBEF7C
:0C188000B5031374182C901D0093FCE5B8
:0A188C007C24FDF8E6B504028D0689
:031896001D80D9D9
:051899008E82D07C22CC
:07189E00AF82C218BF400039
:0C18A500501B8F82C007C023121BDCE523
:0C18B10082D023D0075444FEBE440280C5
:0118BD000426
:0418BE00D218802A92
:0918C200AD787E000DBD00010EA1
:0C18CB005305077E00AB797C00EBB505EF
:0718D70006ECB50602800ECD
:0818DE00E578246AF8A607056D
:0518E60078537807D2E1
:0118EB0018E4
:0518EC00D28EA21822BB
:0A18F100C07CE581F57C2404F5813C
:0918FB00C209AF5974C35FFEA8D5
:051904007C08A65AE575
:0919090056FC7049E5577045E5F4
:071912007A20E003021BD65E
:09191900EE7020A87C08B6C01A8B
:0C192200E57670FCC2AF75E40075E71DAF
:0A192E0075E617855BE5855CE5753D
:04193800E468D2AFDE
:05193C00BE0102800362
:03194100021BD6B0
:09194400A87C08E66003021BD632
:09194D0075828312189E021BD65C
:08195600E55830E703021B21F4
:0C195E00901D17E493FBECB5030280031E
:03196A00021BD687
:0B196D00901D18E493FBB557028003A7
:03197800021BD679
:08197B00757B00BE4202801BD7
:06198300BE4303021AB589
:06198900BE8003021ADB20
:06198F00BE8103021AFDF7
:06199500BE8303021B16D5
:03199B00021BD656
:06199E00201003021BD61D
:0A19A400743C5FF552A87C08E6547D
:0A19AE00F0F6A87C08B68002800362
:0319B800021A947C
:0B19BB0075828112189E740F555AFFB0
:0A19C600E57670FCC2AF75E400AADC
:0A19D0005B74015A241CFCAE5CA8F5
:0519DA007C0808760006
:0C19DF00A87C0808C3E69F4003021A8F92
:0C19EB00EA703CC002E57C2403F8A6066C
:0C19F700087600A87C080886037D00E547
:0C1A03007C2403F8EB26FBED0836FDBB4D
:071A0F006005BD0002800428
:041A1600D002802654
:0A1A1A00D002A87C0808740A2624F4
:061A240053F9877A8016D9
:0B1A2A008CE7A87C0808E62EF5E6A873
:0A1A35007C0808740A262453F98780
:011A3F00E5C1
:0A1A40008E037D00A87C0808E57CF9
:0C1A4A002403F9E6F7097700E57C24038B
:0E1A5600F8E62BFB08E63D53033F7D00BB3F47
:0D1A640022BD001F8F037D001BBBFF011D75
:0C1A7100E57C2403F8E6B5030708E6B5A1
:041A7D0005028006D8
:061A810075E46875E40045
:081A8700A87C0808060219DF23
:051A8F0075E468D2AF10
:091A9400A87C08E66003021BD6E1
:041A9D00855A4F8592
:031AA1005B508512
:061AA4005C517582811205
:091AAA00189E75828412189E0238
:021AB3001BD640
:0A1AB500743C5FF552A87C08B6806F
:041ABF000343A20833
:091AC300A87C08E66003021BD6B2
:0D1ACC0075828112189E75828212189E028A
:021AD9001BD61A
:061ADB00301003021BD6CF
:041AE100D210855446
:031AE5004C8555D8
:051AE8004D754E00C227
:0C1AED001175D16075D20B75D3B375D1A3
:041AF90061021BD695
:071AFD00E554B54C02800323
:031B0400021BD6EB
:071B0700E555B54D02800316
:031B0E00021BD6E1
:051B1100C210021BD60A
:091B160075828512189EC21002AE
:021B1F001BD6D3
:061B2100EE6003021BD67A
:0C1B2700C0578C82121850AF821581BF8D
:051B3300FF03021BD6B8
:0E1B3800901D11E493FEF58275831DE4932544
:0C1B4600E02EFD0EA87C0874C056FCE4E4
:041B5200BC8001044E
:011B5600FC92
:081B5700C3EE9D4003021BD602
:0E1B5F008E8275831DE493FBEFB50366EE04E2
:0E1B6D00901D0093FBF582C007C006C005C0A6
:0E1B7B0004C003121BDCAA82D003D004D005E4
:0E1B8900D006D007EC602EC00474145AFCBCC9
:041B970014028004B0
:041B9B00D004801FD3
:0E1B9F00D0048B82C007C006C005C004C0037E
:0E1BAD00C002120BD7D002D003D004D005D056
:031BBB0006D0074A
:0C1BBE00A87C08E6700D53020CBA0C0C59
:071BCA008B82120EE880057A
:051BD1000E0E021B577F
:061BD600857C81D07C2219
:0E1BDC00AF82901D12E493FE0E0E0EEF2E2F20
:081BEA002F901D0093F58222EB
:0E1BF20075950075911475924CC296758921F7
:0E1C0000758F00C28CC28E758D80758B80C270
:0C1C0E008FC20475A88075E80075B8044A
:0A1C1A0075B70CD28A757A2EC20647
:051C2400C207C20EC260
:041C29000FC209D20B
:051C2D000B7578007545
:061C32007900754E00C2AE
:041C380011C21012B3
:031C3C0017D82294
:06005200E478FFF6D8FD82
:080030007900E94400601B7A2D
:0500380000901C4B7854
:03003D000075A0AB
:0A00400000E493F2A308B8000205E3
:08004A00A0D9F4DAF275A0FF61
:080058007800E84400600A7919
:030060000075A088
:0600630000E4F309D8FCE3
:080069007800E84400600C7906
:0B00710000900000E4F0A3D8FCD9FAD6
:0300230075817C68
:0A002600121C3FE582600302001E79
:041C3F007582002288
:00000001FF
