:05007C00C200C201C238
:01008100027C
:0700850085824AE4F529F52C
:04008C004BE54A25D1
:080090004A25E0F54824D5F5EE
:0500980049854A8212B7
:07009D0008BDE5827001229D
:0900A400AE4A7F000EBE00010F00
:0E00AD00EFA2E713CE13CE74F62E901D009333
:0C00BB00FF7401554A640175F004A4F5BF
:0600C700F005F0EF8002DD
:0200CD00C3135B
:0A00CF00D5F0FB5407F529854AF02F
:0600D90005F0E5248002A1
:0200DF00C31349
:0900E100D5F0FB5401FFB401004D
:0B00EA00E433FF6016854AF005F0E5E6
:0300F50025800261
:0200F800C31330
:0B00FA00D5F0FB5401FFBF01028004A1
:04010500C21880029A
:02010900D2180A
:05010B00A2189202E5BC
:050110004A243FF987BD
:080115002AE54AC31324CE9031
:0C011D001D0093FF7401554A75F004A406
:07012900F5F005F0EF800284
:02013000C313F7
:0B013200D5F0FB540FFFBF0102801B43
:06013D00BF02030201BA3B
:06014300BF0303020301EB
:06014900BF09030203D907
:06014F00BF0A0302051ABD
:030155000206029D
:08015800A20292F085F023855C
:060160004A8212086885C6
:0A016600498275831DE493FF5307DF
:070170000CBF04032002068E
:06017700BF082620022350
:06017D00E54A2436F9E515
:0A0183004904901D00932480F7E565
:07018D004A242DF87600A2C0
:0A01940002E433FE4306208E2A0227
:02019E00060257
:0A01A000E54A2436F87600740825BD
:0901AA004AF582A20292F085F0F0
:0501B3002312086802A0
:0201B80006023D
:0601BA00200203020243D3
:0801C000E54A2436F974D72545
:0C01C80048901D0093FE747F5E2480F7B9
:0601D400E54A242DF8A607
:0801DA00297408254AF5821280
:0E01E2000D76AB82AC83ADF0EBA2E3E433FB11
:0901F00024FF9200854982758309
:0C01F9001DE493FE530670BE0002800A55
:05020500BE100280099B
:05020A00BE300A800473
:04020F00B2008006B3
:04021300D200800293
:02021700C20023
:07021900300015E5490490D7
:0D0220001D00935438C423541FFE2448F5DC
:04022D002A02060299
:0C023100E54904901D0093FE74075E2454
:06023D0040F52A02060252
:0A0243007450552AFEBE4054854A4F
:0E024D0082120D76AB82AC83ADF0FEEB4C4D11
:0A025B004E24FF920085498275834E
:0C0265001DE493FE530670BE10028005DD
:05027100BE200A80041C
:04027600D20080062C
:04027A00C20080023C
:02027E00B200CC
:0C028000A200E433FD7E00C005C006852E
:0A028C004A82120C0C15811581E561
:070296004A2436F87600024D
:02029D00060257
:0C029F007408254AF582120D76AB82AC83
:0C02AB0083ADF08B0774D52548901D0032
:0E02B70093FE30E31974085FFE7D0074082585
:0C02C5004AF582C006C005120C0C158121
:0402D1001581801FF4
:0C02D50074085FFEE4FDFCFB7408254A81
:0E02E100F582C006C005C004C003120E72E50F
:0502EF008124FCF581F3
:0602F400752A00E54A2412
:0702FA0036F876000206024F
:0A030100E54A254A25E024D8FEF560
:0C030B008275831DE4935430FDC4540F30
:09031700F54B7401B54B02800E98
:070320007402B54B02800BD3
:070327007403B54B298008A7
:04032E00C201802365
:04033200D201801F55
:0C0336007408254AF582C006120D76AA54
:0E03420082AB83ACF0FDD006630201EA4B4CA7
:050350004D24FF9201A5
:0A03550030025A8E8275831DE49376
:0C035F00FD30E313A201E433FD2480F51F
:04036B002AE54A2411
:07036F0036F8768002060259
:0C037600A201E433FC7D00C004C005853A
:0A0382004A82120C0C15811581E56A
:05038C004A2436F9E5EA
:080391004A254A25E024D6901C
:090399001D00932480F7E54A24BD
:0503A2002DF8A629A2C0
:0903A70001E433FD2480F52A0273
:0203B000060243
:0A03B200E52A30E418A201E433FC50
:0C03BC007D00C004C005854A82120C0CB4
:0703C80015811581020602F8
:0803CF00E54A2436F87600022D
:0203D70006021C
:0903D900E54A254A25E024D590EF
:0C03E2001D0093FDFEE54A24FE4049EE9C
:0603EE0030E003200212C2
:0A03F40074025EFDA202B39218E449
:0803FE0033FC5D7003020602EE
:0A040600E54A254AFD2419F9870391
:0D041000098704C3EB94FFEC94FF40030246
:02041D000602D5
:0E041F00ED2419F98704098705190CBC0001AA
:01042D000DC1
:08042E00A70409A7050206025C
:0B043600E54A24FE25E025E024D590D7
:0B0441001D0093FDFE30E20320020FBF
:0A044C0074085EFDA202B39218E4EA
:0504560033FC5D604471
:0B045B007402B54A22E4F519F51A906E
:0B0466001DD6E493FD74804DF5369028
:0E0471001DF6E49354F0C4540FFD74804DF555
:03047F002D801DB0
:0E048200E4F51BF51C901DD6E493FD74804D2F
:0C049000F537901DF7E493FD740F5D44F8
:03049C0080F52EBA
:0C049F005306F07F00300220BE400280B7
:0104AB00034D
:0304AC00BE60022D
:0204AF007F11BB
:0504B100BE8002800383
:0304B600BE9002F3
:0204B9007F10B2
:0504BB00BEC002800339
:0304C000BEF02269
:0404C3007F12801E06
:0504C700BE10028003DD
:0304CC00BE9002DD
:0204CF007F119B
:0504D100BE20028003C3
:0304D600BE600203
:0204D9007F1092
:0504DB00BE30028003A9
:0304E000BEF00269
:0204E3007F1286
:0C04E500BF1215854A82120D76AA82AB68
:0C04F10083ACF0FD6302014302108A0797
:0604FD00EF70030206028D
:0C05030074015FFD7C00C005C004854A47
:0B050F0082120C0C15811581020602FF
:09051A00E54A254A25E024D590AC
:0B0523001D0093FDFE30E003200212DB
:0A052E0074025EFDA202B39218E40D
:0805380033FC5D7003020602B2
:0A054000C006E54A254AFD2419F91A
:0B054A008703098704190BBB00010C9C
:0C055500A70309A704E54A241EF907E7E4
:0C05610074022549901D0093FB7C00747F
:0C056D00032549901D0093FA7E002CFC31
:0E057900EE3BFBED2419F98705098706C3ED5B
:0E0587009CEE9BD0064050EE23235403FFBF92
:0C0595000312854A82120D76AB82AC8303
:0805A100ADF0FE6303018B07BE
:0505A900BF02027F000B
:0C05AE007E00C007C006854A82120C0CBB
:0B05BA00158115817408254AF5821296
:0905C5001849E54A241EF87600ED
:0A05CE00208EFDE54A254AFF24199E
:0605D800F8760008760031
:0A05DE00E54A241EF98707E54904E9
:0D05E800901D0093FEC3EF9E401074082587
:0705F5004AF582121849E5E6
:0605FC004A241EF87600FF
:06060200E54A243FF8A6C2
:020608002A22A4
:0A060A0075D161052BE4B52B020544
:010614002CB9
:0A061500E52B24FFFEE52C34FFFF67
:0B061F00EEF4FEEFF4FFE52B5206E5C1
:05062A002C52077D00C9
:03062F00BD1000FB
:080632005032EE30E0247C00A0
:03063A00BC0900F8
:0C063D00501DEC242DF9870353030FEB34
:0C064900B5050DEC2436F9E7FB247F50CA
:0406550003EB14F7A8
:030659000C80DE34
:0A065C00EFC313CE13CEFF0D80C9CB
:020666007F0013
:03066800BF0800C8
:03066B0040012229
:08066E00EF243FF9872AEF2475
:0906760036F98706BE80028003FC
:03067F000208640A
:0B068200E52A30E52D74082FF582E515
:0A068D002A540124FF921892F0C0D5
:0C0697000785F023120868D00774075F85
:0D06A3002408F582C007120D76D007EF2461
:0406B00036F87600A2
:0806B400E52A20E70302075AC2
:0C06BC007401552AFE7D0074082FF582A1
:0E06C800C007C006C005120C0C15811581D0AC
:0E06D60007EF2F25E0FE24D7901D0093FE2491
:0C06E400FC506DEF242DF98F047D000CFC
:0406F000BC00010D3C
:0E06F400EDA2E713CC13CC74FA2C901D0093EA
:0E070200FD74015F640175F004A4F5F005F0CC
:03071000ED800277
:02071300C3130E
:0E071500D5F0FB5407F774075F2408F582C087
:0E07230007C006120D76AA82AB83ACF0FDD0A3
:0C07310006D007EA4B4C4D24FF9218EF55
:0A073D00243FF9A218E433FD430540
:0C07470010A705EF2436F974802EF7800F
:01075300069F
:06075400EF2436F87600E8
:0A075A007450552AFEBE1002800EF6
:05076400BE40028012FE
:06076900BE50030207E68A
:03076F0002080578
:09077200EF243FF87600020805AF
:0C077B00AD2A7E0074082FF582C007C074
:0E07870005C006120C0C15811581D007EF2459
:0A0795003FF9870674104EF7EF24B9
:0C079F0036F9EF2F25E024D8901D0093C0
:0C07AB00FE74804EF7EF242DF98F057EC0
:0607B700000DBD00010E63
:0E07BD00EEA2E713CD13CD74FA2D901D00931C
:0E07CB00FE74015F640175F004A4F5F005F002
:0307D900EE8002AD
:0207DC00C31345
:0807DE00D5F0FB540FF7801F5A
:0B07E600EF2436F9EF2F25E024D89017
:0E07F1001D0093FE74804EF774082FF582C031
:0607FF0007121849D007A3
:0A080500E52A705BEF242DF9870649
:0C080F00530680BE804FEF2436F8EF2F18
:0E081B0025E024D6901D0093FE74804EF68FCB
:08082900057E000DBD00010E6B
:0E083100EEA2E713CD13CD74F62D901D0093AB
:0E083F00FE74015F640175F004A4F5F005F08D
:03084D00EE800238
:02085000C313D0
:0E085200D5F0FB44C0F774082FF582C00712E2
:040860001849D0075C
:040864000F02066811
:0E086800AF8274075F25E025E024D7901D00C5
:0508760093FEBF080025
:07087B004005EEC4540FFE1E
:09088200301806EE0303543FFE9A
:0E088B00530603EE602BBE03158F82C00712CA
:0E0899000D76AA82AB83ACF0FDD0076302019E
:0208A7008004CB
:0408A90074015EFA7E
:0E08AD007E00C002C0068F82120C0C15811551
:0108BB0081BB
:0108BC002219
:0C08BD00AF82901DD2E493FE601B7D0012
:0708C900C3ED9E50147C708A
:0708D000EC60047B018002D3
:0208D7007B00A4
:0608D900EB60031C80F13E
:0308DF000D80E7A2
:0C08E200E5256580F4FEEF901BFB935EA3
:0308EE00F582226E
:0A08F100C07BE581F57B2404F5814E
:0D08FB00AF82901D12E4932F2F2F24049044
:070908001D0093FEBF10006B
:05090F004003020996FF
:0C091400EE24F94026743F555AFD7C008B
:0E0920007B007A00C007C006C005C004C003FB
:0E092E00C0028F82120E72E58124FCF581D08A
:03093C0006D007DB
:0C093F00BE0723AA5B7B007C007D00C08B
:0E094B0007C006C002C003C004C0058F8212A0
:0C0959000E72E58124FCF581D006D00769
:05096500BE0802800342
:03096A00020A3B43
:0A096D00AD5C7E00AB5B8B04E42D53
:0E097700FDEC3EFE3395E0FCFBC005C006C063
:0E09850004C0038F82120E72E58124FCF581FE
:03099300020A3B1A
:0C0996007401555AFA8F82C007C002128B
:0C09A2000D76A87B08A68208A68308A694
:0E09AE00F008F6D0028A047D007E007F00A8CB
:0C09BC007B08E6620408E6620508E662BB
:0E09C8000608E66207EC4D4E4FD00760668AC7
:0E09D600037C007D007E00C007C002C003C08D
:0E09E40004C005C0068F82120E72E58124FC4D
:0E09F200F581D002D00774075F25E025E024D0
:0E0A0000D5901D0093FE53060374015EFD6247
:0E0A0E0002EE6029EA601074075F901BFB93F4
:090A1C00FE74FFC39E5228800AFB
:0A0A250074075F901BFB93FE42284C
:0C0A2F00530707C0028F82120A41158194
:060A3B00857B81D07B22C7
:080A4100C07B85817BAF82C2FE
:0C0A4900187EFFEFC31324CE901D009315
:0E0A5500FD74015F75F004A4F5F005F0ED806E
:010A63000290
:020A6400C313BA
:0B0A6600D5F0FB540FFDBD0102800F16
:060A7100BD0203020B03AD
:060A7700BD0303020B6A3F
:030A7D00020BCD9C
:0E0A8000EFFE25E025E024D5901D0093FDE556
:0C0A8E007B24FDF874016675F002A4F5ED
:060A9A00F005F0ED800202
:020AA000C3137E
:0B0AA200D5F0FB540CFDBD0402800ADF
:050AAD00BD0802800AF3
:050AB200BD0C49800AA3
:050AB700D218020BCD76
:050ABC00C218020BCD81
:0C0AC100E57B24FDF8E660178FF005F0DF
:040ACD00E52480029A
:020AD100C3134D
:0B0AD300D5F0FB5401FD24FF92180237
:020ADE000BCD3E
:0E0AE0008F82C006120D76AA82AB83ACF0FDA9
:0C0AEE00D006630201EA4B4C4D24FF923D
:040AFA0018020BCD06
:050AFE007EFF020BCD9C
:0E0B03008F82C007120D76AA82AB83ACF0FD84
:0C0B1100D007EA4B4C4D24FF92188F06D1
:0C0B1D00E57B24FDF8E66018EF2F25E0D2
:0C0B290024D5901D0093FD30E705C21894
:030B3500020BCDE3
:050B38007EFF020BCD61
:0E0B3D00EF2F25E024D6901D0093FD5305C038
:050B4B00BD4002800A1C
:050B5000BD80028009D8
:050B5500BDC00E800888
:040B5A00D218806FBE
:040B5E00C218806BCE
:040B6200B2188067DE
:040B66007EFF80632B
:0E0B6A0074082FFEEF2F25E024D5901D009378
:0C0B7800FDE57B24FDF874016675F002B9
:080B8400A4F5F005F0ED80027C
:020B8C00C31391
:0B0B8E00D5F0FB540CFDBD0402800AF2
:050B9900BD0802800907
:050B9E00BD0C2A8008D7
:040BA300C2188026CE
:040BA700D2188022BE
:0E0BAB0074082FF582C006120D76AB82AC8363
:0E0BB900ADF0FFD006630301EB4C4D4F24FF5F
:040BC70092188002FE
:020BCB007EFFAB
:0C0BCD00EE24EF402DA218E433FB7C0066
:0E0BD9007D007F00C006C003C004C005C00739
:0D0BE7008E82120E72E58124FCF581D0068D
:0B0BF4008E82C006121849D00650F592
:030BFF00D07B2286
:0A0C0200AF8274402FF582021849FA
:080C0C00C07B85817BAF82E50E
:0C0C14007B24FCF886030886047D007E2B
:0E0C200000C007C003C004C005C0068F8212CA
:0D0C2E000E72E58124FCF581D0078F821243
:050C3B001849D07B22E6
:070C4000C2187518007F00C7
:030C4700BF0800E3
:030C4A0040012244
:0C0C4D007E00EF2436F97700EF2408F851
:0E0C59007600EF2410F87600EFC31324CE903F
:0E0C67001D0093FD74015F75F004A4F5F00507
:040C7500F0ED80021C
:020C7900C313A3
:0B0C7B00D5F0FB540FFDBD01028013FB
:050C8600BD0202804FD9
:050C8B00BD0302800F13
:060C9000BD0903020CFE89
:030C9600020D1636
:060C9900EF243FF8760095
:0E0C9F00EF2F25E024D5901D0093FD5305C0D6
:050CAD00BD4002800AB9
:050CB200BD8002800B73
:050CB700BDC05C800CD3
:060CBC00D2187E018054F5
:060CC200C2187E01804E05
:080CC8008FF005F074018002B9
:020CD00025E01D
:080CD200D5F0FBFD6224803C1B
:0E0CDA00EF2F25E0FD24D7901D0093FC30E79E
:050CE80004C2187E01AA
:0C0CED0074D82D901D0093FD30E71ED23E
:050CF900187E018018C7
:0C0CFE00EF24FE40137780EF242DF876E1
:0C0D0A0080EF2FFD2419F8760008760019
:0C0D1600EE6035A218E433FB7C007D0089
:0C0D22007E00C007C023C003C004C00551
:0E0D2E00C0068F82120E72E58124FCF581D082
:030D3C0023D007BA
:0A0D3F008F82C007C023121849D0AC
:050D490023D00750F16A
:0E0D4E00EF2F25E024D5901D0093FE530603E1
:0C0D5C00BE010AEF901BFB93FE422880B2
:010D68000981
:090D6900EF901BFB93F4FE5228ED
:040D72000F020C4719
:0A0D7600C07BE581F57B2404F581C4
:0D0D8000AF82901D12E4932F2F2F240490BA
:0C0D8D001D0093FEEF24F05003020E3511
:030D9900BE080091
:050D9C004067BF0800E4
:0E0DA1004023EF24F6401E74015F25E0241964
:0C0DAF00F98704098705A87B08A6040842
:0B0DBB00A605087600087600020E5F17
:0E0DC60074075FFE2410F987078F057F00A8D1
:0C0DD4007B08A60708A605ED3395E00893
:0E0DE000F608F6EE2408F987078F037C007DE5
:0C0DEE00007F00A87B08EB26F6EC08361E
:0B0DFA00F6ED0836F6EF0836F6805ADA
:0E0E0500EF2408F987077D007407C39EFEE402
:0A0E13009DFD8EF005F074FF8002D3
:020E1D00C313FD
:0C0E1F00D5F0FBFE5207A87B08A60708D0
:0A0E2B007600087600087600802AA1
:0E0E35008F067F00EE24F0FEEF34FFFF8EF0FC
:060E430005F0E518800235
:020E4900C313D1
:0C0E4B00D5F0FB5401FFA87B08A60708A7
:080E5700760008760008760021
:0C0E5F00A87B0886820886830886F008BD
:070E6B00E6857B81D07B22AC
:080E7200C07B85817BAF8290FB
:0E0E7A001D12E4932F2F2F2404901D0093FED1
:080E8800EF24F04063BE0800F6
:050E90004049BF08000D
:0E0E9500401EEF24F6401974015F25E0241979
:0C0EA300F9E57B24FAF88605088606A70E
:060EAF000509A706806D95
:0C0EB50074075FFE2410F9E57B24FAF8B6
:0C0EC100088605A705EE2408F9E57B244F
:0E0ECD00FAF886037C007D007E00A7038047B4
:0C0EDB00EF2408F9E57B24FAF886037C7C
:090EE700007D007E00A7038032AB
:0E0EF000EF24F0FF901BFB93FE74FFC39E5295
:0C0EFE0018E57B24FAF8740156FB7C0018
:0B0F0A007D007E008FF005F0EB800200
:020F150025E0D5
:0B0F1700D5F0FBFFE518FE42078F1825
:030F2200D07B225F
:0E0F25007584FF7585007580FF75D16075D2EB
:0B0F33000E75D3A075D161E4F52BF51D
:020F3E002C2263
:0400000002002332A5
:01000B0032C2
:030013000211DAFD
:03001B0002120AC4
:0300820002001E5B
:05001E00120F4080FEFE
:080F4000C07B85817B0581A8BF
:090F48007B0876007E00C218C28D
:0A0F510019E5A7035401FD24FF92E7
:0A0F5B001AD297209707301A047D80
:030F650000800702
:070F6800901CFFE493FCFD67
:0E0F6F00901CFFE493AB962BFC8C9653963FA0
:0C0F7D00C297C006C005C023121BA8D0FC
:0C0F89002353BDFE75985043BAE043BDF1
:0E0F95000275BF2F75BEF043BD01759955C0A2
:050FA30023120F25D010
:0A0FA80023D005D006201A527B006A
:020FB2007C00C1
:0E0FB400C005901DD4E493FA7D00901DFEE46C
:0B0FC20093C4540FFF8FF005F0800671
:060FCD00EA2AFAED33FDF3
:0E0FD300D5F0F7C3EA9BED9CD005402375D105
:0A0FE1006075D21D75D34075D16113
:0E0FEB00E5D1248050FAC2AF75C2A575C35A75
:090FF900D2AF0BBB00B50C80B2B5
:0E10020075C1FFC2AF75A7E575C2A575C35ACB
:0E101000D2AFC2AF43A70475C2A575C35AD2B2
:01101E00AF22
:0E101F00C2AF75C2A575C35AD2AFC2AF75C2BB
:0E102D00A575C35AD2AF901D0DE493FFBFFF0F
:03103B000280032D
:03103E000210F2AB
:061041003011030210F261
:08104700E57A30E0030210F22B
:07104F00858025201917859B
:031056002524202E
:091059001A0FC006C005C02312E5
:081062000C40D023D005D0069C
:02106A00D21999
:07106C00E524B525028039DF
:07107300E5246525FFEE9066
:0C107A001BFB93FC5F6016EC5528701106
:0C1086008E82C006C005C023120085D079
:0510920023D005D0068B
:09109700EE901BFB93FF5525426E
:0710A00024EFF4FF45255287
:0510A700240E530607B2
:0C10AC00748025D1500FC006C005C02381
:0910B80012060AD023D005D0066F
:0210C1007F00AE
:0C10C300EF24FE402AEF243FF9E77020E4
:0C10CF00EF242DF9870474405CFBBB404B
:0C10DB0013208E10EF2FFB2419F8760074
:0810E7000876005304BFA704C2
:0310EF000F80D19E
:0610F200200903300A157D
:0910F800C209C20AC006C005C00D
:051101002312189CD030
:0711060023D005D006800A8A
:02110D007F64FD
:08110F008F041C8C07EF70F83F
:05111700109802804A5F
:05111C00AF99BF63085C
:0511210010990280FBA3
:0311260075995563
:06112900BF2B0315961D0B
:06112F00BF2D0305960D23
:0E113500BF7712C2AF75E40075E71C75E6FFC8
:071143008DE575E468D2AFF1
:06114A00BF7003637A810F
:03115000BF76085F
:0511530010990280FB71
:031158007599097D
:03115B00BF740856
:05115E0010990280FB66
:0311630075990576
:0B116600D297209718A87B08B6FF0066
:081171005006A87B0806801857
:06117900201803637A81D7
:04117F00D218800EF4
:0A118300A87B08E66006A87B0816AA
:02118D008002DE
:02118F00C21884
:08119100E57A5401FFB40100EE
:0D119900E433FF24FF929702101F1581D050
:0211A6007B22AA
:081BFB000102040810204080E3
:021D03000004DA
:011D0C0000D6
:011D0D00FFD6
:0611A8007F00D282C28527
:0911AE00300406C282D282C204A0
:0211B7007E00B8
:0E11B900EE24F84012C280EF2FFF3081010FAC
:0911C700A2819283D2800E80E91E
:0A11D0002004DBC282D2858F822248
:0E11DA00C0E0C0D0C2AAC28E740F5589242076
:0E11E800F589758B35758D80C28FD28ED2AB96
:0611F600757602C205D26D
:0511FC0003757500758C
:091201007400D204D0D0D0E03218
:0C120A00C023C0E0C0F0C082C083C00759
:0E121600C006C005C004C003C002C001C00075
:0C122400C0D075D000E576FF24F1500327
:031230000215277D
:07123300EF2F2F90123A7318
:07123A0002126702152702F2
:0612410012DA0213940210
:06124700139D02141202C7
:06124D001527021527021F
:0612530015270215270219
:06125900143602149E028F
:06125F0015270214C20273
:02126500151062
:0E126700C28E740F55892420F589758B807511
:0A1275008D80C28FD28EE578B57926
:03127F0002805199
:08128200E579246AF987821264
:0B128A00160D503DC2AAE5767032E55B
:0A12950079246AF9E7FF20E50774E9
:06129F00204FF7757700F7
:0B12A50074FC257740051215728016BE
:0612B0000579537907C225
:0412B6000DC2121241
:0C12BA001546C28E758DF0758B00D28E2B
:0512C600D2AA02152769
:0612CB00057953790702CA
:0212D1001527DF
:0712D300C28ED2AA0215270A
:0A12DA00A28BB39218C28B75760345
:0A12E400758D00E575700A7575013F
:0512EE00C206C2070268
:0212F3001527BD
:0A12F500747F2575401C301808B204
:0412FF0005E5752567
:0313030074F5740A
:05130600E5752575F5F9
:06130B00756003021527C6
:061311007575810215272D
:0A131700C28EC28FA205201801B398
:0A1321005026E572700E74CCB5740E
:03132B0002D206E5
:07132E00740CB57402D20734
:07133500200613200710E55C
:05133C00722453F8E5E6
:0513410074F662730563
:03134600728002B0
:02134900C203DD
:05134B00100D02801DE1
:071350003006143003117593
:071357007704101202800967
:07135E00E54E2404F54E5397
:021365004E3CFC
:06136700121546021527D5
:07136D0030031E20061B20C7
:0C1374000718740F55892410F589758D39
:0C138000FA758B70D28E757604D2AA022A
:02138C00152723
:06138E00121546021527AE
:09139400758D80757602021527A3
:0A139D00300B64E57224FB505EC2C1
:0E13A7008E740F55892410F589758DEF758BA6
:0813B50042D28EA2109208E55D
:0813BD005830E71F855682C07D
:0C13C500571215BCAF821581BFFF0280DB
:0113D1000219
:0213D200D2083F
:0913D400E556701CE5577018D2B3
:0313DD0008801471
:0C13E000901D17E493FFB5560B901D18EC
:0813EC00E493FFB55702D2089B
:0913F40074FFB57305300802D244
:0113FD0009E6
:0613FE00757605021527BB
:08140400E57224FE5002D2093A
:06140C001215460215272F
:0A141200C28E74FFB5731330080A90
:06141C00D20E121572C28F
:041422000D0215277B
:0614260012154602152715
:06142C00D20F121572C27E
:041432000D0215276B
:08143600E5722453F987073029
:04143E000E027FCC4F
:05144200300F027F0CD9
:09144700C2AA740AB57602800302
:031450000215275B
:0A145300E575247F402CE5755F70FD
:09145D0008D296C20CB20580020F
:02146600D20CA6
:08146800E5757007757501C2FE
:03147000058006EE
:05147300E5752575F58B
:0114780075FE
:07147900E575700375758134
:0514800075760B8013DE
:09148500200506D296C20C80027B
:02148E00D20C7E
:0614900005727575007580
:02149600760DD1
:06149800758D12021527FC
:0A149E00E57270077401B5750205D0
:0114A80077CC
:0A14A900C296A20C828B5007C20D00
:0514B300121546800641
:0614B80075760A758D6EC9
:0414BE00C28B8065F8
:0E14C200C296C28E740F55892410F589758D5F
:0A14D000FB758B90D28E200E0330C6
:0214DA000F05FC
:0514DC00121546802BF3
:0C14E100740F5558FF7E0074072FFFE4C5
:0C14ED003EFEAC727D00C3EF9CEE6480FC
:0C14F9008DF063F08095F05007D20A12CD
:041505001546800304
:0315090075760EE6
:04150C00C28B8017F7
:0E151000C28E740F55892420F589758D6E7575
:09151E008B80C28FD28E75760A13
:0C152700D204D0D0D000D001D002D003FC
:0E153300D004D005D006D007D083D082D0F0EF
:05154100D0E0D02332D0
:0A154600757600C28BC28EC2AB7531
:0A1550007300757200C28E740F550F
:0C155A00892410F589758D89758BAFC24E
:0A1566000EC20FC28FD28ED2AAD29D
:02157000AB22AC
:0E157200C28E740F55892420F589758D6E7513
:0C1580008B80C28F740F55582407FF7534
:04158C0073FF7E006B
:0C159000C3EE9F500BEE2453F9E7FD6200
:04159C00730E80F05A
:0715A000EF2453F8A673C20B
:0415A70006C207D29F
:0515AB000D75760A75C4
:0A15B0007500757200C2AAD28ED237
:0215BA00AB2262
:0A15BC00C07B85817BAF827EFF902B
:0815C6001D16E493FDBDFF00BA
:0C15CE005038201035901D16E493602E5C
:0715DA00901D16E493FD1DB6
:0E15E100ED6024ED2DFC2417901D0093FBEF10
:0C15EF00B5031374182C901D0093FCE54C
:0A15FB007B24FDF8E6B504028D061E
:031605001D80D96C
:051608008E82D07B2260
:0A160D00C07BE581F57B2404F58124
:0C161700AF82C2187DFE7E00EFA2E5E469
:0916230033FC24FF9219BF800082
:05162C00400302175904
:0C163100C005C006EF2323540124FF92E3
:0B163D001A53071F8F82C007C005C0B2
:0C16480023120D76AA82AB83ACF0FED01A
:0A16540023D005D007A87B08A602EA
:0E165E0008A60308A60408A606901D11E49332
:0E166C00FE0EEF2FFD2EFC04901D0093FEB528
:04167A0007028006DD
:06167E00D006D005800F2C
:0E168400D006D0058C8275831DE493FCFD7E9C
:011692000057
:09169300BDFE06BE00030218387A
:0A169C007553BC901D17E493FC8CFD
:0A16A60054901D18E493FC8C55EDE0
:0C16B0002DFD2417901D0093FE8E567433
:0A16BC00182D901D0093FE8E577547
:0616C6005900301A057501
:0416CC005A408003FD
:0316D000755A80C8
:0E16D300901D12E4932F2FFE2F2404901D0073
:0C16E10093FE24F95006EE24FBFE80026C
:0216ED007E017C
:0C16EF0074E02EF558EE24FE500F740637
:0A16FB002E2453F9A87B088605A7EA
:031705000580104C
:0C170800A87B08743F56FAE4FBFCFDEAE5
:04171400255AF55A03
:0C171800EE24FD500E74052E2453F9A899
:071724007B08088605A705FC
:0C172B00EE24FC500F74042E2453F9A887
:081737007B0808088605A705E0
:0C173F00EE24FB501074032E2453F9A874
:09174B007B080808088606A706C1
:05175400D21802183854
:0A1759007553B0901D17E493FE8E47
:0A17630054901D18E493FE8E558586
:03176D004C568552
:0A1770004D5753071FEF24FA5003F2
:03177A000218361C
:07177D00EF2F2F901784737A
:07178400021836021796025D
:06178B0017A20217B902CB
:0517910017CA02183028
:0817960075586074C22552F57C
:04179E00590218369E
:0817A2007558637443254EF5F0
:0517AA0059755A40755D
:0617AF005B00755C12D224
:0417B50012021836CE
:0717B900755600755700751D
:0617C00058E175590175A6
:0417C6005A40806C99
:0217CA007F009E
:0A17CC00C3EF954F5042E550702C1A
:0A17D600740A2F2453F9EF255190F7
:0C17E0001C0093F7AD517E008F037C00CD
:0E17EC00EB2DFDEC3EFEBD601CBE0019740A24
:0817FA002F2453F8A67A800F9A
:0A180200740A2F2453F9EF255190CA
:05180C001D0093FEF732
:031811000F80B88D
:091814007463254FF55874424538
:06181D004EF55974404530
:041823004FF55A859E
:03182700505B858E
:03182A00515CD23C
:03182D0012800620
:0618300075586075598136
:02183600D218C6
:0818380030190674DF5553F569
:011840005354
:06184100A218857B81D096
:021847007B2202
:07184900AF82C218BF40008E
:0C185000501B8F82C007C023121B92E5C2
:0C185C0082D023D0075444FEBE4402801A
:01186800047B
:04186900D218802AE7
:09186D00AD787E000DBD00010EF6
:0C1876005305077E00AB797C00EBB50544
:0718820006ECB50602800E22
:08188900E578246AF8A60705C2
:0518910078537807D236
:011896001839
:05189700D28EA2182210
:08189C00C07B85817B0581C240
:0818A40009AF5974C35FFEADEA
:0718AC005AE556FC7034E51B
:0918B300577030E57A20E00302D1
:0218BC001A927E
:0E18BE00EE700EBDC00BC006C005121B77D029
:0318CC0005D0063E
:0518CF00BE01028003D0
:0318D400021A9263
:0618D700ED6003021A920D
:0918DD00758283121849021A9267
:0818E600E55830E7030219C0C8
:0C18EE00901D17E493FBECB5030280038F
:0318FA00021A923D
:0B18FD00901D18E493FBB55702800318
:03190800021A922E
:05190B00BE420280183D
:05191000BE4302804F00
:05191500BE8002806AA3
:05191A00BE8102807B8C
:06191F00BE83030219B7AC
:03192500021A9211
:06192800201103021A92D7
:0C192E00743C5FF5525305F0BD800D7550
:0C193A008281C005121849121A97D005CE
:06194600ED6003021A929D
:04194C00855A4F85E4
:031950005B508564
:061953005C517582811257
:0919590018497582841218490234
:021962001A92D7
:0B196400743C5FF552BD800343A208F5
:06196F00ED6003021A9274
:0D197500758281121849758282121849028C
:021982001A92B7
:06198400301103021A926B
:04198A00D21185549D
:03198E004C855530
:051991004D754E00C27F
:0419960012021A928D
:07199A00E554B54C02800387
:0319A100021A9295
:0719A400E555B54D0280037B
:0319AB00021A928B
:0619AE00101103021A9261
:0319B400021A9282
:0919B700758285121849021A928A
:0619C000EE6003021A9222
:0C19C600C005C0578C821215BCAF821502
:0919D20081D005BFFF03021A9247
:0E19DB00901D11E493FEF58275831DE49325A3
:0D19E900E02EFC0E74C05DFBE4BB80010429
:0119F600FBF5
:0819F700C3EE9C4003021A92AA
:0E19FF008E8275831DE493FAEFB50202800319
:031A0D00021A8D2D
:0E1A1000C004EE04901D0093FAF582C007C0DA
:0E1A1E0006C005C003C002121B92AC82D002AB
:0C1A2C00D003D005D006D007A87B08A688
:0C1A380004D004EB6031C003A87B0874EC
:081A44001456FBBB14028004E0
:041A4C00D003801F24
:0E1A5000D0038A82C007C006C005C004C003D0
:0E1A5E00C0021208F1D002D003D004D005D08F
:031A6C0006D0079A
:0C1A6F00ED701BC002A87B08740C56FA36
:051A7B00BA0C0280041A
:041A8000D002800E02
:091A8400D0028A82120C028005D6
:051A8D000E0E0219F726
:051A92001581D07B224C
:0A1A9700C07BE581F57B2404F58196
:081AA100A87B08740F555AF6EA
:0A1AA900E57670FCC2AF75E400AEF4
:0A1AB3005CAD5B74015D241CFCA80F
:051ABD007B0808760023
:0A1AC200A87B0808A97B09C3E6977A
:051ACC004003021B6C49
:0C1AD100ED7030C0048E027C00A87B0881
:0E1ADD000886037F00EB2AFAEF3CFCBA600596
:051AEB00BC00028004B4
:041AF000D00480108E
:0A1AF400D004A87B0808740A262419
:061AFE0053F9877A800213
:021B04008CE76C
:0A1B0600A87B0808E62EF5E6A87B90
:0C1B10000808740A262453F987E58E03A8
:0A1B1C007F00A87B0808E57B240386
:0C1B2600F9E6F7097700E57B2403F8E6F8
:0E1B32002BFB08E63F53033F7F00BB3F25BF60
:0C1B40000022A87B0886037F001BBBFF6F
:021B4C00011F77
:0C1B4E00E57B2403F8E6B5030708E6B5C4
:041B5A0007028006F8
:061B5E0075E46875E40067
:081B6400A87B080806021AC262
:0A1B6C0075E468D2AF857B81D07B61
:011B7600224C
:0C1B7700E57670FCC2AF75E40075E71D58
:0A1B830075E617855BE5855CE575E6
:051B8D00E468D2AF2264
:0E1B9200AF82901D12E493FE0E0E0EEF2E2F6A
:081BA0002F901D0093F5822235
:0E1BA80075950075911475924CC29675892141
:0E1BB600758F00C28CC28E758D80758B80C2BB
:0C1BC4008FC20475A88075E80075B80495
:0A1BD00075B70CD28A757A2EC20692
:051BDA00C207C20EC2AB
:041BDF000FC209D256
:051BE3000B7578007590
:061BE8007900754E00C2F9
:041BEE0012C211C24C
:051BF20010121546224F
:06005200E478FFF6D8FD82
:080030007900E94400601B7A2D
:0500380000901C03789C
:03003D000075A0AB
:0A00400000E493F2A308B8000205E3
:08004A00A0D9F4DAF275A0FF61
:080058007800E84400600A7919
:030060000075A088
:0600630000E4F309D8FCE3
:080069007800E84400600C7906
:0B00710000900000E4F0A3D8FCD9FAD6
:0300230075817B69
:0A002600121BF7E582600302001EC2
:041BF70075820022D1
:00000001FF
