:05007C00C200C201C238
:01008100027C
:0700850085824AE4F529F52C
:04008C004BE54A25D1
:080090004A25E0F54824D5F5EE
:0500980049854A8212B7
:07009D0008B7E582700122A3
:0900A400AE4A7F000EBE00010F00
:0E00AD00EFA2E713CE13CE74F62E901D009333
:0C00BB00FF7401554A640175F004A4F5BF
:0600C700F005F0EF8002DD
:0200CD00C3135B
:0A00CF00D5F0FB5407F529854AF02F
:0600D90005F0E5248002A1
:0200DF00C31349
:0900E100D5F0FB5401FFB401004D
:0B00EA00E433FF6016854AF005F0E5E6
:0300F50025800261
:0200F800C31330
:0B00FA00D5F0FB5401FFBF01028004A1
:04010500C21880029A
:02010900D2180A
:05010B00A2189202E5BC
:050110004A243FF987BD
:080115002AE54AC31324CE9031
:0C011D001D0093FF7401554A75F004A406
:07012900F5F005F0EF800284
:02013000C313F7
:0B013200D5F0FB540FFFBF0102801B43
:06013D00BF02030201BA3B
:06014300BF0303020301EB
:06014900BF09030203D907
:06014F00BF0A0302050FC8
:030155000205F2AE
:08015800A20292F085F023855C
:060160004A8212086185CD
:0A016600498275831DE493FF5307DF
:070170000CBF04032002068E
:06017700BF082620022350
:06017D00E54A2436F9E515
:0A0183004904901D00932480F7E565
:07018D004A242DF87600A2C0
:0A01940002E433FE4306208E2A0227
:02019E0005F268
:0A01A000E54A2436F87600740825BD
:0901AA004AF582A20292F085F0F0
:0501B3002312086102A7
:0201B80005F24E
:0601BA00200203020243D3
:0801C000E54A2436F974D72545
:0C01C80048901D0093FE747F5E2480F7B9
:0601D400E54A242DF8A607
:0801DA00297408254AF5821280
:0E01E2000D77AB82AC83ADF0EBA2E3E433FB10
:0901F00024FF9200854982758309
:0C01F9001DE493FE530670BE0002800A55
:05020500BE100280099B
:05020A00BE300A800473
:04020F00B2008006B3
:04021300D200800293
:02021700C20023
:07021900300015E5490490D7
:0D0220001D00935438C423541FFE2448F5DC
:04022D002A0205F2AA
:0C023100E54904901D0093FE74075E2454
:06023D0040F52A0205F263
:0A0243007450552AFEBE4054854A4F
:0E024D0082120D77AB82AC83ADF0FEEB4C4D10
:0A025B004E24FF920085498275834E
:0C0265001DE493FE530670BE10028005DD
:05027100BE200A80041C
:04027600D20080062C
:04027A00C20080023C
:02027E00B200CC
:0C028000A200E433FD7E00C005C006852E
:0A028C004A82120C0D15811581E560
:070296004A2436F87600024D
:02029D0005F268
:0C029F007408254AF582120D77AB82AC82
:0C02AB0083ADF08B0774D52548901D0032
:0E02B70093FE30E31974085FFE7D0074082585
:0C02C5004AF582C006C005120C0D158120
:0402D1001581801FF4
:0C02D50074085FFEE4FDFCFB7408254A81
:0E02E100F582C006C005C004C003120E73E50E
:0502EF008124FCF581F3
:0602F400752A00E54A2412
:0702FA0036F876000205F260
:0A030100E54A254A25E024D8FEF560
:0C030B008275831DE4935430FDC4540F30
:09031700F54B7401B54B02800E98
:070320007402B54B02800BD3
:070327007403B54B298008A7
:04032E00C201802365
:04033200D201801F55
:0C0336007408254AF582C006120D77AA53
:0E03420082AB83ACF0FDD006630201EA4B4CA7
:050350004D24FF9201A5
:0A03550030025A8E8275831DE49376
:0C035F00FD30E313A201E433FD2480F51F
:04036B002AE54A2411
:07036F0036F876800205F26A
:0C037600A201E433FC7D00C004C005853A
:0A0382004A82120C0D15811581E569
:05038C004A2436F9E5EA
:080391004A254A25E024D6901C
:090399001D00932480F7E54A24BD
:0503A2002DF8A629A2C0
:0903A70001E433FD2480F52A0273
:0203B00005F254
:0A03B200E52A30E418A201E433FC50
:0C03BC007D00C004C005854A82120C0DB3
:0703C800158115810205F209
:0803CF00E54A2436F87600022D
:0203D70005F22D
:0903D900E54A254A25E024D590EF
:0C03E2001D0093FDFEE54A24FE4044EEA1
:0603EE0030E00320020DC7
:0703F400EE20E1030205F217
:0603FB003002030205F2CE
:0A040100E54A254AFD2419F9870396
:0D040B00098704C3EB94FFEC94FF4003024B
:0204180005F2EB
:0E041A00ED2419F98704098705190CBC0001AF
:010428000DC6
:08042900A70409A7050205F272
:0B043100E54A24FE25E025E024D590DC
:0B043C001D0093FDFE30E203200207CC
:07044700EE30E349200246FC
:0C044E007402B54A23751900751A00905D
:0B045A001DD6E493FD74804DF5369034
:0E0465001DF6E49354F0C4540FFD74804DF561
:030473002D801EBB
:0E047600751B00751C00901DD6E493FD74806C
:0C0484004DF537901DF7E493FD740F5DFB
:040490004480F52E81
:0C0494005306F07F00300220BE400280C2
:0104A0000358
:0304A100BE600238
:0204A4007F11C6
:0504A600BE800280038E
:0304AB00BE9002FE
:0204AE007F10BD
:0504B000BEC002800344
:0304B500BEF02274
:0404B8007F12801E11
:0504BC00BE10028003E8
:0304C100BE9002E8
:0204C4007F11A6
:0504C600BE20028003CE
:0304CB00BE60020E
:0204CE007F109D
:0504D000BE30028003B4
:0304D500BEF00274
:0204D8007F1291
:0C04DA00BF1215854A82120D77AA82AB72
:0C04E60083ACF0FD6302014302108A07A2
:0604F200EF70030205F2A9
:0C04F80074015FFD7C00C005C004854A53
:0B05040082120C0D158115810205F21A
:09050F00E54A254A25E024D590B7
:0B0518001D0093FDFE30E00320020DEB
:07052300EE20E1030205F2E6
:06052A003002030205F29D
:0A053000C006E54A254AFD2419F92A
:0B053A008703098704190BBB00010CAC
:0C054500A70309A704E54A241EF907E7F4
:0C05510074022549901D0093FB7C00748F
:0C055D00032549901D0093FA7E002CFC41
:0E056900EE3BFBED2419F98705098706C3ED6B
:0E0577009CEE9BD0064050EE23235403FFBFA2
:0C0585000312854A82120D77AB82AC8312
:08059100ADF0FE6303018B07CE
:05059900BF02027F001B
:0C059E007E00C007C006854A82120C0DCA
:0B05AA00158115817408254AF58212A6
:0905B50018AFE54A241EF8760097
:0A05BE00208EFDE54A254AFF2419AE
:0605C800F8760008760041
:0A05CE00E54A241EF98707E54904F9
:0D05D800901D0093FEC3EF9E401074082597
:0705E5004AF5821218AFE590
:0605EC004A241EF876000F
:0605F200E54A243FF8A6D3
:0205F8002A22B5
:0D05FA0075D16075D20E75D3A075D1610565
:060607002BE4B52B0205F7
:01060D002CC0
:0A060E00E52B24FFFEE52C34FFFF6E
:0B061800EEF4FEEFF4FFE52B5206E5C8
:050623002C52077D00D0
:03062800BD100002
:08062B005032EE30E0247C00A7
:03063300BC0900FF
:0C063600501DEC242DF9870353030FEB3B
:0C064200B5050DEC2436F9E7FB247F50D1
:04064E0003EB14F7AF
:030652000C80DE3B
:0A065500EFC313CE13CEFF0D80C9D2
:02065F007F001A
:03066100BF0800CF
:0306640040012230
:08066700EF243FF9872AEF247C
:09066F0036F98706BE8002800303
:0306780002085D18
:0B067B00E52A30E52D74082FF582E51C
:0A0686002A540124FF921892F0C0DC
:0C0690000785F023120861D00774075F93
:0D069C002408F582C007120D77D007EF2467
:0406A90036F87600A9
:0806AD00E52A20E703020753D0
:0C06B5007401552AFE7D0074082FF582A8
:0E06C100C007C006C005120C0D15811581D0B2
:0E06CF0007EF2F25E0FE24D7901D0093FE2498
:0C06DD00FC506DEF242DF98F047D000C03
:0406E900BC00010D43
:0E06ED00EDA2E713CC13CC74FA2C901D0093F1
:0E06FB00FD74015F640175F004A4F5F005F0D4
:03070900ED80027E
:02070C00C31315
:0E070E00D5F0FB5407F774075F2408F582C08E
:0E071C0007C006120D77AA82AB83ACF0FDD0A9
:0C072A0006D007EA4B4C4D24FF9218EF5C
:0A073600243FF9A218E433FD430547
:0C07400010A705EF2436F974802EF78016
:01074C0006A6
:06074D00EF2436F87600EF
:0A0753007450552AFEBE1002800EFD
:05075D00BE4002801205
:06076200BE50030207DF98
:030768000207FE87
:09076B00EF243FF876000207FEBE
:0C077400AD2A7E0074082FF582C007C07B
:0E07800005C006120C0D15811581D007EF245F
:0A078E003FF9870674104EF7EF24C0
:0C07980036F9EF2F25E024D8901D0093C7
:0C07A400FE74804EF7EF242DF98F057EC7
:0607B000000DBD00010E6A
:0E07B600EEA2E713CD13CD74FA2D901D009323
:0E07C400FE74015F640175F004A4F5F005F009
:0307D200EE8002B4
:0207D500C3134C
:0807D700D5F0FB540FF7801F61
:0B07DF00EF2436F9EF2F25E024D8901E
:0E07EA001D0093FE74804EF774082FF582C038
:0607F800071218AFD00744
:0A07FE00E52A705BEF242DF9870651
:0C080800530680BE804FEF2436F8EF2F1F
:0E08140025E024D6901D0093FE74804EF68FD2
:08082200057E000DBD00010E72
:0E082A00EEA2E713CD13CD74F62D901D0093B2
:0E083800FE74015F640175F004A4F5F005F094
:03084600EE80023F
:02084900C313D7
:0E084B00D5F0FB44C0F774082FF582C00712E9
:0408590018AFD007FD
:04085D000F0206611F
:0E086100AF8274075F25E025E024D7901D00CC
:05086F0093FEBF08002C
:070874004005EEC4540FFE25
:09087B00301806EE0303543FFEA1
:07088400530603EE70012290
:0E088B00BE03158F82C007120D77AA82AB83C1
:0A089900ACF0FDD0076302018004FB
:0408A30074015EFA84
:0E08A7007E00C002C0068F82120C0D15811556
:0208B50081229E
:0C08B700AF82901DD2E493FE601B7D0018
:0708C300C3ED9E50147C7090
:0708CA00EC60047B018002D9
:0208D1007B00AA
:0608D300EB60031C80F144
:0308D9000D80E7A8
:0C08DC00C0071211B8E582D0076525F4B2
:0A08E800FEEF901C6C935EF5822277
:0A08F200C07CE581F57C2404F5814B
:0D08FC00AF82901D12E4932F2F2F24049043
:070909001D0093FEBF10006A
:050910004003020997FD
:0C091500EE24F94026743F555AFD7C008A
:0E0921007B007A00C007C006C005C004C003FA
:0E092F00C0028F82120E73E58124FCF581D088
:03093D0006D007DA
:0C094000BE0723AA5B7B007C007D00C08A
:0E094C0007C006C002C003C004C0058F82129F
:0C095A000E73E58124FCF581D006D00767
:05096600BE0802800341
:03096B00020A3C41
:0A096E00AD5C7E00AB5B8B04E42D52
:0E097800FDEC3EFE3395E0FCFBC005C006C062
:0E09860004C0038F82120E73E58124FCF581FC
:03099400020A3C18
:0C0997007401555AFA8F82C007C002128A
:0C09A3000D77A87C08A68208A68308A691
:0E09AF00F008F6D0028A047D007E007F00A8CA
:0C09BD007C08E6620408E6620508E662B9
:0E09C9000608E66207EC4D4E4FD00760668AC6
:0E09D700037C007D007E00C007C002C003C08C
:0E09E50004C005C0068F82120E73E58124FC4B
:0E09F300F581D002D00774075F25E025E024CF
:0E0A0100D5901D0093FE53060374015EFD6246
:0E0A0F0002EE6029EA601074075F901C6C9381
:090A1D00FE74FFC39E5228800AFA
:0A0A260074075F901C6C93FE4228D9
:0C0A3000530707C0028F82120A42158192
:060A3C00857C81D07C22C4
:080A4200C07C85817CAF82C2FB
:0C0A4A00187EFFEFC31324CE901D009314
:0E0A5600FD74015F75F004A4F5F005F0ED806D
:010A6400028F
:020A6500C313B9
:0B0A6700D5F0FB540FFDBD0102800F15
:060A7200BD0203020B04AB
:060A7800BD0303020B6B3D
:030A7E00020BCE9A
:0E0A8100EFFE25E025E024D5901D0093FDE555
:0C0A8F007C24FDF874016675F002A4F5EB
:060A9B00F005F0ED800201
:020AA100C3137D
:0B0AA300D5F0FB540CFDBD0402800ADE
:050AAE00BD0802800AF2
:050AB300BD0C49800AA2
:050AB800D218020BCE74
:050ABD00C218020BCE7F
:0C0AC200E57C24FDF8E660178FF005F0DD
:040ACE00E524800299
:020AD200C3134C
:0B0AD400D5F0FB5401FD24FF92180236
:020ADF000BCE3C
:0E0AE1008F82C006120D77AA82AB83ACF0FDA7
:0C0AEF00D006630201EA4B4C4D24FF923C
:040AFB0018020BCE04
:050AFF007EFF020BCE9A
:0E0B04008F82C007120D77AA82AB83ACF0FD82
:0C0B1200D007EA4B4C4D24FF92188F06D0
:0C0B1E00E57C24FDF8E66018EF2F25E0D0
:0C0B2A0024D5901D0093FD30E705C21893
:030B3600020BCEE1
:050B39007EFF020BCE5F
:0E0B3E00EF2F25E024D6901D0093FD5305C037
:050B4C00BD4002800A1B
:050B5100BD80028009D7
:050B5600BDC00E800887
:040B5B00D218806FBD
:040B5F00C218806BCD
:040B6300B2188067DD
:040B67007EFF80632A
:0E0B6B0074082FFEEF2F25E024D5901D009377
:0C0B7900FDE57C24FDF874016675F002B7
:080B8500A4F5F005F0ED80027B
:020B8D00C31390
:0B0B8F00D5F0FB540CFDBD0402800AF1
:050B9A00BD0802800906
:050B9F00BD0C2A8008D6
:040BA400C2188026CD
:040BA800D2188022BD
:0E0BAC0074082FF582C006120D77AB82AC8361
:0E0BBA00ADF0FFD006630301EB4C4D4F24FF5E
:040BC80092188002FD
:020BCC007EFFAA
:0C0BCE00EE24EF402DA218E433FB7C0065
:0E0BDA007D007F00C006C003C004C005C00738
:0D0BE8008E82120E73E58124FCF581D0068B
:0B0BF5008E82C0061218AFD00650F52B
:030C0000D07C2283
:0A0C0300AF8274402FF5820218AF93
:080C0D00C07C85817CAF82E50B
:0C0C15007C24FCF886030886047D007E29
:0E0C210000C007C003C004C005C0068F8212C9
:0D0C2F000E73E58124FCF581D0078F821241
:050C3C0018AFD07C227E
:070C4100C2187528007F00B6
:030C4800BF0800E2
:030C4B0040012243
:0C0C4E007E00EF2436F97700EF2408F850
:0E0C5A007600EF2410F87600EFC31324CE903E
:0E0C68001D0093FD74015F75F004A4F5F00506
:040C7600F0ED80021B
:020C7A00C313A2
:0B0C7C00D5F0FB540FFDBD01028013FA
:050C8700BD0202804FD8
:050C8C00BD0302800F12
:060C9100BD0903020CFF87
:030C9700020D1734
:060C9A00EF243FF8760094
:0E0CA000EF2F25E024D5901D0093FD5305C0D5
:050CAE00BD4002800AB8
:050CB300BD8002800B72
:050CB800BDC05C800CD2
:060CBD00D2187E018054F4
:060CC300C2187E01804E04
:080CC9008FF005F074018002B8
:020CD10025E01C
:080CD300D5F0FBFD6224803C1A
:0E0CDB00EF2F25E0FD24D7901D0093FC30E79D
:050CE90004C2187E01A9
:0C0CEE0074D82D901D0093FD30E71ED23D
:050CFA00187E018018C6
:0C0CFF00EF24FE40137780EF242DF876E0
:0C0D0B0080EF2FFD2419F8760008760018
:0C0D1700EE6035A218E433FB7C007D0088
:0C0D23007E00C007C023C003C004C00550
:0E0D2F00C0068F82120E73E58124FCF581D080
:030D3D0023D007B9
:0A0D40008F82C007C0231218AFD045
:050D4A0023D00750F169
:0E0D4F00EF2F25E024D5901D0093FE530603E0
:0D0D5D00BE020AEF901C6C93FE4218800944
:090D6A00EF901C6C93F4FE52188A
:040D73000F020C4817
:0A0D7700C07CE581F57C2404F581C1
:0D0D8100AF82901D12E4932F2F2F240490B9
:0C0D8E001D0093FEEF24F05003020E360F
:030D9A00BE080090
:050D9D004067BF0800E3
:0E0DA2004023EF24F6401E74015F25E0241963
:0C0DB000F98704098705A87C08A6040840
:0B0DBC00A605087600087600020E6015
:0E0DC70074075FFE2410F987078F057F00A8D0
:0C0DD5007C08A60708A605ED3395E00891
:0E0DE100F608F6EE2408F987078F037C007DE4
:0C0DEF00007F00A87C08EB26F6EC08361C
:0B0DFB00F6ED0836F6EF0836F6805AD9
:0E0E0600EF2408F987077D007407C39EFEE401
:0A0E14009DFD8EF005F074FF8002D2
:020E1E00C313FC
:0C0E2000D5F0FBFE5207A87C08A60708CE
:0A0E2C007600087600087600802AA0
:0E0E36008F067F00EE24F0FEEF34FFFF8EF0FB
:060E440005F0E518800234
:020E4A00C313D0
:0C0E4C00D5F0FB5401FFA87C08A60708A5
:080E5800760008760008760020
:0C0E6000A87C0886820886830886F008BB
:070E6C00E6857C81D07C22A9
:080E7300C07C85817CAF8290F8
:0E0E7B001D12E4932F2F2F2404901D0093FED0
:080E8900EF24F04063BE0800F5
:050E91004049BF08000C
:0E0E9600401EEF24F6401974015F25E0241978
:0C0EA400F9E57C24FAF88605088606A70C
:060EB0000509A706806D94
:0C0EB60074075FFE2410F9E57C24FAF8B4
:0C0EC200088605A705EE2408F9E57C244D
:0E0ECE00FAF886037C007D007E00A7038047B3
:0C0EDC00EF2408F9E57C24FAF886037C7A
:090EE800007D007E00A7038032AA
:0E0EF100EF24F0FF901C6C93FE74FFC39E5222
:0C0EFF0018E57C24FAF8740156FB7C0016
:0B0F0B007D007E008FF005F0EB8002FF
:020F160025E0D4
:0B0F1800D5F0FBFFE518FE42078F1824
:030F2300D07C225D
:0E0F26007584007585FD75802275D181E4F516
:040F34002BF52C224B
:0400000002002332A5
:01000B0032C2
:030013000211EAED
:03001B0002121AB4
:0300820002001E5B
:05001E00120F3880FE06
:080F3800C07C85817C0581A8C5
:090F40007C0876007E00C218C294
:0A0F490019E5A7035401FD24FF92EF
:0A0F53001AD297209707301A047D88
:030F5D000080070A
:070F6000901CFFE493FCFD6F
:0E0F6700901CFFE493AB962BFC8C9653963FA8
:0C0F7500C297C006C005C023121C1ED08D
:070F810023759955C02312EE
:090F88000F26D023D005D006206D
:060F91001A527B007C00F7
:0E0F9700C005901DD4E493FA7D00901DFEE489
:0B0FA50093C4540FFF8FF005F080068E
:060FB000EA2AFAED33FD10
:0E0FB600D5F0F7C3EA9BED9CD005402375D122
:0A0FC4006075D21D75D34075D16130
:0E0FCE00E5D1248050FAC2AF75C2A575C35A92
:090FDC00D2AF0BBB00B50C80B2D2
:0E0FE50075C1FFC2AF75A7E575C2A575C35AE9
:0E0FF300D2AFC2AF43A70475C2A575C35AD2D0
:01100100AF3F
:0E100200C2AF75C2A575C35AD2AF901D0DE4E2
:0710100093FFBFFF02800304
:031017000210DAEA
:06101A00300F030210DAA2
:08102000E57A30E0030210DA6A
:0B102800C006C005C0231211B885826D
:0810330025D023D005D00620D2
:04103B0019178525D7
:09103F0024201A0FC006C005C0F0
:0510480023120C41D051
:05104D0023D005D006D0
:02105200D219B1
:07105400E524B525028039F7
:07105B00E5246525FFEE907E
:0C1062001C6C93FC5F6016EC55287011AC
:0C106E008E82C006C005C023120085D091
:05107A0023D005D006A3
:09107F00EE901C6C93FF55254214
:0710880024EFF4FF4525529F
:05108F00240E530607CA
:0C109400748025D1500FC006C005C02399
:0910A0001205FAD023D005D00698
:0210A9007F00C6
:0C10AB00EF24FE4052EF243FF9E77020D4
:0C10B700EF242DF9870474405CFBBB4063
:0C10C30013208E10EF2FFB2419F876008C
:0810CF000876005304BFA704DA
:0310D7000F80D1B6
:0C10DA00748025D15022300F1F75D161A9
:0A10E600E57B24914004057B801295
:0C10F000758285C006C005C0231218AF31
:0610FC00D023D005D00650
:06110200200903300A156C
:09110800C209C20AC006C005C0FC
:0511110023121902D0B9
:0711160023D005D006800A7A
:02111D007F64ED
:08111F008F041C8C07EF70F82F
:05112700109802804A4F
:05112C00AF99BF63084C
:0511310010990280FB93
:0311360075995553
:06113900BF2B0315961DFB
:06113F00BF2D0305960D13
:0E114500BF7712C2AF75E40075E71C75E6FFB8
:071153008DE575E468D2AFE1
:06115A00BF7003637A81FF
:03116000BF76084F
:0511630010990280FB61
:0311680075990C6A
:03116B00BF740846
:05116E0010990280FB56
:0311730075990C5F
:0B117600D297209718A87C08B6FF0055
:081181005006A87C0806801846
:06118900201803637A81C7
:04118F00D218800EE4
:0A119300A87C08E66006A87C081698
:02119D008002CE
:02119F00C21874
:0811A100E57A5401FFB40100DE
:0D11A900E433FF24FF92970210021581D05D
:0211B6007C2299
:081C6C00010204081020408071
:011D0000FFE3
:021D01000C0CC8
:021D03000004DA
:011D0C0000D6
:011D0D00FBDA
:021D1700FFFFCC
:0611B8007F00D282C28517
:0911BE00300406C282D282C20490
:0211C7007E00A8
:0E11C900EE24F84012C280EF2FFF3081010F9C
:0911D700A2819283D2800E80E90E
:0A11E0002004DBC282D2858F822238
:0E11EA00C0E0C0D0C2AAC28E740F5589242066
:0E11F800F589758B35758D80C28FD28ED2AB86
:06120600757602C205D25C
:05120C0003757500757B
:091211007400D204D0D0D0E03208
:0C121A00C023C0E0C0F0C082C083C00749
:0E122600C006C005C004C003C002C001C00065
:0A123400C0D075D000C07CE581F544
:0A123E007C2404F581E576FF24F11D
:0512480050030217C570
:07124D00EF2F2F90125473E4
:071254000212810217C5021E
:06125B00155802161802EE
:0612610016210216B20284
:0612670017C50217C502C5
:06126D0017C50217C502BF
:0612730016D402173C0234
:0612790017C50217600218
:02127F0017AEA8
:0E128100C28E740F55892420F589758B8075F7
:0A128F008D80C28FD28EE578B5790C
:0412990003021551E6
:08129D00E579246AF98707C214
:0C12A500187DFE7E00EFA2E5E433FC247F
:0612B100FF9219BF80004E
:0512B70040030213F7E3
:0C12BC00C005C006EF2323540124FF925C
:0B12C8001A53071F8F82C007C005C02B
:0C12D30023120D77AA82AB83ACF0FED092
:0A12DF0023D005D007A87C08A60262
:0E12E90008A60308A60408A606901D11E493AB
:0E12F700FE0EEF2FFD2EFC04901D0093FEB5A1
:041305000702800655
:06130900D006D005800FA4
:0E130F00D006D0058C8275831DE493FCFD7E14
:01131D0000CF
:09131E00BDFE06BE00030215002D
:0E132700901D12E4932F2F2FFC0C0C0C8C82C7
:0E13350075831DE493540325E025E0FB74B09E
:0A1343004BF553901D17E493FB8B4C
:0A134D0054901D18E493FB8B55ED3E
:0C1357002DFD2417901D0093FE8E56748F
:0A136300182D901D0093FE8E5775A3
:06136D005900301A05755D
:041373005A40800359
:03137700755A8024
:0E137A00EC04901D0093FE24F95006EE24FBB7
:03138800FE8002E2
:02138B007E01E1
:0C138D0074E02EF558EE24FE500F74069C
:0A1399002E2453F9A87C088605A74E
:0313A300058010B2
:0C13A600A87C08743F56FAE4FBFCFDEA4A
:0413B200255AF55A69
:0C13B600EE24FD500E74052E2453F9A8FF
:0713C2007C08088605A70561
:0C13C900EE24FC500F74042E2453F9A8ED
:0813D5007C0808088605A70545
:0C13DD00EE24FB501074032E2453F9A8DA
:0913E9007C080808088606A70626
:0513F200D218021500F5
:0A13F7007553B0901D17E493FE8EAD
:0A14010054901D18E493FE8E5585EB
:03140B004C5685B7
:0A140E004D5753071FEF24F8500359
:031418000214FEBD
:07141B00EF2F2F9014227344
:071422000214FE02143A025D
:06142900144602145D02EE
:06142F00146F0214CF024D
:0514350014D90214F5BA
:08143A0075586074C22552F5DB
:04144200590214FE39
:081446007558637443254EF54F
:05144E0059755A4075BC
:061453005B00755C12D283
:04145900100214FE6B
:07145D00755600755700757C
:0614640058E17559017505
:05146A005A400214FECF
:02146F007F00FC
:0A147100C3EF954F503CE550702684
:0A147B00740A2F2453F87600AD51D7
:0E1485007E008F037C00EB2DFDEC3EFEBD6073
:0B1493001CBE0019740A2F2453F8A699
:03149E007A800F42
:0A14A100740A2F2453F9EF2551902F
:0514AB001D0093FEF797
:0314B0000F80BEEC
:0914B3007463254FF5587442459D
:0614BC004EF55974404595
:0414C2004FF55A8503
:0314C600505B85F3
:0314C900515CD2A1
:0314CC0010802F5E
:0714CF00755860755981C2D8
:0314D6000F80255F
:0814D9007558647441454EF59D
:0614E1005974404550F56E
:0314E7005A8551D2
:0514EA005B755C057557
:0614EF005DA0D21080098F
:0814F50075586074C2254EF524
:0114FD005995
:0214FE00D21802
:0815000030190674DF5553F5A4
:01150800538F
:0A15090030183DC2AAE5767032E505
:0A15130079246AF9E7FF20E5077468
:06151D00204FF775770076
:0B15230074FC25774005121817801695
:06152E000579537907C2A4
:041534000CC21012C3
:0C15380017E9C28E758DF0758B00D28E05
:05154400D2AA0217C548
:0615490005795379070249
:02154F0017C5BE
:07155100C28ED2AA0217C5E9
:0A155800A28BB39218C28B757603C4
:0A156200758D00E575700A757501BE
:05156C00C206C20702E7
:0215710017C59C
:0A157300747F2575401C301808B283
:04157D0005E57525E6
:0315810074F5748A
:05158400E5752575F579
:061589007560030217C5A6
:06158F007575810217C50D
:0A159500C28EC28FA205201801B318
:0A159F00502CE572700E74CCB57488
:0315A90002D20665
:0715AC00740CB57402D207B4
:0715B300200619200716E5D0
:0815BA007224E94010E57224DF
:0615C20053F8E574F66227
:0515C8007305728002B2
:0215CD00C20357
:0515CF00100C02801D5C
:0715D400300614300311750D
:0715DB0077041010028009E3
:0715E200E54E2404F54E5311
:0215E9004E3C76
:0615EB001217E90217C50A
:0715F10030031E20061B2041
:0C15F8000718740F55892410F589758DB3
:0C160400FA758B70D28E757604D2AA02A3
:0216100017C5FC
:061612001217E90217C5E2
:09161800758D807576020217C57C
:0A16210074D35553FFBF90028003FD
:03162B000216ACF8
:0C162E00E57224F85078C28E740F5589C4
:0D163A002410F589758DEF758B42D28EC29C
:0716470008E55830E71F859C
:05164E005682C0571296
:0B1653001861AF821581BFFF0280020A
:02165E00D208B0
:09166000E556701CE5577018D224
:03166900088014E2
:0C166C00901D17E493FFB5560B901D185D
:08167800E493FFB55702D2080C
:0A16800074FFB57321740F5558FF75
:0C168A007E0074082FFFE43EFEAC727D71
:0C16960000EFB5040BEEB50507D21130D3
:0416A2000802D2095F
:0616A6007576050217C570
:0616AC001217E90217C548
:0916B200C28E30111330080AD277
:0516BB000D121817C21A
:0416C0000C0217C53C
:0616C4001217E90217C530
:0616CA00D20E121817C237
:0416D0000C0217C52C
:0816D400E5722453F987073089
:0416DC000D027FCCB0
:0516E000300E027F0C3A
:0916E500C2AA740AB57602800362
:0316EE000217C51B
:0A16F100E575247F402CE5755F705D
:0916FB0008D296C20BB205800270
:02170400D20B06
:08170600E5757007757501C25D
:03170E000580064D
:05171100E5752575F5EA
:01171600755D
:07171700E575700375758193
:05171E0075760B80133D
:09172300200506D296C20B8002DB
:02172C00D20BDE
:06172E00057275750075DF
:02173400760D30
:06173600758D120217C5BB
:0A173C00E57270077401B57502052F
:01174600772B
:0A174700C296A20B828B5007C20C61
:051751001217E98006FB
:0617560075760A758D6E28
:04175C00C28B806557
:0E176000C296C28E740F55892410F589758DBE
:0A176E00FB758B90D28E200D033026
:021778000E055C
:05177A001217E9802BAD
:0C177F00740F5558FF7E0074072FFFE424
:0C178B003EFEAC727D00C3EF9CEE64805B
:0C1797008DF063F08095F05007D20A122C
:0417A30017E98003BF
:0317A70075760E46
:0417AA00C28B801757
:0E17AE00C28E740F55892420F589758D6E75D5
:0917BC008B80C28FD28E75760A73
:0617C500D204857C81D0F6
:0C17CB007CD0D0D000D001D002D003D0E0
:0E17D70004D005D006D007D083D082D0F0D049
:0417E500E0D02332FB
:0A17E900757600C28BC28EC2AB758C
:0A17F3007300757200C28E740F556A
:0C17FD00892410F589758D89758BAFC2A9
:0A1809000DC20EC28FD28ED2AAD2F9
:04181300ABC2112231
:0E181700C28E740F55892420F589758D6E756B
:0C1825008B80C28F740F55582407FF758C
:0418310073FF7E00C3
:0C183500C3EE9F500BEE2453F9E7FD6258
:04184100730E80F0B2
:07184500EF2453F8A673C263
:04184C0006C207D2F7
:051850000C75760A751D
:0A1855007500757200C2AAD28ED28F
:02185F00AB22BA
:0A186100C07C85817CAF827EFF9081
:08186B001D16E493FDBDFF0012
:0E1873005035901D16E493602E901D16E493E0
:02188100FD1D4B
:0E188300ED6024ED2DFC2417901D0093FBEF6B
:0C189100B5031374182C901D0093FCE5A7
:0A189D007C24FDF8E6B504028D0678
:0318A7001D80D9C8
:0518AA008E82D07C22BB
:0718AF00AF82C218BF400028
:0C18B600501B8F82C007C023121C08E5E5
:0C18C20082D023D0075444FEBE440280B4
:0118CE000415
:0418CF00D218802A81
:0918D300AD787E000DBD00010E90
:0C18DC005305077E00AB797C00EBB505DE
:0718E80006ECB50602800EBC
:0818EF00E578246AF8A607055C
:0518F70078537807D2D0
:0118FC0018D3
:0518FD00D28EA21822AA
:0A190200C07CE581F57C2404F5812A
:09190C00C209AF5974C35FFEADBE
:071915005AA87C08A605E5B5
:09191C0056FB7049E5577045E5E2
:071925007A20E003021C021E
:09192C00EE7020A87C08B6C01A78
:0C193500E57670FCC2AF75E40075E71D9C
:0A19410075E617855BE5855CE5752A
:04194B00E468D2AFCB
:05194F00BE010280034F
:03195400021C0270
:09195700A87C08E66003021C02F2
:091960007582831218AF021C020B
:08196900E55830E703021B4DB5
:0C197100901D17E493FAEBB5020280030E
:03197D00021C0247
:0B198000901D18E493FAB55702800395
:03198B00021C0239
:08198E00757B00BE41028020C0
:05199600BE4202802F9B
:06199B00BE4303021AE145
:0619A100BE8003021B07DB
:0619A700BE8103021B29B2
:0619AD00BE8303021B4291
:0319B300021C0211
:0419B6008D50855B70
:0B19BA00517582871218AF75828612EB
:0519C50018AF021C0236
:0619CA00200F03021C02C5
:0A19D000743C5FF552A87C08E65451
:0A19DA00F0F6A87C08B68002800336
:0319E400021AC024
:0B19E7007582811218AF740F555AFF73
:0A19F200E57670FCC2AF75E400AAB0
:0A19FC005B74015A241CFBAE5CA8CA
:051A06007C08087600D9
:0C1A0B00A87C0808C3E69F4003021ABB39
:0C1A1700EA703CC002E57C2403F8A6063F
:0C1A2300087600A87C080886047D00E519
:0C1A2F007C2403F8EC26FCED0836FDBC1E
:071A3B006005BD00028004FC
:041A4200D002802628
:0A1A4600D002A87C0808740A2624C8
:061A500053F9877A8016AD
:0B1A56008BE7A87C0808E62EF5E6A848
:0A1A61007C0808740A262453F98754
:011A6B00E595
:0A1A6C008E047D00A87C0808E57CCC
:0C1A76002403F9E6F7097700E57C24035F
:0E1A8200F8E62CFC08E63D53043F7D00BC3F17
:0D1A900022BD001F8F047D001CBCFF011D46
:0C1A9D00E57C2403F8E6B5040708E6B574
:041AA90005028006AC
:061AAD0075E46875E40019
:081AB300A87C080806021A0BCA
:051ABB0075E468D2AFE4
:091AC000A87C08E66003021C0288
:041AC900855A4F8566
:031ACD005B5085E6
:061AD0005C5175828112D9
:091AD60018AF7582841218AF02EA
:021ADF001C02E7
:0A1AE100743C5FF552A87C08B68043
:041AEB000343A20807
:091AEF00A87C08E66003021C0259
:0D1AF8007582811218AF7582821218AF023C
:021B05001C02C0
:061B0700300F03021C0276
:041B0D00D20F85541A
:031B11004C8555AB
:051B14004D754E00C2FA
:0C1B19001075D16075D20B75D3B375D177
:041B250061021C023B
:071B2900E554B54C028003F6
:031B3000021C0292
:071B3300E555B54D028003EA
:031B3A00021C0288
:051B3D00C20F021C02B2
:091B42007582851218AFC20F0272
:021B4B001C027A
:061B4D00EE6003021C0221
:0C1B5300C0578B82121861AF821581BF51
:051B5F00FF03021C025F
:0E1B6400901D11E493FEF58275831DE4932518
:0C1B7200E02EFD0EA87C0874C056FCE4B8
:041B7E00BC80010422
:011B8200FC66
:081B8300C3EE9D4003021C02A9
:0E1B8B008E8275831DE493FBEFB50366EE04B6
:0E1B9900901D0093FBF582C007C006C005C07A
:0E1BA70004C003121C08AA82D003D004D0058B
:0E1BB500D006D007EC602EC00474145AFCBC9D
:041BC3001402800484
:041BC700D004801FA7
:0E1BCB00D0048B82C007C006C005C004C00352
:0E1BD900C0021208F2D002D003D004D005D012
:031BE70006D0071E
:0C1BEA00A87C08E6700D53020CBA0C0C2D
:071BF6008B82120C03800535
:051BFD000E0E021B8327
:061C0200857C81D07C22EC
:0E1C0800AF82901D12E493FE0E0E0EEF2E2FF3
:081C16002F901D0093F58222BE
:0E1C1E0075950075911475924CC296758921CA
:0E1C2C00758F00C28CC28E758D80758B80C244
:0C1C3A008FC20475A88075E80075B8041E
:0A1C460075B70CD28A757A2EC2061B
:051C5000C207C20DC235
:041C55000EC209753D
:061C5900780075790075AA
:051C5F004E00C210C29E
:041C64000F0217E96B
:06005200E478FFF6D8FD82
:080030007900E94400601B7A2D
:0500380000901C74782B
:03003D000075A0AB
:0A00400000E493F2A308B8000205E3
:08004A00A0D9F4DAF275A0FF61
:080058007800E84400600A7919
:030060000075A088
:0600630000E4F309D8FCE3
:080069007800E84400600C7906
:0B00710000900000E4F0A3D8FCD9FAD6
:0300230075817C68
:0A002600121C68E582600302001E50
:041C6800758200225F
:00000001FF
