:0400000002002332A5
:01000B0032C2
:03001300020E904A
:03001B00020EC012
:03007C0002001E61
:05001E001200C780FE86
:0E007F0075C1FFC2AF75A7E575C2A575C35A5E
:03008D00D2AF22CD
:0B009000C2AF75C2A575C35AD2AF22E3
:0C009B00A2AF9218C2AF43A70475C2A523
:0800A70075C35AA21892AF22A2
:0C00AF00A2AF9218C2AFAFA75307FB8F9F
:0C00BB00A775C2A575C35AA21892AF2207
:0C00C7007F007E00C218E5A7035401244E
:0A00D300FF9219C007C006C02312F7
:0C00DD00185ED023D006D007D2972097E1
:0800E900073019047D008007B7
:0700F100901BFFE493FCFDEE
:0E00F800C297901BFFE493AB962BFC8C9653A3
:09010600963FD28C2019217C00E7
:03010F00BC3200FF
:0E011200501AC28C901D17E493F58C901D18A6
:08012000E493F58AC28DD28C34
:06012800308DFD0C80E1AA
:0C012E00C007C006C005C02312007FD02F
:04013A0023C02312A9
:05013E00009BD023C06E
:0501430023120E12D092
:0A01480023D005D006D007201913BC
:0C015200C007C006C005C023120D3FD03E
:07015E0023D005D006D007F5
:0E01650053BDFE75985043BAE043BD0275BF0E
:0A0173002F75BEF043BD01759955CC
:0C017D00C007C006C005C023120090D0CF
:0C01890023D005D006D007901D0DE49394
:06019500FCBCFF02800328
:03019B0002028CD1
:06019E0030100302028C88
:0801A400E56D30E00302028C5E
:0D01AC00748025D15013C007C006C005C0E7
:0501B90023120AC1D071
:0701BE0023D005D006D00795
:0E01C500308D0C740F5589FCBC0104C28DD224
:0101D3009299
:0C01D400309013C007C006C005C0231205
:0A01E0000E06D023D005D006D0078C
:0A01EA00300113C007C006C005C0B5
:0501F40023120BFBD0FB
:0701F90023D005D006D0075A
:0C020000E53E605FC0058EF005F07B015C
:04020C007C008006EC
:06021000EB2BFBEC33FCBC
:0C021600D5F0F7AA3E7D00EA5203ED523D
:0E02220004D005EB4C6034740C2EF582C0073E
:0A023000C006C005C0231214FFD061
:0C023A0023D005D006D00750228EF0051E
:05024600F074018002CC
:02024B0025E0AC
:0C024D00D5F0FBFC74FFC39C523E0E5326
:04025900060780080C
:06025D000E5306078002AB
:020263007E001B
:0B026500E56970237440258D401D20CA
:090270000C1A901D99E493FCB5F1
:040279003A02800FB6
:0C027D0075E40075E71D75E699853AE50B
:0302890075E468B1
:06028C00200803300919EF
:0A029200C208C209C007C006C0057B
:06029C00C023121552D030
:0902A20023D005D006D007800A24
:0202AB007C6471
:0802AD008C031B8B04EC70F8BC
:0502B5001098028079A1
:0502BA00AC99BC6308D3
:0502BF0010990280FB14
:0302C400759955D4
:0602C700BC2B0315961D7F
:0602CD00BC2D0305960D97
:0E02D300BC7712C2AF75E40075E71B75E6FF3D
:0702E1008DE575E468D2AF62
:0602E800BC7003636D8190
:0302EE00BC7608D3
:0502F10010990280FBE2
:0302F600759924D3
:0302F900BC7408CA
:0502FC0010990280FBD7
:03030100759902E9
:03030400BC310009
:0E030700402AEC24C74025EC24CFF5F005F089
:0403150074018002ED
:0203190025E0DD
:0C031B00D5F0FB623AC007C006C005C068
:0503270023120BFBD0C6
:07032C0023D005D006D00725
:08033300D297209712BFFF00D2
:05033B0050030F8012C9
:06034000201803636D812B
:04034600D218800841
:06034A00EF60031F8002BA
:02035000C218D1
:08035200E56D5401FCB401004B
:0B035A00E433FC24FF929702017D2297
:0A036500C0088581080581058105A7
:0E036F0081E582FF24F8FE8EF005F074018017
:01037D00027D
:02037E0025E078
:07038000D5F0FBFEBF0800F1
:0A038700501AE54D540124FF9218AE
:0C03910092F0C007C00685F0238F821296
:06039D00074AD006D0075C
:0803A300EF24F840030205CD30
:0303AB00BF0C0084
:0503AE0040030205CD33
:0C03B3007401554DFD7C00C007C006C061
:0E03BF0005C0048F8212068F15811581D006AD
:0D03CD00D0077D007C007B008F027F00A820
:0C03DA00080808EA24F8F6EF34FF08F6E3
:0C03E600A8080808B6000608B60002804F
:0103F2002BDF
:0C03F300A8080808B6010608B600028041
:0103FF0047B6
:0C040000A8080808B6020608B600028032
:01040C006689
:0C040D00A8080808B6030708B6000302A0
:02041900049B42
:03041B000204C513
:0D041E00C006901DD8E493FE740F5EFD90A3
:0E042B001DEFE493FE74035EFC901DEFE4935E
:0E0439000303543FFE74035EFBD0060204C5AD
:0E044700C006901DD8E49354F0C4540FFD90ED
:0D0455001DEFE493C4540FFE74035EFC9091
:0E0462001DEFE49323235403FE74035EFBD0CE
:03047000068052B1
:0D047300C006901DD9E493FE740F5EFD904D
:0E0480001DF0E493FE74035EFC901DF0E49307
:0D048E000303543FFE74035EFBD006802A7A
:0E049B00C006901DD9E49354F0C4540FFD9098
:0D04A9001DF0E493C4540FFE74035EFC903C
:0E04B6001DF0E49323235403FE74035EFBD079
:0104C4000631
:0E04C500C006901DEDE493FEEA24F8FAEF3431
:0E04D300FFCA25E0CA33FF8AF005F0EE800272
:0204E100C31343
:0E04E300D5F0FBFE74035EFAED14FF8FF005FA
:0804F100F0A808087401800264
:0204F90025E0FC
:0B04FB00D5F0FBF6BA0004D006800A22
:07050600D006BA0102804893
:03050D000205CD17
:07051000AF4DBF8002800522
:05051700BF8113800B01
:0A051C00A8080874FFC396523D8042
:0105260006CE
:06052700A80808E6423DB1
:0E052D00ED14FFF582C0071205E7AE82AD8324
:0C053B00ACF0FBD007EE4D4C4B24FF92BF
:090547001892F085F0238F821256
:05055000074A0205CD81
:0C055500901DF1E49352068E07AE4DE4B9
:04056100BE80010453
:06056500FA6003EF6006DE
:06056B00BE8129EF6026AD
:09057100A80808E6553C601EA82C
:0A057A00080874FFC396523CBB0151
:0A05840009A8080874FFC396523A54
:09058E00BB0206A80808E6423A87
:06059700BE8103EF6006C7
:06059D00EA602DEF602A68
:0905A300A80808E6553C7022A8E6
:0905AC000808E6423CBC0109A864
:0805B500080874FFC396523AD6
:0905BD00BC0206A80808E6423A57
:0705C600ED14242CF876006F
:0705CD00E53BB53A02800294
:0205D400D20152
:0605D600850881D0082217
:0B05DC00AF8274402FF5821214FF2242
:0705E700AF827E00BF080097
:0E05EE00E433FD6027C0068FF005F07B017C32
:0305FC0000800676
:0605FF00EB2BFBEC33FCCA
:0C060500D5F0F7AA377E00EA5203EE524F
:0906110004D006EB4C60027E01EE
:06061A00ED7033BF0C007F
:0E062000502E8F047D00EC24F8FCED34FF8C8E
:09062E00F005F07C017D0080065E
:06063700EC2CFCED33FD8C
:0C063D00D5F0F7AA397B00EA5204EB521A
:0706490005EC4D60027E018B
:03065000BF0C00DC
:0E065300402C7D00EF24F4FFED34FF8FF00506
:07066100F07F017D0080061F
:06066800EF2FFFED33FD52
:0C066E00D5F0F7AB387C00EB5207EC52E3
:07067A0005EF4D60027E0157
:0E0681007F007D007C008E828F838DF0EC2246
:0A068F00C008858108AF82BF080093
:0C069900E433FE6030E50824FCF8E608BD
:0B06A5004670168FF005F07401800213
:0206B00025E043
:0C06B200D5F0FBFD74FFC39D5237801093
:0806BE008FF005F074018002C9
:0206C60025E02D
:0606C800D5F0FBFD4237F6
:0606CE00EE703BBF0C00C2
:0C06D4005036E50824FCF8E608467019D2
:0B06E000EF24F8F5F005F07401800233
:0206EB0025E008
:0C06ED00D5F0FBFE740FC39E5239801341
:0B06F900EF24F8F5F005F0740180021A
:0207040025E0EE
:06070600D5F0FBFE4239B4
:03070C00BF0C001F
:0C070F004036E50824FCF8E608467019A6
:0B071B00EF24F4F5F005F074018002FB
:0207260025E0CC
:0C072800D5F0FBFE74FFC39E5238801316
:0B073400EF24F4F5F005F074018002E2
:02073F0025E0B3
:06074100D5F0FBFF423879
:03074700D00822B5
:0A074A00C00885810805810581AF14
:0E07540082901DEBE493FE8FF005F0EE800224
:02076200C313BF
:0B076400D5F0FB5401FE24FF92192089
:05076F0018033019061B
:06077400201803020ABB7D
:0A077A00A218E433FD7E00C007C0A2
:0C07840023C005C0068F8212068F15816D
:0A0790001581D023D007A80808083F
:0C079A007600A808087600901DD8E493B3
:0E07A600FC53040F8F027B00C00774012AFE73
:0E07B400E43BFF7D00ECB50606EDB5070280C4
:0107C2000432
:0407C300D0078008D3
:0807C700D007A808080876011C
:0E07CF00C007901DD8E49354F0C4540FFE747C
:0E07DD00012AFCE43BFD7F00EEB50406EFB5FB
:0407EB00050280047F
:0407EF00D0078008A7
:0807F300D007A80808087602EF
:0E07FB00C007901DD9E493FE53060F74012A27
:0E080900FCE43BFD7F00EEB50406EFB50502F2
:0208170080045B
:04081900D00780087C
:08081D00D007A80808087603C3
:0E082500C007901DD9E49354F0C4540FFE7424
:0E083300012AFCE43BFD7F00EEB50406EFB5A4
:040841000502800428
:04084500D007800850
:08084900D007A8080808760496
:0C085100A8080808E6605FC002C0039021
:0C085D001DEDE493FEA808080886047D49
:0E08690000EC24FFFAED34FFCA25E0CA33FB91
:070877008AF005F0EE80029B
:02087E00C313A2
:0D088000D5F0FB54036006D003D002802A9F
:0E088D00D003D002901DEEE493FE1CBCFF01D0
:01089B001D3F
:0E089C00EDCC25E0CC33FD8CF005F0EE8002B3
:0208AA00C31376
:0B08AC00D5F0FBFEA8080874035EF600
:0E08B700C002C0038FF005F07D017E008006B8
:0608C500ED2DFDEE33FEF7
:0C08CB00D5F0F7AB3C7C00EB5205EC5282
:0C08D70006D003D002ED4E6003020ABB05
:0B08E3008F82C007C003C002C02312B8
:0C08EE001848E582D023D002D003D007C8
:0808FA005414FEBE1402800339
:03090200020ABB2B
:050905000ABA00010B1D
:0E090A00EBA2E713CA13CAFB74F92A901D0072
:0E09180093FE74015FFDBD010553060F8008BC
:0809260074F05EFDC4540FFEE5
:0A092E007D007C00201824A80808B2
:0C093800E66043A80808B601108FF00527
:05094400F0E53D80021A
:02094900C313D6
:06094B00D5F0FB30E02DA9
:06095100A80808B6020030
:02095700502529
:0A095900A218E433FBBB0102800387
:030963000209DDA9
:06096600A80808B602001B
:0A096C00406F8FF005F0E53D8002BA
:02097600C313A9
:06097800D5F0FB20E05F5A
:0E097E0074E22F901D0093FBFD6018901DEA9F
:0A098C00E493FB8FF005F0EB80020E
:02099600C31389
:09099800D5F0FB5401FBBB013A50
:0D09A100901DF2E493FB8FF005F0EB800257
:0209AE00C31371
:0E09B000D5F0FB20E0138FF005F074018002FB
:0209BE0025E032
:0909C000D5F0FBF4FB523A80145F
:0809C9008FF005F074018002BB
:0209D10025E01F
:0809D300D5F0FBFB423A800263
:0209DB007C019D
:0A09DD00A218E433FBBB012BA808AD
:0C09E70008E66049A80808B6010280413B
:0609F300A80808B602008E
:0A09F90040158FF005F0E53D800287
:020A0300C3131B
:0B0A0500D5F0FB5401FBBB0102802474
:060A1000301803020A9EEB
:080A1600A80808B601028003E4
:030A1E00020A9E2B
:080A21008FF005F0E53D8002B5
:020A2900C313F5
:090A2B00D5F0FB5401FBBB016A8C
:0E0A340074DA2F901D0093FBFD705D901DEA9B
:0A0A4200E493FB8FF005F0EB800257
:020A4C00C313D2
:0E0A4E00D5F0FB5401FBBB010B7C8074E22F42
:060A5C00901D0093FBFD5C
:0D0A6200901DF2E493FB8FF005F0EB800295
:020A6F00C313AF
:0E0A7100D5F0FB20E0128FF005F0740180023A
:020A7F0025E070
:080A8100D5F0FBFB423A8015A1
:080A89008FF005F074018002FA
:020A910025E05E
:090A9300D5F0FBF4FB523A80029D
:020A9C007C11CB
:0C0A9E00EC6014EF242CF974804DF7EF8D
:0B0AAA002424F95304F0EC4EF7800602
:060AB500EF242CF876008E
:060ABB00850881D008222D
:0A0AC10075D1610534E4B534020577
:010ACB0035F5
:0A0ACC00E53424FFFEE53534FFFF9A
:0B0AD600EEF4FEEFF4FFE5345206E5FD
:050AE1003552077D0005
:030AE600BD100040
:080AE9005032EE30E0247C00E5
:030AF100BC08003E
:0C0AF400501DEC2424F9870353030FEB82
:0C0B0000B5050DEC242CF9E7FB247F5018
:040B0C0003EB14F7EC
:030B10000C80DE78
:0A0B1300EFC313CE13CEFF0D80C90F
:020B1D007F0057
:080B1F00EF24F85003020BFA69
:0B0B2700EF242CF98706BE800280033B
:030B3200020BF6BD
:0A0B3500D2018FF005F07401800278
:020B3F0025E0AF
:0C0B4100D5F0FBFEEF2424F9E7FD20E4D2
:040B4D0003020BD1C3
:0D0B5100901DF2E493FD8FF005F0ED8002A1
:020B5E00C313BF
:0B0B6000D5F0FB20E005EE423A8005D6
:050B6B00EEF4FD523A1A
:0C0B7000EF242CF87600901DEAE493FDC1
:070B7C008FF005F0ED80028F
:020B8300C3139A
:0E0B8500D5F0FBFC74015CFDBD01668F037CA6
:060B9300000BBB00010C89
:0E0B9900ECA2E713CB13CB74F92B901D009345
:0D0BA700FC74015FFBBB010553040F8008C7
:080BB40074F05CFBC4540FFC5B
:0E0BBC0074E22F901D0093FB6030ED602D74ED
:070BCA00804BF6A704802513
:0D0BD100901DF2E493FD8FF005F0ED800221
:020BDE00C3133F
:0C0BE000D5F0FB20E007EEF4FD523A8057
:010BEC000305
:030BED00EE423A9B
:060BF000EF242CF8760052
:040BF6000F020B1FC0
:010BFA0022D8
:070BFB00853A82120C511231
:0E0C02000CE1C292C28D758C6F758AFF74F082
:0E0C1000558904F589758F00D28C901DF3E490
:070C1E0093653AF5387F00F1
:030C2500BF080005
:0A0C280050218FF005F074018002E6
:020C320025E0BB
:0A0C3400D5F0FBFE553AFDEE553BEE
:070C3E00FCEDB50402800388
:030C4500EE423E3E
:030C48000F80DA40
:040C4B00853A3BC2E9
:020C4F00012280
:0C0C5100AF82E53B6FFEE4FCFDEE30E0FE
:0B0C5D000EEF30E0067C007D208004DC
:040C68007C007D107F
:0D0C6C00EE30E10CEF30E105430408800399
:030C79004304042D
:0D0C7C00EE30E20CEF30E20543058080030E
:030C8900430540E0
:0D0C8C00EE30E30CEF30E30543040280037B
:030C990043040110
:0D0C9C00EE30E40CEF30E4054304808003EB
:030CA900430440C1
:0D0CAC00EE30E50CEF30E505430502800356
:030CB900430501EF
:0D0CBC00EE30E60CEF30E605430420800327
:030CC900430410D1
:0D0CCC00EE30E70CEF30E70543050880032C
:030CD900430504CC
:050CDC008C828D8322D3
:0C0CE100AE82AF838E04AE3AC282C283A2
:020CED007D0088
:0E0CEF00ED24F8402674805C23540124FF920B
:0E0CFD0080EC2CFCD283C28374805E235401F1
:0E0D0B00FB24FF9284EE2EFED285C2850D8061
:010D1900D504
:060D1A00D286C2867E00B5
:0E0D2000EE24F8401574805F235401FD24FF7B
:0C0D2E009280EF2FFFD283C2830E80E67C
:050D3A00D282C28222FA
:080D3F00901D99E493F53A9030
:070D47001DF6E493FF7E009E
:0E0D4E00EE24FC4046EE75F002A4FCADF08CE5
:060D5C00F005F0EF80023B
:020D6200C313B9
:0E0D6400D5F0FBFC74035CFDBD01148EF005A0
:050D7200F07401800295
:020D770025E075
:0A0D7900D5F0FBFC74FFC39C523A56
:0B0D8300BD02108EF005F0740180022C
:020D8E0025E05E
:060D9000D5F0FBFC423A25
:030D96000E80B517
:080D9900901DF7E493FF7E00BA
:0E0DA100EE24FC404CEE75F002A4FBACF08B8F
:060DAF00F005F0EF8002E8
:020DB500C31366
:0E0DB700D5F0FBFB74035BFDBD011774042E29
:080DC500F5F005F07401800255
:020DCD0025E01F
:0A0DCF00D5F0FBFC74FFC39C523A00
:0E0DD900BD021374042EF5F005F074018002C3
:020DE70025E005
:060DE900D5F0FBFD423ACB
:030DEF000E80AFC4
:060DF200753B00D20190E8
:070DF8001DF3E493653AF5D9
:050DFF0038E53AF44262
:020E04003E228C
:060E0600753A00120BFB1F
:030E0C00308DFD29
:030E0F0080FE2240
:0E0E12007580007584007585FFD292C2A9D24A
:080E200088753900E4F53CF58A
:040E280034F535F573
:0A0E2C003DC200C2AF75E40075E797
:0E0E36001D75E60375E50075E71D75E604758C
:0E0E4400E50475E71D75E60575E52075E71DEB
:0E0E520075E60675E56075E71D75E60775E542
:0E0E60000175E71D75E60C75E50075E71D755B
:0E0E6E00E60D75E5FF75E71D75E61275E59A50
:0E0E7C0075E468D2AFC28875D16075D2017579
:060E8A00D3CD75D16122F9
:0E0E9000C0E0C0D0C2AAC28E740F55892420C3
:0E0E9E00F589758B35758D80C28FD28ED2ABE3
:060EAC00756902C204D2C8
:050EB2000275680075E7
:090EB7006700D203D0D0D0E03274
:0C0EC000C023C0E0C0F0C082C083C007A7
:0E0ECC00C006C005C004C003C002C001C000C3
:0C0EDA00C0D075D000E569FF24F1500382
:030EE6000211DD19
:070EE900EF2F2F900EF073B4
:070EF000020F1D0211DD02DB
:060EF7000F9002104A02F8
:060EFD0010530210C802B0
:060F030011DD0211DD0208
:060F090011DD0211DD0202
:060F0F0010EC0211540277
:060F150011DD021178025B
:020F1B0011C6FD
:0E0F1D00C28E740F55892420F589758B80755E
:0A0F2B008D80C28FD28EE56BB56C8D
:030F3500028051E6
:080F3800E56C245DF9878212CB
:0B0F400012C3503DC2AAE5697032E503
:0A0F4B006C245DF9E7FF20E5077450
:060F5500204FF7756A0051
:0B0F5B0074FC256A4005121228801665
:060F6600056C536C07C28C
:040F6C000CC2111290
:0C0F700011FCC28E758DF0758B00D28EC6
:050F7C00D2AA0211DD04
:060F8100056C536C070231
:020F870011DD7A
:070F8900C28ED2AA0211DDA5
:0A0F9000A28BB39218C28B7569039F
:0A0F9A00758D00E568700A756801A6
:050FA400C205C20602B7
:020FA90011DD58
:0A0FAB00747F2568401C301808B25E
:040FB50004E56825C2
:030FB90067F56772
:050FBC00E5682568F561
:060FC1006860030211DD6F
:060FC7007568810211DDD6
:0A0FCD00C28EC28FA204201801B3E7
:0A0FD7005026E565700E74CCB56776
:030FE10002D20534
:070FE400740CB56702D20690
:070FEB00200513200610E5AC
:050FF200652446F8E54E
:050FF70067F6626605CB
:030FFC006580020B
:020FFF00C2022C
:05100100100C02801D2F
:0710060030051430021175E2
:07100D006A041011028009C2
:07101400E5412404F54153FE
:02101B00413C56
:06101D001211FC0211DDBE
:0710230030021E20051B2016
:0C102A000618740F55892410F589758D87
:0C103600FA758B70D28E756904D2AA0284
:0210420011DDBE
:061044001211FC0211DD97
:09104A00758D807569020211DD4B
:0A105300300A64E56524FB505EC21C
:0E105D008E740F55892410F589758DEF758BF3
:08106B0042D28EA20F9207E5AC
:081073004B30E71F854982C0E4
:0C107B004A121272AF821581BFFF028082
:011087000266
:02108800D2078D
:09108A00E549701CE54A7018D21A
:03109300078014BF
:0C109600901D17E493FFB5490B901D1846
:0810A200E493FFB54A02D207F6
:0910AA0074FFB56605300702D29F
:0110B3000834
:0610B4007569050211DD63
:0810BA00E56524FE5002D20896
:0610C2001211FC0211DD19
:0A10C800C28E74FFB5661330070AEC
:0610D200D20D121228C22B
:0410D8000C0211DD18
:0610DC001211FC0211DDFF
:0610E200D20E121228C21A
:0410E8000C0211DD08
:0810EC00E5652446F987073091
:0410F4000D027FCC9E
:0510F800300E027F0C28
:0910FD00C2AA740AB5690280035D
:031106000211DDF6
:0A110900E568247F402CE5685F7064
:0911130008D296C20BB20480025E
:02111C00D20BF4
:08111E00E5687007756801C265
:031126000480063C
:05112900E5682568F5F2
:01112E006858
:07112F00E56870037568819B
:0511360075690B801338
:09113B00200406D296C20B8002CA
:02114400D20BCC
:06114600056575680075E7
:02114C00690D2B
:06114E00758D120211DD97
:0A115400E56570077401B568020537
:01115E006A26
:0A115F00C296A20B828B5007C20C4F
:051169001211FC8006DC
:06116E0075690A758D6E23
:04117400C28B806545
:0E117800C296C28E740F55892410F589758DAC
:0A118600FB758B90D28E200D033014
:021190000E054A
:051192001211FC802B8E
:0C119700740F554BFF7E0074072FFFE41F
:0C11A3003EFEAC657D00C3EF9CEE648056
:0C11AF008DF063F08095F05007D209121B
:0411BB0011FC8003A0
:0311BF0075690E41
:0411C200C28B801745
:0E11C600C28E740F55892420F589758D6E75C3
:0911D4008B80C28FD28E75690A6E
:0C11DD00D203D0D0D000D001D002D0034B
:0E11E900D004D005D006D007D083D082D0F03D
:0511F700D0E0D023321E
:0A11FC00756900C28BC28EC2AB758C
:0A1206006600756500C28E740F5576
:0C121000892410F589758D89758BAFC29B
:0A121C000DC20EC28FD28ED2AAD2EC
:02122600AB22F9
:0E122800C28E740F55892420F589758D6E7560
:0C1236008B80C28F740F554B2407FF758E
:0412420066FF7E00C5
:0C124600C3EE9F500BEE2446F9E7FD625A
:04125200660E80F0B4
:07125600EF2446F8A666C272
:04125D0005C206D2EE
:051261000C75690A751F
:0A1266006800756500C2AAD28ED29E
:02127000AB22AF
:0A127200C008858108AF827EFF905E
:08127C001D16E493FDBDFF0007
:0C1284005038200F35901D16E493602EAA
:07129000901D16E493FD1D03
:0E129700ED6024ED2DFC2417901D0093FBEF5D
:0C12A500B5031374182C901D0093FCE599
:0A12B1000824FDF8E6B504028D06DE
:0312BB001D80D9BA
:0512BE008E82D0082221
:0A12C300C008E581F5082404F58158
:0C12CD00AF82C2187DFE7E00EFA2E5E4B7
:0912D90033FC24FF9219BF8000D0
:0512E200400302140F9F
:0C12E700C005C006EF2323540124FF9231
:0B12F3001A53071F8F82C007C005C000
:0C12FE00231205E7AA82AB83ACF0FED0FF
:0A130A0023D005D007A80808A602AA
:0E13140008A60308A60408A606901D11E4937F
:0E132200FE0EEF2FFD2EFC04901D0093FEB575
:04133000070280062A
:06133400D006D005800F79
:0E133A00D006D0058C8275831DE493FCFD7EE9
:0113480000A4
:09134900BDFE06BE00030214EE15
:0A1352007546BC901D17E493FC8C57
:0A135C0047901D18E493FC8C48ED47
:0C1366002DFD2417901D0093FE8E49748D
:0A137200182D901D0093FE8E4A75A1
:06137C004C00301A05755B
:041382004D40800357
:03138600754D8022
:0E138900901D12E4932F2FFE2F2404901D00C0
:0C13970093FE24F95006EE24FBFE8002B9
:0213A3007E01C9
:0C13A50074E02EF54BEE24FE500F740691
:0A13B1002E2446F9A808088605A7B7
:0313BB000580109A
:0C13BE00A80808743F56FAE4FBFCFDEAA6
:0413CA00254DF54D6B
:0C13CE00EE24FD500E74052E2446F9A8F4
:0713DA000808088605A705BD
:0C13E100EE24FC500F74042E2446F9A8E2
:0813ED00080808088605A705A1
:0C13F500EE24FB501074032E2446F9A8CF
:0914010008080808088606A70681
:05140A00D2180214EEEF
:0A140F007546B0901D17E493FE8EA1
:0A14190047901D18E493FE8E4885ED
:031423003F4985B9
:0A142600404A53071FEF24FA500359
:031430000214ECB7
:07143300EF2F2F90143A7314
:07143A000214EC02144C0245
:06144100145802146F02B2
:0514470014800214E610
:08144C00754B6074C22545F5E3
:041454004C0214EC46
:08145800754B6374432541F557
:051460004C754D4075C4
:061465004E00754F12D28B
:04146B00110214EC6A
:07146F00754900754A007584
:061476004BE1754C01750D
:04147C004D40806CF3
:021480007F00EB
:0A148200C3EF95425042E543702C81
:0A148C00740A2F2446F9EF2544905E
:0C1496001C0093F7AD447E008F037C0027
:0E14A200EB2DFDEC3EFEBD601CBE0019740A71
:0814B0002F2446F8A66D800F01
:0A14B800740A2F2446F9EF25449032
:0514C2001D0093FEF780
:0314C7000F80B8DB
:0914CA0074632542F54B744245A0
:0614D30041F54C74404598
:0414D90042F54D8506
:0314DD00434E85F6
:0314E000444FD2A4
:0314E3001180066F
:0614E600754B60754C819E
:0214EC00D21814
:0814EE0030190674DF5546F5C4
:0114F60046AF
:0614F700A218850881D057
:0214FD000822C3
:0714FF00AF82C218BF4000DC
:0C150600501B8F82C007C023121848E55C
:0C15120082D023D0075444FEBE44028067
:01151E0004C8
:04151F00D218802A34
:09152300AD6B7E000DBD00010E50
:0C152C005305077E00AB6C7C00EBB5059E
:0715380006ECB50602800E6F
:08153F00E56B245DF8A6070529
:051547006B536B07D29D
:01154C001886
:05154D00D28EA218225D
:08155200C0088581080581C273
:08155A0008AF4C74C35FFEAD45
:071562004DE549FC7034E582
:091569004A7030E56D20E0030238
:02157200174818
:0E157400EE700EBDC00BC006C00512182DD0C3
:0315820005D0068B
:05158500BE010280031D
:03158A00021748FD
:06158D00ED6003021748A7
:091593007582831214FF0217484F
:08159C00E54B30E7030216766F
:0C15A400901D17E493FBECB503028003DC
:0315B000021748D7
:0B15B300901D18E493FBB54A02800372
:0315BE00021748C9
:0515C100BE420280188B
:0515C600BE4302804F4E
:0515CB00BE8002806AF1
:0515D000BE8102807BDA
:0615D500BE830302166D47
:0315DB00021748AC
:0615DE0020100302174873
:0C15E400743C5FF5455305F0BD800D75AB
:0C15F0008281C0051214FF12174DD005B7
:0615FC00ED600302174838
:04160200854D42854B
:031606004E4385CB
:061609004F4475828112BE
:09160F0014FF7582841214FF021D
:02161800174871
:0B161A00743C5FF545BD800343A2084F
:06162500ED60030217480E
:0D162B007582811214FF7582821214FF0275
:02163800174851
:06163A0030100302174806
:04164000D2108547F8
:031644003F854897
:0516470040754100C2E6
:04164C001102174828
:07165000E547B53F028003EE
:031657000217482F
:07165A00E548B540028003E2
:0316610002174825
:06166400101003021748FC
:03166A000217481C
:09166D007582851214FF02174872
:06167600EE6003021748BC
:0C167C00C005C04A8C82121272AF8215A9
:0916880081D005BFFF03021748E1
:0E169100901D11E493FEF58275831DE49325F0
:0D169F00E02EFC0E74C05DFBE4BB80010476
:0116AC00FB42
:0816AD00C3EE9C400302174844
:0E16B5008E8275831DE493FAEFB50202800366
:0316C300021743C8
:0E16C600C004EE04901D0093FAF582C007C028
:0E16D40006C005C003C002121848AC82D00246
:0C16E200D003D005D006D007A80808A649
:0C16EE0004D004EB6031C003A8080874AD
:0816FA001456FBBB140280042E
:04170200D003801F71
:0E170600D0038A82C007C006C005C004C0031D
:0E171400C002120365D002D003D004D005D06D
:0317220006D007E7
:0C172500ED701BC002A80808740C56FAF6
:05173100BA0C02800467
:04173600D002800E4F
:09173A00D0028A821205DC800550
:051743000E0E0216ADC0
:051748001581D008220C
:0A174D00C008E581F5082404F581C9
:08175700A80808740F554DF6B7
:0A175F00E56970FCC2AF75E400AE4E
:0A1769004FAD4E74015D241CFCA876
:051773000808087600E3
:0A177800A8080808A90809C3E697AD
:051782004003021822E3
:0C178700ED7030C0048E027C00A8080841
:0E1793000886037F00EB2AFAEF3CFCBA6005E3
:0517A100BC0002800401
:0417A600D0048010DB
:0A17AA00D004A8080808740A2624D9
:0617B40046F9876D80027A
:0217BA008CE7BA
:0A17BC00A8080808E62EF5E6A808C4
:0C17C6000808740A262446F987E58E0303
:0A17D2007F00A8080808E5082403BA
:0C17DC00F9E6F7097700E5082403F8E6B9
:0E17E8002BFB08E63F53033F7F00BB3F25BFAE
:0C17F6000022A8080886037F001BBBFF30
:02180200011FC4
:0C180400E5082403F8E6B5030708E6B584
:041810000702800645
:0618140075E46875E400B4
:08181A00A8080808060217786F
:0A18220075E468D2AF850881D00894
:01182C002299
:0C182D00E56970FCC2AF75E40075E71DB2
:0A18390075E617854EE5854FE5754D
:05184300E468D2AF22B1
:0E184800AF82901D12E493FE0E0E0EEF2E2FB7
:081856002F901D0093F5822282
:0E185E0075950075911475924CC2967589218E
:0E186C00758F00C28CC28E758D80758B80C208
:0C187A008FC20375A88075E80075B804E3
:0A18860075B70CD28A756D2EC205ED
:05189000C206C20DC2FA
:041895000EC208D2A5
:051899000A756B0075EB
:06189E006C00754100C260
:0418A40011C210C29B
:0518A8000F1211FC22EB
:06005200E478FFF6D8FD82
:080030007900E94400601B7A2D
:05003800009018B178F2
:03003D000075A0AB
:0A00400000E493F2A308B8000205E3
:08004A00A0D9F4DAF275A0FF61
:080058007800E84400600A7919
:030060000075A088
:0600630000E4F309D8FCE3
:080069007800E84400600C7906
:0B00710000900000E4F0A3D8FCD9FAD6
:0300230075816D77
:0A0026001218ADE582600302001E0F
:0418AD00758200221E
:00000001FF
