:20007F00C008E581F5082405F581854982C04A121341AF821581E5082403F8A607E5082446
:20009F0003F8B6FF030203A2901D11E493F58275831DE493FEA808087600A80808C3E69E84
:2000BF004003020399901D11E493FC0CA80808E625E0FB2C901D0093FCE5082403F8E6B556
:2000DF0004028003020392901D11E49324022B901D0093FCF582C006C0041217C8D004D089
:2000FF0006EC24F8FB8BF005F07401800225E0D5F0FBFBBC0800501EE54D540124FF92182B
:20011F0092F0C006C004C00385F0238C8212053ED003D004D006EC24F84003020392BC0CCF
:20013F00004003020392C0037401554DFA7B00C006C004C003C002C0038C82120483158168
:20015F001581D003D004D006A80808087600E5082404F87600E5082405F876008C077D0020
:20017F00EF24F8FCED34FFFABC0007BA0004D003801ED003BC0105BA00028047BC0205BAB8
:20019F0000028078BC0306BA000302024D020284901DD8E493FCA8080808740F5CF6901DB1
:2001BF00EFE493FCE5082404F874035CF6901DEFE4930303543FFCE5082405F874035CF669
:2001DF00020284901DD8E493FC5304F0A8080808ECC4540FF6901DEFE493C4540FFCE5084D
:2001FF002404F874035CF6901DEFE49323235403FCE5082405F874035CF68069901DD9E421
:20021F0093FCA8080808740F5CF6901DF0E493FCE5082404F874035CF6901DF0E49303039B
:20023F00543FFCE5082405F874035CF68037901DD9E493FC5304F0A8080808ECC4540FF679
:20025F00901DF0E493C4540FFCE5082404F874035CF6901DF0E49323235403FCE5082405AF
:20027F00F874035CF6C003901DEDE493FCEF24F8FAED34FFCA25E0CA33FB8AF005F0EC8007
:20029F0002C313D5F0FBFC74035CFFA8080808E614FC8CF005F07401800225E0D5F0FBFAFC
:2002BF00BF0004D003800AD003BF0102804D020392AC4DBC80028005BC810D800874FFC342
:2002DF009A523D8003EA423DC006A8080808E614FCF582C0041203DBAA82AD83AEF0FFD07A
:2002FF0004EA4D4E4F24FF921892F0C00685F0238C8212053ED006D0068078901DF1E4933E
:20031F0052038B07AD4DE4BD800104FC6003EF6006BD8127EF6024EA553C601F74FFC39A61
:20033F00523CE5082405F8B6010674FFC39A523AE5082405F8B60203EA423ABD8103EF602A
:20035F0006EC602FEF602CEA553C7027EA423CE5082404F8B6010674FFC39A523AE50824D1
:20037F0004F8B60203EA423AA8080808E614242CF87600A80808060200B9E53BB53A0280BF
:20039F0002D201850881D00822854982C04A1217E0AF821581BFFF01228F82C0071203DB8E
:2003BF00D0078F82C0071217C8AE82D00753060CBE0C0874402FF58202159C22AF827E0062
:2003DF00BF0800E433FD6027C0068FF005F07B017C008006EB2BFBEC33FCD5F0F7AA377E9D
:2003FF0000EA5203EE5204D006EB4C60027E01ED7033BF0C00502E8F047D00EC24F8FCED93
:20041F0034FF8CF005F07C017D008006EC2CFCED33FDD5F0F7AA397B00EA5204EB5205ECE0
:20043F004D60027E01BF0C00402C7D00EF24F4FFED34FF8FF005F07F017D008006EF2FFF81
:20045F00ED33FDD5F0F7AB387C00EB5207EC5205EF4D60027E017F007D007C008E828F8307
:20047F008DF0EC22C008858108AF82BF0800E433FE6030E50824FCF8E6084670168FF0051C
:20049F00F07401800225E0D5F0FBFD74FFC39D523780108FF005F07401800225E0D5F0FB78
:2004BF00FD4237EE703BBF0C005036E50824FCF8E608467019EF24F8F5F005F0740180021F
:2004DF0025E0D5F0FBFE740FC39E52398013EF24F8F5F005F07401800225E0D5F0FBFE4257
:2004FF0039BF0C004036E50824FCF8E608467019EF24F4F5F005F07401800225E0D5F0FB04
:20051F00FE74FFC39E52388013EF24F4F5F005F07401800225E0D5F0FBFF4238D00822C0FD
:20053F000885810805810581AF82901DEBE493FE8FF005F0EE8002C313D5F0FB5401FE244B
:20055F00FF92192018033019062018030208AFA218E433FD7E00C007C023C005C0068F82C2
:20057F0012048315811581D023D007A80808087600A808087600901DD8E493FC53040F8F7C
:20059F00027B00C00774012AFEE43BFF7D00ECB50606EDB507028004D0078008D007A808FE
:2005BF0008087601C007901DD8E49354F0C4540FFE74012AFCE43BFD7F00EEB50406EFB5E2
:2005DF0005028004D0078008D007A80808087602C007901DD9E493FE53060F74012AFCE45A
:2005FF003BFD7F00EEB50406EFB505028004D0078008D007A80808087603C007901DD9E4A9
:20061F009354F0C4540FFE74012AFCE43BFD7F00EEB50406EFB505028004D0078008D00777
:20063F00A80808087604A8080808E6605FC002C003901DEDE493FEA808080886047D00ECB5
:20065F0024FFFAED34FFCA25E0CA33FB8AF005F0EE8002C313D5F0FB54036006D003D002A0
:20067F00802AD003D002901DEEE493FE1CBCFF011DEDCC25E0CC33FD8CF005F0EE8002C3A9
:20069F0013D5F0FBFEA8080874035EF6C002C0038FF005F07D017E008006ED2DFDEE33FE36
:2006BF00D5F0F7AB3C7C00EB5205EC5206D003D002ED4E60030208AF8F82C007C003C0021D
:2006DF00C0231217C8E582D023D002D003D0075414FEBE140280030208AF0ABA00010BEB20
:2006FF00A2E713CA13CAFB74F92A901D0093FE74015FFDBD010553060F800874F05EFDC4C1
:20071F00540FFE7D007C00201824A80808E66043A80808B601108FF005F0E53D8002C31356
:20073F00D5F0FB30E02DA80808B602005025A218E433FBBB010280030207D1A80808B60261
:20075F0000406F8FF005F0E53D8002C313D5F0FB20E05F74E22F901D0093FBFD6018901DDC
:20077F00EAE493FB8FF005F0EB8002C313D5F0FB5401FBBB013A901DF2E493FB8FF005F0BC
:20079F00EB8002C313D5F0FB20E0138FF005F07401800225E0D5F0FBF4FB523A80148FF066
:2007BF0005F07401800225E0D5F0FBFB423A80027C01A218E433FBBB012BA80808E66049F9
:2007DF00A80808B601028041A80808B6020040158FF005F0E53D8002C313D5F0FB5401FB05
:2007FF00BB01028024301803020892A80808B6010280030208928FF005F0E53D8002C31313
:20081F00D5F0FB5401FBBB016A74DA2F901D0093FBFD705D901DEAE493FB8FF005F0EB8019
:20083F0002C313D5F0FB5401FBBB010B7C8074E22F901D0093FBFD901DF2E493FB8FF0059C
:20085F00F0EB8002C313D5F0FB20E0128FF005F07401800225E0D5F0FBFB423A80158FF0B9
:20087F0005F07401800225E0D5F0FBF4FB523A80027C11EC6014EF242CF974804DF7EF243B
:20089F0024F95304F0EC4EF78006EF242CF87600850881D0082275D16075D20E75D3A00581
:2008BF0034E4B534020535E53424FFFEE53534FFFFEEF4FEEFF4FFE5345206E53552077D33
:2008DF0000BD10005032EE30E0247C00BC0800501DEC2424F9870353030FEBB5050DEC24FD
:2008FF002CF9E7FB247F5003EB14F70C80DEEFC313CE13CEFF0D80C97F00EF24F8500302D4
:20091F0009F4EF242CF98706BE800280030209F0D2018FF005F07401800225E0D5F0FBFE37
:20093F00EF2424F9E7FD20E4030209CB901DF2E493FD8FF005F0ED8002C313D5F0FB20E01B
:20095F0005EE423A8005EEF4FD523AEF242CF87600901DEAE493FD8FF005F0ED8002C313A8
:20097F00D5F0FBFC74015CFDBD01668F037C000BBB00010CECA2E713CB13CB74F92B901D53
:20099F000093FC74015FFBBB010553040F800874F05CFBC4540FFC74E22F901D0093FB602D
:2009BF0030ED602D74804BF6A7048025901DF2E493FD8FF005F0ED8002C313D5F0FB20E05D
:2009DF0007EEF4FD523A8003EE423AEF242CF876000F02091975D16122AE3B7F00EEF4FEA8
:2009FF00EFF4FFAC3A7D00EC5206ED5207EE4F601FC28C53A2E9C292853A80C28DE4F58CDA
:200A1F00F58A74F0558904F589758F00D28C8003853A80901DF3E493653AF5387F00BF0827
:200A3F000050218FF005F07401800225E0D5F0FBFE553AFDEE553BFCEDB504028003EE4297
:200A5F003E0F80DA853A3BC20122AF82E53B6FFEE4FCFDEE30E00EEF30E0067C007D1080BC
:200A7F00047C007D20EE30E10CEF30E1054304048003430408EE30E20CEF30E20543054073
:200A9F008003430580EE30E30CEF30E3054304018003430402EE30E40CEF30E40543044027
:200ABF008003430480EE30E50CEF30E5054305018003430502EE30E60CEF30E6054304102E
:200ADF008003430420EE30E70CEF30E70543050480034305088C828D8322AE82AF838E049E
:200AFF007D00C282C2837E00EE24F8402274805C23540124FF9280EC2CFC74805F2354010B
:200B1F00FD24FF9281EF2FFFD283C2830E80D9D282C28222901D99E493F53A901DF6E493A5
:200B3F00FF7E00EE24FC4046EE75F002A4FCADF08CF005F0EF8002C313D5F0FBFC74035CAC
:200B5F00FDBD01148EF005F07401800225E0D5F0FBFC74FFC39C523ABD02108EF005F07468
:200B7F0001800225E0D5F0FBFC423A0E80B5901DF7E493FF7E00EE24FC404CEE75F002A428
:200B9F00FBACF08BF005F0EF8002C313D5F0FBFB74035BFDBD011774042EF5F005F0740194
:200BBF00800225E0D5F0FBFC74FFC39C523ABD021374042EF5F005F07401800225E0D5F062
:200BDF00FBFD423A0E80AF753B00D201901DF3E493653AF538E53AF4423E2275800075843C
:200BFF00007585FF74F055892402F589758F01758C5043A210D28CC2A9D288753900E4F502
:200C1F003CF534F535F53DC200C2AF75E40075E71D75E60375E50075E71D75E60475E50401
:200C3F0075E71D75E60575E52075E71D75E60675E56075E71D75E60775E50175E71D75E6A4
:1C0C5F000C75E50075E71D75E60D75E5FF75E71D75E61275E59A75E468D2AF229B
:0400000002002332A5
:01000B0032C2
:03001300020F5F7A
:03001B00020F8F42
:03007C0002001E61
:05001E00120C7B80FEC6
:200C7B007F007E00C218E5A703540124FF9219C007C006C023121885D023D006D007D297A8
:200C9B002097073019047D008007901BFFE493FCFD901BFFE493AB962BFC8C9653963F201D
:200CBB0019217C00BC3200501AC28C901D17E493F58C901D18E493F58AC28DD28C308DFDDF
:200CDB000C80E1C007C006C005C023120F17D023C023120F33D023C023120BFAD023D00540
:200CFB00D006D007201913C007C006C005C023120B33D023D005D006D00753BDFE5391FCF8
:200D1B005392FC75985043BAE043BD0275BF2F75BEF043BD01759955C007C006C005C0237C
:200D3B00120F28D023D005D006D007901D0DE493FCBCFF028003020E3F301003020E3FE5A7
:200D5B006D30E003020E3F748025D15013C007C006C005C0231208B5D023D005D006D007E3
:200D7B00308D1F740F5589FCBC011774F055892402F589758F01758C50C28D43A210D29267
:200D9B00D28C300113C007C006C005C0231209F8D023D005D006D007E53E605FC0058EF0B4
:200DBB0005F07B017C008006EB2BFBEC33FCD5F0F7AA3E7D00EA5203ED5204D005EB4C606A
:200DDB0034740C2EF582C007C006C005C02312159CD023D005D006D00750228EF005F074D9
:200DFB0001800225E0D5F0FBFC74FFC39C523E0E53060780080E53060780027E00E5697010
:200E1B00237440258D401D200C1A901D99E493FCB53A02800F75E40075E71D75E699853ACD
:200E3B00E575E468200803300919C208C209C007C006C005C0231215CFD023D005D006D046
:200E5B0007800A7C648C031B8B04EC70F81098028079AC99BC630810990280FB759955BC25
:200E7B002B0315961DBC2D0305960DBC7712C2AF75E40075E71B75E6FF8DE575E468D2AF39
:200E9B00BC7003636D81BC760810990280FB759923BC740810990280FB759900BC3100408D
:200EBB002AEC24C74025EC24CFF5F005F07401800225E0D5F0FB623AC007C006C005C0236B
:200EDB001209F8D023D005D006D007D297209712BFFF0050030F8012201803636D81D21815
:1C0EFB008008EF60031F8002C218E56D5401FCB40100E433FC24FF9297020D338D
:200F170075C1FFC2AF75A7E575C2A575C35AD2AF22C2AF75C2A575C35AD2AF22A2AF921885
:200F3700C2AF43A70475C2A575C35AA21892AF22A2AF9218C2AFAFA75307FB8FA775C2A587
:080F570075C35AA21892AF22E3
:200F5F00C0E0C0D0C2AAC28E740F55892420F589758B35758D80C28FD28ED2AB756902C2DC
:200F7F0004D202756800756700D203D0D0D0E032C023C0E0C0F0C082C083C007C006C00560
:200F9F00C004C003C002C001C000C0D075D000E569FF24F150030212ACEF2F2F900FBF7300
:200FBF00020FEC0212AC02105F0211190211220211970212AC0212AC0212AC0212AC0211C6
:200FDF00BB0212230212AC021247021295C28E740F55892420F589758B80758D80C28FD2A4
:200FFF008EE56BB56C028051E56C245DF98782121394503DC2AAE5697032E56C245DF9E7D8
:20101F00FF20E50774204FF7756A0074FC256A40051212F78016056C536C07C20CC211120E
:20103F0012CBC28E758DF0758B00D28ED2AA0212AC056C536C070212ACC28ED2AA0212AC53
:20105F00A28BB39218C28B756903758D00E568700A756801C205C2060212AC747F25684003
:20107F001C301808B204E5682567F567E5682568F56860030212AC7568810212ACC28EC270
:20109F008FA204201801B35026E565700E74CCB56702D205740CB56702D2062005132006C9
:2010BF0010E5652446F8E567F6626605658002C202100C02801D300514300211756A041061
:2010DF0011028009E5412404F54153413C1212CB0212AC30021E20051B200618740F558923
:2010FF002410F589758DFA758B70D28E756904D2AA0212AC1212CB0212AC758D8075690224
:20111F000212AC300A64E56524FB505EC28E740F55892410F589758DEF758B42D28EA20F94
:20113F009207E54B30E71F854982C04A121341AF821581BFFF028002D207E549701CE54A06
:20115F007018D2078014901D17E493FFB5490B901D18E493FFB54A02D20774FFB566053060
:20117F000702D2087569050212ACE56524FE5002D2081212CB0212ACC28E74FFB566133062
:20119F00070AD20D1212F7C20C0212AC1212CB0212ACD20E1212F7C20C0212ACE5652446AB
:2011BF00F98707300D027FCC300E027F0CC2AA740AB5690280030212ACE568247F402CE5A6
:2011DF00685F7008D296C20BB2048002D20BE5687007756801C2048006E5682568F568E55D
:2011FF0068700375688175690B8013200406D296C20B8002D20B056575680075690D758D29
:20121F00120212ACE56570077401B56802056AC296A20B828B5007C20C1212CB800675698F
:20123F000A758D6EC28B8065C296C28E740F55892410F589758DFB758B90D28E200D0330DB
:20125F000E051212CB802B740F554BFF7E0074072FFFE43EFEAC657D00C3EF9CEE64808D1E
:20127F00F063F08095F05007D2091212CB800375690EC28B8017C28E740F55892420F58920
:20129F00758D6E758B80C28FD28E75690AD203D0D0D000D001D002D003D004D005D006D09C
:2012BF0007D083D082D0F0D0E0D02332756900C28BC28EC2AB756600756500C28E740F5509
:2012DF00892410F589758D89758BAFC20DC20EC28FD28ED2AAD2AB22C28E740F558924201A
:2012FF00F589758D6E758B80C28F740F554B2407FF7566FF7E00C3EE9F500BEE2446F9E788
:20131F00FD62660E80F0EF2446F8A666C205C206D20C75690A756800756500C2AAD28ED264
:20133F00AB22C008858108AF827EFF901D16E493FDBDFF00503A200F37901D16E493603090
:20135F007D01901D16E493FCC39D4024ED2DFC2417901D0093FBEFB5031374182C901D004B
:20137F0093FCE50824FDF8E6B504028D060D80D28E82D00822C008E581F5082404F581AFA4
:20139F0082C218EFA2E5E433FE24FF9219BF800040030214ACEF2323540124FF921A530782
:2013BF001F8F82C007C0231203DBAB82AC83ADF0FED023D007A80808A60308A60408A605BD
:2013DF0008A6068F82C007C023121839AA82AE83D023D0078A05ED4E700302158B7546BC9F
:2013FF00901D17E493FC8C47901D18E493FC8C488E048C498D4A754C00301A05754D4080E8
:20141F0003754D80901D12E493FEEF75F003A42E2404901D0093FE24F95006EE24FBFE80A7
:20143F00027E0174E02EF54BEE24FE500F74062E2446F9A808088603A7038010A808087429
:20145F003F56FAE4FBFCFDEA254DF54DEE24FD500E74052E2446F9A80808088605A705EE0C
:20147F0024FC500F74042E2446F9A8080808088605A705EE24FB501074032E2446F9A808A1
:20149F00080808088606A706D21802158B7546B0901D17E493FE8E47901D18E493FE8E48BF
:2014BF00853F4985404A53071FEF24FA5003021589EF2F2F9014D7730215890214E9021488
:2014DF00F502150C02151D021583754B6074C22545F54C021589754B6374432541F54C7570
:2014FF004D40754E00754F12D211021589754900754A00754BE1754C01754D40806C7F00D7
:20151F00C3EF95425042E543702C740A2F2446F9EF2544901C0093F7AD447E008F037C00B2
:20153F00EB2DFDEC3EFEBD601CBE0019740A2F2446F8A66D800F740A2F2446F9EF25449096
:20155F001D0093FEF70F80B874632542F54B74424541F54C74404542F54D85434E85444FDA
:20157F00D2118006754B60754C81D21830190674DF5546F546A218850881D00822AF82C26A
:20159F0018AD6B7E000DBD00010E5305077E00AB6C7C00EBB50506ECB50602800EE56B24DF
:2015BF005DF8A607056B536B07D218D28EA21822C208AF4C74C35FFEAD4DE549FC702BE5B2
:2015DF004A7027E56D20E00122EE700EBDC00BC006C0051217ADD005D006BE010280012232
:2015FF00ED60012275828302159CE54B30E7030216B5901D17E493FBECB503028001229009
:20161F001D18E493FCB54A02800122BE42028015BE43028041BE80028056BE81028062BE0D
:20163F008302806C22743C5FF5455305F0BD800D758281C00512159C1216CDD005ED600105
:20165F0022854D42854E43854F4475828112159C75828402159C743C5FF545BD800343A230
:20167F0008ED704975828112159C75828202159C20103AD21085473F854840754100C21149
:20169F0022E547B53F27E548B54022101001222275828502159CEE701474C05DFFBF8007A2
:2016BF00C00512007FD005ED70030203A822C008E581F5082404F581A80808740F554DF615
:2016DF00E56970FCC2AF75E400AE4FAD4E74015D241CFCA80808087600A8080808A90809B1
:2016FF00C3E69740030217A2ED7030C0048E027C00A808080886037F00EB2AFAEF3CFCBA78
:20171F006005BC00028004D0048010D004A8080808740A262446F9876D80028CE7A8080863
:20173F0008E62EF5E6A8080808740A262446F987E58E037F00A8080808E5082403F9E6F7A6
:20175F00097700E5082403F8E62BFB08E63F53033F7F00BB3F25BF0022A8080886037F00D1
:20177F001BBBFF011FE5082403F8E6B5030708E6B50702800675E46875E400A80808080692
:20179F000216F875E468D2AF850881D00822E56970FCC2AF75E40075E71D75E617854EE5A9
:2017BF00854FE575E468D2AF22AF82901D12E493FE0E0E0EEF75F003A42E901D0093F5827E
:2017DF0022C008858108AF827EFFC006E50824FDF8E6C0E08F82121341AF821581D006904E
:2017FF001D11E493FDF58275831DE493FCBFFF0280237B000DC3EB9C501B8D8275831DE481
:20181F0093FAEFB5020AED04901D0093FAFE8C030B0D0D80E08E82D00822AF827EFE901DCB
:20183F0011E493FD0DEF2F2DFD04901D0093FCB507098D8275831DE493FFFEBEFE02801DB7
:20185F00EE2EFE2417901D0093FD7F0074182E901D0093FE7C002FFFEC3DFD80047F007D10
:20187F00008F828D832275950075911475924CC296758921758F00C28CC28E758D80758BF4
:20189F0080C28F75D20E75D3A075D161C20375A80075E800C2ABC2A8C2AAD2AF75B80475CB
:2018BF00B70CD28A756D2EC205C206C20DC20EC208D20A756B00756C00754100C211C210EA
:0518DF00C20F0212CB54
:06005200E478FFF6D8FD82
:200030007900E94400601B7A009018E8780075A000E493F2A308B8000205A0D9F4DAF27577
:02005000A0FF0F
:200058007800E84400600A790075A000E4F309D8FC7800E84400600C7900900000E4F0A3A8
:04007800D8FCD9FADD
:0D00230075816D1218E4E582600302001E75
:0418E40075820022E7
:00000001FF
