:060085007F00D282C2855B
:09008B00300406C282D282C204D4
:020094007E00EC
:0E009600EE24F84012C280EF2FFF3081010FE0
:0900A400A2819283D2800E80E952
:0A00AD002004DBC282D2858F82227C
:0400000002002332A5
:01000B0032C2
:030013000212993D
:03001B000212C905
:0300820002001E5B
:05001E001200B780FE96
:0A00B700C07C85817C05810581A8CD
:0A00C1007C087600A87C0808760091
:0A00CB00C218C219E5A7035401FD95
:0A00D50024FF921AD29720970730FB
:0600DF001A047D008007F9
:0700E500901CFFE493FCFDF9
:0E00EC00901CFFE493AB962BFC8C9653963F32
:0A00FA00C297C005C023121C66D097
:0C0104002353BDFE75985043BAE043BD84
:0E0110000275BF2F75BEF043BD01759955C035
:05011E0023121287D03E
:0A01230023D005201A527B007C0057
:0E012D00C005901DD4E493FA7D00901DFEE401
:0B013B0093C4540FFF8FF005F0800606
:06014600EA2AFAED33FD88
:0E014C00D5F0F7C3EA9BED9CD005402375D19A
:0A015A006075D21D75D34075D161A8
:0E016400E5D1248050FAC2AF75C2A575C35A0A
:09017200D2AF0BBB00B50C80B24A
:0E017B0075C1FFC2AF75A7E575C2A575C35A61
:0E018900D2AFC2AF43A70475C2A575C35AD248
:01019700AFB8
:0E019800C2AF75C2A575C35AD2AFC2AF75C251
:0E01A600A575C35AD2AF901D0DE493FFBFFFA5
:0301B400028003C3
:0301B70002036ED2
:0601BA0030110302036E88
:0801C000E57A30E00302036E52
:0901C800C005C0231200858582E8
:0601D10025D023D005201B
:0401D700191385254E
:0701DB0024201A0BC005C02F
:0501E20023120F9FD065
:0301E70023D0051D
:0201EA00D21928
:0701EC00E524B52502804A5D
:0601F300E5246525FFA8CC
:0C01F9007C0808E6901CB993FC5F6016BF
:0A020500EC55287011A87C0808864B
:09020F0082C005C023120445D091
:0302180023D005EB
:0B021B00A87C0808E6901CB993FF5572
:07022600254224EFF4FF451F
:04022D00255224A88A
:0A0231007C080806A87C0808E654C3
:02023B0007F6C4
:0B023D00748025D1500BC005C02312B7
:060248000987D023D00558
:02024E007F002F
:08025000EF24F8500302033D06
:0E025800C005EF2F25E024D5901D0093FC5328
:0B026600040C8F82C007C004C02312EC
:0C02710010D8AA82AB83ADF0D023D004DB
:0E027D00D007EFC31324CE901D0093FE740132
:0C028B005F75F004A4F5F005F0EE8002B1
:02029700C3138F
:0B029900D5F0FB540FFEBE01028005F3
:0502A400D00502033942
:0A02A900D005BC0405BA0102800E66
:0602B300BC0803EA60082C
:0502B900BC0C028003F3
:0302BE0002033305
:0C02C100EF2436F9E7FE547F706EEF2F3B
:0E02CD0025E024D6901D0093FC743F5C248035
:0C02DB00F7EF242DF98F037C000BBB0013
:0202E700010C08
:0E02E900ECA2E713CB13CB74F62B901D009301
:0E02F700FC74015F640175F004A4F5F005F0DD
:03030500EC800287
:02030800C3131D
:0E030A00D5F0FB5407F7EE30E725EF901CB955
:0603180093FC5528701B48
:0C031E008F82C007C005C023121904D054
:09032A0023D005D00750ED800638
:06033300EF2436F876000D
:040339000F0202505D
:02033D007F003F
:0C033F00EF24FE404EEF243FF9E7702051
:0C034B00EF242DF9870474405CFBBB40DC
:0C03570013208E10EF2FFB2419F8760005
:080363000876005304BFA70453
:03036B000F80D12F
:0C036E00748025D1501E30111B75D16128
:0A037A00E57B24914004057B800E12
:0B038400758285C005C023121904D04B
:03038F0023D00573
:06039200200903300A11EE
:07039800C209C20AC005C042
:05039F0023121957D0E4
:0503A40023D005800AD2
:0203A9007E6470
:0803AB008E071F8F06EE70F8AB
:0503B300109802804AD1
:0503B800AF99BF6308CE
:0503BD0010990280FB15
:0303C200759955D5
:0603C500BF2B0315961D7D
:0603CB00BF2D0305960D95
:0E03D100BF7712C2AF75E40075E71C75E6FF3A
:0703DF008DE575E468D2AF63
:0603E600BF7003637A8181
:0303EC00BF7608D1
:0503EF0010990280FBE3
:0303F40075990AEE
:0303F700BF7408C8
:0503FA0010990280FBD8
:0303FF0075990BE2
:0B040200D297209718A87C08B6FF00D6
:08040D005006A87C08068018C7
:06041500201803637A8148
:04041B00D218800E65
:0A041F00A87C08E66006A87C081619
:0204290080024F
:02042B00C218F5
:08042D00E57A5401FFB401005F
:0C043500E433FF24FF9297020198857CBD
:0404410081D07C22C8
:081CB900010204081020408024
:021D03000004DA
:011D0C0000D6
:011D0D00FFD6
:05007C00C200C201C238
:01008100027C
:0704450085824AE4F529F568
:04044C004BE54A250D
:080450004A25E0F54824D5F52A
:0504580049854A8212F3
:09045D000C14E58270030209860B
:09046600AE4A7F000EBE00010F3A
:0E046F00EFA2E713CE13CE74F62E901D00936D
:0C047D00FF7401554A640175F004A4F5F9
:06048900F005F0EF800217
:02048F00C31395
:0A049100D5F0FB5407F529854AF069
:06049B0005F0E5248002DB
:0204A100C31383
:0904A300D5F0FB5401FFB4010087
:0B04AC00E433FF6016854AF005F0E520
:0304B7002580029B
:0204BA00C3136A
:0B04BC00D5F0FB5401FFBF01028004DB
:0404C700C2188002D5
:0204CB00D21845
:0504CD00A2189202E5F7
:0504D2004A243FF987F8
:0804D7002AE54AC31324CE906C
:0C04DF001D0093FF7401554A75F004A441
:0704EB00F5F005F0EF8002BF
:0204F200C31332
:0B04F400D5F0FB540FFFBF0102801A7F
:0504FF00BF0202803580
:06050400BF030302067EA6
:06050A00BF0903020756C1
:06051000BF0A0302089778
:0305160002097F58
:08051900A20292F085F0238597
:080521004A82120BBF74082589
:090529004AF582A20292F085F06D
:0505320023120BBF02C3
:02053700097F3A
:060539002002030205C2CE
:08053F00E54A2436F974D725C2
:0C05470048901D0093FF747F5F2480F734
:06055300E54A242DF8A684
:08055900297408254AF58212FD
:0E05610010D8AC82AD83AEF0ECA2E3E433FC24
:09056F0024FF9200854982758386
:0C0578001DE493FF530770BF0002800ACF
:05058400BF1002800918
:05058900BF300A8004F0
:04058E00B200800631
:04059200D200800211
:02059600C200A1
:07059800300015E549049055
:0D059F001D00935438C423541FFF2448F559
:0405AC002A02097F97
:0C05B000E54904901D0093FF74075F24D0
:0605BC0040F52A02097F50
:0A05C2007450552AFFBF4054854ACB
:0E05CC00821210D8AC82AD83AEF0FFEC4D4E23
:0A05DA004F24FF92008549827583CB
:0C05E4001DE493FF530770BF1002800558
:0505F000BF200A800499
:0405F500D2008006AA
:0405F900C2008002BA
:0205FD00B2004A
:0C05FF00A200E433FE7F00C006C00785A8
:0A060B004A82120F6B15811581E57C
:070615004A2436F8760002CA
:02061C00097F54
:0C061E007408254AF5821210D8AC82AD99
:0C062A0083AEF074D52548901D0093FFAE
:0C06360030E31974085CFF7E0074082596
:0C0642004AF582C007C006120F6B15813C
:04064E001581801F73
:0C06520074085CFFE4FEFDFB7408254A00
:0E065E00F582C007C006C005C0031211D4E526
:05066C008124FCF58172
:06067100752A00E54A2491
:0706770036F8760002097F4E
:0A067E00E54A254A25E024D8FFF5DF
:0C0688008275831DE4935430FEC4540FAF
:09069400F54B7401B54B02800E18
:07069D007402B54B02800B53
:0706A4007403B54B29800827
:0406AB00C2018023E5
:0406AF00D201801FD5
:0C06B3007408254AF582C0071210D8AA6E
:0E06BF0082AB83ADF0FED007630201EA4B4D23
:0506CD004E24FF920124
:0A06D20030025A8F8275831DE493F5
:0C06DC00FE30E313A201E433FE2480F59D
:0406E8002AE54A2491
:0706EC0036F8768002097F59
:0C06F300A201E433FD7E00C005C00685B6
:0A06FF004A82120F6B15811581E588
:050709004A2436F9E569
:08070E004A254A25E024D6909B
:090716001D00932480F7E54A243C
:05071F002DF8A629A23F
:0907240001E433FE2480F52A02F1
:02072D00097F42
:0A072F00E52A30E418A201E433FDCE
:0C0739007E00C005C006854A82120F6BCE
:070745001581158102097FF7
:08074C00E54A2436F8760002AC
:02075400097F1B
:09075600E54A254A25E024D5906E
:0C075F001D0093FEFFE54A24FE4049EF18
:06076B0030E00320021241
:0A07710074025FFEA202B39218E4C6
:08077B0033FD5E700302097FEB
:0A078300E54A254AFE2419F9870310
:0D078D00098705C3EB94FFED94FF400302C4
:02079A00097FD5
:0E079C00EE2419F98705098706190DBD000125
:0107AA000E40
:0807AB00A70509A70602097F5A
:0B07B300E54A24FE25E025E024D59057
:0B07BE001D0093FEFF30E20320020F3D
:0A07C90074085FFEA202B39218E468
:0507D30033FD5E6044EF
:0B07D8007402B54A22E4F519F51A90EE
:0B07E3001DD6E493FE74804EF53690A6
:0E07EE001DF6E49354F0C4540FFE74804EF5D3
:0307FC002D801D30
:0E07FF00E4F51BF51C901DD6E493FE74804EAD
:0C080D00F537901DF7E493FE740F5E4475
:0308190080F52E39
:0C081C005307F07C00300220BF40028037
:0108280003CC
:03082900BF6002AB
:02082C007C113D
:05082E00BF8002800301
:03083300BF900271
:020836007C1034
:05083800BFC0028003B7
:03083D00BFF022E7
:040840007C12801E88
:05084400BF100280035B
:03084900BF90025B
:02084C007C111D
:05084E00BF2002800341
:03085300BF600281
:020856007C1014
:05085800BF3002800327
:03085D00BFF002E7
:020860007C1208
:0C086200BC1215854A821210D8AA82AB85
:0C086E0083ADF0FE6302014302108A0417
:06087A00EC700302097F8F
:0C08800074015CFE7D00C006C005854AC6
:0B088C0082120F6B1581158102097F9D
:09089700E54A254A25E024D5902C
:0B08A0001D0093FEFF30E00320021259
:0A08AB0074025FFEA202B39218E48B
:0808B50033FD5E700302097FB0
:0A08BD00C007E54A254AFE2419F998
:0B08C7008703098705190BBB00010D1A
:0C08D200A70309A705E54A241EF907E763
:0C08DE0074022549901D0093FB7D0074FE
:0C08EA00032549901D0093FA7F002DFDAE
:0E08F600EF3BFBEE2419F98706098707C3EED6
:0E0904009DEF9BD0074050EF23235403FCBC13
:0C0912000312854A821210D8AB82AD831C
:08091E00AEF0FF6303018B043E
:05092600BC02027C0090
:0C092B007F00C004C007854A82120F6BD9
:0B093700158115817408254AF5821215
:090942001904E54A241EF87600B0
:0A094B00208EFDE54A254AFF24191D
:06095500F87600087600B0
:0A095B00E54A241EF98707E5490468
:0D096500901D0093FEC3EF9E401074082506
:070972004AF582121904E5A9
:060979004A241EF876007E
:06097F00E54A243FF8A642
:010985002A47
:01098600224E
:0D09870075D16075D20E75D3A075D16105D4
:060994002BE4B52B020567
:01099A002C30
:0A099B00E52B24FFFEE52C34FFFFDE
:0B09A500EEF4FEEFF4FFE52B5206E538
:0509B0002C52077D0040
:0309B500BD100072
:0809B8005032EE30E0247C0017
:0309C000BC09006F
:0C09C300501DEC242DF9870353030FEBAB
:0C09CF00B5050DEC2436F9E7FB247F5041
:0409DB0003EB14F71F
:0309DF000C80DEAB
:0A09E200EFC313CE13CEFF0D80C942
:0209EC007F008A
:0309EE00BF08003F
:0509F1004003020BBEF3
:0809F600EF243FF9872AEF24EA
:0909FE0036F98706BE8002800371
:030A0700020BBA25
:080A0A00E52A20E703020AB00F
:0C0A12007401552AFE7D0074082FF58247
:0E0A1E00C007C006C005120F6B15811581D0F0
:0E0A2C0007EF2F25E0FE24D7901D0093FE2437
:0C0A3A00FC506DEF242DF98F047D000CA2
:040A4600BC00010DE2
:0E0A4A00EDA2E713CC13CC74FA2C901D009390
:0E0A5800FD74015F640175F004A4F5F005F073
:030A6600ED80021E
:020A6900C313B5
:0E0A6B00D5F0FB5407F774075F2408F582C02E
:0E0A790007C0061210D8AA82AB83ACF0FDD0E5
:0C0A870006D007EA4B4C4D24FF9218EFFC
:0A0A9300243FF9A218E433FD4305E7
:0C0A9D0010A705EF2436F974802EF780B6
:010AA9000646
:060AAA00EF2436F876008F
:0A0AB0007450552AFEBE1002800E9D
:050ABA00BE40028012A5
:060ABF00BE5003020B3CD7
:030AC500020B5BC6
:090AC800EF243FF87600020B5BFD
:0C0AD100AD2A7E0074082FF582C007C01B
:0E0ADD0005C006120F6B15811581D007EF249E
:0A0AEB003FF9870674104EF7EF2460
:0C0AF50036F9EF2F25E024D8901D009367
:0C0B0100FE74804EF7EF242DF98F057E66
:060B0D00000DBD00010E09
:0E0B1300EEA2E713CD13CD74FA2D901D0093C2
:0E0B2100FE74015F640175F004A4F5F005F0A8
:030B2F00EE800253
:020B3200C313EB
:080B3400D5F0FB540FF7801F00
:0B0B3C00EF2436F9EF2F25E024D890BD
:0E0B47001D0093FE74804EF774082FF582C0D7
:060B550007121904D0078D
:0A0B5B00E52A705BEF242DF98706F0
:0C0B6500530680BE804FEF2436F8EF2FBF
:0E0B710025E024D6901D0093FE74804EF68F72
:080B7F00057E000DBD00010E12
:0E0B8700EEA2E713CD13CD74F62D901D009352
:0E0B9500FE74015F640175F004A4F5F005F034
:030BA300EE8002DF
:020BA600C31377
:0E0BA800D5F0FB44C0F774082FF582C0071289
:040BB6001904D00747
:040BBA000F0209EE2F
:010BBE002214
:0E0BBF00AF8274075F25E025E024D7901D006B
:050BCD0093FEBF0800CB
:070BD2004005EEC4540FFEC4
:090BD900301806EE0303543FFE40
:0E0BE200530603EE602BBE03158F82C0071270
:0E0BF00010D8AA82AB83ACF0FDD007630201DF
:020BFE00800471
:040C000074015EFA23
:0E0C04007E00C002C0068F82120F6B15811594
:010C12008160
:010C130022BE
:0C0C1400AF82901DD2E493FE601B7D00B7
:070C2000C3ED9E50147C702F
:070C2700EC60047B01800278
:020C2E007B0049
:060C3000EB60031C80F1E3
:030C36000D80E747
:0C0C3900C007120085E582D0076525F495
:0A0C4500FEEF901CB9935EF58222C9
:0A0C4F00C07CE581F57C2404F581EA
:0D0C5900AF82901D12E4932F2F2F240490E2
:070C66001D0093FEBF10000A
:050C6D004003020CF43D
:0C0C7200EE24F94026743F555AFD7C002A
:0E0C7E007B007A00C007C006C005C004C0039A
:0E0C8C00C0028F821211D4E58124FCF581D0C4
:030C9A0006D0077A
:0C0C9D00BE0723AA5B7B007C007D00C02A
:0E0CA90007C006C002C003C004C0058F82123F
:0C0CB70011D4E58124FCF581D006D007A3
:050CC300BE08028003E1
:030CC800020D9981
:0A0CCB00AD5C7E00AB5B8B04E42DF2
:0E0CD500FDEC3EFE3395E0FCFBC005C006C002
:0E0CE30004C0038F821211D4E58124FCF58138
:030CF100020D9958
:0C0CF4007401555AFA8F82C007C002122A
:0C0D000010D8A87C08A68208A68308A6CC
:0E0D0C00F008F6D0028A047D007E007F00A869
:0C0D1A007C08E6620408E6620508E66258
:0E0D26000608E66207EC4D4E4FD00760668A65
:0E0D3400037C007D007E00C007C002C003C02B
:0E0D420004C005C0068F821211D4E58124FC86
:0E0D5000F581D002D00774075F25E025E0246E
:0E0D5E00D5901D0093FE53060374015EFD62E6
:0E0D6C0002EE6029EA601074075F901CB993D4
:090D7A00FE74FFC39E5228800A9A
:0A0D830074075F901CB993FE42282C
:0C0D8D00530707C0028F82120D9F1581D2
:060D9900857C81D07C2264
:080D9F00C07C85817CAF82C29B
:0C0DA700187EFFEFC31324CE901D0093B4
:0E0DB300FD74015F75F004A4F5F005F0ED800D
:010DC100022F
:020DC200C31359
:0B0DC400D5F0FB540FFDBD0102800FB5
:060DCF00BD0203020E61EB
:060DD500BD0303020EC87D
:030DDB00020F2BD9
:0E0DDE00EFFE25E025E024D5901D0093FDE5F5
:0C0DEC007C24FDF874016675F002A4F58B
:060DF800F005F0ED8002A1
:020DFE00C3131D
:0B0E0000D5F0FB540CFDBD0402800A7D
:050E0B00BD0802800A91
:050E1000BD0C49800A41
:050E1500D218020F2BB2
:050E1A00C218020F2BBD
:0C0E1F00E57C24FDF8E660178FF005F07C
:040E2B00E524800238
:020E2F00C313EB
:0B0E3100D5F0FB5401FD24FF921802D5
:020E3C000F2B7A
:0E0E3E008F82C0061210D8AA82AB83ACF0FDE2
:0C0E4C00D006630201EA4B4C4D24FF92DB
:040E580018020F2B42
:050E5C007EFF020F2BD8
:0E0E61008F82C0071210D8AA82AB83ACF0FDBE
:0C0E6F00D007EA4B4C4D24FF92188F0670
:0C0E7B00E57C24FDF8E66018EF2F25E070
:0C0E870024D5901D0093FD30E705C21833
:030E9300020F2B20
:050E96007EFF020F2B9E
:0E0E9B00EF2F25E024D6901D0093FD5305C0D7
:050EA900BD4002800ABB
:050EAE00BD8002800977
:050EB300BDC00E800827
:040EB800D218806F5D
:040EBC00C218806B6D
:040EC000B21880677D
:040EC4007EFF8063CA
:0E0EC80074082FFEEF2F25E024D5901D009317
:0C0ED600FDE57C24FDF874016675F00257
:080EE200A4F5F005F0ED80021B
:020EEA00C31330
:0B0EEC00D5F0FB540CFDBD0402800A91
:050EF700BD08028009A6
:050EFC00BD0C2A800876
:040F0100C21880266C
:040F0500D21880225C
:0E0F090074082FF582C0061210D8AB82AC839C
:0E0F1700ADF0FFD006630301EB4C4D4F24FFFD
:040F2500921880029C
:020F29007EFF49
:0C0F2B00EE24EF402DA218E433FB7C0004
:0E0F37007D007F00C006C003C004C005C007D7
:0D0F45008E821211D4E58124FCF581D006C6
:0B0F52008E82C006121904D00650F574
:030F5D00D07C2223
:0B0F6000AF8274402FF58212190422AA
:080F6B00C07C85817CAF82E5AA
:0C0F73007C24FCF886030886047D007EC8
:0E0F7F0000C007C003C004C005C0068F821268
:0D0F8D0011D4E58124FCF581D0078F82127C
:050F9A001904D07C22C7
:070F9F00C2187528007F0055
:030FA600BF080081
:050FA90040030210D717
:0C0FAE007E00EF2436F97700EF2408F8ED
:0E0FBA007600EF2410F87600EFC31324CE90DB
:0E0FC8001D0093FD74015F75F004A4F5F005A3
:040FD600F0ED8002B8
:020FDA00C3133F
:0B0FDC00D5F0FB540FFDBD0102801397
:050FE700BD0202804F75
:050FEC00BD0302800FAF
:060FF100BD090302105FC0
:030FF7000210776E
:060FFA00EF243FF8760031
:0E100000EF2F25E024D5901D0093FD5305C071
:05100E00BD4002800A54
:05101300BD8002800B0E
:05101800BDC05C800C6E
:06101D00D2187E01805490
:06102300C2187E01804EA0
:081029008FF005F07401800254
:0210310025E0B8
:08103300D5F0FBFD6224803CB6
:0E103B00EF2F25E0FD24D7901D0093FC30E739
:0510490004C2187E0145
:0C104E0074D82D901D0093FD30E71ED2D9
:05105A00187E01801862
:0C105F00EF24FE40137780EF242DF8767C
:0C106B0080EF2FFD2419F87600087600B5
:0C107700EE6035A218E433FB7C007D0025
:0C1083007E00C007C023C003C004C005ED
:0E108F00C0068F821211D4E58124FCF581D0B9
:03109D0023D00756
:0A10A0008F82C007C023121904D08C
:0510AA0023D00750F106
:0E10AF00EF2F25E024D5901D0093FE5306037D
:0D10BD00BE020AEF901CB993FE4218800994
:0910CA00EF901CB993F4FE5218DA
:0410D3000F020FA653
:0110D70022F6
:0A10D800C07CE581F57C2404F5815D
:0D10E200AF82901D12E4932F2F2F24049055
:0C10EF001D0093FEEF24F0500302119747
:0310FB00BE08002C
:0510FE004067BF08007F
:0E1103004023EF24F6401E74015F25E02419FE
:0C111100F98704098705A87C08A60408DB
:0B111D00A6050876000876000211C14C
:0E11280074075FFE2410F987078F057F00A86B
:0C1136007C08A60708A605ED3395E0082C
:0E114200F608F6EE2408F987078F037C007D7F
:0C115000007F00A87C08EB26F6EC0836B7
:0B115C00F6ED0836F6EF0836F6805A74
:0E116700EF2408F987077D007407C39EFEE49D
:0A1175009DFD8EF005F074FF80026E
:02117F00C31398
:0C118100D5F0FBFE5207A87C08A607086A
:0A118D007600087600087600802A3C
:0E1197008F067F00EE24F0FEEF34FFFF8EF097
:0611A50005F0E5188002D0
:0211AB00C3136C
:0C11AD00D5F0FB5401FFA87C08A6070841
:0811B9007600087600087600BC
:0C11C100A87C0886820886830886F00857
:0711CD00E6857C81D07C2245
:0811D400C07C85817CAF829094
:0E11DC001D12E4932F2F2F2404901D0093FE6C
:0811EA00EF24F04063BE080091
:0511F2004049BF0800A8
:0E11F700401EEF24F6401974015F25E0241914
:0C120500F9E57C24FAF88605088606A7A7
:061211000509A706806D2F
:0C12170074075FFE2410F9E57C24FAF84F
:0C122300088605A705EE2408F9E57C24E8
:0E122F00FAF886037C007D007E00A70380474E
:0C123D00EF2408F9E57C24FAF886037C15
:09124900007D007E00A703803245
:0E125200EF24F0FF901CB993FE74FFC39E5270
:0C12600018E57C24FAF8740156FB7C00B1
:0B126C007D007E008FF005F0EB80029B
:0212770025E070
:0B127900D5F0FBFFE518FE42078F18C0
:03128400D07C22F9
:0E1287007584007585FD75802275D181E4F5B2
:041295002BF52C22E7
:0E129900C0E0C0D0C2AAC28E740F55892420B6
:0E12A700F589758B35758D80C28FD28ED2ABD6
:0612B500757602C205D2AD
:0512BB000375750075CC
:0912C0007400D204D0D0D0E03259
:0C12C900C023C0E0C0F0C082C083C0079A
:0E12D500C006C005C004C003C002C001C000B6
:0C12E300C0D075D000E576FF24F1500368
:0312EF000215E6FF
:0712F200EF2F2F9012F9739A
:0712F9000213260215E602B4
:06130000139902145302D0
:06130600145C0214D10288
:06130C0015E60215E602E1
:0613120015E60215E602DB
:0613180014F502155D0250
:06131E0015E60215810234
:0213240015CFE3
:0E132600C28E740F55892420F589758B807551
:0A1334008D80C28FD28EE578B57966
:03133E00028051D9
:08134100E579246AF9878212A4
:0B13490016CC503DC2AAE5767032E5DC
:0A13540079246AF9E7FF20E5077429
:06135E00204FF775770037
:0B13640074FC2577400512163180163E
:06136F000579537907C265
:041375000DC2121281
:0C1379001605C28E758DF0758B00D28EAB
:05138500D2AA0215E6EA
:06138A000579537907020A
:0213900015E660
:07139200C28ED2AA0215E68B
:0A139900A28BB39218C28B75760385
:0A13A300758D00E575700A7575017F
:0513AD00C206C20702A8
:0213B20015E63E
:0A13B400747F2575401C301808B244
:0413BE0005E57525A7
:0313C20074F5744B
:0513C500E5752575F53A
:0613CA007560030215E648
:0613D0007575810215E6AF
:0A13D600C28EC28FA205201801B3D9
:0A13E0005026E572700E74CCB5744F
:0313EA0002D20626
:0713ED00740CB57402D20775
:0713F400200613200710E59D
:0513FB00722453F8E527
:0514000074F6627305A3
:03140500728002F0
:02140800C2031D
:05140A00100D02801D21
:07140F0030061430031175D3
:0714160077041012028009A7
:07141D00E54E2404F54E53D7
:021424004E3C3C
:061426001216050215E696
:07142C0030031E20061B2007
:0C1433000718740F55892410F589758D79
:0C143F00FA758B70D28E757604D2AA026A
:02144B0015E6A4
:06144D001216050215E66F
:09145300758D807576020215E624
:0A145C00300B64E57224FB505EC201
:0E1466008E740F55892410F589758DEF758BE6
:0814740042D28EA2109208E59D
:08147C005830E71F855682C0BD
:0C1484005712167BAF821581BFFF02805B
:011490000259
:02149100D2087F
:09149300E556701CE5577018D2F3
:03149C00088014B1
:0C149F00901D17E493FFB5560B901D182C
:0814AB00E493FFB55702D208DB
:0914B30074FFB57305300802D284
:0114BC000926
:0614BD007576050215E63C
:0814C300E57224FE5002D2097B
:0614CB001216050215E6F1
:0A14D100C28E74FFB5731330080AD1
:0614DB00D20E121631C210
:0414E1000D0215E6FD
:0614E5001216050215E6D7
:0614EB00D20F121631C2FF
:0414F1000D0215E6ED
:0814F500E5722453F98707306A
:0414FD000E027FCC90
:05150100300F027F0C19
:09150600C2AA740AB57602800342
:03150F000215E6DC
:0A151200E575247F402CE5755F703D
:09151C0008D296C20CB20580024F
:02152500D20CE6
:08152700E5757007757501C23E
:03152F000580062E
:05153200E5752575F5CB
:01153700753E
:07153800E575700375758174
:05153F0075760B80131E
:09154400200506D296C20C8002BB
:02154D00D20CBE
:06154F00057275750075C0
:02155500760D11
:06155700758D120215E67D
:0A155D00E57270077401B575020510
:01156700770C
:0A156800C296A20C828B5007C20D40
:051572001216058006C1
:0615770075760A758D6E09
:04157D00C28B806538
:0E158100C296C28E740F55892410F589758D9F
:0A158F00FB758B90D28E200E033006
:021599000F053C
:05159B00121605802B73
:0C15A000740F5558FF7E0074072FFFE405
:0C15AC003EFEAC727D00C3EF9CEE64803C
:0C15B8008DF063F08095F05007D20A120D
:0415C4001605800385
:0315C80075760E27
:0415CB00C28B801738
:0E15CF00C28E740F55892420F589758D6E75B6
:0915DD008B80C28FD28E75760A54
:0C15E600D204D0D0D000D001D002D0033D
:0E15F200D004D005D006D007D083D082D0F030
:05160000D0E0D0233210
:0A160500757600C28BC28EC2AB7571
:0A160F007300757200C28E740F554F
:0C161900892410F589758D89758BAFC28E
:0A1625000EC20FC28FD28ED2AAD2DD
:02162F00AB22EC
:0E163100C28E740F55892420F589758D6E7553
:0C163F008B80C28F740F55582407FF7574
:04164B0073FF7E00AB
:0C164F00C3EE9F500BEE2453F9E7FD6240
:04165B00730E80F09A
:07165F00EF2453F8A673C24B
:0416660006C207D2DF
:05166A000D75760A7504
:0A166F007500757200C2AAD28ED277
:02167900AB22A2
:0A167B00C07C85817CAF827EFF9069
:081685001D16E493FDBDFF00FA
:0C168D005038201035901D16E493602E9C
:07169900901D16E493FD1DF6
:0E16A000ED6024ED2DFC2417901D0093FBEF50
:0C16AE00B5031374182C901D0093FCE58C
:0A16BA007C24FDF8E6B504028D065D
:0316C4001D80D9AD
:0516C7008E82D07C22A0
:0A16CC00C07CE581F57C2404F58163
:0C16D600AF82C2187DFE7E00EFA2E5E4AA
:0916E20033FC24FF9219BF8000C3
:0516EB00400302181885
:0C16F000C005C006EF2323540124FF9224
:0B16FC001A53071F8F82C007C005C0F3
:0C170700231210D8AA82AB83ACF0FED0F5
:0A17130023D005D007A87C08A60229
:0E171D0008A60308A60408A606901D11E49372
:0E172B00FE0EEF2FFD2EFC04901D0093FEB568
:04173900070280061D
:06173D00D006D005800F6C
:0E174300D006D0058C8275831DE493FCFD7EDC
:011751000097
:09175200BDFE06BE00030218F3FF
:0A175B007553BC901D17E493FC8C3D
:0A17650054901D18E493FC8C55ED20
:0C176F002DFD2417901D0093FE8E567473
:0A177B00182D901D0093FE8E577587
:061785005900301A057541
:04178B005A4080033D
:03178F00755A8008
:0E179200901D12E4932F2FFE2F2404901D00B3
:0C17A00093FE24F95006EE24FBFE8002AC
:0217AC007E01BC
:0C17AE0074E02EF558EE24FE500F740677
:0A17BA002E2453F9A87C088605A729
:0317C4000580108D
:0C17C700A87C08743F56FAE4FBFCFDEA25
:0417D300255AF55A44
:0C17D700EE24FD500E74052E2453F9A8DA
:0717E3007C08088605A7053C
:0C17EA00EE24FC500F74042E2453F9A8C8
:0817F6007C0808088605A70520
:0C17FE00EE24FB501074032E2453F9A8B5
:09180A007C080808088606A70600
:05181300D2180218F3D9
:0A1818007553B0901D17E493FE8E87
:0A18220054901D18E493FE8E5585C6
:03182C004C568592
:0A182F004D5753071FEF24FA500332
:031839000218F1A1
:07183C00EF2F2F90184373FA
:071843000218F10218550222
:06184A001861021878028B
:0518500018890218E9EF
:0818550075586074C22552F5BC
:04185D00590218F123
:081861007558637443254EF530
:0518690059755A40759D
:06186E005B00755C12D264
:04187400120218F153
:07187800755600755700755D
:06187F0058E175590175E6
:041885005A408068DD
:021889007F00DE
:0A188B00C3EF954F503CE550702666
:0A189500740A2F2453F87600AD51B9
:0E189F007E008F037C00EB2DFDEC3EFEBD6055
:0B18AD001CBE0019740A2F2453F8A67B
:0318B8007A800F24
:0A18BB00740A2F2453F9EF25519011
:0518C5001D0093FEF779
:0318CA000F80BECE
:0918CD007463254FF5587442457F
:0618D6004EF55974404577
:0418DC004FF55A85E5
:0318E000505B85D5
:0318E300515CD283
:0318E60012800865
:0718E900755860755981C2BA
:0118F00011E6
:0218F100D2180B
:0818F30030190674DF5553F5AE
:0118FB005399
:0618FC00A218857C81D0DA
:021902007C2245
:07190400AF82C218BF4000D2
:0C190B00501B8F82C007C023121C50E547
:0C19170082D023D0075444FEBE4402805E
:0119230004BF
:04192400D218802A2B
:09192800AD787E000DBD00010E3A
:0C1931005305077E00AB797C00EBB50588
:07193D0006ECB50602800E66
:08194400E578246AF8A6070506
:05194C0078537807D27A
:01195100187D
:05195200D28EA2182254
:0A195700C07CE581F57C2404F581D5
:09196100C209AF5974C35FFEA86E
:05196A007C08A65AE50F
:09196F0056FC7036E5577032E5B4
:071978007A20E003021C2F9E
:0C197F00EE700DA87C08B6C007C0061270
:04198B001C35D00631
:05198F00BE010280030F
:03199400021C2F03
:09199700A87C08E66003021C2F85
:0919A000758283121904021C2F48
:0819A900E55830E703021B7A48
:0C19B100901D17E493FBECB503028003CB
:0319BD00021C2FDA
:0B19C000901D18E493FBB55702800354
:0319CB00021C2FCC
:0819CE00757B00BE4202801B84
:0619D600BE4303021B0EDC
:0619DC00BE8003021B3473
:0619E200BE8103021B564A
:0619E800BE8303021B6F29
:0319EE00021C2FA9
:0619F100201103021C2F6F
:0A19F700743C5FF552A87C08E6542A
:0A1A0100F0F6A87C08B6800280030E
:031A0B00021AEDCF
:0C1A0E00758281121904E55BFB70030275
:021A1A001AEDC3
:051A1C00740F555AFF94
:0A1A2100E57670FCC2AF75E400AE7C
:0A1A2B005C74015B241CFCA87C081D
:031A350008760030
:0C1A3800A87C0808C3E69F4003021AE8DF
:0C1A4400EB703CC003E57C2403F8A60610
:0C1A5000087600A87C080886027D00E5EE
:0C1A5C007C2403F8EA26FAED0836FDBAF7
:071A68006005BD00028004CF
:041A6F00D003801010
:0A1A7300D003A87C0808740A26249A
:061A7D0053F9877A801680
:0B1A83008CE7A87C0808E62EF5E6A81A
:0A1A8E007C0808740A262453F98727
:011A9800E568
:0A1A99008E027D00A87C0808E57CA1
:0C1AA3002403F9E6F7097700E57C240332
:0E1AAF00F8E62AFA08E63D53023F7D00BA3FF2
:0D1ABD0022BD001F8F027D001ABAFF011D1F
:0C1ACA00E57C2403F8E6B5020708E6B549
:041AD600050280067F
:061ADA0075E46875E400EC
:081AE000A87C080806021A3870
:051AE80075E468D2AFB7
:091AED00A87C08E66003021C2F2E
:041AF600855A4F8539
:031AFA005B5085B9
:061AFD005C5175828112AC
:091B030019047582841219040210
:021B0C001C2F8C
:0A1B0E00743C5FF552A87C08B68015
:041B18000343A208D9
:091B1C00A87C08E66003021C2FFE
:0D1B25007582811219047582821219040262
:021B32001C2F66
:061B3400301103021C2F1A
:041B3A00D2118554EB
:031B3E004C85557E
:051B41004D754E00C2CD
:0C1B46001275D16075D20B75D3B375D148
:041B520061021C2FE1
:071B5600E554B54C028003C9
:031B5D00021C2F38
:071B6000E555B54D028003BD
:031B6700021C2F2E
:051B6A00C211021C2F56
:091B6F00758285121904C21102ED
:021B78001C2F20
:061B7A00EE6003021C2FC7
:0C1B8000C0578C8212167BAF821581BF0B
:051B8C00FF03021C2F05
:0E1B9100901D11E493FEF58275831DE49325EB
:0C1B9F00E02EFD0EA87C0874C056FCE48B
:041BAB00BC800104F5
:011BAF00FC39
:081BB000C3EE9D4003021C2F4F
:0E1BB8008E8275831DE493FBEFB50366EE0489
:0E1BC600901D0093FBF582C007C006C005C04D
:0E1BD40004C003121C50AA82D003D004D00516
:0E1BE200D006D007EC602EC00474145AFCBC70
:041BF0001402800457
:041BF400D004801F7A
:0E1BF800D0048B82C007C006C005C004C00325
:0E1C0600C002120C4FD002D003D004D005D083
:031C140006D007F0
:0C1C1700A87C08E6700D53020CBA0C0CFF
:071C23008B82120F608005A7
:051C2A000E0E021BB0CC
:061C2F00857C81D07C22BF
:0C1C3500E57670FCC2AF75E40075E71D99
:0A1C410075E617855BE5855CE57527
:051C4B00E468D2AF22A5
:0E1C5000AF82901D12E493FE0E0E0EEF2E2FAB
:081C5E002F901D0093F5822276
:0E1C660075950075911475924CC29675892182
:0E1C7400758F00C28CC28E758D80758B80C2FC
:0C1C82008FC20475A88075E80075B804D6
:0A1C8E0075B70CD28A757A2EC206D3
:051C9800C207C20EC2EC
:041C9D000FC209D297
:051CA1000B75780075D1
:061CA6007900754E00C23A
:041CAC0012C211C28D
:051CB0001012160522D0
:06005200E478FFF6D8FD82
:080030007900E94400601B7A2D
:0500380000901CC178DE
:03003D000075A0AB
:0A00400000E493F2A308B8000205E3
:08004A00A0D9F4DAF275A0FF61
:080058007800E84400600A7919
:030060000075A088
:0600630000E4F309D8FCE3
:080069007800E84400600C7906
:0B00710000900000E4F0A3D8FCD9FAD6
:0300230075817C68
:0A002600121CB5E582600302001E03
:041CB5007582002212
:00000001FF
