:0400000002002332A5
:01000B0032C2
:03001300020F5485
:03001B00020F844D
:03007C0002001E61
:05001E0012007F80FECE
:0A007F00C00885810805817F007E1E
:0B00890000C218E5A703540124FF92F9
:0800940019C007C006C02312C9
:0C009C001988D023D006D007D2972097F7
:0A00A8000A301907A8080876008046
:0100B2000B42
:0B00B300901BFFE493FCA80808A604C3
:0E00BE00C297901BFFE493AB962BFC8C9653DD
:0900CC00963FD28C2019217C0022
:0300D500BC32003A
:0E00D800501AC28C901D17E493F58C901D18E1
:0800E600E493F58AC28DD28C6F
:0600EE00308DFD0C80E1E5
:0E00F40075C1FFC2AF75A7E575C2A575C35AE9
:0E010200D2AFC2AF43A70475C2A575C35AD2CF
:0B011000AFC007C006C023120F1DD0B7
:0A011B0023D006D00720190FC007FB
:08012500C006C023120E56D0E3
:05012D0023D006D007FD
:0E01320053BDFE75985043BAE043BD0275BF41
:0C0140002F75BEF043BD017599557C0081
:0E014C00C2AF75C2A575C35AD2AF901D0DE4A7
:07015A0093FBBBFF028003D1
:030161000202781F
:06016400300E03020278D8
:08016A00E56E30E003020278AB
:0E017200748025D1503A75D16075D20375D3D3
:0C0180009A75D161C007C006C004C023FE
:0C018C00120C1ED023D004D006D0070CAB
:0E01980074035CFBBB0313C007C006C004C0A9
:0501A60023120AE7D05E
:0701AB0023D004D006D007A9
:0E01B200308D1F740F5589FBBB011774F0557B
:0E01C000892402F589758F01758C50C28D431C
:0601CE00A210D292D28CB7
:0A01D400300113C007C006C004C0CC
:0501DE0023120C8ED07D
:0701E30023D004D006D00771
:0C01EA00E53F605FC0048EF005F07A0174
:0401F6007B00800604
:0601FA00EA2AFAEB33FBD8
:0C020000D5F0F7AC3F7D00EC5202ED524F
:0E020C0003D004EA4B6034740C2EF582C00758
:0A021A00C006C004C023121619D05C
:0C02240023D004D006D00750228EF00535
:05023000F074018002E2
:0202350025E0C2
:0C023700D5F0FBFD74FFC39D523F0E5339
:040243000607800822
:060247000E5306078002C1
:02024D007E0031
:0B024F00E56A70517440258D404B2083
:09025A000B48901D99E493FDB5D9
:040263003B02803D9D
:0C02670075E40075E71D75E699853BE520
:0502730075E468802C19
:0C027800748025D15026300E2375D16112
:0A028400E56F24914004056F801619
:0C028E00758285C007C006C004C02312A2
:0A029A001619D023D004D006D007B7
:0602A400200803300919D7
:0A02AA00C208C209C007C006C00464
:0602B400C02312166CD0FD
:0902BA0023D004D006D007800A0D
:0202C3007D6458
:0802C5008D031B8B05ED70F8A1
:0602CD0010980302035526
:0502D300AD99BD6308B8
:0502D80010990280FBFB
:0302DD00759955BB
:0902E000BD2B061596A8080816AE
:0902E900BD2D060596A8080806C3
:0E02F200BD7715C2AF75E40075E71B75E6FF1A
:0A030000A8080886E575E468D2AF8E
:06030A00BD7003636E816B
:03031000BD7608AF
:0503130010990280FBBF
:03031800759928AC
:03031B00BD7408A6
:05031E0010990280FBB4
:03032300759901C8
:03032600BD3100E6
:0E032900402AED24C74025ED24CFF5F005F065
:0403370074018002CB
:02033B0025E0BB
:0C033D00D5F0FB623BC007C006C004C046
:0503490023120C8ED010
:07034E0023D004D006D00704
:08035500D297209712BFFF00B0
:05035D0050030F8012A7
:06036200201803636E8108
:04036800D21880081F
:06036C00EF60031F800298
:02037200C218AF
:08037400E56E5401FDB4010027
:0D037C00E433FD24FF929702014C1581D05F
:02038900082248
:011D0000FFE3
:021D01000128B7
:021D03000004DA
:021D050020605C
:011D0C0000D6
:011D0D00FBDA
:021D1700FFFFCC
:0A038B00C008858108058105810581
:0E03950081E582FF24F8FE8EF005F0740180F1
:0103A3000257
:0203A40025E052
:0703A600D5F0FBFEBF0800CB
:0A03AD00501AE54E540124FF921887
:0C03B70092F0C007C00685F0238F821270
:0603C3000770D006D00710
:0803C900EF24F840030205F3E4
:0303D100BF0C005E
:0503D40040030205F3E7
:0C03D9007401554EFD7C00C007C006C03A
:0E03E50005C0048F821206B515811581D00661
:0D03F300D0077D007C007B008F027F00A8FA
:0C040000080808EA24F8F6EF34FF08F6BC
:0C040C00A8080808B6000608B600028028
:010418002BB8
:0C041900A8080808B6010608B60002801A
:01042500478F
:0C042600A8080808B6020608B60002800C
:010432006663
:0C043300A8080808B6030708B60003027A
:02043F0004C1F6
:030441000204EBC7
:0D044400C006901DD8E493FE740F5EFD907D
:0E0451001DEFE493FE74035EFC901DEFE49338
:0E045F000303543FFE74035EFBD0060204EB61
:0E046D00C006901DD8E49354F0C4540FFD90C7
:0D047B001DEFE493C4540FFE74035EFC906B
:0E0488001DEFE49323235403FE74035EFBD0A8
:030496000680528B
:0D049900C006901DD9E493FE740F5EFD9027
:0E04A6001DF0E493FE74035EFC901DF0E493E1
:0D04B4000303543FFE74035EFBD006802A54
:0E04C100C006901DD9E49354F0C4540FFD9072
:0D04CF001DF0E493C4540FFE74035EFC9016
:0E04DC001DF0E49323235403FE74035EFBD053
:0104EA00060B
:0E04EB00C006901DEDE493FEEA24F8FAEF340B
:0E04F900FFCA25E0CA33FF8AF005F0EE80024C
:02050700C3131C
:0E050900D5F0FBFE74035EFAED14FF8FF005D3
:08051700F0A80808740180023D
:02051F0025E0D5
:0B052100D5F0FBF6BA0004D006800AFB
:07052C00D006BA010280486D
:030533000205F3CB
:07053600AF4EBF80028005FB
:05053D00BF8113800BDB
:0A054200A8080874FFC396523E801B
:01054C0006A8
:06054D00A80808E6423E8A
:0E055300ED14FFF582C00712060DAE82AD83D7
:0C056100ACF0FBD007EE4D4C4B24FF9299
:09056D001892F085F0238F821230
:0505760007700205F30F
:0C057B00901DF1E49352068E07AE4EE492
:04058700BE8001042D
:06058B00FA6003EF6006B8
:06059100BE8129EF602687
:09059700A80808E6553D601EA805
:0A05A000080874FFC396523DBB012A
:0A05AA0009A8080874FFC396523B2D
:0905B400BB0206A80808E6423B60
:0605BD00BE8103EF6006A1
:0605C300EA602DEF602A42
:0905C900A80808E6553D7022A8BF
:0905D2000808E6423DBC0109A83D
:0805DB00080874FFC396523BAF
:0905E300BC0206A80808E6423B30
:0705EC00ED14242CF8760049
:0705F300E53CB53B0280026C
:0205FA00D2012C
:0605FC00850881D00822F1
:0B060200AF8274402FF58212161922FF
:07060D00AF827E00BF080070
:0E061400E433FD6027C0068FF005F07B017C0B
:030622000080064F
:06062500EB2BFBEC33FCA3
:0C062B00D5F0F7AA387E00EA5203EE5228
:0906370004D006EB4C60027E01C8
:06064000ED7033BF0C0059
:0E064600502E8F047D00EC24F8FCED34FF8C68
:09065400F005F07C017D00800638
:06065D00EC2CFCED33FD66
:0C066300D5F0F7AA3A7B00EA5204EB52F3
:07066F0005EC4D60027E0165
:03067600BF0C00B6
:0E067900402C7D00EF24F4FFED34FF8FF005E0
:07068700F07F017D008006F9
:06068E00EF2FFFED33FD2C
:0C069400D5F0F7AB397C00EB5207EC52BC
:0706A00005EF4D60027E0131
:0E06A7007F007D007C008E828F838DF0EC2220
:0A06B500C008858108AF82BF08006D
:0C06BF00E433FE6030E50824FCF8E60897
:0B06CB004670168FF005F074018002ED
:0206D60025E01D
:0C06D800D5F0FBFD74FFC39D523880106C
:0806E4008FF005F074018002A3
:0206EC0025E007
:0606EE00D5F0FBFD4238CF
:0606F400EE703BBF0C009C
:0C06FA005036E50824FCF8E608467019AC
:0B070600EF24F8F5F005F0740180020C
:0207110025E0E1
:0C071300D5F0FBFE740FC39E523A801319
:0B071F00EF24F8F5F005F074018002F3
:02072A0025E0C8
:06072C00D5F0FBFE423A8D
:03073200BF0C00F9
:0C0735004036E50824FCF8E60846701980
:0B074100EF24F4F5F005F074018002D5
:02074C0025E0A6
:0C074E00D5F0FBFE74FFC39E52398013EF
:0B075A00EF24F4F5F005F074018002BC
:0207650025E08D
:06076700D5F0FBFF423952
:03076D00D008228F
:0A077000C00885810805810581AFEE
:0E077A0082901DEBE493FE8FF005F0EE8002FE
:02078800C31399
:0B078A00D5F0FB5401FE24FF92192063
:050795001803301906F5
:06079A00201803020AE131
:0A07A000A218E433FD7E00C007C07C
:0C07AA0023C005C0068F821206B5158121
:0A07B6001581D023D007A808080819
:0C07C0007600A808087600901DD8E4938D
:0E07CC00FC53040F8F027B00C00774012AFE4D
:0E07DA00E43BFF7D00ECB50606EDB50702809E
:0107E800040C
:0407E900D0078008AD
:0807ED00D007A80808087601F6
:0E07F500C007901DD8E49354F0C4540FFE7456
:0E080300012AFCE43BFD7F00EEB50406EFB5D4
:040811000502800458
:04081500D007800880
:08081900D007A80808087602C8
:0E082100C007901DD9E493FE53060F74012A00
:0E082F00FCE43BFD7F00EEB50406EFB50502CC
:02083D00800435
:04083F00D007800856
:08084300D007A808080876039D
:0E084B00C007901DD9E49354F0C4540FFE74FE
:0E085900012AFCE43BFD7F00EEB50406EFB57E
:040867000502800402
:04086B00D00780082A
:08086F00D007A8080808760470
:0C087700A8080808E6605FC002C00390FB
:0C0883001DEDE493FEA808080886047D23
:0E088F0000EC24FFFAED34FFCA25E0CA33FB6B
:07089D008AF005F0EE800275
:0208A400C3137C
:0D08A600D5F0FB54036006D003D002802A79
:0E08B300D003D002901DEEE493FE1CBCFF01AA
:0108C1001D19
:0E08C200EDCC25E0CC33FD8CF005F0EE80028D
:0208D000C31350
:0B08D200D5F0FBFEA8080874035EF6DA
:0E08DD00C002C0038FF005F07D017E00800692
:0608EB00ED2DFDEE33FED1
:0C08F100D5F0F7AB3D7C00EB5205EC525B
:0C08FD0006D003D002ED4E6003020AE1B9
:0B0909008F82C007C003C002C0231291
:0C0914001972E582D023D002D003D00776
:080920005414FEBE1402800312
:03092800020AE1DF
:05092B000ABA00010BF7
:0E093000EBA2E713CA13CAFB74F92A901D004C
:0E093E0093FE74015FFDBD010553060F800896
:08094C0074F05EFDC4540FFEBF
:0A0954007D007C00201824A808088C
:0C095E00E66043A80808B601108FF00501
:05096A00F0E53E8002F3
:02096F00C313B0
:06097100D5F0FB30E02D83
:06097700A80808B602000A
:02097D00502503
:0A097F00A218E433FBBB0102800361
:03098900020A035C
:06098C00A80808B60200F5
:0A099200406F8FF005F0E53E800293
:02099C00C31383
:06099E00D5F0FB20E05F34
:0E09A40074E22F901D0093FBFD6018901DEA79
:0A09B200E493FB8FF005F0EB8002E8
:0209BC00C31363
:0909BE00D5F0FB5401FBBB013A2A
:0D09C700901DF2E493FB8FF005F0EB800231
:0209D400C3134B
:0E09D600D5F0FB20E0138FF005F074018002D5
:0209E40025E00C
:0909E600D5F0FBF4FB523B801438
:0809EF008FF005F07401800295
:0209F70025E0F9
:0809F900D5F0FBFB423B80023C
:020A01007C0176
:0A0A0300A218E433FBBB012BA80886
:0C0A0D0008E66049A80808B60102804114
:060A1900A80808B6020067
:0A0A1F0040158FF005F0E53E80025F
:020A2900C313F5
:0B0A2B00D5F0FB5401FBBB010280244E
:060A3600301803020AC49F
:080A3C00A80808B601028003BE
:030A4400020AC4DF
:080A47008FF005F0E53E80028E
:020A4F00C313CF
:090A5100D5F0FB5401FBBB016A66
:0E0A5A0074DA2F901D0093FBFD705D901DEA75
:0A0A6800E493FB8FF005F0EB800231
:020A7200C313AC
:0E0A7400D5F0FB5401FBBB010B7C8074E22F1C
:060A8200901D0093FBFD36
:0D0A8800901DF2E493FB8FF005F0EB80026F
:020A9500C31389
:0E0A9700D5F0FB20E0128FF005F07401800214
:020AA50025E04A
:080AA700D5F0FBFB423B80157A
:080AAF008FF005F074018002D4
:020AB70025E038
:090AB900D5F0FBF4FB523B800276
:020AC2007C11A5
:0C0AC400EC6014EF242CF974804DF7EF67
:0B0AD0002424F95304F0EC4EF78006DC
:060ADB00EF242CF8760068
:060AE100850881D0082207
:070AE7000534E4B5340205FB
:010AEE0035D2
:0A0AEF00E53424FFFEE53534FFFF77
:0B0AF900EEF4FEEFF4FFE5345206E5DA
:050B04003552077D00E1
:030B0900BD10001C
:080B0C005032EE30E0247C00C1
:030B1400BC08001A
:0C0B1700501DEC2424F9870353030FEB5E
:0C0B2300B5050DEC242CF9E7FB247F50F5
:040B2F0003EB14F7C9
:030B33000C80DE55
:0A0B3600EFC313CE13CEFF0D80C9EC
:020B40007F0034
:080B4200EF24F85003020C1D22
:0B0B4A00EF242CF98706BE8002800318
:030B5500020C1976
:0A0B5800D2018FF005F07401800255
:020B620025E08C
:0C0B6400D5F0FBFEEF2424F9E7FD20E4AF
:040B700003020BF47D
:0D0B7400901DF2E493FD8FF005F0ED80027E
:020B8100C3139C
:0B0B8300D5F0FB20E005EE423B8005B2
:050B8E00EEF4FD523BF6
:0C0B9300EF242CF87600901DEAE493FD9E
:070B9F008FF005F0ED80026C
:020BA600C31377
:0E0BA800D5F0FBFC74015CFDBD01668F037C83
:060BB600000BBB00010C66
:0E0BBC00ECA2E713CB13CB74F92B901D009322
:0D0BCA00FC74015FFBBB010553040F8008A4
:080BD70074F05CFBC4540FFC38
:0E0BDF0074E22F901D0093FB6030ED602D74CA
:070BED00804BF6A7048025F0
:0D0BF400901DF2E493FD8FF005F0ED8002FE
:020C0100C3131B
:0C0C0300D5F0FB20E007EEF4FD523B8032
:010C0F0003E1
:030C1000EE423B76
:060C1300EF242CF876002E
:040C19000F020B4279
:010C1D0022B4
:0A0C1E007F00053774075537FE7498
:0B0C28000F5589FDBD025EE56A705AA1
:0C0C33003092FDE58A248D40F7C203AD2D
:0E0C3F0080D293EE9019D793FEF4FC8C807B4C
:010C4D0005A1
:0C0C4E008B021A8A03EB70F8A293921834
:090C5A008D802018048E058D0721
:0C0C6300EE5FFDEE5536FBEDB5030280A0
:010C6F001D67
:040C7000853C3BE59F
:0C0C740036F4FDEF5205EE5205ED600570
:050C8000ED623BD20112
:080C8500EE5F4236EC4F5236DF
:010C8D002244
:0B0C8E00AE3C7F00EEF4FEEFF4FFAC84
:0C0C99003B7D00EC5206ED5207EE4F6070
:0C0CA5001FC28C53A2E9C292853B80C2A2
:0E0CB1008DE4F58CF58A74F0558904F589758B
:060CBF008F00D28C8003BF
:030CC500853B80EC
:080CC800901DF3E493653BF578
:030CD000397F0069
:030CD300BF080057
:0A0CD60050218FF005F07401800238
:020CE00025E00D
:0A0CE200D5F0FBFE553BFDEE553C3E
:070CEC00FCEDB504028003DA
:030CF300EE423F8F
:030CF6000F80DA92
:040CF900853B3CC239
:020CFD000122D2
:0C0CFF00AF82E53C6FFEE4FCFDEE30E04F
:0B0D0B000EEF30E0067C207D0080042D
:040D16007C107D00D0
:0D0D1A00EE30E10CEF30E1054305088003E9
:030D27004305047D
:0D0D2A00EE30E20CEF30E205430480800360
:030D370043044032
:0D0D3A00EE30E30CEF30E3054305028003CB
:030D470043050160
:0D0D4A00EE30E40CEF30E40543058080033B
:030D570043054011
:0D0D5A00EE30E50CEF30E5054304028003A8
:030D670043040141
:0D0D6A00EE30E60CEF30E605430520800377
:030D770043051021
:0D0D7A00EE30E70CEF30E70543040880037E
:030D87004304041E
:050D8A008C828D832224
:0A0D8F00C008858108C082C08305FA
:0A0D990081A80808088605A80808CC
:040DA30086037C0047
:0A0DA7008D028B07E5082403F8A66F
:070DB1003BC282C2837E00F9
:0E0DB800EE24F84038C00574805A23540124FC
:0D0DC600FF9280EA2AFAD283D283C283E52D
:0C0DD300082403F874805623540124FF08
:0C0DDF009284E5082403F8E625E0F6D233
:0A0DEB0085D285C2850ED00580C3B5
:060DF500D286C2867E00DA
:0E0DFB00EE24F8401774805F235401FA24FFA1
:0E0E09009280EF2FFFD283D283C2830E80E44B
:0A0E1700D2827E007F00C2827A00C2
:0B0E2100EA24F040193093034306015F
:050E2C00D283BA0F00A3
:090E31005007EFCE25E0CE33FF9F
:050E3A00C2830A80E202
:0C0E3F00A80808E6B5060708E6B507029B
:020E4B00800322
:030E4D00020DA7EC
:060E5000850881D0082294
:080E5600901D99E493F53B9017
:070E5E001DF6E493FF7E0086
:0E0E6500EE24FC4046EE75F002A4FCADF08CCD
:060E7300F005F0EF800223
:020E7900C313A1
:0E0E7B00D5F0FBFC74035CFDBD01148EF00588
:050E8900F0740180027D
:020E8E0025E05D
:0A0E9000D5F0FBFC74FFC39C523B3D
:0B0E9A00BD02108EF005F07401800214
:020EA50025E046
:060EA700D5F0FBFC423B0C
:030EAD000E80B5FF
:080EB000901DF7E493FF7E00A2
:0E0EB800EE24FC404CEE75F002A4FBACF08B77
:060EC600F005F0EF8002D0
:020ECC00C3134E
:0E0ECE00D5F0FBFB74035BFDBD011774042E11
:080EDC00F5F005F0740180023D
:020EE40025E007
:0A0EE600D5F0FBFC74FFC39C523BE7
:0E0EF000BD021374042EF5F005F074018002AB
:020EFE0025E0ED
:060F0000D5F0FBFD423BB1
:030F06000E80AFAB
:060F0900753C00D20190CE
:070F0F001DF3E493653BF5BF
:050F160039E53BF44247
:020F1B003F2273
:0C0F1D007536007580007584007585FF36
:0E0F290074F055892402F589758F01758C507E
:0C0F370043A210D28CC2A9D288753A00E7
:060F4300E4F53DF534F574
:040F490035F53EC27A
:070F4D0000C28875D181226A
:0819D700010204081020408009
:0E0F5400C0E0C0D0C2AAC28E740F55892420FE
:0E0F6200F589758B35758D80C28FD28ED2AB1E
:060F7000756A02C204D202
:050F7600027569007521
:090F7B006800D203D0D0D0E032AE
:0C0F8400C023C0E0C0F0C082C083C007E2
:0E0F9000C006C005C004C003C002C001C000FE
:0A0F9E00C0D075D000C008E581F551
:0A0FA800082404F581E56AFF24F136
:050FB200500302152FA1
:070FB700EF2F2F900FBE7316
:070FBE00020FEB02152F02E8
:060FC50012C202138202B9
:060FCB00138B02141C024E
:060FD100152F02152F028E
:060FD700152F02152F0288
:060FDD00143E0214A602FE
:060FE300152F0214CA02E2
:020FE9001518D9
:0E0FEB00C28E740F55892420F589758B807590
:0A0FF9008D80C28FD28EE56CB56DBD
:04100300030212BB17
:08100700E56D245EF98707C2C4
:0C100F00187DFE7E00EFA2E5E433FC2417
:06101B00FF9219BF8000E6
:05102100400302116113
:0C102600C005C006EF2323540124FF92F4
:0B1032001A53071F8F82C007C005C0C3
:0C103D002312060DAA82AB83ACF0FED09B
:0A10490023D005D007A80808A6026E
:0E10530008A60308A60408A606901D11E49343
:0E106100FE0EEF2FFD2EFC04901D0093FEB539
:04106F0007028006EE
:06107300D006D005800F3D
:0E107900D006D0058C8275831DE493FCFD7EAD
:011087000068
:09108800BDFE06BE000302126A5F
:0E109100901D12E4932F2F2FFC0C0C0C8C8260
:0E109F0075831DE493540325E025E0FB74B037
:0A10AD004BF547901D17E493FB8BF1
:0A10B70048901D18E493FB8B49EDEF
:0C10C1002DFD2417901D0093FE8E4A7434
:0A10CD00182D901D0093FE8E4B7548
:0610D7004D00301A057502
:0410DD004E408003FE
:0310E100754E80C9
:0E10E400EC04901D0093FE24F95006EE24FB50
:0310F200FE80027B
:0210F5007E017A
:0C10F70074E02EF54CEE24FE500F740641
:0A1103002E2447F9A808088605A766
:03110D000580104A
:0C111000A80808743F56FAE4FBFCFDEA56
:04111C00254EF54E19
:0C112000EE24FD500E74052E2447F9A8A3
:07112C000808088605A7056D
:0C113300EE24FC500F74042E2447F9A891
:08113F00080808088605A70551
:0C114700EE24FB501074032E2447F9A87E
:0911530008080808088606A70632
:05115C00D21802126A26
:0A1161007547B0901D17E493FE8E51
:0A116B0048901D18E493FE8E49859C
:03117500404A8568
:0A117800414B53071FEF24F850030A
:03118200021268EE
:07118500EF2F2F90118C7376
:07118C000212680211A40227
:0611930011B00211C702B9
:0611990011D90212390217
:05119F00124302125F83
:0811A400754C6074C22546F58C
:0411AC004D02126876
:0811B000754C6374432542F500
:0511B8004D754E40756D
:0611BD004F00755012D234
:0411C3000F0212689D
:0711C700754A00754B00752D
:0611CE004CE1754D0175B6
:0511D4004E400212680C
:0211D9007F0095
:0A11DB00C3EF9543503CE544702635
:0A11E500740A2F2447F87600AD4588
:0E11EF007E008F037C00EB2DFDEC3EFEBD600C
:0B11FD001CBE0019740A2F2447F8A63E
:031208006E800FE6
:0A120B00740A2F2447F9EF254590DF
:051215001D0093FEF72F
:03121A000F80BE84
:09121D0074632543F54C7442454D
:0612260042F54D74404545
:04122C0043F54E85B3
:03123000444F85A3
:031233004550D251
:031236000F802FF7
:07123900754C60754D81C288
:031240000E8025F8
:08124300754C6474414542F54D
:06124B004D74404544F51E
:031251004E854582
:051254004F7550057507
:0612590051A0D20F800934
:08125F00754C6074C22542F5D4
:011267004D39
:02126800D2189A
:08126A0030190674DF5547F549
:011272004734
:0A12730030183DC2AAE56A7032E5AA
:0A127D006D245EF9E7FF20E5077419
:06128700204FF7756B001B
:0B128D0074FC256B40051215818016D3
:06129800056D536D07C255
:04129E000BC20F125E
:0C12A2001553C28E758DF0758B00D28E36
:0512AE00D2AA02152F79
:0612B300056D536D0702FA
:0212B900152FEF
:0712BB00C28ED2AA02152F1A
:0A12C200A28BB39218C28B756A0369
:0A12CC00758D00E569700A7569016F
:0512D600C205C2060282
:0212DB00152FCD
:0A12DD00747F2569401C301808B228
:0412E70004E569258C
:0312EB0068F5683B
:0512EE00E5692569F52A
:0612F30069600302152FE3
:0612F90075698102152F4A
:0A12FF00C28EC28FA204201801B3B2
:0A130900502CE566700E74CCB56838
:0313130002D205FE
:07131600740CB56802D20659
:07131D00200519200616E56A
:081324006624E94010E566248F
:06132C0047F8E568F662D7
:05133200670566800262
:02133700C202F0
:05133900100B02801DF5
:07133E0030051430021175A7
:071345006B04100F02800988
:07134C00E5422404F54253C1
:02135300423C1A
:0613550012155302152FD2
:07135B0030021E20051B20DB
:0C1362000618740F55892410F589758D4C
:0C136E00FA758B70D28E756A04D2AA0248
:02137A00152F2D
:06137C0012155302152FAB
:09138200758D80756A0202152FB9
:0A138B0074D35547FFBF90028003A2
:0313950002141629
:0C139800E56624F85078C28E740F558969
:0D13A4002410F589758DEF758B42D28EC235
:0713B10007E54C30E71F8542
:0513B8004A82C04B1247
:0B13BD0015CBAF821581BFFF0280023C
:0213C800D2074A
:0913CA00E54A701CE54B7018D2D5
:0313D3000780147C
:0C13D600901D17E493FFB54A0B901D1802
:0813E200E493FFB54B02D207B2
:0A13EA0074FFB56721740F554CFF26
:0C13F4007E0074082FFFE43EFEAC667D16
:0C14000000EFB5040BEEB50507D210306C
:04140C000702D208F9
:06141000756A0502152FAC
:0614160012155302152F10
:09141C00C28E30101330070AD211
:051425000C121581C24C
:04142A000B02152F6D
:06142E0012155302152FF8
:06143400D20D121581C269
:04143A000B02152F5D
:08143E00E5662447F987073039
:041446000C027FCC49
:05144A00300D027F0CD3
:09144F00C2AA740AB56A02800306
:0314580002152F4B
:0A145B00E569247F402CE5695F700D
:0914650008D296C20AB20480020A
:02146E00D20AA0
:08147000E5697007756901C20E
:03147800048006E7
:05147B00E5692569F59B
:011480006902
:07148100E569700375698144
:05148800756A0B8013E2
:09148D00200406D296C20A800276
:02149600D20A78
:0614980005667569007590
:02149E006A0DD5
:0614A000758D1202152FEC
:0A14A600E56670077401B5690205E0
:0114B0006BD0
:0A14B100C296A20A828B5007C20BFC
:0514BB0012155380062C
:0614C000756A0A758D6ECD
:0414C600C28B8065F0
:0E14CA00C296C28E740F55892410F589758D57
:0A14D800FB758B90D28E200C0330C0
:0214E2000D05F6
:0514E400121553802BDE
:0C14E900740F554CFF7E0074072FFFE4C9
:0C14F5003EFEAC667D00C3EF9CEE648000
:0C1501008DF063F08095F05007D20912C5
:04150D0015538003EF
:03151100756A0EEA
:04151400C28B8017EF
:0E151800C28E740F55892420F589758D6E756D
:091526008B80C28FD28E756A0A17
:06152F00D203850881D003
:0C15350008D0D0D000D001D002D003D0EC
:0E15410004D005D006D007D083D082D0F0D0E1
:04154F00E0D0233293
:0A155300756A00C28BC28EC2AB7530
:0A155D006700756600C28E740F551A
:0C156700892410F589758D89758BAFC241
:0A1573000CC20DC28FD28ED2AAD294
:04157D00ABC21022CB
:0E158100C28E740F55892420F589758D6E7504
:0C158F008B80C28F740F554C2407FF7531
:04159B0067FF7E0068
:0C159F00C3EE9F500BEE2447F9E7FD62FD
:0415AB00670E80F057
:0715AF00EF2447F8A667C214
:0415B60005C206D292
:0515BA000B756A0A75C3
:0A15BF006900756600C2AAD28ED240
:0215C900AB2253
:0A15CB00C008858108AF827EFF9002
:0815D5001D16E493FDBDFF00AB
:0E15DD005035901D16E493602E901D16E49379
:0215EB00FD1DE4
:0E15ED00ED6024ED2DFC2417901D0093FBEF04
:0C15FB00B5031374182C901D0093FCE540
:0A1607000824FDF8E6B504028D0684
:031611001D80D960
:051614008E82D00822C7
:07161900AF82C218BF4000C0
:0C162000501B8F82C007C023121972E516
:0C162C0082D023D0075444FEBE4402804C
:0116380004AD
:04163900D218802A19
:09163D00AD6C7E000DBD00010E34
:0C1646005305077E00AB6D7C00EBB50582
:0716520006ECB50602800E54
:08165900E56C245EF8A607050C
:051661006C536C07D280
:01166600186B
:05166700D28EA2182242
:0A166C00C008E581F5082404F581AB
:09167600C208AF4D74C35FFEAD64
:07167F004EA80808A605E5CE
:091686004AFB7049E54B7045E593
:07168F006E20E00302196C5C
:09169600EE7020A80808B6C01A85
:0C169F00E56A70FCC2AF75E40075E71D41
:0A16AB0075E617854FE58550E575DB
:0416B500E468D2AF64
:0516B900BE01028003E8
:0316BE0002196CA2
:0916C100A80808E6600302196C98
:0916CA0075828312161902196CD5
:0816D300E54C30E7030218B7F3
:0C16DB00901D17E493FAEBB502028003A7
:0316E70002196C79
:0B16EA00901D18E493FAB54B0280033A
:0316F50002196C6B
:0816F800756F00BE4102802065
:05170000BE4202802F33
:06170500BE430302184B75
:06170B00BE80030218710C
:06171100BE8103021893E3
:06171700BE83030218ACC2
:03171D0002196C42
:041720008D44854F20
:0B172400457582871216197582861227
:05172F00161902196CFF
:06173400200E0302196CF7
:0A173A00743C5FF546A80808E65469
:0A174400F0F6A80808B68002800342
:03174E0002182A54
:0B175100758281121619740F554EFFAF
:0A175C00E56A70FCC2AF75E400AA54
:0A1766004F74015A241CFBAE50A87A
:051770000808087600E6
:0C177500A8080808C3E69F4003021825DE
:0C178100EA703CC002E5082403F8A6064C
:0C178D00087600A808080886047D00E526
:0C179900082403F8EC26FCED0836FDBC2B
:0717A5006005BD0002800495
:0417AC00D0028026C1
:0A17B000D002A8080808740A2624D5
:0617BA0047F9876E80165E
:0B17C0008BE7A8080808E62EF5E6A855
:0A17CB00080808740A262447F9876D
:0117D500E52E
:0A17D6008E047D00A8080808E5084D
:0C17E0002403F9E6F7097700E50824036C
:0E17EC00F8E62CFC08E63D53043F7D00BC3FB0
:0D17FA0022BD001F8F047D001CBCFF011DDF
:0C180700E5082403F8E6B5040708E6B580
:041813000502800644
:0618170075E46875E400B1
:08181D00A8080808060217756F
:0518250075E468D2AF7C
:09182A00A80808E6600302196C2D
:04183300854E438516
:031837004F448596
:06183A0050457582811289
:09184000161975828412161902B2
:02184900196C18
:0A184B00743C5FF546A80808B6805B
:041855000343A2089F
:09185900A80808E6600302196CFE
:0D1862007582811216197582821216190204
:02186F00196CF2
:06187100300E0302196CA9
:04187700D20E8548C0
:03187B004085495C
:05187E0041754200C2AB
:0C1883000F75D16075D20B75D3B375D111
:04188F006102196C6D
:07189300E548B540028003A7
:03189A0002196CC4
:07189D00E549B5410280039B
:0318A40002196CBA
:0518A700C20E02196CE5
:0918AC00758285121619C20E02A4
:0218B500196CAC
:0618B700EE600302196C53
:0C18BD00C04B8B821215CBAF821581BF8F
:0518C900FF0302196C91
:0E18CE00901D11E493FEF58275831DE49325B1
:0C18DC00E02EFD0EA8080874C056FCE4C5
:0418E800BC800104BB
:0118EC00FCFF
:0818ED00C3EE9D400302196CDB
:0E18F5008E8275831DE493FBEFB50366EE044F
:0E190300901D0093FBF582C007C006C005C012
:0E19110004C003121972AA82D003D004D005BC
:0E191F00D006D007EC602EC00474145AFCBC35
:04192D00140280041C
:04193100D004801F3F
:0E193500D0048B82C007C006C005C004C003EA
:0E194300C00212038BD002D003D004D005D016
:0319510006D007B6
:0C195400A80808E6700D53020CBA0C0C39
:071960008B821206028005D4
:051967000E0E0218ED58
:06196C00850881D008226D
:0E197200AF82901D12E493FE0E0E0EEF2E2F8C
:081980002F901D0093F5822257
:0E19880075950075911475924CC29675892163
:0E199600758F00C28CC28E758D80758B80C2DD
:0C19A4008FC20375A88075E80075B804B8
:0A19B00075B70CD28A756E2EC205C1
:0519BA00C206C20CC2D0
:0419BF000DC20875D8
:0619C3006C00756D00755B
:0519C9004200C20FC244
:0519CE000E121553226A
:06005200E478FFF6D8FD82
:080030007900E94400601B7A2D
:05003800009019DF78C3
:03003D000075A0AB
:0A00400000E493F2A308B8000205E3
:08004A00A0D9F4DAF275A0FF61
:080058007800E84400600A7919
:030060000075A088
:0600630000E4F309D8FCE3
:080069007800E84400600C7906
:0B00710000900000E4F0A3D8FCD9FAD6
:0300230075816F75
:0A0026001219D3E582600302001EE8
:0419D30075820022F7
:00000001FF
