:0A007F00AF82BF140B85441C74F51A
:06008900B51C0343A208B0
:01008F00224E
:0A009000AF8274402FF5820218B011
:0A009A00C01DE581F51D2404F58169
:0500A400AF82BF08005F
:0C00A900503AA91D098F82C007C0011247
:0E00B50001A5AD82AE83D001D0077C007B0098
:0E00C300A70509A70609A70409A703EF2FFE4A
:0E00D10024CEF9EE24EEF88605088606A70573
:0600DF0009A70602016DF5
:0300E500BF140045
:0C00E8005029A91D097E00EF24F8FFEE4E
:0A00F40034FF8FF005F0AF17AE18CF
:0200FE00800779
:07010000C3EE13FEEF13FF35
:0C010700D5F0F65307017E00A707805AD0
:0A0113007401B51C22AF1D0F740328
:0A011D002FF8A62D74022FF8A61982
:08012700A91D09AF17A707AFDE
:0A012F001D0FEF04F9AF18A70780B9
:010139003392
:0A013A007402B51C16AF1D0F74020D
:0A0144002FF876BCEF04F8A61BE5C7
:07014E001D04F8A6818018D2
:020155007F0029
:0C015700EF24FC4011AE1D0EEF2EF9EF5E
:0A01630024CAF88606A7060F80EAFA
:0C016D00A91D09870409870509870609F8
:0C01790087078C828D838EF0EF851D813E
:03018500D01D2268
:0C018800AF8274FE5FF5F005F0E52D80FD
:010194000268
:02019500C31392
:09019700D5F0FB54036002C32201
:0501A0008F820218B07F
:0B01A500AF82C3E51B958150038581EC
:0101B0001B33
:0E01B100EF2FFF24EEF9870509E7FEC423CDEA
:0E01BF00C423541F6DCD541FCD6DCD30E4020E
:0201CD0044E00C
:0E01CF00FE53060774182EFEEF24EEF9870487
:0E01DD0009E7FF30E70C8D048E0774802FFFBA
:0401EB008C058F06EA
:0501EF008D828E8322C9
:0A01F400C01DE581F51D2406F5810C
:0C01FE00AF82C210530703EF901CA193C6
:0A020A00FE55196063EEF45219D29C
:0C02140010901DB2E493FEEF75F002A400
:07022000F5F005F0EE80028D
:02022700C313FF
:0C022900D5F0FBFEE51D2406F874035E12
:0C023500F6E51D2406F8B6010A74082F37
:070241002408F87680802AF2
:0C024800E51D2406F8B6021274082F24ED
:0C02540008F9901DB1E493FD74804DF793
:0202600080100C
:0A02620074082F2408F974E3252C1A
:06026C00901D0093FDF758
:0C02720074D72F901D0093FDE51D24049F
:0E027E00F8EDC313F6EF75F003A4FCEF2FFFAD
:02028C007B00F5
:03028E00BB0300AF
:0502910040030204829D
:08029600C211C212EC2BFAE5C3
:0A029E001D2406F8A602E51D240445
:0C02A800F87401562FFAE51D2405F8A695
:0E02B40002C004EBC3132F24DB901D0093FC4B
:0E02C20074015B75F004A4F5F005F0EC800209
:0202D000C31356
:0C02D200D5F0FBFCE51D2403F8740F5C64
:0C02DE00F6E51D2406F8E625E0FC24E708
:0E02EA00901D0093FD7A0074E82C901D009387
:0E02F800FC7E004202EE4205C007C004C003B7
:0C030600C022C002C00590000A121C7743
:0C031200AD82AE8315811581D022D0038E
:0C031E00D004D007A81D08A60508A606FC
:0C032A00E51D2405F8E625E024DEF98737
:0C0336000509870619A81D08C3ED96EE06
:0E03420064800886F063F08095F0D0044003DC
:0303500030103E2C
:0C035300E51D2405F8E625E024EEF987FE
:0C035F000509870619A81D08C3E69D08C3
:0D036B00E664808EF063F08095F0501AE596
:0A0378001D2403F8E630E311E51D33
:0C0382002403F8E603035401FE24FF925C
:03038E0011D21277
:0C039100E51D2405F8E625E0FE24DEF959
:0C039D00870209870519A81D08C3E69A0D
:0E03A90008E664808DF063F08095F04003302C
:0203B7001035FF
:0C03B900EE24EEF9870209870519A81D43
:0E03C50008C3EA96ED64800886F063F0809528
:0C03D300F05018E51D2403F8E630E10F9F
:0C03DF00E51D2403F8E65401FD24FF9204
:0303EB0011D2121A
:0603EE002012030204735B
:0A03F400301120E51D2406F886F004
:0803FE0005F07A017D00800684
:06040600EA2AFAED33FDC5
:0A040C00D5F0F7EA4217ED42188020
:0104160024C1
:0C041700E51D2406F886F005F07A017D52
:0304230000800650
:06042600EA2AFAED33FDA5
:0C042C00D5F0F7EAF4FAEDF4FDEA5217FF
:03043800ED52186A
:0A043B00201021E51D2406F87408C6
:0C04450026F582C007C006C004C003C03A
:05045100221218B0D0DA
:0904560022D003D004D006D00727
:0E045F00EE24DEF9EE24EEF886050886061877
:06046D00A70509A706190E
:0C047300E51D2404F8E60303543FF60BDB
:03047F0002028EE8
:06048200851D81D01D2242
:0E048800AF8253070774C32F901D0093FE3000
:0E049600E748747F5E75F00AA4FDAEF0EF2F0C
:0E04A400FC24CEF98702098703EC24EEF9C090
:0E04B200078704098707EAC39CFAEB9FFB8AC1
:0E04C000828B83C006C005121C6AAC82AF831B
:0E04CE00D005D006C3ED9CEE9FD00750058FE1
:0404DC00820201880F
:0104E00022F9
:0D04E10075D16075D20E75D3A075D161057F
:0604EE0015E4B51502053E
:0104F40016F1
:0A04F500E51524FFFEE51634FFFFB5
:0B04FF00EEF4FEEFF4FFE5155206E5F9
:05050A001652077D0000
:03050F00BD10001C
:080512005032EE30E0247C00C1
:03051A00BC0D0015
:0E051D00501DEC24BCF9870353030FEBB5050A
:0C052B000DEC2408F9E7FB247F5003EBE3
:0205370014F7B7
:030539000C80DE55
:0A053C00EFC313CE13CEFF0D80C9EC
:020546007F0034
:0C054800EF24F4405BEF2408F98706BEA6
:0E055400804FEF24F8401374CB2F901D0093BE
:0C056200F78F82C007120188D007803795
:0E056E00EF24F875F003A42408FEF582C00700
:0E057C00C0061218B0D006EE04F582C00612BA
:0E058A0018B0D00674022EF5821218B0D007F9
:0C059800EF2408F974DB2F901D0093FE87
:0105A400F75F
:0305A5000F80A024
:0905A8007480B5140575140005FA
:0105B1001A2F
:0105B2002226
:0E05B300758400758500AF915307FC8F91AFE2
:0C05C100925307FC8F9243A28075190F23
:0205CD007F00AD
:0E05CF00EF24F84066EF2FFE24EEF8760008C9
:0E05DD007600EE24DEF87600087600EE24CEDE
:0E05EB00F87600087600EF24BCF9EFC313FE8B
:0E05F90024D3901D0093FD74015F75F004A4DF
:07060700F5F005F0ED8002A3
:02060E00C31314
:0E061000D5F0FB540FF774B32E901D0093FE2F
:0B061E0030E708EF2408F8A606800D66
:0C062900EF2408F974CB2F901D0093FE05
:01063500F7CD
:040636000F0205CFDB
:03063A00752C001C
:0A063D00E52C24FC40497408252C2C
:0A064700FF24BCF9E52C252C24DC6F
:0C065100901D0093C4540FF7EF2408F82C
:0D065D007600C2AF120A10501975823312D8
:0D066A000AB4758208120BE7E5827010E5F6
:080677002C24CAF9A723800717
:07067F00E52C24CAF8760007
:06068600D2AF052C80B18B
:0A068C0078C87600751A01E4F52C19
:08069600F515F51675D181225E
:0400000002002332A5
:01000B0032C2
:030013000211EBEC
:03001B0002121BB3
:03007C0002001E61
:05001E0012069E80FEA9
:0C069E007F00C2107584FF7585FFC00747
:0606AA00C022121C1FD04B
:0706B00022D007C2977E0073
:0306B700BE320050
:0E06BA005016C28C758C00901D18E493F58AC2
:0406C800C28DD28C81
:0606CC00308DFD0E80E5FB
:0E06D20075C1FFC2AF75A7E575C2A575C35A05
:0E06E000D2AFC2AF43A70475C2A575C35AD2EC
:0306EE00AF7E00DC
:0E06F100EE24FC402C74032E901D0093FDEEB1
:0B06FF00901C9D93FCEDB504028015DB
:0E070A00C2AF75E40075E71D75E60D75E5FBE1
:0707180075E468D2AF800315
:03071F000E80CF7A
:08072200C007C0221205B3D08C
:03072A0022D007D3
:0E072D00C2AF75C2A575C35AD2AF748025D174
:0A073B00501E300C1B75D161E56102
:08074500249140040561800EBF
:0B074D00758285C007C0221218B0D0D2
:0307580022D007A5
:0B075B00901D0DE493FEBEFF02800322
:030766000209A3E2
:06076900300C030209A39D
:08076F00E56030E0030209A37C
:0C0777007444251B5014C2AF75E40075DB
:0E078300E71D75E60D75E5F775E468D2AF2247
:0B079100748025D1500BC007C022125D
:06079C0004E1D022D007A9
:0C07A20074B7252C901D0093FE7401B567
:0507AE001A59752C0032
:0A07B300E52C24FC404A74B7252C05
:0B07BD00901D0093FD30E03AC201E502
:0A07C8002C24CAF9E76025C007C021
:0507D20022120E6FD0A1
:0807D70022D0075018E52C2583
:0A07DF002CFD8DF005F0740380027C
:0207E90025E009
:0907EB00D5F0FBF4FD522D800B4A
:0507F400E52C252C900E
:0607F9001CA193FD422D3E
:0407FF00052C80B095
:06080300751A020209A3B0
:090809007402B51A0C7514877510
:060812002C00751A030220
:0208180009A332
:07081A007404B51A0280030B
:030821000208AD1D
:0A082400EE30E064E52C24CAF987E9
:0C082E0082C007C022120E84AC82AD8391
:0C083A00D022D007C374209C746A8DF09B
:0A08460063F08095F05046E52C2584
:0A0850002CFB25E024EEF974BB2B0D
:0E085A00901D0093FB3395E0FAEB2CFCEA3D79
:0C086800FDA70409A70519852C82C00714
:06087400C0221201F4D0C5
:04087A0022E52C2522
:06087E002CF582C02212DD
:080884000488D022D007800790
:07088C00EE30E103751409D1
:09089300052CE52C24FC400302B5
:02089C0009A3AE
:07089E0074804514F5147588
:0608A5002C00751A05028B
:0208AB0009A39F
:0708AD007406B51A02800376
:0308B40002099A9C
:0708B700EE20E10302098DB0
:0C08BE00EE30E212852C82C007C006C09C
:0508CA0022120FA3D073
:0508CF0022D006D00755
:0A08D400852C82C007C006C0221266
:0C08DE0010EDE582D022D006D0076003A8
:0308EA000209827E
:0C08ED0074045EF582C007C022120FB236
:0908F900D022D00740030209825D
:0A090200E52C252CFE8EF005F074A4
:03090C0003800263
:02090F0025E0E1
:0A091100D5F0FBF4522DEE2E24EE7B
:0E091B00F974BB2E901D0093FD3395E0FCEDAA
:0A092900252EFDEC352FFCA7050973
:0C093300A70419EE0425E024EEF974BCC2
:0C093F002E901D0093FE3395E0FDEE2588
:0A094B0030FEED3531FDA70609A7C7
:0A0955000519852C82C007C022128C
:05095F0001F4D022E5C7
:060964002C252CF582C0D9
:05096A0022120488D0F8
:04096F0022E52C252C
:070973002C04F582C02212E2
:08097A000488D022D007800B95
:05098200E52C252C907E
:060987001CA193FE422DAD
:09098D00052CE52C24FC500E752C
:040996001A018009B9
:09099A00E51A24F95003751A0155
:0609A30020060330070FDF
:0709A900C207C007C02212C3
:0809B0001903D022D007800AD0
:0209B8007E645B
:0809BA008E051D8D06EE70F89C
:0809C200D297209712BF7F00BD
:0509CA0050030F801234
:0609CF00201003636081AB
:0409D500D2108008B4
:0609D900EF60031F800225
:0209DF00C21044
:0809E100E5605401FEB40100C1
:0A09E900E433FE24FF929702072D6D
:041C9D00004C0438BB
:011D0000FFE3
:021D010091024D
:021D0300004C92
:021D05000438A0
:011D070006D5
:011D0800FFDB
:011D090000D9
:011D0C0000D6
:011D0D00FBDA
:021D1700FFFFCC
:0E09F300AE82AF83C28C74FFC39EFE74FF9F62
:090A0100FF8F8C8E8AC28DD28C0D
:060A0A00308DFDC28C22BC
:090A1000D210E52C24FC50030275
:020A19000AAF22
:050A1B00E52C252C254F
:050A20002C900A257373
:070A2500020A31020A51022E
:050A2C000A71020A91AD
:0B0A3100C2809009C4C0221209F3D05B
:050A3C0022D2807FFFC3
:0A0A4100A280821092108F061E8E14
:060A4B0007EF70F2805E6F
:0B0A5100C2819009C4C0221209F3D03A
:050A5C0022D2817FFFA2
:0A0A6100A281821092108F061E8EF3
:060A6B0007EF70F2803E6F
:0B0A7100C2829009C4C0221209F3D019
:050A7C0022D2827FFF81
:0A0A8100A282821092108F061E8ED2
:060A8B0007EF70F2801E6F
:0B0A9100C2839009C4C0221209F3D0F8
:050A9C0022D2837FFF60
:0A0AA100A283821092108F061E8EB1
:040AAB0007EF70F2EF
:050AAF00B210A21022AC
:0B0AB400AF82E52C24FC5003020BD89D
:050ABF00E52C252C25AB
:050AC4002C900AC9732B
:070AC900020AD5020B160220
:050AD0000B57020B981A
:020AD5007E01A0
:060AD700BE0003020BD873
:060ADD00EE5F601E7D00CB
:030AE300BD020051
:070AE6005005C2800D80F6EF
:0E0AED00D280900104C007C0061209F3D006A3
:040AFB00D00780128E
:0E0AFF00C280900118C007C0061209F3D0068D
:040B0D00D007D280BB
:050B1100EE2EFE80C184
:020B16007E015E
:060B1800BE0003020BD831
:060B1E00EE5F601E7D0089
:030B2400BD02000F
:070B27005005C2810D80F6AC
:0E0B2E00D281900104C007C0061209F3D00660
:040B3C00D00780124C
:0E0B4000C281900118C007C0061209F3D0064A
:040B4E00D007D28179
:050B5200EE2EFE80C143
:020B57007E011D
:060B5900BE0003020BD8F0
:060B5F00EE5F601E7D0048
:030B6500BD0200CE
:070B68005005C2820D80F66A
:0E0B6F00D282900104C007C0061209F3D0061E
:040B7D00D00780120B
:0E0B8100C282900118C007C0061209F3D00608
:040B8F00D007D28237
:050B9300EE2EFE80C102
:020B98007E01DC
:050B9A00BE00028039DD
:060B9F00EE5F601E7D0008
:030BA500BD02008E
:070BA8005005C2830D80F629
:0E0BAF00D283900104C007C0061209F3D006DD
:040BBD00D0078012CB
:0E0BC100C283900118C007C0061209F3D006C7
:040BCF00D007D283F6
:050BD300EE2EFE80C2C1
:060BD80030010BE52C25A5
:070BDE002C901CA193FF42C3
:010BE5002DE2
:010BE60022EC
:060BE700AF827E007D00DC
:080BED00C3ED9F4003020DAAB5
:0A0BF5007C00C201E52C24FC500333
:030BFF00020D6B79
:050C0200E52C252C2566
:050C07002C900C0C73A1
:070C0C00020C18020C6D023E
:050C13000CC2020D17E8
:020C18007B015E
:060C1A00BB0003020D6B9C
:020C20007A0058
:030C2200BA020013
:070C25005005C2800A80F6B1
:0E0C2C00D280900001C007C006C005C004C001
:0E0C3A00031209F3D003D004D005D006D00772
:060C4800308003EB4204C2
:0E0C4E0090008CC007C006C005C004C0031291
:0E0C5C0009F3D003D004D005D006D007EB2B4F
:030C6A00FB80AD5F
:020C6D007B0109
:060C6F00BB0003020D6B47
:020C75007A0003
:030C7700BA0200BE
:070C7A005005C2810A80F65B
:0E0C8100D281900001C007C006C005C004C0AB
:0E0C8F00031209F3D003D004D005D006D0071D
:060C9D00308103EB42046C
:0E0CA30090008CC007C006C005C004C003123C
:0E0CB10009F3D003D004D005D006D007EB2BFA
:030CBF00FB80AD0A
:020CC2007B01B4
:060CC400BB0003020D6BF2
:020CCA007A00AE
:030CCC00BA020069
:070CCF005005C2820A80F605
:0E0CD600D282900001C007C006C005C004C055
:0E0CE400031209F3D003D004D005D006D007C8
:060CF200308203EB420416
:0E0CF80090008CC007C006C005C004C00312E7
:0E0D060009F3D003D004D005D006D007EB2BA4
:030D1400FB80ADB4
:020D17007B015E
:050D1900BB0002804D4B
:020D1E007A0059
:030D2000BA020014
:070D23005005C2830A80F6AF
:0E0D2A00D283900001C007C006C005C004C0FF
:0E0D3800031209F3D003D004D005D006D00773
:060D4600308303EB4204C0
:0E0D4C0090008CC007C006C005C004C0031292
:0E0D5A0009F3D003D004D005D006D007EB2B50
:030D6800FB80AE5F
:060D6B0030010EE52C250D
:060D71002C901CA193422E
:050D77002D7582FF2232
:050D7C00EC62067B00A3
:030D8100BB0800AC
:0E0D84005015EE30E00AEEC313FA748C6AFECE
:020D92008004DB
:040D9400EEC313FE99
:030D98000B80E6E7
:030D9B00BD09008F
:080D9E005006ED2423F8A60421
:040DA6000D020BED42
:090DAA00EE600CE52C252C0490F0
:060DB3001CA193FF422D7C
:030DB9008E822205
:090DBC00C210E52C24FC500302D6
:020DC5000E6CB2
:050DC700E52C252C25A0
:050DCC002C900DD17315
:070DD100020DDD020E02021B
:050DD8000E26020E4A88
:020DDD007F0095
:030DDF00BF020050
:070DE2005005C2800F80F6EE
:0C0DE900D2809000011209F3A280921049
:090DF50090008CC0221209F3D019
:040DFE0022020E6C53
:020E02007F006F
:030E0400BF02002A
:070E07005005C2810F80F6C7
:0C0E0E00D2819000011209F3A281921021
:090E1A0090008CC0221209F3D0F3
:030E2300228046E4
:020E26007F004B
:030E2800BF020006
:070E2B005005C2820F80F6A2
:0C0E3200D2829000011209F3A2829210FB
:090E3E0090008CC0221209F3D0CF
:030E4700228022E4
:020E4A007F0027
:030E4C00BF0200E2
:070E4F005005C2830F80F67D
:0C0E5600D2839000011209F3A2839210D5
:090E620090008CC0221209F3D0AB
:010E6B002264
:030E6C00A21022AF
:0E0E6F00120A10500E7582CC120AB47582441D
:050E7D00120AB4D322AB
:020E8200C32289
:0A0E8400C01D85811D05810581AFA9
:030E8E00827E0061
:030E9100BE02009E
:050E94004003020F9A6B
:0E0E9900C007C006120A10D006D007400302A0
:020EA7000F96A4
:0C0EA900C2017582CCC007C006120AB45A
:0C0EB5007582BE120AB4D006D0073001CE
:040EC10003020F9683
:0E0EC500758209C007120BE7E582D00770079F
:070ED3007410B52A0280062D
:060EDA0090E890020F9D5C
:090EE000AD23AC24E4BF100104B1
:0E0EE900FB601B5304F8EDC40354072CFCED12
:0C0EF700C40354F8FD5305F07410C395BB
:040F030029FA2DFD9D
:0E0F0700C00374805CFF8C038B047B008D02A2
:0C0F15007D00EA2BFBED3CFCA81D08A6AB
:0C0F21000308A604D003EF600BA81D0815
:080F2D00C3E496F608E496F611
:0C0F3500C007C003A81D08E6C0E008E6E5
:0E0F4100C0E0900006121C77AC82AD831581D3
:0C0F4F001581D003D0078D06A81D0808EE
:0E0F5B00E618C313C613C6C313C613C608F6A2
:0C0F69008C028E05A81D08E62AFA08E696
:0E0F75003DFD8A048D06EB6008EC24E7FCEEDF
:030F830034FFFE3A
:0A0F8600EF6007C3E49CFCE49EFE4C
:060F90008C828E838007B5
:040F96000E020E91A8
:030F9A0090E82CB0
:060F9D00851D81D01D221C
:0D0FA300E582901CA193F4528090F6180294
:020FB00009F343
:0A0FB200C01D85811DC082E5812469
:0A0FBC0006F581D210A81D0808A652
:0A0FC60023A81D080886047D00AA78
:0A0FD000247B00E51D2404F8EA2C40
:0B0FDA00F6EB3D08F6E51D2403F8A629
:0A0FE50025E51D2403F886067F00B1
:0C0FEF00E51D2404F8EE26FEEF0836FF96
:0A0FFB00E51D2404F8A62608760080
:0C100500E51D2404F8E62EFE08E63FE599
:0A1011001D2406F8A606087600AEBE
:0A101B00277F00E51D2406F8E6B566
:09102500060708E6B50702800386
:03102E000210E5C8
:08103100A81D08B6000280436F
:08103900A81D08B601028003A6
:031041000210E3B7
:0A104400A81D0808E675F064A4F585
:05104E003085F031E5E2
:0C1053001D2403F8747F5675F064A4F5AA
:05105F002E85F02FE5D5
:0B1064001D2403F8E620E7030210E55E
:08106F00C3E4952EF52EE49573
:051077002FF52F806938
:0C107C008C057C00EA2CFAEB3DFBC02246
:0C108800C002C00390000A121C77858291
:091094003085833115811581D0EE
:0A109D0022E51D2403F8747F56FEBF
:0C10A7007F00E51D2404F8E62FFF08E69A
:0C10B3003EFEC022C007C00690000A12DA
:0710BF001C7785822E85835A
:0810C6002F15811581D022E5F0
:0B10CE001D2403F8E630E70FC3E49593
:0510D9002EF52EE49548
:0510DE002FF52F800238
:0210E300C21039
:0610E500A210851D81D060
:0210EB001D22C4
:0E10ED00E582FF901CA193F452809011F8C090
:0E10FB00071209F3D007EF901CA193FF42806B
:021109007E0066
:0E110B00EF5580600A0EEE249B50F5758201B0
:0111190022B3
:02111A007E0055
:0E111C00EF5580700A0EEE249B50F57582028E
:01112A0022A2
:02112B007E0044
:03112D00BE2800D9
:0511300040030211AFB5
:021135007D003B
:0E113700EF5580600A0DED249B50F575820384
:011145002287
:021146007D002A
:0E114800EF5580700A0DED249B50F575820462
:011156002276
:021157007D1009
:0E1159008D041C8C05ED70F8EF55806023EEC0
:0C116700C423541F2423F9870574075E7D
:0C117300D39407F4F5F005F0740180023D
:02117F0025E069
:08118100D5F0FBFC4DF78022C4
:0C118900EEC423541F2423F987057407CB
:0D1195005ED39407F4F5F005F074018002BC
:0211A20025E046
:0711A400D5F0FBF4FC5DF740
:0411AB000E02112DF2
:0411AF007E007D0041
:0311B300BD02007A
:0611B600502F7C007B00BD
:0E11BC00EF558060120BEBFC249B50F4EE60AC
:0511CA00047582002203
:0411CF0075820522FE
:0E11D300EF5580700A0CEC249B50F5758206D7
:0111E10022EB
:0511E2000D8D0680CC1C
:0411E70075820722E4
:081CA10001020408102040803C
:0E11EB00C0E0C0D0C2AAC28E740F5589242065
:0E11F900F589758B35758D80C28FD28ED2AB85
:06120700755C02C202D278
:05120D0000755B007597
:091212005A00D201D0D0D0E03224
:0C121B00C022C0E0C0F0C082C083C00749
:0E122700C006C005C004C003C002C001C00064
:0A123500C0D075D000C01DE581F5A2
:0A123F001D2404F581E55CFF24F195
:0512490050030217C66E
:07124E00EF2F2F90125573E2
:071255000212820217C6021B
:06125C00155902161902EB
:0612620016220216B30281
:0612680017C60217C602C2
:06126E0017C60217C602BC
:0612740016D502173D0231
:06127A0017C60217610215
:0212800017AFA6
:0E128200C28E740F55892420F589758B8075F6
:0A1290008D80C28FD28EE55EB55F3F
:04129A0003021552E4
:08129E00E55F2450F98707C247
:0C12A600107DFE7E00EFA2E5E433FC2486
:0612B200FF9211BF800055
:0512B80040030213F8E1
:0C12BD00C005C006EF2323540124FF925B
:0B12C9001253071F8F82C007C005C032
:0C12D4002212009AAA82AB83ACF0FED07C
:0A12E00022D005D007A81D08A602C1
:0E12EA0008A60308A60408A606901D11E493AA
:0E12F800FE0EEF2FFD2EFC04901D0093FEB5A0
:041306000702800654
:06130A00D006D005800FA3
:0E131000D006D0058C8275831DE493FCFD7E13
:01131E0000CE
:09131F00BDFE06BE00030215012B
:0E132800901D12E4932F2F2FFC0C0C0C8C82C6
:0E13360075831DE493540325E025E0FB74B09D
:0A1344004BF539901D17E493FB8B65
:0A134E003A901D18E493FB8B3BED71
:0C1358002DFD2417901D0093FE8E3C74A8
:0A136400182D901D0093FE8E3D75BC
:06136E003F00301205757E
:041374004040800372
:031378007540803D
:0E137B00EC04901D0093FE24F95006EE24FBB6
:03138900FE8002E1
:02138C007E01E0
:0C138E0074E02EF53EEE24FE500F7406B5
:0A139A002E2439F9A81D088605A7C6
:0313A400058010B1
:0C13A700A81D08743F56FAE4FBFCFDEAA8
:0413B3002540F5409C
:0C13B700EE24FD500E74052E2439F9A818
:0713C3001D08088605A705BF
:0C13CA00EE24FC500F74042E2439F9A806
:0813D6001D0808088605A705A3
:0C13DE00EE24FB501074032E2439F9A8F3
:0913EA001D080808088606A70684
:0513F300D210021501FB
:0A13F8007539B0901D17E493FE8EC6
:0A1402003A901D18E493FE8E3B851E
:03140C00323C85EA
:0A140F00333D53071FEF24F850038C
:031419000214FFBB
:07141C00EF2F2F9014237342
:071423000214FF02143B025A
:06142A00144702145E02EB
:0614300014700214D0024A
:0514360014DA0214F6B7
:08143B00753E6074C22538F50E
:041443003F0214FF51
:08144700753E6374432534F582
:05144F003F75404075EF
:061454004100754212D2B6
:04145A000D0214FF6C
:07145E00753C00753D0075AF
:061465003EE1753F017538
:05146B0040400214FFE7
:021470007F00FB
:0A147200C3EF9535503CE5367026B7
:0A147C00740A2F2439F87600AD370A
:0E1486007E008F037C00EB2DFDEC3EFEBD6072
:0B1494001CBE0019740A2F2439F8A6B2
:03149F0060800F5B
:0A14A200740A2F2439F9EF25379062
:0514AC001D0093FEF796
:0314B1000F80BEEB
:0914B40074632535F53E744245D0
:0614BD0034F53F744045C8
:0414C30035F5408536
:0314C70036418526
:0314CA003742D2D4
:0314CD000D802F60
:0714D000753E60753F81C20B
:0314D7000C802561
:0814DA00753E6474414534F5D0
:0614E2003F74404536F5A1
:0314E80040853705
:0514EB0041754205758A
:0614F00043A0D20D8009AB
:0814F600753E6074C22534F557
:0114FE003FAE
:0214FF00D21009
:0815010030110674DF5539F5C5
:0115090039A8
:0A150A0030103DC2AAE55C7032E526
:0A1514005F2450F9E7FF20E507749B
:06151E00204FF7755D008F
:0B15240074FC255D40051218188016AD
:06152F00055F535F07C2D7
:0415350009C20D12C8
:0C15390017EAC28E758DF0758B00D28E03
:05154500D2AA0217C646
:06154A00055F535F07027C
:0215500017C6BC
:07155200C28ED2AA0217C6E7
:0A155900A28BB39210C28B755C03E5
:0A156300758D00E55B700A755B01F1
:05156D00C203C20402EC
:0215720017C69A
:0A157400747F255B401C301008B2A4
:04157E0002E55B2502
:031582005AF55ABD
:05158500E55B255BF5AC
:06158A005B60030217C6BE
:06159000755B810217C625
:0A159600C28EC28FA202201001B322
:0A15A000502CE558700E74CCB55ABB
:0315AA0002D20367
:0715AD00740CB55A02D204D0
:0715B400200319200416E5D5
:0815BB005824E94010E5582412
:0615C30039F8E55AF6625A
:0515C9005905588002E5
:0215CE00C20059
:0515D000100902801D5E
:0715D5003003143000117512
:0715DC005D04100D028009FF
:0715E300E5342404F5345344
:0215EA00343C8F
:0615EC001217EA0217C607
:0715F20030001E20031B2046
:0C15F9000418740F55892410F589758DB5
:0C160500FA758B70D28E755C04D2AA02BC
:0216110017C6FA
:061613001217EA0217C6DF
:09161900758D80755C020217C694
:0A16220074D35539FFBF9002800316
:03162C000216ADF6
:0C162F00E55824F85078C28E740F5589DD
:0D163B002410F589758DEF758B42D28EC29B
:0716480005E53E30E71F85B8
:05164F003C82C03D12C9
:0B1654001862AF821581BFFF02800208
:02165F00D205B2
:09166100E53C701CE53D7018D257
:03166A00058014E4
:0C166D00901D17E493FFB53C0B901D1876
:08167900E493FFB53D02D20528
:0A16810074FFB55921740F553EFFA8
:0C168B007E0074082FFFE43EFEAC587D8A
:0C16970000EFB5040BEEB50507D20E30D5
:0416A3000502D20664
:0616A700755C050217C688
:0616AD001217EA0217C645
:0916B300C28E300E1330050AD27C
:0516BC000A121818C21B
:0416C100090217C63D
:0616C5001217EA0217C62D
:0616CB00D20B121818C238
:0416D100090217C62D
:0816D500E5582439F9870730BC
:0416DD000A027FCCB2
:0516E100300B027F0C3C
:0916E600C2AA740AB55C0280037B
:0316EF000217C619
:0A16F200E55B247F402CE55B5F7090
:0916FC0008D296C208B202800275
:02170500D20808
:08170700E55B7007755B01C290
:03170F000280064F
:05171200E55B255BF51D
:011717005B76
:07171800E55B7003755B81C6
:05171F00755C0B801356
:09172400200206D296C2088002E0
:02172D00D208E0
:06172F000558755B007512
:021735005C0D49
:06173700758D120217C6B9
:0A173D00E55870077401B55B020562
:011747005D44
:0A174800C296A208828B5007C20966
:051752001217EA8006F9
:06175700755C0A758D6E41
:04175D00C28B806556
:0E176100C296C28E740F55892410F589758DBD
:0A176F00FB758B90D28E200A033028
:021779000B055E
:05177B001217EA802BAB
:0C178000740F553EFF7E0074072FFFE43D
:0C178C003EFEAC587D00C3EF9CEE648074
:0C1798008DF063F08095F05007D207122E
:0417A40017EA8003BD
:0317A800755C0E5F
:0417AB00C28B801756
:0E17AF00C28E740F55892420F589758D6E75D4
:0917BD008B80C28FD28E755C0A8C
:0617C600D201851D81D057
:0C17CC001DD0D0D000D001D002D003D03E
:0E17D80004D005D006D007D083D082D0F0D048
:0417E600E0D02232FB
:0A17EA00755C00C28BC28EC2AB75A5
:0A17F4005900755800C28E740F559D
:0C17FE00892410F589758D89758BAFC2A8
:0A180A000AC20BC28FD28ED2AAD2FE
:04181400ABC20E2233
:0E181800C28E740F55892420F589758D6E756A
:0C1826008B80C28F740F553E2407FF75A5
:0418320059FF7E00DC
:0C183600C3EE9F500BEE2439F9E7FD6271
:04184200590E80F0CB
:07184600EF2439F8A659C296
:04184D0003C204D2FC
:0518510009755C0A7539
:0A1856005B00755800C2AAD28ED2C2
:02186000AB22B9
:0A186200C01D85811DAF827EFF903E
:08186C001D16E493FDBDFF0011
:0E1874005035901D16E493602E901D16E493DF
:02188200FD1D4A
:0E188400ED6024ED2DFC2417901D0093FBEF6A
:0C189200B5031374182C901D0093FCE5A6
:0A189E001D24FDF8E6B504028D06D6
:0318A8001D80D9C7
:0518AB008E82D01D2219
:0718B000AF82C210BF40002F
:0C18B700501B8F82C007C022121C09E5E4
:0C18C30082D022D0075444FEBE440280B4
:0118CF000414
:0418D000D210802A88
:0918D400AD5E7E000DBD00010EA9
:0C18DD005305077E00AB5F7C00EBB505F7
:0718E90006ECB50602800EBB
:0818F000E55E2450F8A607058F
:0518F8005E535E07D203
:0118FD0010DA
:0518FE00D28EA21022B1
:0A190300C01DE581F51D2404F581E7
:09190D00C206AF3F74C35FFEADDA
:0719160040A81D08A605E52D
:09191D003CFB7049E53D7045E515
:071926006020E003021C0336
:09192D00EE7020A81D08B6C01AD6
:0C193600E55C70FCC2AF75E40075E71DB5
:0A19420075E6178541E58542E5755D
:04194C00E468D2AFCA
:05195000BE010280034E
:03195500021C036E
:09195800A81D08E66003021C034F
:091961007582831218B0021C0308
:08196A00E53E30E703021B4ECD
:0C197200901D17E493FAEBB5020280030D
:03197E00021C0345
:0B198100901D18E493FAB53D028003AE
:03198C00021C0337
:08198F00756100BE41028020D9
:05199700BE4202802F9A
:06199C00BE4303021AE243
:0619A200BE8003021B08D9
:0619A800BE8103021B2AB0
:0619AE00BE8303021B438F
:0319B400021C030F
:0419B7008D368541A3
:0B19BB00377582871218B07582861203
:0519C60018B0021C0333
:0619CB00200C03021C03C6
:0A19D100743C5FF538A81D08E654C9
:0A19DB00F0F6A81D08B68002800394
:0319E500021AC122
:0B19E8007582811218B0740F5540FF8B
:0A19F300E55C70FCC2AF75E400AAC9
:0A19FD004174015A241CFBAE42A8FD
:051A07001D0808760037
:0C1A0C00A81D0808C3E69F4003021ABC96
:0C1A1800EA703CC002E51D2403F8A6069D
:0C1A2400087600A81D080886047D00E577
:0C1A30001D2403F8EC26FCED0836FDBC7C
:071A3C006005BD00028004FB
:041A4300D002802627
:0A1A4700D002A81D0808740A262426
:061A510039F987608016E0
:0B1A57008BE7A81D0808E62EF5E6A8A6
:0A1A62001D0808740A262439F987CC
:011A6C00E594
:0A1A6D008E047D00A81D0808E51D89
:0C1A77002403F9E6F7097700E51D2403BD
:0E1A8300F8E62CFC08E63D53043F7D00BC3F16
:0D1A910022BD001F8F047D001CBCFF011D45
:0C1A9E00E51D2403F8E6B5040708E6B5D2
:041AAA0005028006AB
:061AAE0075E46875E40018
:081AB400A81D080806021A0C27
:051ABC0075E468D2AFE3
:091AC100A81D08E66003021C03E5
:041ACA008540358599
:031ACE0041368519
:061AD1004237758281120C
:091AD70018B07582841218B002E7
:021AE0001C03E5
:0A1AE200743C5FF538A81D08B680BB
:041AEC000343A20806
:091AF000A81D08E66003021C03B6
:0D1AF9007582811218B07582821218B00239
:021B06001C03BE
:061B0800300C03021C0377
:041B0E00D20C853A36
:031B120032853BDE
:051B150033753400C22D
:0C1B1A000D75D16075D20B75D3B375D179
:041B260061021C0339
:071B2A00E53AB53202800329
:031B3100021C0390
:071B3400E53BB5330280031D
:031B3B00021C0386
:051B3E00C20C021C03B3
:091B43007582851218B0C20C0273
:021B4C001C0378
:061B4E00EE6003021C031F
:0C1B5400C03D8B82121862AF821581BF69
:051B6000FF03021C035D
:0E1B6500901D11E493FEF58275831DE4932517
:0C1B7300E02EFD0EA81D0874C056FCE416
:041B7F00BC80010421
:011B8300FC65
:081B8400C3EE9D4003021C03A7
:0E1B8C008E8275831DE493FBEFB50366EE04B5
:0E1B9A00901D0093FBF582C007C006C005C079
:0E1BA80004C003121C09AA82D003D004D00589
:0E1BB600D006D007EC602EC00474145AFCBC9C
:041BC4001402800483
:041BC800D004801FA6
:0E1BCC00D0048B82C007C006C005C004C00351
:0E1BDA00C00212007FD002D003D004D005D08C
:031BE80006D0071D
:0C1BEB00A81D08E6700D53020CBA0C0C8B
:071BF7008B821200908005B3
:051BFE000E0E021B8425
:061C0300851D81D01D22A9
:0E1C0900AF82901D12E493FE0E0E0EEF2E2FF2
:081C17002F901D0093F58222BD
:0E1C1F0075950075911475924CC296758921C9
:0E1C2D00758F00C28CC28E758D80758B80C243
:0C1C3B008FC20175A88075E80075B80420
:0A1C470075B70CD28A75602EC20337
:051C5100C204C20AC23A
:041C56000BC2067542
:061C5A005E00755F0075DD
:051C60003400C20DC2BA
:051C65000C1217EA2239
:06005200E478FFF6D8FD82
:080030007900E94400601B7A2D
:0500380000901CA978F6
:03003D000075A0AB
:0A00400000E493F2A308B8000205E3
:08004A00A0D9F4DAF275A0FF61
:0C1C6A00E58330E7076382FF6383FFA37C
:011C7600224B
:0E1C770074FE2581F8E68582F0A4C0E0858227
:0E1C8500F018E6A4F582D0E025F0C58386F0C5
:061C9300A42583F5832265
:080058007800E84400600A7919
:030060000075A088
:0600630000E4F309D8FCE3
:080069007800E84400600C7906
:0B00710000900000E4F0A3D8FCD9FAD6
:0300230075816183
:0A002600121C99E582600302001E1F
:041C9900758200222E
:00000001FF
