:0400000002002332A5
:01000B0032C2
:03001300020EE2F8
:03001B00020F12BF
:03007C0002001E61
:05001E0012007F80FECE
:0A007F007F007E00C218C219E5A739
:0C00890003540124FF921AC007C006C0F7
:05009500231218D3D076
:0B009A0023D006D007D2972097032048
:0200A5001A053A
:0500A700901BFFE49333
:0E00AC00C297901BFFE493AC962CFD8D9653EB
:0900BA00963FD28C201A217D0032
:0300C300BD32004B
:0E00C600501AC28C901D17E493F58C901D18F3
:0800D400E493F58AC28DD28C81
:0600DC00308DFD0D80E1F6
:0E00E20075C1FFC2AF75A7E575C2A575C35AFB
:0E00F000D2AFC2AF43A70475C2A575C35AD2E2
:0B00FE00AFC007C006C023120E64D084
:0A01090023D006D007201A0FC0070C
:08011300C006C023120CEAD063
:05011B0023D006D0070F
:0E01200053BDFE75985043BAE043BD0275BF53
:09012E002F75BEF043BD017D00F8
:0E013700C2AF75C2A575C35AD2AF901D0DE4BC
:0701450093FCBCFF028003E4
:03014C0002024F5D
:06014F0030100302024F14
:08015500E56E30E00302024FE9
:0E015D00748025D1501E75D1610D74035DFCB8
:0C016B00BC0313C007C006C005C023126F
:0A0177000A06D023D005D006D007F9
:0E018100308D0C740F5589FCBC0104C28DD268
:01018F0092DD
:0C019000309018301917C007C006C005D9
:06019C00C023120DB2D0D9
:0901A20023D005D006D00780022D
:0201AB00D21967
:0A01AD00300113C007C006C005C0F2
:0501B70023120B3DD0F6
:0701BC0023D005D006D00797
:0C01C300E53F605FC0058EF005F07B0199
:0401CF007C0080062A
:0601D300EB2BFBEC33FCFA
:0C01D900D5F0F7AA3F7D00EA5203ED527A
:0E01E50004D005EB4C6034740C2EF582C0077C
:0A01F300C006C005C023121574D029
:0C01FD0023D005D006D00750228EF0055C
:05020900F07401800209
:02020E0025E0E9
:0C021000D5F0FBFC74FFC39C523F0E5362
:04021C000607800849
:060220000E5306078002E8
:020226007E0058
:0B022800E56A70237440258D401D2006
:090233000C1A901D99E493FCB52E
:04023C003B02800FF2
:0C02400075E40075E71D75E699853BE547
:03024C0075E468EE
:06024F002008033009192C
:0A025500C208C209C007C006C005B8
:06025F00C0231215C7D0F8
:0902650023D005D006D007800A61
:02026E007C64AE
:080270008C031B8B04EC70F8F9
:08027800D297209712BFFF008E
:0502800050030F801285
:06028500201803636E81E6
:04028B00D2188008FD
:06028F00EF60031F800276
:02029500C2188D
:08029700E56E5401FCB4010006
:0B029F00E433FC24FF92970201372299
:0A02AA00C008858108058105810563
:0E02B40081E582FF24F8FE8EF005F0740180D3
:0102C2000239
:0202C30025E034
:0702C500D5F0FBFEBF0800AD
:0A02CC00501AE54E540124FF921869
:0C02D60092F0C007C00685F0238F821252
:0602E200068FD006D007D4
:0802E800EF24F84003020512A7
:0302F000BF0C0040
:0502F3004003020512AA
:0C02F8007401554EFD7C00C007C006C01C
:0E03040005C0048F821205D415811581D00624
:0D031200D0077D007C007B008F027F00A8DB
:0C031F00080808EA24F8F6EF34FF08F69E
:0C032B00A8080808B6000608B60002800A
:010337002B9A
:0C033800A8080808B6010608B6000280FC
:010344004771
:0C034500A8080808B6020608B6000280EE
:010351006645
:0C035200A8080808B6030708B60003025C
:02035E0003E0BA
:0303600002040A8A
:0D036300C006901DD8E493FE740F5EFD905F
:0E0370001DEFE493FE74035EFC901DEFE4931A
:0E037E000303543FFE74035EFBD00602040A24
:0E038C00C006901DD8E49354F0C4540FFD90A9
:0D039A001DEFE493C4540FFE74035EFC904D
:0E03A7001DEFE49323235403FE74035EFBD08A
:0303B5000680526D
:0D03B800C006901DD9E493FE740F5EFD9009
:0E03C5001DF0E493FE74035EFC901DF0E493C3
:0D03D3000303543FFE74035EFBD006802A36
:0E03E000C006901DD9E49354F0C4540FFD9054
:0D03EE001DF0E493C4540FFE74035EFC90F8
:0E03FB001DF0E49323235403FE74035EFBD035
:0104090006EC
:0E040A00C006901DEDE493FEEA24F8FAEF34EC
:0E041800FFCA25E0CA33FF8AF005F0EE80022D
:02042600C313FE
:0E042800D5F0FBFE74035EFAED14FF8FF005B5
:08043600F0A80808740180021F
:02043E0025E0B7
:0B044000D5F0FBF6BA0004D006800ADD
:07044B00D006BA010280484F
:030452000205128E
:07045500AF4EBF80028005DD
:05045C00BF8113800BBD
:0A046100A8080874FFC396523E80FD
:01046B00068A
:06046C00A80808E6423E6C
:0E047200ED14FFF582C00712052CAE82AD839B
:0C048000ACF0FBD007EE4D4C4B24FF927B
:09048C001892F085F0238F821212
:05049500068F020512B4
:0C049A00901DF1E49352068E07AE4EE474
:0404A600BE8001040F
:0604AA00FA6003EF60069A
:0604B000BE8129EF602669
:0904B600A80808E6553D601EA8E7
:0A04BF00080874FFC396523DBB010C
:0A04C90009A8080874FFC396523B0F
:0904D300BB0206A80808E6423B42
:0604DC00BE8103EF600683
:0604E200EA602DEF602A24
:0904E800A80808E6553D7022A8A1
:0904F1000808E6423DBC0109A81F
:0804FA00080874FFC396523B91
:09050200BC0206A80808E6423B11
:07050B00ED14242CF876002A
:07051200E53CB53B0280024D
:02051900D2010D
:06051B00850881D00822D2
:0B052100AF8274402FF5821215742287
:07052C00AF827E00BF080052
:0E053300E433FD6027C0068FF005F07B017CED
:0305410000800631
:06054400EB2BFBEC33FC85
:0C054A00D5F0F7AA387E00EA5203EE520A
:0905560004D006EB4C60027E01AA
:06055F00ED7033BF0C003B
:0E056500502E8F047D00EC24F8FCED34FF8C4A
:09057300F005F07C017D0080061A
:06057C00EC2CFCED33FD48
:0C058200D5F0F7AA3A7B00EA5204EB52D5
:07058E0005EC4D60027E0147
:03059500BF0C0098
:0E059800402C7D00EF24F4FFED34FF8FF005C2
:0705A600F07F017D008006DB
:0605AD00EF2FFFED33FD0E
:0C05B300D5F0F7AB397C00EB5207EC529E
:0705BF0005EF4D60027E0113
:0E05C6007F007D007C008E828F838DF0EC2202
:0A05D400C008858108AF82BF08004F
:0C05DE00E433FE6030E50824FCF8E60879
:0B05EA004670168FF005F074018002CF
:0205F50025E0FF
:0C05F700D5F0FBFD74FFC39D523880104E
:080603008FF005F07401800284
:02060B0025E0E8
:06060D00D5F0FBFD4238B0
:06061300EE703BBF0C007D
:0C0619005036E50824FCF8E6084670198D
:0B062500EF24F8F5F005F074018002EE
:0206300025E0C3
:0C063200D5F0FBFE740FC39E523A8013FB
:0B063E00EF24F8F5F005F074018002D5
:0206490025E0AA
:06064B00D5F0FBFE423A6F
:03065100BF0C00DB
:0C0654004036E50824FCF8E60846701962
:0B066000EF24F4F5F005F074018002B7
:02066B0025E088
:0C066D00D5F0FBFE74FFC39E52398013D1
:0B067900EF24F4F5F005F0740180029E
:0206840025E06F
:06068600D5F0FBFF423934
:03068C00D0082271
:0A068F00C00885810805810581AFD0
:0E06990082901DEBE493FE8FF005F0EE8002E0
:0206A700C3137B
:0B06A900D5F0FB5401FE24FF92192045
:0506B4001803301906D7
:0606B900201803020A00F4
:0A06BF00A218E433FD7E00C007C05E
:0C06C90023C005C0068F821205D41581E5
:0A06D5001581D023D007A8080808FB
:0C06DF007600A808087600901DD8E4936F
:0E06EB00FC53040F8F027B00C00774012AFE2F
:0E06F900E43BFF7D00ECB50606EDB507028080
:0107070004ED
:04070800D00780088E
:08070C00D007A80808087601D7
:0E071400C007901DD8E49354F0C4540FFE7437
:0E072200012AFCE43BFD7F00EEB50406EFB5B6
:04073000050280043A
:04073400D007800862
:08073800D007A80808087602AA
:0E074000C007901DD9E493FE53060F74012AE2
:0E074E00FCE43BFD7F00EEB50406EFB50502AE
:02075C00800417
:04075E00D007800838
:08076200D007A808080876037F
:0E076A00C007901DD9E49354F0C4540FFE74E0
:0E077800012AFCE43BFD7F00EEB50406EFB560
:0407860005028004E4
:04078A00D00780080C
:08078E00D007A8080808760452
:0C079600A8080808E6605FC002C00390DD
:0C07A2001DEDE493FEA808080886047D05
:0E07AE0000EC24FFFAED34FFCA25E0CA33FB4D
:0707BC008AF005F0EE800257
:0207C300C3135E
:0D07C500D5F0FB54036006D003D002802A5B
:0E07D200D003D002901DEEE493FE1CBCFF018C
:0107E0001DFB
:0E07E100EDCC25E0CC33FD8CF005F0EE80026F
:0207EF00C31332
:0B07F100D5F0FBFEA8080874035EF6BC
:0E07FC00C002C0038FF005F07D017E00800674
:06080A00ED2DFDEE33FEB2
:0C081000D5F0F7AB3D7C00EB5205EC523C
:0C081C0006D003D002ED4E6003020A007B
:0B0828008F82C007C003C002C0231273
:0C08330018BDE582D023D002D003D0070E
:08083F005414FEBE14028003F4
:03084700020A00A2
:05084A000ABA00010BD9
:0E084F00EBA2E713CA13CAFB74F92A901D002E
:0E085D0093FE74015FFDBD010553060F800878
:08086B0074F05EFDC4540FFEA1
:0A0873007D007C00201824A808086E
:0C087D00E66043A80808B601108FF005E3
:05088900F0E53E8002D5
:02088E00C31392
:06089000D5F0FB30E02D65
:06089600A80808B60200EC
:02089C005025E5
:0A089E00A218E433FBBB0102800343
:0308A80002092220
:0608AB00A80808B60200D7
:0A08B100406F8FF005F0E53E800275
:0208BB00C31365
:0608BD00D5F0FB20E05F16
:0E08C30074E22F901D0093FBFD6018901DEA5B
:0A08D100E493FB8FF005F0EB8002CA
:0208DB00C31345
:0908DD00D5F0FB5401FBBB013A0C
:0D08E600901DF2E493FB8FF005F0EB800213
:0208F300C3132D
:0E08F500D5F0FB20E0138FF005F074018002B7
:0209030025E0ED
:09090500D5F0FBF4FB523B801419
:08090E008FF005F07401800276
:0209160025E0DA
:08091800D5F0FBFB423B80021D
:020920007C0158
:0A092200A218E433FBBB012BA80868
:0C092C0008E66049A80808B601028041F6
:06093800A80808B6020049
:0A093E0040158FF005F0E53E800241
:02094800C313D7
:0B094A00D5F0FB5401FBBB0102802430
:060955003018030209E363
:08095B00A80808B601028003A0
:030963000209E3A3
:080966008FF005F0E53E800270
:02096E00C313B1
:09097000D5F0FB5401FBBB016A48
:0E09790074DA2F901D0093FBFD705D901DEA57
:0A098700E493FB8FF005F0EB800213
:02099100C3138E
:0E099300D5F0FB5401FBBB010B7C8074E22FFE
:0609A100901D0093FBFD18
:0D09A700901DF2E493FB8FF005F0EB800251
:0209B400C3136B
:0E09B600D5F0FB20E0128FF005F074018002F6
:0209C40025E02C
:0809C600D5F0FBFB423B80155C
:0809CE008FF005F074018002B6
:0209D60025E01A
:0909D800D5F0FBF4FB523B800258
:0209E1007C1187
:0C09E300EC6014EF242CF974804DF7EF49
:0B09EF002424F95304F0EC4EF78006BE
:0609FA00EF242CF876004A
:060A0000850881D00822E8
:070A06000534E4B5340205DC
:010A0D0035B3
:0A0A0E00E53424FFFEE53534FFFF58
:0B0A1800EEF4FEEFF4FFE5345206E5BB
:050A23003552077D00C3
:030A2800BD1000FE
:080A2B005032EE30E0247C00A3
:030A3300BC0800FC
:0C0A3600501DEC2424F9870353030FEB40
:0C0A4200B5050DEC242CF9E7FB247F50D7
:040A4E0003EB14F7AB
:030A52000C80DE37
:0A0A5500EFC313CE13CEFF0D80C9CE
:020A5F007F0016
:080A6100EF24F85003020B3CE6
:0B0A6900EF242CF98706BE80028003FA
:030A7400020B383A
:0A0A7700D2018FF005F07401800237
:020A810025E06E
:0C0A8300D5F0FBFEEF2424F9E7FD20E491
:040A8F0003020B1340
:0D0A9300901DF2E493FD8FF005F0ED800260
:020AA000C3137E
:0B0AA200D5F0FB20E005EE423B800594
:050AAD00EEF4FD523BD8
:0C0AB200EF242CF87600901DEAE493FD80
:070ABE008FF005F0ED80024E
:020AC500C31359
:0E0AC700D5F0FBFC74015CFDBD01668F037C65
:060AD500000BBB00010C48
:0E0ADB00ECA2E713CB13CB74F92B901D009304
:0D0AE900FC74015FFBBB010553040F800886
:080AF60074F05CFBC4540FFC1A
:0E0AFE0074E22F901D0093FB6030ED602D74AC
:070B0C00804BF6A7048025D1
:0D0B1300901DF2E493FD8FF005F0ED8002DF
:020B2000C313FD
:0C0B2200D5F0FB20E007EEF4FD523B8014
:010B2E0003C3
:030B2F00EE423B58
:060B3200EF242CF8760010
:040B38000F020A613D
:010B3C002296
:070B3D00853B82120B9312AD
:0E0B44000C23C292C28D758C6F758AFF74F0FF
:0E0B5200558904F589758F00D28C901DF3E44F
:070B600093653BF5397F00AE
:030B6700BF0800C4
:0A0B6A0050218FF005F074018002A5
:020B740025E07A
:0A0B7600D5F0FBFE553BFDEE553CAB
:070B8000FCEDB50402800347
:030B8700EE423FFC
:030B8A000F80DAFF
:040B8D00853B3CC2A6
:020B910001223F
:0C0B9300AF82E53C6FFEE4FCFDEE30E0BC
:0B0B9F000EEF30E0067C207D0080049B
:040BAA007C107D003E
:0D0BAE00EE30E10CEF30E105430508800357
:030BBB00430504EB
:0D0BBE00EE30E20CEF30E2054304808003CE
:030BCB00430440A0
:0D0BCE00EE30E30CEF30E305430502800339
:030BDB00430501CE
:0D0BDE00EE30E40CEF30E4054305808003A9
:030BEB004305407F
:0D0BEE00EE30E50CEF30E505430402800316
:030BFB00430401AF
:0D0BFE00EE30E60CEF30E6054305208003E5
:030C0B004305108E
:0D0C0E00EE30E70CEF30E7054304088003EB
:030C1B004304048B
:050C1E008C828D832291
:0A0C2300C008858108C082C0830567
:0A0C2D0081A80808088605A8080839
:040C370086037C00B4
:0A0C3B008D028B07E5082403F8A6DC
:070C45003BC282C2837E0066
:0E0C4C00EE24F84038C00574805A2354012469
:0D0C5A00FF9280EA2AFAD283D283C283E59A
:0C0C6700082403F874805623540124FF75
:0C0C73009284E5082403F8E625E0F6D2A0
:0A0C7F0085D285C2850ED00580C322
:060C8900D286C2867E0047
:0E0C8F00EE24F8401774805F235401FA24FF0E
:0E0C9D009280EF2FFFD283D283C2830E80E4B9
:0A0CAB00D2827E007F00C2827A0030
:0B0CB500EA24F04019309303430601CD
:050CC000D283BA0F0011
:090CC5005007EFCE25E0CE33FF0D
:050CCE00C2830A80E270
:0C0CD300A80808E6B5060708E6B5070209
:020CDF00800390
:030CE100020C3BC7
:060CE400850881D0082202
:080CEA00901D99E493F53B9085
:070CF2001DF6E493FF7E00F4
:0E0CF900EE24FC4046EE75F002A4FCADF08C3B
:060D0700F005F0EF800290
:020D0D00C3130E
:0E0D0F00D5F0FBFC74035CFDBD01148EF005F5
:050D1D00F074018002EA
:020D220025E0CA
:0A0D2400D5F0FBFC74FFC39C523BAA
:0B0D2E00BD02108EF005F07401800281
:020D390025E0B3
:060D3B00D5F0FBFC423B79
:030D41000E80B56C
:080D4400901DF7E493FF7E000F
:0E0D4C00EE24FC404CEE75F002A4FBACF08BE4
:060D5A00F005F0EF80023D
:020D6000C313BB
:0E0D6200D5F0FBFB74035BFDBD011774042E7E
:080D7000F5F005F074018002AA
:020D780025E074
:0A0D7A00D5F0FBFC74FFC39C523B54
:0E0D8400BD021374042EF5F005F07401800218
:020D920025E05A
:060D9400D5F0FBFD423B1F
:030D9A000E80AF19
:070D9D00E53BF4FF8F3CD29F
:070DA40001901DF3E49365CB
:050DAB003BF539EF42A9
:020DB0003F22E0
:020DB2007F00C0
:080DB400EF24FC5003020E4481
:080DBC008FF005F074018002C4
:020DC40025E028
:0E0DC600D5F0FBFE901DF4E493FD8F037C003E
:050DD4000BBB00010C47
:070DD9008BF005F0ED800234
:020DE000C3133B
:0E0DE200D5F0FBFDEE5205901DF5E493FA8B63
:060DF000F005F0EA8002AC
:020DF600C31325
:0E0DF800D5F0FBFBEE5203EBC454F0FB4205BA
:0D0E0600901DF4E493FC8FF005F0EC8002E9
:020E1300C31307
:0E0E1500D5F0FBFCEE5204901DF5E493FB8F2C
:060E2300F005F0EB800277
:020E2900C313F1
:0E0E2B00D5F0FBFB5206EEC454F0FE4204EC80
:090E3900F4FC523BED423B0F02B8
:020E42000DB4ED
:030E4400120B3D51
:050E4700308DFD7F006D
:030E4C00BFFA00EA
:0E0E4F005012C2AF75C2A575C35AD2AFC28D84
:060E5D00308DFD0F80E95D
:010E6300226C
:0E0E64007580007584007585FFD292C2A9D2F8
:080E720088753A00E4F53DF536
:040E7A0034F535F521
:0A0E7E003EC200C2AF75E40075E744
:0E0E88001D75E60375E50075E71D75E604753A
:0E0E9600E50475E71D75E60575E52075E71D99
:0E0EA40075E60675E56075E71D75E60775E5F0
:0E0EB2000175E71D75E60C75E50075E71D7509
:0E0EC000E60D75E5FF75E71D75E61275E59AFE
:0E0ECE0075E468D2AFC28875D16075D2037525
:060EDC00D39A75D16122DA
:081926000102040810204080BA
:0E0EE200C0E0C0D0C2AAC28E740F5589242071
:0E0EF000F589758B35758D80C28FD28ED2AB91
:060EFE00756A02C204D275
:050F0400027569007593
:090F09006800D203D0D0D0E03220
:0C0F1200C023C0E0C0F0C082C083C00754
:0E0F1E00C006C005C004C003C002C001C00070
:0C0F2C00C0D075D000E56AFF24F150032E
:030F380002122F73
:070F3B00EF2F2F900F42730E
:070F4200020F6F02122F02E3
:060F49000FE202109C0201
:060F4F0010A502111A02B8
:060F5500122F02122F0210
:060F5B00122F02122F020A
:060F6100113E0211A60280
:060F6700122F0211CA0264
:020F6D00121858
:0E0F6F00C28E740F55892420F589758B80750C
:0A0F7D008D80C28FD28EE56CB56D39
:030F870002805194
:080F8A00E56D245EF987821277
:0B0F92001315503DC2AAE56A7032E55D
:0A0F9D006D245EF9E7FF20E50774FC
:060FA700204FF7756B00FE
:0B0FAD0074FC256B400512127A8016C0
:060FB800056D536D07C238
:040FBE000CC211123E
:0C0FC200124EC28E758DF0758B00D28E21
:050FCE00D2AA02122F5F
:060FD300056D536D0702DD
:020FD900122FD5
:070FDB00C28ED2AA02122F00
:0A0FE200A28BB39218C28B756A034C
:0A0FEC00758D00E569700A75690152
:050FF600C205C2060265
:020FFB00122FB3
:0A0FFD00747F2569401C301808B20B
:0410070004E569256E
:03100B0068F5681D
:05100E00E5692569F50C
:0610130069600302122FC8
:0610190075698102122F2F
:0A101F00C28EC28FA204201801B394
:0A1029005026E566700E74CCB56821
:0310330002D205E1
:07103600740CB56802D2063C
:07103D00200513200610E559
:05104400662447F8E5F9
:0510490068F662670576
:03104E00668002B7
:02105100C202D9
:05105300100C02801DDD
:071058003005143002117590
:07105F006B0410110280096F
:07106600E5422404F54253AA
:02106D00423C03
:06106F0012124E02122FC6
:0710750030021E20051B20C4
:0C107C000618740F55892410F589758D35
:0C108800FA758B70D28E756A04D2AA0231
:02109400122F19
:0610960012124E02122F9F
:09109C00758D80756A0202122FA5
:0A10A500300A64E56624FB505EC2C9
:0E10AF008E740F55892410F589758DEF758BA1
:0810BD0042D28EA20F9207E55A
:0810C5004C30E71F854A82C090
:0C10CD004B1212C4AF821581BFFF0280DD
:0110D9000214
:0210DA00D2073B
:0910DC00E54A701CE54B7018D2C6
:0310E5000780146D
:0C10E800901D17E493FFB54A0B901D18F3
:0810F400E493FFB54B02D207A3
:0910FC0074FFB56705300702D24C
:0111050008E1
:06110600756A0502122FBC
:08110C00E56624FE5002D20842
:0611140012124E02122F20
:0A111A00C28E74FFB5671330070A98
:06112400D20D12127AC286
:04112A000C02122F72
:06112E0012124E02122F06
:06113400D20E12127AC275
:04113A000C02122F62
:08113E00E5662447F98707303C
:041146000D027FCC4B
:05114A00300E027F0CD5
:09114F00C2AA740AB56A02800309
:0311580002122F51
:0A115B00E569247F402CE5695F7010
:0911650008D296C20BB20480020C
:02116E00D20BA2
:08117000E5697007756901C211
:03117800048006EA
:05117B00E5692569F59E
:011180006905
:07118100E569700375698147
:05118800756A0B8013E5
:09118D00200406D296C20B800278
:02119600D20B7A
:0611980005667569007593
:02119E006A0DD8
:0611A000758D1202122FF2
:0A11A600E56670077401B5690205E3
:0111B0006BD3
:0A11B100C296A20B828B5007C20CFD
:0511BB0012124E800637
:0611C000756A0A758D6ED0
:0411C600C28B8065F3
:0E11CA00C296C28E740F55892410F589758D5A
:0A11D800FB758B90D28E200D0330C2
:0211E2000E05F8
:0511E40012124E802BE9
:0C11E900740F554CFF7E0074072FFFE4CC
:0C11F5003EFEAC667D00C3EF9CEE648003
:0C1201008DF063F08095F05007D20912C8
:04120D00124E8003FA
:03121100756A0EED
:04121400C28B8017F2
:0E121800C28E740F55892420F589758D6E7570
:091226008B80C28FD28E756A0A1A
:0C122F00D203D0D0D000D001D002D003F8
:0E123B00D004D005D006D007D083D082D0F0EA
:05124900D0E0D02332CB
:0A124E00756A00C28BC28EC2AB7538
:0A1258006700756600C28E740F5522
:0C126200892410F589758D89758BAFC249
:0A126E000DC20EC28FD28ED2AAD29A
:02127800AB22A7
:0E127A00C28E740F55892420F589758D6E750E
:0C1288008B80C28F740F554C2407FF753B
:0412940067FF7E0072
:0C129800C3EE9F500BEE2447F9E7FD6207
:0412A400670E80F061
:0712A800EF2447F8A667C21E
:0412AF0005C206D29C
:0512B3000C756A0A75CC
:0A12B8006900756600C2AAD28ED24A
:0212C200AB225D
:0A12C400C008858108AF827EFF900C
:0812CE001D16E493FDBDFF00B5
:0C12D6005038200F35901D16E493602E58
:0712E200901D16E493FD1DB1
:0E12E900ED6024ED2DFC2417901D0093FBEF0B
:0C12F700B5031374182C901D0093FCE547
:0A1303000824FDF8E6B504028D068B
:03130D001D80D967
:051310008E82D00822CE
:0A131500C008E581F5082404F58105
:0C131F00AF82C2187DFE7E00EFA2E5E464
:09132B0033FC24FF9219BF80007D
:051334004003021461FA
:0C133900C005C006EF2323540124FF92DE
:0B1345001A53071F8F82C007C005C0AD
:0C1350002312052CAA82AB83ACF0FED067
:0A135C0023D005D007A80808A60258
:0E13660008A60308A60408A606901D11E4932D
:0E137400FE0EEF2FFD2EFC04901D0093FEB523
:0413820007028006D8
:06138600D006D005800F27
:0E138C00D006D0058C8275831DE493FCFD7E97
:01139A000052
:09139B00BDFE06BE00030215634D
:0A13A4007547BC901D17E493FC8C04
:0A13AE0048901D18E493FC8C49EDF3
:0C13B8002DFD2417901D0093FE8E4A743A
:0A13C400182D901D0093FE8E4B754E
:0613CE004D00301A057508
:0413D4004E40800304
:0313D800754E80CF
:0E13DB00901D12E4932F2FFE2F2404901D006E
:0C13E90093FE24F95006EE24FBFE800267
:0213F5007E0177
:0C13F70074E02EF54CEE24FE500F74063E
:0A1403002E2447F9A808088605A763
:03140D0005801047
:0C141000A80808743F56FAE4FBFCFDEA53
:04141C00254EF54E16
:0C142000EE24FD500E74052E2447F9A8A0
:07142C000808088605A7056A
:0C143300EE24FC500F74042E2447F9A88E
:08143F00080808088605A7054E
:0C144700EE24FB501074032E2447F9A87B
:0914530008080808088606A7062F
:05145C00D21802156327
:0A1461007547B0901D17E493FE8E4E
:0A146B0048901D18E493FE8E498599
:03147500404A8565
:0A147800414B53071FEF24FA500305
:03148200021561EF
:07148500EF2F2F90148C7370
:07148C0002156102149E022B
:0614930014AA0214C102BC
:0514990014D302155BF5
:08149E00754C6074C22546F58F
:0414A6004D0215617D
:0814AA00754C6374432542F503
:0514B2004D754E407570
:0614B7004F00755012D237
:0414BD0011021561A2
:0714C100754A00754B007530
:0614C8004CE1754D0175B9
:0514CE004E4002156113
:0214D3007F0098
:0A14D500C3EF95435064E544702C0A
:0A14DF00740A2F2447F9EF25459009
:0C14E9001C0093F7AD457E008F037C00D3
:0E14F500EB2DFDEC3EFEBD603EBE003B740ADA
:081503002F2447F8A66E803189
:0A150B007401B54411740A2F24473F
:0C151500F9EF2545901D0093FEF7801BA8
:0A152100740A2F2447F9AD457E003F
:0E152B008F037C00EB2DFDEC3EED2400F886D6
:0315390006A706FC
:03153C000F809687
:09153F0074632543F54C74424528
:0615480042F54D74404520
:04154E0043F54E858E
:03155200444F857E
:031555004550D22C
:03155800118006F9
:06155B00754C60754D8126
:02156100D2189E
:0815630030190674DF5547F54D
:01156B004738
:06156C00A218850881D0E1
:0215720008224D
:07157400AF82C218BF400066
:0C157B00501B8F82C007C0231218BDE572
:0C15870082D023D0075444FEBE440280F2
:011593000453
:04159400D218802ABF
:09159800AD6C7E000DBD00010EDA
:0C15A1005305077E00AB6D7C00EBB50528
:0715AD0006ECB50602800EFA
:0815B400E56C245EF8A60705B2
:0515BC006C536C07D226
:0115C1001811
:0515C200D28EA21822E8
:0815C700C0088581080581C2FE
:0815CF0008AF4D74C35FFEADCF
:0715D7004EE54AFC7034E50B
:0915DE004B7030E56E20E00302C1
:0215E70017BD2E
:0E15E900EE700EBDC00BC006C0051218A2D0D9
:0315F70005D00616
:0515FA00BE01028003A8
:0315FF000217BD13
:06160200ED60030217BDBC
:091608007582831215740217BDEE
:08161100E54C30E7030216EB83
:0C161900901D17E493FBECB50302800366
:031625000217BDEC
:0B162800901D18E493FBB54B028003FB
:031633000217BDDE
:05163600BE4202801815
:05163B00BE4302804FD8
:05164000BE8002806A7B
:05164500BE8102807B64
:06164A00BE83030216E25C
:031650000217BDC1
:061653002010030217BD88
:0C165900743C5FF5465305F0BD800D7534
:0C1665008281C0051215741217C2D00556
:06167100ED60030217BD4D
:04167700854E4385D4
:03167B004F448554
:06167E0050457582811247
:09168400157475828412157402BC
:02168D0017BD87
:0B168F00743C5FF546BD800343A208D9
:06169A00ED60030217BD24
:0D16A0007582811215747582821215740214
:0216AD0017BD67
:0616AF003010030217BD1C
:0416B500D210854882
:0316B90040854920
:0516BC0041754200C26F
:0416C100110217BD3E
:0716C500E548B54002800377
:0316CC000217BD45
:0716CF00E549B5410280036B
:0316D6000217BD3B
:0616D9001010030217BD12
:0316DF000217BD32
:0916E2007582851215740217BD12
:0616EB00EE60030217BDD2
:0C16F100C005C04B8C821212C4AF8215E1
:0916FD0081D005BFFF030217BDF7
:0E170600901D11E493FEF58275831DE493257A
:0D171400E02EFC0E74C05DFBE4BB80010400
:01172100FBCC
:08172200C3EE9C40030217BD59
:0E172A008E8275831DE493FAEFB502028003F0
:031738000217B8DD
:0E173B00C004EE04901D0093FAF582C007C0B2
:0E17490006C005C003C0021218BDAC82D0025B
:0C175700D003D005D006D007A80808A6D3
:0C17630004D004EB6031C003A808087437
:08176F001456FBBB14028004B8
:04177700D003801FFC
:0E177B00D0038A82C007C006C005C004C003A8
:0E178900C0021202AAD002D003D004D005D0B4
:0317970006D00772
:0C179A00ED701BC002A80808740C56FA81
:0517A600BA0C028004F2
:0417AB00D002800EDA
:0917AF00D0028A82120521800596
:0517B8000E0E021722D5
:0517BD001581D0082297
:0A17C200C008E581F5082404F58154
:0817CC00A80808740F554EF641
:0A17D400E56A70FCC2AF75E400AED8
:0A17DE0050AD4F74015D241CFCA8FF
:0517E80008080876006E
:0A17ED00A8080808A90809C3E69738
:0517F7004003021897F9
:0C17FC00ED7030C0048E027C00A80808CC
:0E1808000886037F00EB2AFAEF3CFCBA60056D
:05181600BC000280048B
:04181B00D004801065
:0A181F00D004A8080808740A262463
:0618290047F9876E800202
:02182F008CE744
:0A183100A8080808E62EF5E6A8084E
:0C183B000808740A262447F987E58E038C
:0A1847007F00A8080808E508240344
:0C185100F9E6F7097700E5082403F8E643
:0E185D002BFB08E63F53033F7F00BB3F25BF38
:0C186B000022A8080886037F001BBBFFBA
:02187700011F4F
:0C187900E5082403F8E6B5030708E6B50F
:0418850007028006D0
:0618890075E46875E4003F
:08188F00A8080808060217ED85
:0A18970075E468D2AF850881D0081F
:0118A1002224
:0C18A200E56A70FCC2AF75E40075E71D3C
:0A18AE0075E617854FE58550E575D6
:0518B800E468D2AF223C
:0E18BD00AF82901D12E493FE0E0E0EEF2E2F42
:0818CB002F901D0093F582220D
:0E18D30075950075911475924CC29675892119
:0E18E100758F00C28CC28E758D80758B80C293
:0C18EF008FC20375A88075E80075B8046E
:0A18FB0075B70CD28A756E2EC20577
:05190500C206C20DC284
:04190A000EC208D22F
:05190E000A756C007574
:061913006D00754200C2E8
:0419190011C210C225
:05191D000F12124E2222
:06005200E478FFF6D8FD82
:080030007900E94400601B7A2D
:050038000090192E7874
:03003D000075A0AB
:0A00400000E493F2A308B8000205E3
:08004A00A0D9F4DAF275A0FF61
:080058007800E84400600A7919
:030060000075A088
:0600630000E4F309D8FCE3
:080069007800E84400600C7906
:0B00710000900000E4F0A3D8FCD9FAD6
:0300230075816E76
:0A002600121922E582600302001E99
:0419220075820022A8
:00000001FF
