:06007C00C200C201C20235
:20008500C07BE581F57B2405F58185824AA87B087608E4FEF529F54BE54A254A25E0F54891
:2000A50024D5F549854A82C006120806E582D0067003020524AC4A7D000CBC00010DEDA21A
:2000C500E713CC13CC74F62C901D0093FD7401554A640175F004A4F5F005F0ED8002C313FE
:2000E500D5F0FB5407F529854AF005F0E5248002C313D5F0FB5401FDB40100E433FD60165C
:20010500854AF005F0E5258002C313D5F0FB5401FDBD01028004C2188002D218A2189202DA
:20012500E54A243FF9872AE54AC31324CE901D0093FD7401554A75F004A4F5F005F0ED80E2
:2001450002C313D5F0FB540FFD24F7500302051DED2D2D90015C7302051D0201770201D9EF
:200165000203380204140204BF02051D02041E020421A20292F085F023854A821207B18591
:20018500498275831DE493FD53050CBD0403200206BD0826200223E54A2436F9E549049042
:2001A5001D00932480F7E54A242DF87600A202E433FC4304208C2A02051DE54A2436F87612
:2001C500007408254AF582A20292F085F0231207B102051D20020302026DE54A2436F97480
:2001E500D72548901D0093FC747F5C2480F7E54A242DF8A6297408254AF582120D72A87B33
:200205000808A68208A68308A6F008F6A87B0808E6A2E3E43324FF920085498275831DE421
:2002250093FC530470BC0002800ABC10028009BC300A8004B2008006D2008002C2003000CC
:2002450015E54904901D00935438C423541FFC2448F52A02051DE54904901D0093FC740798
:200265005C2440F52A02051D7450552AFCBC4062854A82120D72A87B0808A68208A6830863
:20028500A6F008F6A87B0808E608460846084624FF920085498275831DE493FC530470BCB2
:2002A50010028005BC200A8004D2008006C2008002B200A200E433FB7C00C003C004854A64
:2002C50082120C0215811581E54A2436F8760002051D7408254AF582120D72AF82AE83FBE0
:2002E5008F0574D52548901D0093FC30E31974085DFC7B007408254AF582C004C003120CF0
:200305000215811581801F74085DFCE4FFFEFD7408254AF582C004C007C006C005120E437D
:20032500E58124FCF581752A00E54A2436F8760002051DE54A254A25E024D8FCF5827583F8
:200345001DE4935430FBC4540FF54B7401B54B02800E7402B54B02800B7403B54B2D8008EA
:20036500C2018027D2018023C0047408254AF582C004120D72AF82AE83ADF0FBD0046307E5
:2003850001EF4E4D4B24FF9201D00430025A8C8275831DE493FB30E313A201E433FB248058
:2003A500F52AE54A2436F8768002051DA201E433FA7B00C002C003854A82120C02158115AE
:2003C50081E54A2436F9E54A254A25E024D6901D00932480F7E54A242DF8A629A201E4339C
:2003E500FB2480F52A02051DE52A30E418A201E433FA7B00C002C003854A82120C02158120
:20040500158102051DE54A2436F8760002051D754BFF7E01A87B087600430602434B1F43E8
:200425000604E54A254A25E024D5FCF58275831DE49354040303543FFBEC04901D009354A2
:200445008023235403FA42038B05300237ED20E00302051D74022C901D0093FBE54B5203CC
:20046500C0068B8212052AAA82AB831581A87B08E6254AFFC002C0038F82120C0215811593
:200485008102051DBD0200500302051DED2C901D0093FFE54B5207C0068F8212052AAE8253
:2004A500AF831581A87B08E6254AFDC006C0078D82120C0215811581805EE54A254A25E089
:2004C50024D5FCF58275831DE493FF740C5FF54B3002247404B54B02803E74022C901D0024
:2004E50093FF53077F7E00C007C006854A82120C0215811581802174FC254B501B74032C55
:20050500901D0093FF53077F7E00C007C006854A82120C0215811581E54A243FF8A62A8537
:200525007B81D07B22C07B85817BAF82E4FEFCFDE57B24FDF8B604247E038F027B00C007DA
:20054500C006C002C003900271121AF0AA82AB8315811581D006D0078A048B05E57B24FD5A
:20056500F8B6060CEF75F064A4FAABF08A048B05E57B24FDF8B607068F047D0080138E0733
:20058500ED54F8600AEDC313CC13CCFD0F80F18F06EEC40354F8FFE42CFCEF3DFD8C828D63
:2005A50083D07B2275D16075D20E75D3A075D161052BE4B52B02052CE52B24FFFEE52C341F
:2005C500FFFFEEF4FEEFF4FFE52B5206E52C52077D00BD10005032EE30E0247C00BC090055
:2005E500501DEC242DF9870353030FEBB5050DEC2436F9E7FB247F5003EB14F70C80DEEF4C
:20060500C313CE13CEFF0D80C97F00BF0800400122EF243FF9872AEF2436F98706BE800247
:2006250080030207ADE52A30E52D74082FF582E52A540124FF921892F0C00785F0231207DE
:20064500B1D00774075F2408F582C007120D72D007EF2436F87600E52A20E7030207027412
:2006650001552AFE7D0074082FF582C007C006C005120C0215811581D007EF2F25E0FE249E
:20068500D7901D0093FE24FC506DEF242DF98F047D000CBC00010DEDA2E713CC13CC74FAA2
:2006A5002C901D0093FD74015F640175F004A4F5F005F0ED8002C313D5F0FB5407F77407DA
:2006C5005F2408F582C007C006120D72AA82AB83ACF0FDD006D007EA4B4C4D24FF9218EFCB
:2006E500243FF9A218E433FD430510A705EF2436F974802EF78006EF2436F8760074505516
:200705002AFEBE1002800EBE40028012BE500302078E0207ADEF243FF876000207ADAD2A11
:200725007E0074082FF582C007C005C006120C0215811581D007EF243FF9870674104EF7FE
:20074500EF2436F9EF2F25E024D8901D0093FE74804EF7EF242DF98F057E000DBD00010E98
:20076500EEA2E713CD13CD74FA2D901D0093FE74015F640175F004A4F5F005F0EE8002C311
:2007850013D5F0FB540FF7801FEF2436F9EF2F25E024D8901D0093FE74804EF774082FF510
:2007A50082C0071217A8D0070F020610AF8274075F25E025E024D7901D0093FEBF080040C7
:2007C50005EEC4540FFE301806EE0303543FFE530603EE602BBE03158F82C007120D72AA6B
:2007E50082AB83ACF0FDD007630201800474015EFA7E00C002C0068F82120C0215811581BA
:2008050022AF82901DD2E493FE60127D00C3ED9E500B7C70EC60031C80FA0D80F0E5256537
:2008250080F4FEEF901B16935EF58222C07BE581F57B240AF581855682C05712154DAF8239
:200845001581A87B0808A607A87B0808B6FF03020A11901D11E493FEF58275831DE493FDE2
:20086500E57B2403F8A60574022EFCE57B2406F8EE04F6E57B2404F87600E57B2404F8E5E4
:200885007B2403F9C3E6974003020A11C004E57B2404F8E625E0FAE57B2406F8EA26901DB0
:2008A5000093FCA87B0808E6B504028005D004020A08D004EA2C901D0093FAA87B08A6026C
:2008C500A87B088682C0041219D4AE82D0048E07901D12E493FEA87B08E675F003A42E24E1
:2008E50004901D009374145FFEBE14028003020A08A87B08B61000502CC004743F555AFBD1
:200905007C007D007F00C004C003C004C005C007A87B088682120E43E58124FCF581D0041D
:20092500D004020A08C004E57B2405F87401555AF6A87B088682C004120D72C8E57B240790
:20094500C8A68208A68308A6F008F6D004E57B2405F88602E4FDFEFFE57B2407F8E662024D
:2009650008E6620508E6620608E66207D004EA4D4E4F7003020A08E57B2405F886037D00BA
:200985007E007F00C004C003C005C006C007A87B088682120E43E58124FCF581D004A87BF3
:2009A5000874075625E025E024D5901D0093FF53070374015FFEE57B2405F8EE66F6EF60CE
:2009C50042E57B2405F8E66013A87B08740756901B1693FF74FFC39F5228800DA87B08742C
:2009E5000756901B1693FF4228A87B08740756FFC004E57B2405F8E6C0E08F82120A1715B9
:200A050081D004E57B2404F80602087F857B81D07B22C07B85817BAF82C2187EFFEFC31376
:200A250024CE901D0093FD74015F75F004A4F5F005F0ED8002C313D5F0FB540FFDBD0102A2
:200A4500800FBD0203020AD9BD0303020B40020BA3EFFE25E025E024D5901D0093FDE57B0E
:200A650024FDF874016675F002A4F5F005F0ED8002C313D5F0FB540CFDBD0402800ABD0824
:200A850002800ABD0C49800AD218020BA3C218020BA3E57B24FDF8E660178FF005F0E524B2
:200AA5008002C313D5F0FB5401FD24FF9218020BA38F82C006120D72AA82AB83ACF0FDD01F
:200AC50006630201EA4B4C4D24FF9218020BA37EFF020BA38F82C007120D72AA82AB83ACBE
:200AE500F0FDD007EA4B4C4D24FF92188F06E57B24FDF8E66018EF2F25E024D5901D0093CA
:200B0500FD30E705C218020BA37EFF020BA3EF2F25E024D6901D0093FD5305C0BD4002800F
:200B25000ABD80028009BDC00E8008D218806FC218806BB21880677EFF806374082FFEEF84
:200B45002F25E024D5901D0093FDE57B24FDF874016675F002A4F5F005F0ED8002C313D5D3
:200B6500F0FB540CFDBD0402800ABD08028009BD0C2A8008C2188026D218802274082FF564
:200B850082C006120D72AB82AC83ADF0FFD006630301EB4C4D4F24FF921880027EFFEE2491
:200BA500EF402DA218E433FB7C007D007F00C006C003C004C005C0078E82120E43E58124BA
:200BC500FCF581D0068E82C0061217A8D00650F5D07B22855682C0571219ECAF821581BF88
:200BE500FF01228F82C0071219D4AE82D00753060CBE0C0874402FF5820217A822C07B85BC
:200C0500817BAF82E57B24FCF886030886047D007E00C007C003C004C005C0068F82120E0A
:200C250043E58124FCF581D0078F821217A8D07B22C2187518007F00BF08004001227E00BC
:200C4500EF2436F97700EF2408F87600EF2410F87600EFC31324CE901D0093FD74015F757F
:200C6500F004A4F5F005F0ED8002C313D5F0FB540FFDBD01028013BD02028055BD0302806D
:200C85000FBD0903020CFA020D12EF243FF87600EF2F25E024D5901D0093FD5305C0BD4020
:200CA50002800ABD8002800BBDC062800CD2187E01805AC2187E0180548FF005F0E5258000
:200CC50002C313D5F0FB5401FD24FF92187E01803CEF2F25E0FD24D7901D0093FC30E704AB
:200CE500C2187E0174D82D901D0093FD30E71ED2187E018018EF24FE40137780EF242DF817
:200D05007680EF2FFD2419F87600087600EE6035A218E433FB7C007D007E00C007C023C064
:200D250003C004C005C0068F82120E43E58124FCF581D023D0078F82C007C0231217A8D0C6
:200D450023D00750F1EF2F25E024D5901D0093FE530603BE010AEF901B1693FE42288009A0
:200D6500EF901B1693F4FE52280F020C3DC07BE581F57B2404F581AF82901D12E493FEEF62
:200D850075F003A42E2404901D0093FEEF24F04072BE0800403D74075FFE2410F987048C9A
:200DA500037C00A87B08A60408A603EB3395E008F608F6EE2408F987057C007B007A00A8E2
:200DC5007B08ED26F6EC0836F6EB0836F6EA0836F68058EF2408F987057C007407C39EFE57
:200DE500E49CFC8EF005F074FF8002C313D5F0FBFE5205A87B08A6050876000876000876CF
:200E05000080287E00EF24F0FFEE34FFFE8FF005F0E5188002C313D5F0FB5401FFA87B087E
:200E2500A607087600087600087600A87B0886820886830886F008E6857B81D07B22C07BAD
:200E450085817BAF82901D12E493FEEF75F003A42E2404901D0093FEEF24F0402DBE0800E2
:200E6500401374075FFE2410F9E57B24FAF8088605A7058E07EF2408F9E57B24FAF88603B8
:200E85007C007D007E00A7038032EF24F0FF901B1693FE74FFC39E5218E57B24FAF87401FD
:200EA50056FB7C007D007E008FF005F0EB800225E0D5F0FBFFE518FE42078F18D07B2275F3
:200EC50084FF7585007580FFC210E4F52BF52CC2AF75E40075E71D75E60375E50075E71D31
:200EE50075E60475E50475E71D75E60575E57075E71D75E60675E55475E71D75E60775E5D0
:200F05000275E71D75E60C75E50075E71D75E60D75E5FF75E71D75E61275E58475E468D2FF
:020F2500AF22F9
:0400000002002332A5
:01000B0032C2
:0300130002116B6C
:03001B0002119B34
:0300820002001E5B
:05001E00120F2780FE17
:200F27007F00C218E5A7035401FE24FF9219D2972097073019047E008007901CFFE493FD09
:200F4700FE901CFFE493AC962CFD8D9653963FC007C006C023121A91D02353BDFE5391FCA6
:200F67005392FC75985043BAE043BD0275BF2F75BEF043BD01759955C023120EC4D023D0D9
:200F870006D0078580248524252019527C007D00C006901DD4E493FB7A00901DFEE493C4D9
:200FA700540FFE8EF005F08006EB2BFBEA33FAD5F0F7C3EB9CEA9DD006402375D16075D2F5
:200FC7001D75D34075D161E5D1248050FAC2AF75C2A575C35AD2AF0CBC00B50D80B2C00737
:200FE700C006C023121123D023C02312113FD023D006D00720190FC007C006C023120C3617
:20100700D023D006D007D297C2AF75C2A575C35AD2AF901D0DE493FDBDFF5C201159E57A31
:2010270020E054858025E524B5250280357D00BD0800502BE5246525FCED901B1693FB5CAD
:20104700601AEB552870158D82C007C006C005C023120085D023D005D006D0070D80D085F0
:201067002524748025D1500FC007C006C0231205A9D023D006D007200903300A15C209C2FF
:201087000AC007C006C0231217DBD023D006D007800A7D648D041C8C05ED70F81098028003
:2010A7004AAD99BD630810990280FB759955BD2B0315961EBD2D0305960EBD7712C2AF7572
:2010C700E40075E71C75E6FF8EE575E468D2AFBD7003637A81BD760810990280FB7599079A
:2010E700BD740810990280FB759902D297209712BFFF0050030F8012201803637A81D21813
:1C1107008008EF60031F8002C218E57A5401FDB40100E433FD24FF929702100F90
:081B16000102040810204080C8
:2011230075C1FFC2AF75A7E575C2A575C35AD2AF22C2AF75C2A575C35AD2AF22A2AF921877
:20114300C2AF43A70475C2A575C35AA21892AF22A2AF9218C2AFAFA75307FB8FA775C2A579
:0811630075C35AA21892AF22D5
:20116B00C0E0C0D0C2AAC28E740F55892420F589758B35758D80C28FD28ED2AB757602C2C1
:20118B0005D203757500757400D204D0D0D0E032C023C0E0C0F0C082C083C007C006C00535
:2011AB00C004C003C002C001C000C0D075D000E576FF24F150030214B8EF2F2F9011CB73C9
:2011CB000211F80214B802126B02132502132E0213A30214B80214B80214B80214B802132A
:2011EB00C702142F0214B80214530214A1C28E740F55892420F589758B80758D80C28FD252
:20120B008EE578B579028051E579246AF987821215A0503DC2AAE5767032E579246AF9E760
:20122B00FF20E50774204FF775770074FC2577400512150380160579537907C20DC21212BB
:20124B0014D7C28E758DF0758B00D28ED2AA0214B805795379070214B8C28ED2AA0214B8F3
:20126B00A28BB39218C28B757603758D00E575700A757501C206C2070214B8747F257540B1
:20128B001C301808B205E5752574F574E5752575F57560030214B87575810214B8C28EC2EA
:2012AB008FA205201801B35026E572700E74CCB57402D206740CB57402D20720061320078F
:2012CB0010E5722453F8E574F6627305728002C203100D02801D3006143003117577041001
:2012EB0012028009E54E2404F54E534E3C1214D70214B830031E20061B200718740F5589CE
:20130B002410F589758DFA758B70D28E757604D2AA0214B81214D70214B8758D80757602D1
:20132B000214B8300B64E57224FB505EC28E740F55892410F589758DEF758B42D28EA21069
:20134B009208E55830E71F855682C05712154DAF821581BFFF028002D208E556701CE557A7
:20136B007018D2088014901D17E493FFB5560B901D18E493FFB55702D20874FFB573053029
:20138B000802D2097576050214B8E57224FE5002D2091214D70214B8C28E74FFB573133000
:2013AB00080AD20E121503C20D0214B81214D70214B8D20F121503C20D0214B8E572245328
:2013CB00F98707300E027FCC300F027F0CC2AA740AB5760280030214B8E575247F402CE56E
:2013EB00755F7008D296C20CB2058002D20CE5757007757501C2058006E5752575F575E5FD
:20140B0075700375758175760B8013200506D296C20C8002D20C057275750075760D758DC9
:20142B00120214B8E57270077401B575020577C296A20C828B5007C20D1214D7800675762F
:20144B000A758D6EC28B8065C296C28E740F55892410F589758DFB758B90D28E200E0330CC
:20146B000F051214D7802B740F5558FF7E0074072FFFE43EFEAC727D00C3EF9CEE64808DE7
:20148B00F063F08095F05007D20A1214D7800375760EC28B8017C28E740F55892420F589F6
:2014AB00758D6E758B80C28FD28E75760AD204D0D0D000D001D002D003D004D005D006D080
:2014CB0007D083D082D0F0D0E0D02332757600C28BC28EC2AB757300757200C28E740F55D4
:2014EB00892410F589758D89758BAFC20EC20FC28FD28ED2AAD2AB22C28E740F558924200A
:20150B00F589758D6E758B80C28F740F55582407FF7573FF7E00C3EE9F500BEE2453F9E752
:20152B00FD62730E80F0EF2453F8A673C206C207D20D75760A757500757200C2AAD28ED205
:20154B00AB22C07B85817BAF827EFF901D16E493FDBDFF00503A201037901D16E49360309B
:20156B007D01901D16E493FCC39D4024ED2DFC2417901D0093FBEFB5031374182C901D003D
:20158B0093FCE57B24FDF8E6B504028D060D80D28E82D07B22C07BE581F57B2404F581AFCA
:2015AB0082C218EFA2E5E433FE24FF9219BF800040030216B8EF2323540124FF921A530766
:2015CB001F8F82C007C023120D72AB82AC83ADF0FED023D007A87B08A60308A60408A6059B
:2015EB0008A6068F82C007C023121A45AA82AE83D023D0078A05ED4E70030217977553BC68
:20160B00901D17E493FC8C54901D18E493FC8C558E048C568D57755900301A05755A40808B
:20162B0003755A80901D12E493FEEF75F003A42E2404901D0093FE24F95006EE24FBFE808C
:20164B00027E0174E02EF558EE24FE500F74062E2453F9A87B088603A7038010A87B08741B
:20166B003F56FAE4FBFCFDEA255AF55AEE24FD500E74052E2453F9A87B08088605A705EE64
:20168B0024FC500F74042E2453F9A87B0808088605A705EE24FB501074032E2453F9A87B93
:2016AB00080808088606A706D2180217977553B0901D17E493FE8E54901D18E493FE8E557C
:2016CB00854C56854D5753071FEF24FA5003021795EF2F2F9016E3730217950216F502170B
:2016EB000102171802172902178F75586074C22552F5590217957558637443254EF55975D0
:20170B005A40755B00755C12D2120217957556007557007558E1755901755A40806C7F0051
:20172B00C3EF954F5042E550702C740A2F2453F9EF2551901C0093F7AD517E008F037C0063
:20174B00EB2DFDEC3EFEBD601CBE0019740A2F2453F8A67A800F740A2F2453F9EF25519054
:20176B001D0093FEF70F80B87463254FF5587442454EF5597440454FF55A85505B85515C4A
:20178B00D2128006755860755981D21830190674DF5553F553A218857B81D07B22AF82C241
:2017AB0018AD787E000DBD00010E5305077E00AB797C00EBB50506ECB50602800EE57824AA
:2017CB006AF8A6070578537807D218D28EA21822C209AF5974C35FFEAD5AE556FC702BE555
:2017EB00577027E57A20E00122EE700EBDC00BC006C0051219B9D005D006BE0102800122FC
:20180B00ED6001227582830217A8E55830E7030218C1901D17E493FBECB5030280012290D1
:20182B001D18E493FCB55702800122BE42028015BE43028041BE80028056BE81028062BEF2
:20184B008302806C22743C5FF5525305F0BD800D758281C0051217A81218D9D005ED6001CE
:20186B0022855A4F855B50855C517582811217A87582840217A8743C5FF552BD800343A2AB
:20188B0008ED70497582811217A87582820217A820113AD21185544C85554D754E00C212DB
:2018AB0022E554B54C27E555B54D2210110122227582850217A8EE701474C05DFFBF800751
:2018CB00C005120831D005ED7003020BD822C07BE581F57B2404F581A87B08740F555AF6AF
:2018EB00E57670FCC2AF75E400AE5CAD5B74015D241CFCA87B08087600A87B0808A97B0923
:20190B00C3E69740030219AEED7030C0048E027C00A87B080886037F00EB2AFAEF3CFCBAE8
:20192B006005BC00028004D0048010D004A87B0808740A262453F9877A80028CE7A87B0855
:20194B0008E62EF5E6A87B0808740A262453F987E58E037F00A87B0808E57B2403F9E6F732
:20196B00097700E57B2403F8E62BFB08E63F53033F7F00BB3F25BF0022A87B0886037F00DD
:20198B001BBBFF011FE57B2403F8E6B5030708E6B50702800675E46875E400A87B0808069E
:2019AB0002190475E468D2AF857B81D07B22E57670FCC2AF75E40075E71D75E617855BE58C
:2019CB00855CE575E468D2AF22AF82901D12E493FE0E0E0EEF75F003A42E901D0093F58263
:2019EB0022C07B85817BAF827EFFC006E57B24FDF8E6C0E08F8212154DAF821581D00690D9
:201A0B001D11E493FDF58275831DE493FCBFFF0280237B000DC3EB9C501B8D8275831DE472
:201A2B0093FAEFB5020AED04901D0093FAFE8C030B0D0D80E08E82D07B22AF827EFE901D4A
:201A4B0011E493FD0DEF2F2DFD04901D0093FCB507098D8275831DE493FFFEBEFE02801DA9
:201A6B00EE2EFE2417901D0093FD7F0074182E901D0093FE7C002FFFEC3DFD80047F007D02
:201A8B00008F828D832275950075911475924CC296758921758F00C28CC28E758D80758BE6
:201AAB0080C28F75D20E75D3A075D161C20475A80075E800C2ABC2A8C2AAD2AF75B80475BC
:201ACB00B70CD28A757A2EC206C207C20EC20FC209D20B757800757900754E00C212C211A0
:051AEB00C2100214D737
:06005200E478FFF6D8FD82
:200030007900E94400601B7A00901B1E780075A000E493F2A308B8000205A0D9F4DAF2753E
:02005000A0FF0F
:201AF00074FE2581F8E68582F0A4C0E08582F018E6A4F582D0E025F0C58386F0A42583F5D1
:021B100083222E
:200058007800E84400600A790075A000E4F309D8FC7800E84400600C7900900000E4F0A3A8
:04007800D8FCD9FADD
:0D00230075817B121B12E582600302001E36
:041B120075820022B6
:00000001FF
