:0A007F00C00C85810CE58225E02508
:0A008900E0FA2422F8A90C19191955
:0A009300E7F6EA042422F8E50C2445
:0C009D00F9F909098703A60374022A245C
:0A00A90022F8E50C24F9F909870399
:0A00B300A60374032A2422F8E50CCA
:0A00BD0024F9F98702A602D00C22F4
:0C00C700E58225E025E0FA2422F876000E
:0B00D300EA042422F8760074022A24BC
:0A00DE0022F8760074032A2422F8A9
:0300E8007600227D
:0A00EB00D208C2829009C4C021129D
:0800F500029DD021D2827AFFA6
:0900FD00A28282089208DAF8B22E
:0401060008A2082221
:04010A00AA827B0149
:04010E00BB0001220F
:06011200EB5A601E7C00A8
:03011800BC020026
:07011B005005C2820C80F6C2
:0E012200D282900104C002C00312029DD003DD
:04013000D002801267
:0E013400C282900113C002C00312029DD003CC
:04014200D002D28293
:05014600EB2BFB80C360
:04014B007A007B01BA
:05014F00BB0002803539
:020154007C002D
:03015600BC0200E8
:070159005005C2820C80F684
:0E016000D282900001C002C00312029DD003A3
:08016E00D002308203EB4202D3
:0E01760090008CC002C00312029DD003D00284
:05018400EB2BFB80C61F
:030189008A822245
:02018C007A00F7
:03018E00BA0200B2
:070191005005C2820A80F64E
:0C019800D28290000112029DA282920807
:0901A40090008CC02112029DD0D4
:0401AD0021A2082261
:0E01B1001200EB500C7582CC12010A758244CC
:0301BF0002010A30
:0101C200221A
:0E01C300AA82C0021200EBD002400302029496
:0E01D1007582CCC00212010A7582BE12010AAC
:0E01DF0012014BAB82C00312014BAC82D00365
:0701ED00D002E4BA02010494
:0D01F400FA6038C002C003C00412014B12B3
:06020100014B12014B123B
:0E020700014B12014BAD82D004D003D0025344
:0E02150004F8EBC4035407FE2CFCEBC40354A6
:0C022300F8FB5303F07410C39DFD2BFB8F
:0E022F0074805CFD8C06E4FCFFEB2CFCEF3EC3
:0C023D00FEFBED6007C3E49CFCE49BFBAF
:0D024900C002C003C004C005C004C0039083
:0E02560000061217A2AE82AF8315811581D06B
:0E02640005D004D003D002EBC313CC13CCC3DF
:0E02720013CC13CCFBEC2EFEEB3FFFEA600832
:08028000EE24E7FEEF34FFFF5E
:0C028800ED600DC3E49EFEE49FFF8004C7
:040294007EFF7FFF6B
:050298008E828F83221D
:0E029D00AA82AB83C28C74FFC39AFA74FF9BD3
:0902AB00FB8B8C8A8AC28DD28C77
:0602B400308DFDC28C221A
:0400000002002332A5
:01000B0032C2
:03001300020F5B7E
:03001B00021111BE
:03007C0002001E61
:05001E001202BA80FE91
:0502BA001210D47A00CF
:0302BF00BA320050
:0C02C200501090FFFFC0021210A4D002E8
:0602CE00308DFD0A80EBFB
:0602D400121781120D4516
:0602DA00308E03020379DF
:0802E0007401B56411C20212A1
:0602E80001B13002030227
:0202EE00037992
:0602F000756402020379AF
:0B02F6007402B5640D12018C4003027D
:0203010003797E
:05030300756403807128
:09030800C202E562C313246B90EC
:0C0311001D0093FAAB627C00EBF4FBECE7
:0E031D00F4530301E4CB25E0CB33CB25E0CB3A
:09032B0033FC8BF005F0EA8002BE
:02033400C313F1
:0E033600D5F0FB540FF5821201C3AA82AB83EF
:06034400200232E56225F3
:0A034A0062244AF8A60208A6038503
:0603540062821205BF8564
:06035A006282120856E564
:06036000656003120CB6FB
:06036600756401056253FD
:08036C006203E562139280E5D3
:0503740062A2E192818C
:09037900748025D15003120A1C06
:07038200D29720971E7A6458
:02038900DAFE9A
:0D038B003097FD75E40075E71C75E6609085
:0D0398001C60E493FA74816AF5E575E46871
:0B03A500901C60E4935401FAB40100C6
:0403B00092977A6442
:0503B400DAFE0202DA8E
:0103B9002221
:0603BA00856982C06A1291
:0A03C00015D5AA821581BAFF0122AB
:0E03CA00C002121374D002EA20E00F8A82C033
:0C03D80002120421AB82AC83D002801121
:0E03E4008A82C002121649AD82AE83D0028D0D
:0303F200038E0473
:0E03F5008A82C002C003C00412152AAD82D055
:0E04030004D003D00253050CBD0C12C003C080
:0E04110004C0027582001204DF1581158115EA
:01041F00815B
:0104200022B9
:0A042100C00C85810CC0820581A883
:0A042B000C08A90C0909E6C313F739
:0E0435007C847DEA901DA4E493C4540FFEA8BD
:0C0443000C080886F005F07F017B0080AB
:01044F0006A6
:06045000EF2FFFEB33FB70
:0E045600D5F0F77A00EE5207EA5203EF4B6042
:0A0464003BA80C08E625E0244AF846
:02046E007AFF13
:0E047000860308860618C3EC9BED64808EF0B0
:0E047E0063F08095F050130A74462CFCE43DA8
:0C048C00FDEA30E0DF0CBC00DB0D80D886
:080498007B008A828B8380390E
:0A04A000A80C0808E625E0244AF83D
:0E04AA0086020886038A04EBC423CCC42354C4
:0D04B8001F6CCC541FCC6CCC30E40244E02F
:0E04C500FD53050774182DFDEB30E70474801D
:0204D3002DFDFD
:0404D5008C828D8305
:0604D900850C81D00C220D
:0804DF00C00C85810CAA82A863
:0C04E7000C181818E603035401246B9055
:0C04F3001D0093FB7C00A80C181818E6F4
:0E04FF0003540175F004A4FDAEF08DF005F07D
:02050D00800666
:06050F00EB2BFBEC33FCBA
:0E051500D5F0F75303F07C00BB7006BC00036A
:030523000205BC12
:0C052600A80C1818188682C00212154597
:0D053200AB82AC83D002EB4C70030205BC21
:0A053F007566BC901D17E493FD8D56
:0805490067901D18E493FD8D7D
:06055100688C058D698B2A
:050557006A756C0075DF
:08055C006D80EA7003756D402B
:0C056400A80C18181886821216AFE58249
:0A057000FA24FA4010756BE1E50C67
:0A057A0024FBF8E6FB256DF56D800B
:010584002E48
:0A058500EA24F8400E756BE2E50C65
:09058F0024FBF886038B6E801B2F
:0A059800EA24F74016756BE3E50C4A
:0A05A20024FBF80886028A6EE50CBF
:0705AC0024FBF886028A6FB0
:0905B300C2AA1212C0C28BD2AA26
:0305BC00D00C223E
:0A05BF00C00CE581F50C2404F58161
:0E05C900E582FA25E0FB04FC746D2A901D000B
:0E05D70093FD74712A901D0093FE747F5E7573
:0C05E500F0B4A4FEAFF0A80C0874842E43
:0E05F100F674EA3F08F674752A901D0093FA1E
:0C05FF00747F5A75F0B4A4FAAEF0A80C9A
:0E060B0008080874842AF674EA3E08F6EB2408
:0A06190052F88607088602A80C08B4
:0E0623000808C3EF96EA64800886F063F08052
:0806310095F04004E565606EE0
:0A063900EB244AF88602088606A8A2
:0C0643000C080808C3E69A08E664808EE4
:0E064F00F063F08095F05050ED540C604BEDD0
:0E065D0003035401FAFE7F00C002C003C00474
:0E066B00C005C006C0078C821216D31581157B
:0C06790081D005D004D003D002E56570EC
:0E068500218A06FFC003C004C005C006C007DE
:0E069300C0047582011204DF158115811581E6
:0606A100D005D004D003D7
:0A06A700EB2452F88606088607A827
:0C06B1000C08C3EE96EF64800886F0632E
:0A06BD00F08095F04004E565606CE4
:0A06C700EB244AF88606088607A80F
:0C06D1000C08C3E69E08E664808FF0630E
:0E06DD00F08095F05050ED54C0604BED23239B
:0E06EB005401FAFE7F00C002C003C004C00527
:0E06F900C006C0078C821216D315811581D061
:0C07070005D004D003D002E56570218A03
:0E07130006FFC003C004C005C006C007C00436
:0E0721007582011204DF158115811581D00546
:04072F00D004D0031F
:0A073300EB2452F88606088607A89A
:0C073D000C08C3E69E08E664808FF063A1
:0A074900F08095F04004E565606B58
:0A075300EB244AF88606088607A882
:0C075D000C08C3EE96EF64800886F06381
:0E076900F08095F0504FED5430604AEDC454CE
:0E07770001FAFE7F00C002C003C004C005C02E
:0E07850006C0078C821216D315811581D0058F
:0C079300D004D003D002E56570218A0676
:0E079F00FFC003C004C005C006C007C004753B
:0E07AD0082011204DF158115811581D005D05F
:0307BB0004D00364
:0A07BE00EB2452F88606088607A80F
:0C07C8000C080808C3E69E08E664808F59
:0C07D400F063F08095F04004E565605E85
:0A07E000EB244AF88606088607A8F5
:0C07EA000C080808C3EE96EF6480088637
:0E07F600F063F08095F05040ED5403603B74CA
:0E080400015DFAFD7E00C002C003C004C00505
:0E081200C0068C821216D315811581D004D039
:0C08200003D002E5657017FDC003C002A4
:0E082C00C005C0047582011204DF158115811C
:04083A001581D00351
:0A083E00EB2452F8EB244AF987027C
:0C084800098703A60208A603850C81D0D6
:020854000C2274
:0A085600C00CE581F50C2408F581C3
:0E086000AA8274652A901D0093FB20E7030214
:02086E000A1668
:0E08700074652A901D0093547F75F0B4A4FBAC
:0C087E00ACF0EA2AFD244AF88606088641
:0A088A0007ED245AF8E50C2405F9E7
:0C089400E6F708E609F7E50C2405F8C3B8
:0E08A000E69E08E664808FF063F08095F040DD
:0C08AE0021C003C004E50C2405F8E6C3DB
:0C08BA009EFD08E69FFBE50C2407F8A655
:0A08C6000508A603D004D003801734
:0C08D000E50C2405F8EEC396FEEF089638
:0B08DC00FFE50C2407F8A60608A6079D
:0C08E700E50C2407F88605088606C3EB24
:0808F3009DEC9E4003020A0E79
:0C08FB0074042A25E025E0FB2422F8E626
:050907006003020A1666
:0E090C00EAC3132469901D0093FB74015AFC8A
:03091A00B4010025
:0E091D00E433FC75F004A4F5F005F0EB800265
:02092B00C313F4
:0E092D00D5F0FBFB740F5BFE24FA401AEE754A
:0C093B00F008A4FCADF0A80C08A604080D
:0C094700A605ED3395E008F608F6806B7D
:0E095300EE24F54034C0028E027B00EA24FB45
:0D096100FAEB34FFFBC002C00390004D1202
:0C096E0017A2AA82AB8315811581A80C8A
:0E097A0008A60208A603EB3395E008F608F67F
:04098800D0028032E7
:0E098C00C0028E037A00EB24F6FBEA34FFFA79
:0E099A00C003C0029001CE1217A2AA82AB8346
:0C09A80015811581A80C08A60208A60302
:0A09B400EB3395E008F608F6D002D8
:0809BE00A80C08E54626FBE544
:0A09C600470836FCE5480836FDE559
:0A09D000490836FEA80C0874012B3C
:0E09DA00F6E43C08F6E43D08F6E43E08F67448
:0C09E800042AFBA80C08E6C0E008E6C0EA
:0E09F400E008E6C0E008E6C0E07401C0E08B59
:0C0A02008212007FE58124FBF581800852
:080A0E0074042AF5821200C7EE
:060A1600850C81D00C22CA
:0A0A1C00C00CE581F50C2409F581FA
:0C0A260075D16075D20E75D3A0200003BE
:030A3200020CAB08
:070A35000546E4B5460C057F
:050A3C0047B547070566
:050A410048B548020564
:010A46004966
:080A4700754900A80C087600B7
:0B0A4F00A80C08E624F75003020CABD3
:0A0A5A00A80C08E625E025E0FB24C7
:090A640022F8E6FC7003020CA468
:0A0A6D00C004EB042422F88605A85B
:0C0A77000C0808A60508760008760008A8
:0A0A83007600A80C0808E50C240614
:0E0A8D00F90808E6090909F718E619F718E64E
:0C0A9B0019F719770074022B2422F8864A
:0C0AA70002E4FCFDFEE50C2406F8EA2643
:0E0AB300FAEC0836FCED0836FDEE0836FEA81B
:0C0AC1000C0808A60208A60408A60508F8
:0A0ACD00A606A80C0808E50C240694
:0E0AD700F90808E6090909F718E619F718E604
:0C0AE50019F719770074032B2422F886FF
:0C0AF10003E4FFFAFCE50C2406F8EB26F9
:0E0AFD00FBEF0836FFEA0836FAEC0836FCA8D4
:0C0B0B000C0808A60308A60708A60208AC
:070B1700A604AA46AB47AC9F
:040B1E0048AD49A8ED
:0C0B22000C0808E6B5021108E6B5030C4B
:0C0B2E0008E6B5040708E6B505028005DE
:050B3A00D004020CA430
:0B0B3F00D004A80C08E624FC500302C0
:020B4A000C0895
:0C0B4C00A80C08746126901D0093FA5359
:0B0B5800027F7B008563F005F0800643
:060B6300EA2AFAEB33FB65
:0C0B6900D5F0F7EB3395E0FDFEE5462AE1
:0A0B7500FAE5473BFBE5483DFDE5CE
:0C0B7F00493EFEC004C002C003C005C017
:0C0B8B0006C004A80C08868212007FE55A
:0E0B97008124FBF581D004EC20E703020CA4BE
:070BA500E5656003020CA4EA
:0C0BAC00A80C08E625E0FAF582C002C0A3
:0E0BB80004120421AB82AD83D004D002C0022F
:0E0BC600C004C003C005C0027582011204DF26
:0E0BD400158115811581D004D002EC20E003BC
:030BE200020CA45E
:0E0BE5000A8A82C002121649AB82AD83D0028A
:0E0BF300C003C005C0027582011204DF158127
:070C010015811581020CA40E
:0A0C0800A80C08E624F8404AA80CE6
:0E0C120008E624FC25E0FAF582C00212042157
:0E0C2000AB82AD83D002C002C003C005C0028B
:0E0C2E007582011204DF158115811581D00237
:0A0C3C00EA245AF8EA244AF9870274
:0C0C460009870319A60208A60318A80CD1
:080C52000886821200C7804AE7
:020C5A007A001E
:0D0C5C00EA24F940408AF005F0744080025F
:020C6900C313B3
:0E0C6B00D5F0FBFB5C602B8A82C002C0041235
:0E0C79000421AB82AD83D004D002C002C004BF
:0E0C8700C003C005C0027582011204DF158192
:080C950015811581D004D00285
:040C9D000A0A80BB04
:030CA10075420099
:070CA400A80C0806020A4F2C
:090CAB0075D161B200850C81D005
:020CB4000C2210
:0A0CB600E5622562FA8AF005F07489
:030CC0008080022F
:020CC300C31359
:0C0CC500D5F0FBFB556560378A82C00249
:0E0CD100120421AB82AC83D002C002C003C06B
:0E0CDF0004C0027582011204DF158115811513
:0B0CED0081D0028AF005F074808002C4
:020CF800C31324
:0A0CFA00D5F0FBFB74FFC39B5265AD
:080D04008AF005F07440800242
:020D0C00C3130F
:0C0D0E00D5F0FBFB5565602E0A8A82C000
:0E0D1A0002C003121649AC82AD83D003D00292
:0E0D2800C003C004C005C0027582011204DFC2
:0D0D3600158115811581D00374FFC39B52F8
:010D4300654A
:010D4400228C
:0E0D450075D16075D20E75D3A07584007585CA
:0E0D530000901DA0E493FAE4C40354F8CAC44F
:0C0D610003CA6ACA54F8CA6AFBFC8C443E
:0C0D6D008A45901D79E493FA74AA5AF5A7
:0B0D790065901D79E493FA74555AF55B
:0B0D840042901D60E493FA740F5AF5D2
:030D8F00637A0084
:080D9200EA24FC5003020E13D9
:0E0D9A0074712A901D0093FB530380EA75F0DC
:0E0DA80002A42401FCE435F0FD8CF005F0EB14
:020DB6008002B9
:020DB800C31363
:0C0DBA00D5F0FB426574612A901D009387
:0E0DC600FB53038074752A901D009323540183
:0E0DD4002BFBC0027401C0E0E4C0E0C0E0C030
:0E0DE200E0C0038A8212007FE58124FBF581C8
:0C0DF000D002EA2AFB244AF876000876BC
:0C0DFC0000EB2452F87600087600EB248F
:0B0E08005AF876000876000A020D92EE
:0A0E1300756401756200C2AF75E45A
:0E0E1D000075E71D75E60375E50075E71D75A8
:0E0E2B00E60475E50875E71D75E60575E5B08A
:0E0E390075E71D75E60675E50375E71D75E6A0
:0E0E47000775E50175E71D75E60C75E500758C
:0E0E5500E71D75E60D75E5FF75E71D75E612E4
:0E0E630075E53A75E46875E40075E71C75E600
:0C0E71006075E52E75E468D2AFE4F5462C
:050E7D00F547F548F502
:050E82004975D1612259
:0C0E8700AA827B007C007D007E007F00C2
:0E0E9300C3EF9A501174CD2BFB741C3CFCE491
:080EA1003DFDE43EFE0F80EA76
:0E0EA900ECA2E7CB33CB33CB5401FCED2D4C48
:0E0EB700FCEEA2E7CD33CD33CD54018CD28BAF
:050EC500D375D161228C
:040ECA0075D160225C
:0C0ECE00C2AAC2AB90017C1210BCC2088A
:020EDA00C20153
:0C0EDC00308FFD900168C0211210BCD0C6
:070EE80021A29492097A0592
:090EEF00A29482099209DAF8A22A
:080EF80009E433FA300902D2CB
:010F000008E8
:020F01007B0271
:050F0300BB0002803379
:0C0F0800308FFD90015EC002C003C021CC
:0C0F14001210BCD021D003D002A2949295
:030F2000097C0544
:090F2300A29482099209DCF83065
:050F2C000903EB2AFAA5
:050F3100300902B208C6
:050F3600EB2BFB80C85D
:0B0F3B00308FFDC28EA29492097B054E
:090F4600A29482099209DBF8A2D1
:050F4F0009200801B3B8
:040F54005002D20174
:030F58008A822268
:0C0F5B00C021C0E0C0F0C082C083C00212
:0E0F6700C003C004C005C006C007C000C00122
:0E0F7500C0D075D000C28EC2AAC2AB120ECE82
:0E0F8300AA829000C8C0021210879005461284
:080F910010BCD002300123E581
:0C0F99007D700974F05AFBBBC002800799
:070FA500E57D2466F8A602B9
:060FAC00E57D7002F57EF8
:090FB200EA627E057DD2AB800CE1
:0A0FBB00757D00C2ABC28EC28F75B7
:020FC5007E00AC
:0C0FC700C28BD2AAD202D0D0D001D00040
:0E0FD300D007D006D005D004D003D002D083C2
:090FE100D082D0F0D0E0D0213222
:090FEA00AA82D208C209D2969035
:0A0FF300005FC002C021121087D079
:070FFD0021D002C2967B0027
:03100400BB080026
:0C100700505C9000D7C002C003C0211252
:0C10130010BCD021D003D0028BF005F0FF
:03101F00EA800262
:02102200C313F6
:0C102400D5F0FB5401FCBC0104C20A80A2
:0110300002BD
:02103100D20AE1
:0C103300308FFDA20A9296900064C0026B
:08103F00C003C0211210BCD057
:0910470021D003D002200A0BB2F3
:03105000087C0514
:05105300209402D20907
:02105800DCF9C1
:03105A0020090862
:08105D00308FFDC2960B809F4D
:0910650020091A9000D4C02112E8
:05106E001087D021A253
:0910730008929690005FC0211262
:06107C001087D021C2968E
:05108200C28EA209224C
:0E108700AA82AB83C28E74FFC39AFA74FF9BD9
:09109500FB8B8D8A8BC28FD28E79
:06109E00308FFDC28E221E
:0E10A400AA82AB83C28C74FFC39AFA74FF9BBE
:0A10B200FB8B8C8A8AC28DD28C223F
:0E10BC00AA82AB83C28E74FFC39AFA74FF9BA4
:0A10CA00FB8B8D8A8BC28FD28E2221
:0E10D40075950075911475924CC29675891130
:0E10E200758F00C28CC28E75D20E75D3A075AC
:0C10F000D161C20275A80075E800C2AB17
:0E10FC00C2A8D2AAD2AF75B80C75B70C75F8A1
:07110A000075F700D28A22F4
:0C111100C021C0E0C0F0C082C083C0025A
:0E111D00C003C004C005C006C007C000C0016A
:0D112B00C0D075D000C2AAC2AB90127012E5
:0911380010BC74FFB57E028003B7
:0311410002125245
:05114400300406857D6A
:041149000B02125B28
:0A114D0074C3556CFAE569FB7034B9
:0C115700E56A7030901C60E493FC20E01E
:041163000302125B16
:0B116700EA700C74C0B56D07C00212E6
:0411720014EBD002A8
:05117600BA0102800334
:03117B0002125B02
:07117E00E56D600302125B46
:0611850012150202125BCC
:08118B00E56B30E70302123BA3
:0C119300901D17E493FCEBB504028003F0
:03119F0002125BDE
:0B11A200901D18E493FBB56A02800367
:0311AD0002125BD0
:0511B000BA4202801E9E
:0511B500BA4302803581
:0511BA00BA800280492B
:0511BF00BA8102805915
:0611C400BAC20302123161
:0611CA00BAC30302123655
:0311D00002125BAD
:0A11D300D20574C0556DFBBB80030C
:0311DD0012146980
:0911E000E56D54C0600302125BCE
:0611E90012140D02125B5E
:0811EF00D2057480B56D0912F0
:0611F70010D41217811252
:0211FD000D459E
:0911FF00E56D70581213F28053E3
:06120800200350D205D2C4
:03120E00038567EE
:03121100088568E5
:051214000912137475BE
:041219000A01803E08
:06121D00E567B50839E5A4
:0512230068B50934105C
:041228000302802F0E
:05122C00750A01802A93
:0512310012137480257A
:0512360012137480207A
:0C123B00EA701D74C0556DFABA800312F1
:0212470003B9E9
:09124900E56D700E1203BA800974
:09125200E57D24FE500312138710
:0A125B00757D00C28BD2AA200405A5
:05126500C28E757E0041
:0E126A00D0D0D001D000D007D006D005D004DF
:0D127800D003D002D083D082D0F0D0E0D0DF
:02128500213214
:061287007A007B00C208A2
:0A128D003094070ABA00200B801D00
:0C129700C002C003C021120ECEAC82D0F9
:0A12A30021D003D002BCCC093001B9
:0712AD0006D2087AB87B0BA2
:0C12B400C3EA94B8EB940B40D0A20822CF
:0912C000C00C85810C05817A0047
:0A12C9007B00A80C08740F556BF6AB
:0E12D30090495CC002C0031210BCD003D002D0
:0E12E100208F132094FA90495CC002C00312C3
:0812EF0010BCD003D00280EA1C
:0412F700C28E7D0026
:0C12FB00C002A80C0886067F0074062EB6
:0E130700FEE43FFF8D027C00C3EE9AEF64808F
:0D1315008CF063F08095F0D002402DED24A7
:0B13220066F88682C002C003C00512FE
:0C132D000FEAD005D003ED2466F8E6625C
:0E133900039004CEC003C005121087D005D06B
:0613470003D0020D80AE90
:0E134D00EBF4F582C002120FEA121287D002F2
:04135B0050027A03BF
:0A135F000A74DF5566F566EA24FC07
:0513690040030212C95F
:06136E00850C81D00C2269
:06137400208F03208EFA19
:0D137A007582CC120FEAC28EC28FC2AB2268
:06138700208F03208EFA06
:0D138D0075820C120FEAC28EC28FC2AB2215
:0C139A00C2AA7566B0901D17E493FA8A91
:0813A60067901D18E493FA8A18
:0313AE0068850847
:0313B10069850942
:0513B4006A756B607515
:0A13B9006C811212C0C28BD2AAC2CE
:0213C300032203
:0613C5007566B0AA678AFC
:0413CB0069AA688A19
:0813CF006A901D17E493FA8AED
:0813D70067901D18E493FA8AE7
:0713DF0068756B6074C045E6
:0813E6006CFA8A6C74FE5AF5E2
:0413EE006C0212C0BB
:0713F2001213741213C575FC
:0613F90066B0756B637520
:0613FF006C43756D4075A2
:061405006E00756F12027B
:02140B0012C00D
:08140D00121374AA6DC0021253
:0614150013C5D0027B00AC
:0C141B00C3EB9A5027E56E7011740A2B89
:071427002466F8EB256F902D
:07142E001C0093FCF6800F87
:0A143500740A2B2466F8EB256F9073
:05143F001D0093FCF606
:031444000B80D446
:091447007566B074632AF56BE5CB
:0A1450000A250A25E0FB74424BF563
:07145A006C74404AF56D12AD
:0514610012C0050A5352
:031466000A0F2248
:0A146900C00C85810C05810581127D
:0A1473001374740F556DFAC00212D5
:0C147D0013C5D00275E4007401556E2404
:061489001CFBAC6F7D00AE
:0E148F00C3ED9A504E8BE7ED2CF5E6740A2D56
:0A149D002466F886E58C067F00A89F
:0A14A7000C08A605087600A80C0842
:0E14B100E62EFE08E63F53063F7F00BE3F20BA
:0C14BF00BF001D8A067F001EBEFF011F3B
:0C14CB00A80C08E6B5060708E6B5070205
:0214D70080068D
:0614D90075E46875E400F3
:0314DF000D80ADD0
:0914E20075E468850C81D00C2230
:0C14EB00C2AF75E40075E71D75E61785BB
:0A14F7006EE5856FE575E468D2AF7D
:0115010022C7
:071502001213747566B0902E
:081509001D17E493FA8A6790B4
:081511001D18E493FA8A6875C5
:061519006900756A00750F
:06151F006BE1756C017523
:051525006D400212C040
:0E152A00AA82901D12E493FB0B0B0BEA75F0E6
:0C15380003A42BF58275831DE493F5825B
:011544002284
:0E154500AA827BFE901D11E493FC2402FDEAB5
:0E1553002AFE2D901D0093FDB50209EC042E1A
:06156100901D0093FAFB4F
:05156700BBFE02801F25
:0E156C00EB2BFB2417901D0093FA74182B90A4
:0E157A001D0093FB7C008A05E42BFBED3CFC7E
:03158800FA8004E2
:04158B007B007A0067
:05158F008B828A83221B
:08159400C00C85810CAA8290B5
:0B159C001D16E493FB7CFF602B7D011B
:0E15A700C3EB9D4024ED2DFE2417901D0093F4
:0E15B500FFEAB5071374182E901D0093FEA8D0
:0A15C3000C181818E6B506028D0496
:0315CD000D80D7B7
:0515D0008C82D00C220A
:0A15D500C00C85810C0581AA827B01
:0C15DF00FFC003A80C181818E6C0E08A32
:0E15EB0082121594AA821581D003901D11E47E
:0B15F90093FCF58275831DE493FDA8B0
:091604000C08A605BAFF028034AF
:07160D0074022CFE0C7F00AB
:0C161400BBFF2AA80C08C3EF965022C0B0
:0E16200006EF2FFD2C901D0093FEEAB506028A
:02162E00800436
:04163000D006800A56
:0A163400D006ED2E901D0093FDFB83
:03163E000F80D347
:081641008B82850C81D00C2284
:0D164900AA827BFF7CFFEA75F003A4FD90F0
:0C1656001D12E493FE2D2404F582E43400
:0C1662001DF583E493FFC3EE9A403DEDBC
:0A166E002E2402F582E4341DF583FA
:06167800E493FABF080034
:0C167E00500B8A8275831CE493FDFB7CFA
:01168A00005F
:0C168B00BF081C8A8275831CE493FE7D5E
:0E16970000EA04901C0093FA7F002DFDEF3E48
:0516A500FE8D038E0420
:0516AA008B828C8322FD
:0E16AF00AA827BFF901D12E493FCC39A4013A5
:0C16BD00EA75F003A42C2404F582E43448
:0716C9001DF583E493FAFB19
:0316D0008B8222E8
:0816D300C00C85810CAA82C243
:0C16DB0008EA75F003A4FB901D12E493D4
:0A16E700FC2B2404F582E4341DF509
:0C16F10083E493FDC3EC9A500302177CC5
:0A16FD00EB2C2402F582E4341DF505
:0717070083E493FABD080022
:02170E00504148
:0C17100020083E75E40075E71C8AE68D99
:0E171C00037C007407C39BFBE49CFC8BF00570
:05172A00F074FF8002D5
:02172F00C313E2
:0C173100D5F0FBFB7C00E50C24FCF8E686
:0E173D00520308E652048BE575E468E5E420EB
:06174B00E0C3D20880BFDC
:0B175100BD0828E50C24FCF808860306
:0C175C0020081D75E40075E71C8AE68B70
:0C176800E5E50C24FCF886E575E468E576
:08177400E420E0E4D20880E06B
:05177C00A208D00C22C0
:0E178100C2AF75E40075E71C75E66075E50003
:0A178F0075E468D2AF750A01C203C9
:07179900757D00750B00C215
:0217A000042221
:06005200E478FFF6D8FD82
:080030007900E94400601B7A2D
:05003800009017C878DC
:03003D000075A0AB
:0A00400000E493F2A308B8000205E3
:08004A00A0D9F4DAF275A0FF61
:0E17A20074FE2581F8E68582F0A4C0E0858201
:0E17B000F018E6A4F582D0E025F0C58386F09F
:0617BE00A42583F583223F
:080058007800E84400600A7919
:030060000075A088
:0600630000E4F309D8FCE3
:080069007800E84400600C7906
:0B00710000900000E4F0A3D8FCD9FAD6
:0300230075817E66
:0A0026001217C4E582600302001EF9
:0417C4007582002208
:00000001FF
