:01007F00225E
:0A008000AF8274402FF5820217844E
:0A008A00C01BE581F51B2404F5817D
:05009400AF82BF08006F
:0E00990050318F82C007120112AD82AE83D0AB
:0C00A70007A81B08A60508A6060876009E
:0E00B300087600EF2FFA24CEF9EA24EEF88644
:0B00C10002088606A70209A70680308F
:0E00CC007E00EF24F8FFEE34FF8FF005F0AF5A
:0500DA0017AE188007BD
:0700DF00C3EE13FEEF13FF57
:0C00E600D5F0F65307017E00A81B08A609
:0A00F2000708A6060876000876004D
:0C00FC00A81B0886820886830886F0088E
:07010800E6851B81D01B22DC
:03010F0002178450
:0E011200E5822582FF24EEF9870509E7FEC489
:0E01200023CDC423541F6DCD541FCD6DCD30A3
:04012E00E40244E0C3
:0E013200FE53060774182EFEEF24EEF9870424
:0E01400009E7FF30E70C8D048E0774802FFF57
:04014E008C058F0687
:050152008D828E832266
:0A015700C01BE581F51B2406F581AD
:0C016100AF82C210530703EF901B5893AD
:0A016D00FE55196063EEF45219D23A
:0C01770010901DB2E493FEEF75F002A49E
:07018300F5F005F0EE80022B
:02018A00C3139D
:0C018C00D5F0FBFEE51B2406F874035EB2
:0C019800F6E51B2406F8B6010A74082FD7
:0701A4002408F87680802A90
:0C01AB00E51B2406F8B6021274082F248D
:0C01B70008F9901DB1E493FD74804DF731
:0201C3008010AA
:0A01C50074082F2408F974E3252CB8
:0601CF00901D0093FDF7F6
:0C01D50074D72F901D0093FDE51B24043F
:0E01E100F8EDC313F6EF75F003A4FCEF2FFF4B
:0201EF007B0093
:0301F100BB03004D
:0501F40040030203C9F5
:0801F900C211C212EC2BFAE561
:0A0201001B2406F8A602E51B2404E6
:0C020B00F87401562FFAE51B2405F8A634
:0E02170002C004EBC3132F24DB901D0093FCE8
:0E02250074015B75F004A4F5F005F0EC8002A6
:02023300C313F3
:0C023500D5F0FBFCE51B2403F8740F5C03
:0C024100F6E51B2406F8E625E0FC24E7A7
:0E024D00901D0093FD7A0074E82C901D009324
:0E025B00FC7E004202EE4205C007C004C00354
:0C026900C022C002C00590000A121B3227
:0C027500AD82AE8315811581D022D0032C
:0C028100D004D007A81B08A60508A6069C
:0C028D00E51B2405F8E625E024DEF987D7
:0C0299000509870619A81B08C3ED96EEA6
:0E02A50064800886F063F08095F0D00440037A
:0302B30030103ECA
:0C02B600E51B2405F8E625E024EEF9879E
:0C02C2000509870619A81B08C3E69D0863
:0D02CE00E664808EF063F08095F0501AE534
:0A02DB001B2403F8E630E311E51BD5
:0C02E5002403F8E603035401FE24FF92FA
:0302F10011D21215
:0C02F400E51B2405F8E625E0FE24DEF9F9
:0C030000870209870519A81B08C3E69AAC
:0E030C0008E664808DF063F08095F0400330C9
:02031A0010359C
:0C031C00EE24EEF9870209870519A81BE2
:0E03280008C3EA96ED64800886F063F08095C5
:0C033600F05018E51B2403F8E630E10F3E
:0C034200E51B2403F8E65401FD24FF92A3
:03034E0011D212B7
:07035100301266301114E5C3
:0C0358001B2406F8E6901B5893FD7A0069
:070364004217EA421880175E
:0C036B00E51B2406F8E6901B58937A006E
:0A037700F4FDEAF4FAED5217EA5221
:010381001863
:0A038200201021E51B2406F8740882
:0C038C0026F582C007C006C004C003C0F4
:0503980022121784D0C1
:09039D0022D003D004D006D007E1
:0E03A600EE24DEF9EE24EEF886050886061831
:0603B400A70509A70619C8
:0C03BA00E51B2404F8E60303543FF60B97
:0303C6000201F140
:0603C900851B81D01B2200
:0E03CF00AF8253070774C32F901D0093FE30BA
:0E03DD00E748747F5E75F00AA4FDAEF0EF2FC6
:0E03EB00FC24CEF98702098703EC24EEF9C04A
:0E03F900078704098707EAC39CFAEB9FFB8A7B
:0E040700828B83C006C005121B25AC82AF831A
:0E041500D005D006C3ED9CEE9FD00750058F9A
:040423008202010F41
:0104270022B2
:0D04280075D16075D20E75D3A075D1610538
:0604350015E4B5150205F7
:01043B0016AA
:0A043C00E51524FFFEE51634FFFF6E
:0B044600EEF4FEEFF4FFE5155206E5B2
:050451001652077D00BA
:03045600BD1000D6
:080459005032EE30E0247C007B
:03046100BC0D00CF
:0E046400501DEC24BCF9870353030FEBB505C4
:0C0472000DEC2408F9E7FB247F5003EB9D
:02047E0014F771
:030480000C80DE0F
:0A048300EFC313CE13CEFF0D80C9A6
:02048D007F00EE
:0C048F00EF24F4405BEF2408F98706BE60
:0E049B00804FEF24F8401374CB2F901D009378
:0C04A900F78F82C00712010FD0078037C8
:0E04B500EF24F875F003A42408FEF582C007BA
:0E04C300C006121784D006EE04F582C00612A1
:0E04D1001784D00674022EF582121784D0070D
:0C04DF00EF2408F974DB2F901D0093FE41
:0104EB00F719
:0304EC000F80A0DE
:0904EF007480B5140575140005B4
:0104F8001AE9
:0104F90022E0
:0E04FA00758400758500AF915307FC8F91AF9C
:0B050800925307FC8F9275190F7F00C3
:0E051300EF24F84066EF2FFE24EEF876000885
:0E0521007600EE24DEF87600087600EE24CE9A
:0E052F00F87600087600EF24BCF9EFC313FE47
:0E053D0024D3901D0093FD74015F75F004A49B
:07054B00F5F005F0ED800260
:02055200C313D1
:0E055400D5F0FB540FF774B32E901D0093FEEC
:0B05620030E708EF2408F8A606800D23
:0C056D00EF2408F974CB2F901D0093FEC2
:01057900F78A
:04057A000F02051354
:03057E00752C00D9
:0A058100E52C24FC40497408252CE9
:0A058B00FF24BCF9E52C252C24DC2C
:0C059500901D0093C4540FF7EF2408F8E9
:0D05A1007600C2AF1208E4501975823312C3
:0D05AE000988758208120ABBE5827010E50D
:0805BB002C24CAF9A7238007D4
:0705C300E52C24CAF87600C4
:0605CA00D2AF052C80B148
:0A05D00078C87600751A01E4F52CD6
:0805DA00F515F51675D181221B
:0400000002002332A5
:01000B0032C2
:03001300021107D0
:03001B0002113798
:03007C0002001E61
:05001E001205E280FE66
:0C05E2007F00C2107584FF7585FFC00704
:0605EE00C022121AD8D051
:0705F40022D007C2977E0030
:0305FB00BE32000D
:0E05FE00501AC28C901D17E493F58C901D18B6
:08060C00E493F58AC28DD28C43
:06061400308DFD0E80E1B7
:0E061A0075C1FFC2AF75A7E575C2A575C35ABD
:0E062800D2AFC2AF43A70475C2A575C35AD2A4
:09063600AFC007C0221204FAD083
:03063F0022D007BF
:0E064200C2AF75C2A575C35AD2AF748025D160
:0A065000501E300D1B75D161E561ED
:08065A00249140040561800EAB
:0B066200758285C007C022121784D0EB
:03066D0022D00791
:0B067000901D0DE493FEBEFF0280030E
:03067B00020877FB
:06067E00300D03020877B5
:08068400E56030E00302087795
:0B068C00748025D1500BC007C0221263
:060697000428D022D00768
:0C069D0074B7252C901D0093FE7401B56D
:0506A9001A56752C003B
:0A06AE00E52C24FC404774B7252C0E
:0B06B800901D0093FD30E037C201E50B
:0A06C3002C24CAF9E76022C007C02A
:0506CD0022120D43D0D4
:0906D20022D007501520011DE59E
:0506DB002C24CAF9E522
:0A06E0002C24CAF8860574804DF73B
:0206EA00800B83
:0506EC00E52C252C9017
:0606F1001B5893FD422D91
:0406F700052C80B39B
:0606FB00751A02020877E7
:090701007402B51A0C7514877519
:06070A002C00751A030229
:02071000087768
:070712007404B51A02800314
:030719000207A52F
:0A071C00EE30E064E52C24CAF987F2
:0C07260082C007C022120D58AC82AD83C7
:0C073200D022D007C374209C746A8DF0A4
:0A073E0063F08095F05046E52C258D
:0A0748002CFB25E024EEF974BB2B16
:0E075200901D0093FB3395E0FAEB2CFCEA3D82
:0C076000FDA70409A70519852C82C0071D
:06076C00C022120157D06B
:0407720022E52C252B
:060776002CF582C02212E6
:08077C0003CFD022D007800753
:07078400EE30E103751409DA
:09078B00052CE52C24FC400302BE
:020794000877E4
:0707960074804514F5147591
:06079D002C00751A050294
:0207A3000877D5
:0707A5007406B51A0280037F
:0307AC0002086DD3
:0707AF00EE20E103020860E7
:0C07B600EE30E212852C82C007C006C0A5
:0507C20022120E8CD094
:0507C70022D006D0075E
:0607CC00E52C24CAF985AA
:0A07D2002C82C007C006C001C0223F
:0C07DC00121009E582D022D001D006F7EF
:0B07E80074045EF582C022120E9BD04C
:0407F30022E52C25AA
:0A07F7002CFE25E024EEF974BB2E61
:0C080100901D0093FD3395E0FCED252ECA
:0C080D00FDEC352FFCA70509A70419EE2F
:0C0819000425E024EEF974BC2E901D00B4
:0C08250093FE3395E0FDEE2530FEED352E
:0A08310031FDA70609A70519852C63
:07083B0082C022120157D018
:0408420022E52C255A
:060846002CF582C0221215
:05084C0003CFD022E5FE
:070851002C252C04F582C0E8
:05085800221203CFD0C5
:03085D0022D0079F
:09086000052CE52C24FC500F7559
:040869001A01800AE6
:06086D00E51A24F9500415
:04087300C29780FCAC
:0608770020060330070F0C
:07087D00C207C007C02212F0
:0808840017D7D022D007800A2B
:02088C007E6488
:08088E008E051D8D06EE70F8C9
:08089600D297209712BF7F00EA
:05089E0050030F801261
:0608A300201003636081D8
:0408A900D2108008E1
:0608AD00EF60031F800252
:0208B300C21071
:0808B500E5605401FEB40100EE
:0A08BD00E433FE24FF929702064286
:021D0300004C92
:021D0500B00329
:011D0C0000D6
:011D0D00FFD6
:021D1700FFFFCC
:0E08C700AE82AF83C28C74FFC39EFE74FF9F8F
:0908D500FF8F8C8E8AC28DD28C3B
:0608DE00308DFDC28C22EA
:0908E400D210E52C24FC500302A3
:0208ED0009837D
:0508EF00E52C252C257D
:0508F4002C9008F973CF
:0708F90002090502092502B6
:05090000094502096534
:0B090500C2809009C4C0221208C7D0B5
:0509100022D2807FFFF0
:0A091500A280821092108F061E8E41
:06091F0007EF70F2805E9C
:0B092500C2819009C4C0221208C7D094
:0509300022D2817FFFCF
:0A093500A281821092108F061E8E20
:06093F0007EF70F2803E9C
:0B094500C2829009C4C0221208C7D073
:0509500022D2827FFFAE
:0A095500A282821092108F061E8EFF
:06095F0007EF70F2801E9C
:0B096500C2839009C4C0221208C7D052
:0509700022D2837FFF8D
:0A097500A283821092108F061E8EDE
:04097F0007EF70F21C
:05098300B210A21022D9
:0B098800AF82E52C24FC5003020AACF7
:05099300E52C252C25D8
:050998002C90099D7385
:07099D000209A90209EA02A8
:0509A4000A2B020A6CA1
:0209A9007E01CD
:0609AB00BE0003020AACCD
:0609B100EE5F601E7D00F8
:0309B700BD02007E
:0709BA005005C2800D80F61C
:0E09C100D280900104C007C0061208C7D006FD
:0409CF00D0078012BB
:0E09D300C280900118C007C0061208C7D006E7
:0409E100D007D280E9
:0509E500EE2EFE80C1B2
:0209EA007E018C
:0609EC00BE0003020AAC8C
:0609F200EE5F601E7D00B7
:0309F800BD02003D
:0709FB005005C2810D80F6DA
:0E0A0200D281900104C007C0061208C7D006BA
:040A1000D007801279
:0E0A1400C281900118C007C0061208C7D006A4
:040A2200D007D281A6
:050A2600EE2EFE80C170
:020A2B007E014A
:060A2D00BE0003020AAC4A
:060A3300EE5F601E7D0075
:030A3900BD0200FB
:070A3C005005C2820D80F697
:0E0A4300D282900104C007C0061208C7D00678
:040A5100D007801238
:0E0A5500C282900118C007C0061208C7D00662
:040A6300D007D28264
:050A6700EE2EFE80C12F
:020A6C007E0109
:050A6E00BE000280390A
:060A7300EE5F601E7D0035
:030A7900BD0200BB
:070A7C005005C2830D80F656
:0E0A8300D283900104C007C0061208C7D00637
:040A9100D0078012F8
:0E0A9500C283900118C007C0061208C7D00621
:040AA300D007D28323
:050AA700EE2EFE80C2EE
:060AAC0030010BE52C25D2
:070AB2002C901B5893FF423A
:010AB9002D0F
:010ABA002219
:060ABB00AF827E007D0009
:080AC100C3ED9F4003020C7E0F
:0A0AC9007C00C201E52C24FC500360
:030AD300020C3FD3
:050AD600E52C252C2594
:050ADB002C900AE073FD
:070AE000020AEC020B4102C7
:050AE7000B96020BEB71
:020AEC007B018C
:060AEE00BB0003020C3FF7
:020AF4007A0086
:030AF600BA020041
:070AF9005005C2800A80F6DF
:0E0B0000D280900001C007C006C005C004C02E
:0E0B0E00031208C7D003D004D005D006D007CC
:060B1C00308003EB4204EF
:0E0B220090008CC007C006C005C004C00312BE
:0E0B300008C7D003D004D005D006D007EB2BA9
:030B3E00FB80AD8C
:020B41007B0136
:060B4300BB0003020C3FA1
:020B49007A0030
:030B4B00BA0200EB
:070B4E005005C2810A80F688
:0E0B5500D281900001C007C006C005C004C0D8
:0E0B6300031208C7D003D004D005D006D00777
:060B7100308103EB420499
:0E0B770090008CC007C006C005C004C0031269
:0E0B850008C7D003D004D005D006D007EB2B54
:030B9300FB80AD37
:020B96007B01E1
:060B9800BB0003020C3F4C
:020B9E007A00DB
:030BA000BA020096
:070BA3005005C2820A80F632
:0E0BAA00D282900001C007C006C005C004C082
:0E0BB800031208C7D003D004D005D006D00722
:060BC600308203EB420443
:0E0BCC0090008CC007C006C005C004C0031214
:0E0BDA0008C7D003D004D005D006D007EB2BFF
:030BE800FB80ADE2
:020BEB007B018C
:050BED00BB0002804D79
:020BF2007A0087
:030BF400BA020042
:070BF7005005C2830A80F6DD
:0E0BFE00D283900001C007C006C005C004C02D
:0E0C0C00031208C7D003D004D005D006D007CD
:060C1A00308303EB4204ED
:0E0C200090008CC007C006C005C004C00312BF
:0E0C2E0008C7D003D004D005D006D007EB2BAA
:030C3C00FB80AE8C
:060C3F0030010EE52C253A
:060C45002C901B589342A5
:050C4B002D7582FF225F
:050C5000EC62067B00D0
:030C5500BB0800D9
:0E0C58005015EE30E00AEEC313FA748C6AFEFB
:020C6600800408
:040C6800EEC313FEC6
:030C6C000B80E614
:030C6F00BD0900BC
:080C72005006ED2423F8A6044E
:040C7A000D020AC19C
:090C7E00EE600CE52C252C04901D
:060C87001B5893FF422DF3
:030C8D008E822232
:090C9000C210E52C24FC50030203
:020C99000D400C
:050C9B00E52C252C25CD
:050CA0002C900CA5736F
:070CA500020CB1020CD602A3
:050CAC000CFA020D1E10
:020CB1007F00C2
:030CB300BF02007D
:070CB6005005C2800F80F61B
:0C0CBD00D2809000011208C7A2809210A3
:090CC90090008CC0221208C7D073
:040CD20022020D40AD
:020CD6007F009D
:030CD800BF020058
:070CDB005005C2810F80F6F5
:0C0CE200D2819000011208C7A28192107C
:090CEE0090008CC0221208C7D04E
:030CF70022804612
:020CFA007F0079
:030CFC00BF020034
:070CFF005005C2820F80F6D0
:0C0D0600D2829000011208C7A282921055
:090D120090008CC0221208C7D029
:030D1B0022802211
:020D1E007F0054
:030D2000BF02000F
:070D23005005C2830F80F6AA
:0C0D2A00D2839000011208C7A28392102F
:090D360090008CC0221208C7D005
:010D3F002291
:030D4000A21022DC
:0E0D43001208E4500E7582CC120988758244A5
:050D5100120988D32205
:020D5600C322B6
:0A0D5800C01B85811B05810581AFDA
:0A0D620082E52C252CFE8EF005F032
:040D6C00740380028A
:020D700025E07C
:080D7200D5F0FBF4522D7E00C8
:030D7A00BE0200B6
:050D7D004003020E839B
:0E0D8200C007C0061208E4D006D007400302E6
:020D90000E7FD4
:0C0D9200C2017582CCC007C0061209889F
:0C0D9E007582BE120988D006D007300113
:040DAA0003020E7FB3
:0E0DAE00758209C007120ABBE582D0077007E4
:070DBC007410B52A02800645
:060DC30090E890020E868C
:090DC900AD23AC24E4BF100104C9
:0E0DD200FB601B5304F8EDC40354072CFCED2A
:0C0DE000C40354F8FD5305F07410C395D3
:040DEC0029FA2DFDB6
:0E0DF000C00374805CFF8C038B047B008D02BB
:0C0DFE007D00EA2BFBED3CFCA81B08A6C6
:0C0E0A000308A604D003EF600BA81B082F
:080E1600C3E496F608E496F629
:0C0E1E00C007C003A81B08E6C0E008E6FF
:0E0E2A00C0E0900006121B32AC82AD83158131
:0C0E38001581D003D0078D06A81B080808
:0E0E4400E618C313C613C6C313C613C608F6BA
:0C0E52008C028E05A81B08E62AFA08E6B0
:0E0E5E003DFD8A048D06EB6008EC24E7FCEEF7
:030E6C0034FFFE52
:0A0E6F00EF6007C3E49CFCE49EFE64
:060E79008C828E838007CD
:040E7F000E020D7AD8
:030E830090E82CC8
:060E8600851B81D01B2238
:0D0E8C00E582901B5893F4528090F61802F6
:020E990008C788
:0A0E9B00C01B85811BC082E5812485
:0A0EA50008F581D210A81B0808A66A
:0A0EAF0023A81B080886047D00AA92
:0A0EB900247B00EA2CFEEB3DFFE570
:070EC3001B2403F8A625E53E
:0A0ECA001B2403F8E51B2404F9E6DD
:0C0ED400F7097700E51B2404F8E62EFE69
:0A0EE00008E63FFFE51B2406F8A614
:0A0EEA0026087600E51B2406F8E652
:0C0EF4002EFE08E63FE51B2408F8A606C9
:0A0F0000087600AE277F00E51B24F1
:0D0F0A0008F8E6B5060708E6B50702800303
:030F1700021001C4
:080F1A00A81B08B6000280527A
:080F2200A81B08B601028003C0
:030F2A00020FFFB4
:0A0F2D00A81B0808E675F064A4F59F
:050F37003085F031E5FA
:0A0F3C001B2403F8E630E71EE51B56
:0E0F46002403F8747F5675F064A4F42401C5EA
:0A0F5400F0F43400C5F0F52E85F02E
:040F5E002F0210014D
:0B0F6200E51B2403F8E675F064A4F51D
:050F6D002E85F02F02AB
:020F720010016C
:0C0F74008C057C00EA2CFAEB3DFBC0224F
:0C0F8000C002C00390000A121B328582E0
:090F8C003085833115811581D0F7
:0A0F950022E51B2403F8E630E731E3
:0C0F9F00E51B2403F8747F56FE7F00E57C
:0C0FAB001B2406F8E62FFF08E63EFEC0FF
:0C0FB70022C007C00690000A121B328501
:0A0FC300822E85832F15811581D041
:030FCD002280314E
:0A0FD000E51B2404F886077E00E507
:0C0FDA001B2406F8E62EFE08E63FFFC0D0
:0C0FE60022C006C00790000A121B3285D2
:0A0FF200822E85832F15811581D012
:030FFC002280024E
:020FFF00C2101E
:06100100A210851B81D046
:021007001B22AA
:0E100900E582FF901B5893F452809011F8C0BE
:0E101700071208C7D007EF901B5893FF4280C6
:021025007E004B
:0E102700EF5580600A0EEE249B50F575820195
:011035002298
:021036007E003A
:0E103800EF5580700A0EEE249B50F575820273
:011046002287
:021047007E0029
:03104900BE2800BE
:05104C0040030210CB7F
:021051007D0020
:0E105300EF5580600A0DED249B50F575820369
:01106100226C
:021062007D000F
:0E106400EF5580700A0DED249B50F575820447
:01107200225B
:021073007D10EE
:0E1075008D041C8C05ED70F8EF55806023EEA5
:0C108300C423541F2423F9870574075E62
:0C108F00D39407F4F5F005F07401800222
:02109B0025E04E
:08109D00D5F0FBFC4DF78022A9
:0C10A500EEC423541F2423F987057407B0
:0D10B1005ED39407F4F5F005F074018002A1
:0210BE0025E02B
:0710C000D5F0FBF4FC5DF725
:0410C7000E021049BC
:0410CB007E007D0026
:0310CF00BD02005F
:0610D200502F7C007B00A2
:0E10D800EF558060120BEBFC249B50F4EE6091
:0510E6000475820022E8
:0410EB0075820522E3
:0E10EF00EF5580700A0CEC249B50F5758206BC
:0110FD0022D0
:0510FE000D8D0680CC01
:0411030075820722C8
:081B5800010204081020408086
:0E110700C0E0C0D0C2AAC28E740F5589242049
:0E111500F589758B35758D80C28FD28ED2AB69
:06112300755C02C202D25D
:0511290000755B00757C
:09112E005A00D201D0D0D0E03209
:0C113700C022C0E0C0F0C082C083C0072E
:0E114300C006C005C004C003C002C001C00049
:0A115100C0D075D000C01BE581F589
:0A115B001B2404F581E55CFF24F17C
:05116500500302169A80
:07116A00EF2F2F90117173AC
:0711710002119E02169A0212
:0611780014340214F4021D
:06117E0014FD02158702BA
:06118400169A02169A0201
:06118A00169A02169A02FB
:0611900015A90216110270
:06119600169A0216350254
:02119C001683B8
:0E119E00C28E740F55892420F589758B8075DB
:0A11AC008D80C28FD28EE55EB55F24
:0411B6000302142DEF
:0811BA00E55F2450F98707C22C
:0C11C200107DFE7E00EFA2E5E433FC246B
:0611CE00FF9211BF80003A
:0511D4004003021301BD
:0C11D900C005C006EF2323540124FF9240
:0B11E5001253071F8F82C007C005C017
:0C11F0002212008AAA82AB83ACF0FED071
:0A11FC0022D005D007A81B08A602A8
:0E12060008A60308A60408A606901D11E4938E
:0E121400FE0EEF2FFD2EFC04901D0093FEB584
:041222000702800639
:06122600D006D005800F88
:0E122C00D006D0058C8275831DE493FCFD7EF8
:01123A0000B3
:09123B00BDFE06BE00030213DC37
:0A1244007539BC901D17E493FC8C73
:0A124E003A901D18E493FC8C3BED70
:0C1258002DFD2417901D0093FE8E3C74A9
:0A126400182D901D0093FE8E3D75BD
:06126E003F00301205757F
:041274004040800373
:031278007540803E
:0E127B00901D12E4932F2FFE2F2404901D00CF
:0C12890093FE24F95006EE24FBFE8002C8
:021295007E01D8
:0C12970074E02EF53EEE24FE500F7406AD
:0A12A3002E2439F9A81B088605A7C0
:0312AD00058010A9
:0C12B000A81B08743F56FAE4FBFCFDEAA2
:0412BC002540F54094
:0C12C000EE24FD500E74052E2439F9A810
:0712CC001B08088605A705B9
:0C12D300EE24FC500F74042E2439F9A8FE
:0812DF001B0808088605A7059D
:0C12E700EE24FB501074032E2439F9A8EB
:0912F3001B080808088606A7067E
:0512FC00D2100213DC1A
:0A1301007539B0901D17E493FE8EBD
:0A130B003A901D18E493FE8E3B8516
:03131500323C85E2
:0A131800333D53071FEF24FA500382
:031322000213DAD9
:07132500EF2F2F90132C7332
:07132C000213DA02133E0276
:06133300134A02136102DF
:0513390013720213D243
:08133E00753E6074C22538F50C
:041346003F0213DA75
:08134A00753E6374432534F580
:051352003F75404075ED
:061357004100754212D2B4
:04135D000E0213DA8F
:07136100753C00753D0075AD
:061368003EE1753F017536
:04136E004040806813
:021372007F00FA
:0A137400C3EF9535503CE5367026B6
:0A137E00740A2F2439F87600AD3709
:0E1388007E008F037C00EB2DFDEC3EFEBD6071
:0B1396001CBE0019740A2F2439F8A6B1
:0313A10060800F5A
:0A13A400740A2F2439F9EF25379061
:0513AE001D0093FEF795
:0313B3000F80BEEA
:0913B60074632535F53E744245CF
:0613BF0034F53F744045C7
:0413C50035F5408535
:0313C90036418525
:0313CC003742D2D3
:0313CF000E800885
:0713D200753E60753F81C20A
:0113D9000D06
:0213DA00D2102F
:0813DC0030110674DF5539F5EC
:0113E40039CF
:0A13E50030103DC2AAE55C7032E54D
:0A13EF005F2450F9E7FF20E50774C2
:0613F900204FF7755D00B6
:0B13FF0074FC255D40051216EC801602
:06140A00055F535F07C2FD
:041410000AC20E12EC
:0C14140016BEC28E758DF0758B00D28E56
:05142000D2AA02169A99
:06142500055F535F0702A2
:02142B00169A0F
:07142D00C28ED2AA02169A3A
:0A143400A28BB39210C28B755C030B
:0A143E00758D00E55B700A755B0117
:05144800C203C2040212
:02144D00169AED
:0A144F00747F255B401C301008B2CA
:0414590002E55B2528
:03145D005AF55AE3
:05146000E55B255BF5D2
:061465005B600302169A11
:06146B00755B8102169A78
:0A147100C28EC28FA202201001B348
:0A147B00502CE558700E74CCB55AE1
:0314850002D2038D
:07148800740CB55A02D204F6
:07148F00200319200416E5FB
:081496005824E94010E5582438
:06149E0039F8E55AF66280
:0514A40059055880020B
:0214A900C2007F
:0514AB00100A02801D83
:0714B0003003143000117538
:0714B7005D04100E02800924
:0714BE00E5342404F534536A
:0214C500343CB5
:0614C7001216BE02169A87
:0714CD0030001E20031B206C
:0C14D4000418740F55892410F589758DDB
:0C14E000FA758B70D28E755C04D2AA02E3
:0214EC00169A4E
:0614EE001216BE02169A60
:0914F400758D80755C0202169AE8
:0614FD0020080302158126
:0C150300E55824F85078C28E740F55890A
:0D150F002410F589758DEF758B42D28EC2C8
:07151C0005E53E30E71F85E5
:051523003C82C03D12F6
:0B1528001736AF821581BFFF02800262
:02153300D205DF
:09153500E53C701CE53D7018D284
:03153E0005801411
:0C154100901D17E493FFB53C0B901D18A3
:08154D00E493FFB53D02D20555
:0A15550074FFB55921740F553EFFD5
:0C155F007E0074082FFFE43EFEAC587DB7
:0C156B0000EFB5040BEEB50507D20F3001
:041577000502D20691
:06157B00755C0502169AE2
:061581001216BE02169ACC
:09158700C28E300F1330050AD2A8
:051590000B1216ECC275
:041595000A02169A96
:061599001216BE02169AB4
:06159F00D20C1216ECC292
:0415A5000A02169A86
:0815A900E5582439F9870730E9
:0415B1000B027FCCDE
:0515B500300C027F0C68
:0915BA00C2AA740AB55C028003A8
:0315C30002169A73
:0A15C600E55B247F402CE55B5F70BD
:0915D00008D296C209B2028002A1
:0215D900D20935
:0815DB00E55B7007755B01C2BE
:0315E3000280067D
:0515E600E55B255BF54B
:0115EB005BA4
:0715EC00E55B7003755B81F4
:0515F300755C0B801384
:0915F800200206D296C20980020D
:02160100D2090C
:061603000558755B00753F
:021609005C0D76
:06160B00758D1202169A13
:0A161100E55870077401B55B02058F
:01161B005D71
:0A161C00C296A209828B5007C20A91
:051626001216BE800653
:06162B00755C0A758D6E6E
:04163100C28B806583
:0E163500C296C28E740F55892410F589758DEA
:0A164300FB758B90D28E200B033054
:02164D000C058A
:05164F001216BE802B05
:0C165400740F553EFF7E0074072FFFE46A
:0C1660003EFEAC587D00C3EF9CEE6480A1
:0C166C008DF063F08095F05007D207125B
:0416780016BE800317
:03167C00755C0E8C
:04167F00C28B801783
:0E168300C28E740F55892420F589758D6E7501
:091691008B80C28FD28E755C0AB9
:06169A00D201851B81D086
:0C16A0001BD0D0D000D001D002D003D06D
:0E16AC0004D005D006D007D083D082D0F0D075
:0416BA00E0D0223228
:0A16BE00755C00C28BC28EC2AB75D2
:0A16C8005900755800C28E740F55CA
:0C16D200892410F589758D89758BAFC2D5
:0A16DE000BC20CC28FD28ED2AAD22A
:0416E800ABC20F2260
:0E16EC00C28E740F55892420F589758D6E7598
:0C16FA008B80C28F740F553E2407FF75D3
:0417060059FF7E0009
:0C170A00C3EE9F500BEE2439F9E7FD629E
:04171600590E80F0F8
:07171A00EF2439F8A659C2C3
:0417210003C204D229
:051725000A755C0A7565
:0A172A005B00755800C2AAD28ED2EF
:02173400AB22E6
:0A173600C01B85811BAF827EFF906F
:081740001D16E493FDBDFF003E
:0E1748005035901D16E493602E901D16E4930C
:02175600FD1D77
:0E175800ED6024ED2DFC2417901D0093FBEF97
:0C176600B5031374182C901D0093FCE5D3
:0A1772001B24FDF8E6B504028D0605
:03177C001D80D9F4
:05177F008E82D01B2248
:07178400AF82C210BF40005C
:0C178B00501B8F82C007C022121AC2E55A
:0C17970082D022D0075444FEBE440280E1
:0117A3000441
:0417A400D210802AB5
:0917A800AD5E7E000DBD00010ED6
:0C17B1005305077E00AB5F7C00EBB50524
:0717BD0006ECB50602800EE8
:0817C400E55E2450F8A60705BC
:0517CC005E535E07D230
:0117D1001007
:0517D200D28EA21022DE
:0A17D700C01BE581F51B2404F58119
:0917E100C206AF3F74C35FFEA80D
:0517EA001B08A640E50C
:0917EF003CFC7049E53D7045E544
:0717F8006020E003021ABCAF
:0917FF00EE7020A81B08B6C01A08
:0C180800E55C70FCC2AF75E40075E71DE4
:0A18140075E6178541E58542E5758C
:04181E00E468D2AFF9
:05182200BE010280037D
:03182700021ABCE6
:09182A00A81B08E66003021ABCC9
:09183300758283121784021ABCAD
:08183C00E53E30E703021A0744
:0C184400901D17E493FBECB50302800339
:03185000021ABCBD
:0B185300901D18E493FBB53D028003DC
:03185E00021ABCAF
:08186100756100BE4202801B0C
:06186900BE430302199BBF
:06186F00BE80030219C156
:06187500BE81030219E32D
:06187B00BE83030219FC0C
:03188100021ABC8C
:06188400200D03021ABC56
:0A188A00743C5FF538A81B08E65413
:0A189400F0F6A81B08B680028003DE
:03189E0002197AB2
:0B18A100758281121784740F5540FF00
:0A18AC00E55C70FCC2AF75E400AA11
:0A18B6004174015A241CFCAE42A844
:0518C0001B0808760082
:0C18C500A81B0808C3E69F400302197529
:0C18D100EA703CC002E51B2403F8A606E8
:0C18DD00087600A81B080886037D00E5C3
:0C18E9001B2403F8EB26FBED0836FDBBCA
:0718F5006005BD0002800444
:0418FC00D002802670
:0A190000D002A81B0808740A262470
:06190A0039F98760801628
:0B1910008CE7A81B0808E62EF5E6A8EF
:0A191B001B0808740A262439F98716
:01192500E5DC
:0A1926008E037D00A81B0808E51BD6
:0C1930002403F9E6F7097700E51B240307
:0E193C00F8E62BFB08E63D53033F7D00BB3F62
:0D194A0022BD001F8F037D001BBBFF011D90
:0C195700E51B2403F8E6B5030708E6B51D
:0419630005028006F3
:0619670075E46875E40060
:08196D00A81B0808060218C5BA
:0519750075E468D2AF2B
:09197A00A81B08E66003021ABC78
:0419830085403585E1
:0319870041368561
:06198A0042377582811254
:0919900017847582841217840289
:021999001ABC76
:0A199B00743C5FF538A81B08B68005
:0419A5000343A2084E
:0919A900A81B08E66003021ABC49
:0D19B20075828112178475828212178402DB
:0219BF001ABC50
:0619C100300D03021ABC08
:0419C700D20D853A7E
:0319CB0032853B27
:0519CE0033753400C276
:0C19D3000E75D16075D20B75D3B375D1C1
:0419DF0061021ABCCB
:0719E300E53AB53202800372
:0319EA00021ABC22
:0719ED00E53BB53302800366
:0319F400021ABC18
:0519F700C20D021ABC44
:0919FC00758285121784C20D02E8
:021A05001ABC09
:061A0700EE6003021ABCB0
:0C1A0D00C03D8C82121736AF821581BFDD
:051A1900FF03021ABCEE
:0E1A1E00901D11E493FEF58275831DE493255F
:0C1A2C00E02EFD0EA81B0874C056FCE460
:041A3800BC80010469
:011A3C00FCAD
:081A3D00C3EE9D4003021ABC38
:0E1A45008E8275831DE493FBEFB50366EE04FD
:0E1A5300901D0093FBF582C007C006C005C0C1
:0E1A610004C003121AC2AA82D003D004D0051A
:0E1A6F00D006D007EC602EC00474145AFCBCE4
:041A7D0014028004CB
:041A8100D004801FEE
:0E1A8500D0048B82C007C006C005C004C00399
:0E1A9300C00212007FD002D003D004D005D0D4
:031AA10006D00765
:0C1AA400A81B08E6700D53020CBA0C0CD5
:071AB0008B8212008080050B
:051AB7000E0E021A3DB5
:061ABC00851B81D01B22F6
:0E1AC200AF82901D12E493FE0E0E0EEF2E2F3B
:081AD0002F901D0093F5822206
:0E1AD80075950075911475924CC29675892112
:0E1AE600758F00C28CC28E758D80758B80C28C
:0C1AF4008FC20175A88075E80075B80469
:0A1B000075B70CD28A75602EC2037F
:051B0A00C204C20BC281
:041B0F000CC206D22C
:051B130008755E00757D
:061B18005F00753400C2FD
:041B1E000EC20D12D4
:031B220016BE22CA
:06005200E478FFF6D8FD82
:080030007900E94400601B7A2D
:0500380000901B607840
:03003D000075A0AB
:0A00400000E493F2A308B8000205E3
:08004A00A0D9F4DAF275A0FF61
:0C1B2500E58330E7076382FF6383FFA3C2
:011B31002291
:0E1B320074FE2581F8E68582F0A4C0E085826D
:0E1B4000F018E6A4F582D0E025F0C58386F00B
:061B4E00A42583F58322AB
:080058007800E84400600A7919
:030060000075A088
:0600630000E4F309D8FCE3
:080069007800E84400600C7906
:0B00710000900000E4F0A3D8FCD9FAD6
:0300230075816183
:0A002600121B54E582600302001E65
:041B54007582002274
:00000001FF
