:05007C00C200C201C238
:01008100027C
:09008500C07B85817B0581858229
:09008E004AA87B087608E4FEF59F
:0400970029F54BE517
:06009B004A254A25E0F5AC
:0600A1004824D5F5498555
:0C00A7004A82C006120774E582D0067081
:0400B300030204C57B
:0900B700AC4A7D000CBC00010DF7
:0E00C000EDA2E713CC13CC74F62C901D009328
:0C00CE00FD7401554A640175F004A4F5AE
:0600DA00F005F0ED8002CC
:0200E000C31348
:0A00E200D5F0FB5407F529854AF01C
:0600EC0005F0E52480028E
:0200F200C31336
:0900F400D5F0FB5401FDB401003C
:0B00FD00E433FD6016854AF005F0E5D5
:030108002580024D
:02010B00C3131C
:0B010D00D5F0FB5401FDBD0102800491
:04011800C218800287
:02011C00D218F7
:05011E00A2189202E5A9
:050123004A243FF987AA
:080128002AE54AC31324CE901E
:0C0130001D0093FD7401554A75F004A4F5
:07013C00F5F005F0ED800273
:02014300C313E4
:0D014500D5F0FB540FFD24F750030204BE5B
:07015200ED2D2D9001597302
:070159000204BE0201740262
:0601600001940202D90225
:0601660003B50204600273
:06016C0004BE0203BF0205
:0201720003C2C6
:08017400A20292F085F0238540
:08017C004A8212071F740825D6
:090184004AF582A20292F085F016
:05018D002312071F0210
:0201920004BEA9
:0601940020020302021D1F
:08019A00E54A2436F974D7256B
:0C01A20048901D0093FD747F5D2480F7E1
:0601AE00E54A242DF8A62D
:0801B400297408254AF58212A6
:0E01BC000BD6AA82AB83ACF0EAA2E3E433FADE
:0901CA0024FF920085498275832F
:0C01D3001DE493FD530570BD0002800A7E
:0501DF00BD10028009C3
:0501E400BD300A80049B
:0401E900B2008006DA
:0401ED00D2008002BA
:0201F100C2004A
:0701F300300015E5490490FE
:0D01FA001D00935438C423541FFD2448F504
:040207002A0204BE05
:0C020B00E54904901D0093FD74075D247C
:0602170040F52A0204BEBE
:0A021D007450552AFDBD4054854A77
:0E02270082120BD6AA82AB83ACF0FDEA4B4CE0
:0A0235004D24FF9200854982758375
:0C023F001DE493FD530570BD1002800506
:05024B00BD200A800443
:04025000D200800652
:04025400C200800262
:02025800B200F2
:0C025A00A200E433FC7D00C004C0058558
:0A0266004A82120A6615811581E52F
:070270004A2436F876000273
:0202770004BEC3
:0C0279007408254AF582120BD6AA82AB4D
:0C02850083ACF074D52548901D0093FD5B
:0C02910030E31974085AFD7C0074082545
:0C029D004AF582C005C004120A661581F3
:0402A9001581801F1C
:0C02AD0074085AFDE4FFFEFC7408254AAA
:0E02B900F582C005C007C006C004120CA3E504
:0502C7008124FCF5811B
:0602CC00752A00E54A243A
:0702D20036F876000204BEBD
:0A02D900E54A254A25E024D8FDF58A
:0C02E3008275831DE4935430FCC4540F5A
:0902EF00F54B7401B54B02800EC1
:0702F8007402B54B02800BFC
:0702FF007403B54B2D8008CC
:04030600C201802789
:04030A00D201802379
:0B030E00C0057408254AF582C00512E6
:0E0319000BD6AF82AE83ACF0FBD005630701BC
:0A032700EF4E4C4B24FF9201D0056D
:0A03310030025A8D8275831DE4939B
:0C033B00FC30E313A201E433FC2480F545
:040347002AE54A2435
:07034B0036F876800204BEC3
:0C035200A201E433FB7C00C003C0048562
:0A035E004A82120A6615811581E536
:050368004A2436F9E50E
:08036D004A254A25E024D69040
:090375001D00932480F7E54A24E1
:05037E002DF8A629A2E4
:0903830001E433FC2480F52A0298
:02038C0004BEAD
:0A038E00E52A30E418A201E433FB75
:0C0398007C00C003C004854A82120A6683
:0703A400158115810204BE62
:0803AB00E54A2436F876000251
:0203B30004BE86
:0A03B500754BFF7E01A87B0876005F
:0303BF00430602F0
:0903C200434B1F430604E54A25E4
:0A03CB004A25E024D5FDF582758374
:0C03D5001DE49354040303543FFCED04AA
:0E03E100901D0093548023235403FB42048C90
:0B03EF0002300237EA20E0030204BEE7
:0C03FA0074022D901D0093FCE54B520492
:0E040600C0068C821204CAAB82AC831581A89A
:0A0414007B08E6254AFFC003C00480
:0C041E008F82120A66158115810204BE4F
:03042A00BA020013
:05042D0050030204BEB3
:0C043200EA2D901D0093FFE54B5207C01F
:0D043E00068F821204CAAE82AF831581A81A
:0A044B007B08E6254AFCC006C00746
:0B0455008C82120A6615811581805E02
:0A046000E54A254A25E024D5FDF504
:0B046A008275831DE493FF740C5FF5A6
:070475004B3002247404B5B2
:04047C004B02803E71
:0E04800074022D901D0093FF53077F7E00C075
:0C048E0007C006854A82120A6615811517
:03049A008180213D
:0C049D0074FC254B501B74032D901D00B7
:0C04A90093FF53077F7E00C007C006854C
:0904B5004A82120A6615811581C4
:0604BE00E54A243FF8A608
:0104C4002A0D
:0504C5001581D07B222F
:0A04CA00C07B85817BAF82E4FEFC5D
:0C04D400FDE57B24FDF8B604247E038FB8
:0E04E000027B00C007C006C002C0039002717C
:0E04EE00121AEEAA82AB8315811581D006D0BA
:0504FC00078A048B05D6
:0C050100E57B24FDF8B6060CEF75F064F5
:08050D00A4FAABF08A048B058F
:0C051500E57B24FDF8B607068F047D008E
:02052100801345
:020523008E0741
:0E052500ED54F8600AEDC313CC13CCFD0F802B
:01053300F1D6
:020534008F0630
:0E053600EEC40354F8FFE42CFCEF3DFD8C8274
:050544008D83D07B2235
:0D05490075D16075D20E75D3A075D1610516
:060556002BE4B52B0205A9
:01055C002C72
:0A055D00E52B24FFFEE52C34FFFF20
:0B056700EEF4FEEFF4FFE52B5206E57A
:050572002C52077D0082
:03057700BD1000B4
:08057A005032EE30E0247C0059
:03058200BC0900B1
:0C058500501DEC242DF9870353030FEBED
:0C059100B5050DEC2436F9E7FB247F5083
:04059D0003EB14F761
:0305A1000C80DEED
:0A05A400EFC313CE13CEFF0D80C984
:0205AE007F00CC
:0305B000BF080081
:0305B300400122E2
:0805B600EF243FF9872AEF242E
:0905BE0036F98706BE80028003B5
:0305C70002071B0D
:0805CA00E52A20E70302067098
:0C05D2007401552AFE7D0074082FF5828C
:0E05DE00C007C006C005120A6615811581D03F
:0E05EC0007EF2F25E0FE24D7901D0093FE247C
:0C05FA00FC506DEF242DF98F047D000CE7
:04060600BC00010D26
:0E060A00EDA2E713CC13CC74FA2C901D0093D4
:0E061800FD74015F640175F004A4F5F005F0B7
:03062600ED800262
:02062900C313F9
:0E062B00D5F0FB5407F774075F2408F582C072
:0E06390007C006120BD6AA82AB83ACF0FDD030
:0C06470006D007EA4B4C4D24FF9218EF40
:0A065300243FF9A218E433FD43052B
:0C065D0010A705EF2436F974802EF780FA
:01066900068A
:06066A00EF2436F87600D3
:0A0670007450552AFEBE1002800EE1
:05067A00BE40028012E9
:06067F00BE50030206FC60
:0306850002071B4E
:09068800EF243FF8760002071B85
:0C069100AD2A7E0074082FF582C007C05F
:0E069D0005C006120A6615811581D007EF24EC
:0A06AB003FF9870674104EF7EF24A4
:0C06B50036F9EF2F25E024D8901D0093AB
:0C06C100FE74804EF7EF242DF98F057EAB
:0606CD00000DBD00010E4E
:0E06D300EEA2E713CD13CD74FA2D901D009307
:0E06E100FE74015F640175F004A4F5F005F0ED
:0306EF00EE800298
:0206F200C31330
:0806F400D5F0FB540FF7801F45
:0B06FC00EF2436F9EF2F25E024D89002
:0E0707001D0093FE74804EF774082FF582C01B
:0607150007121740D00797
:04071B000F0205B014
:0E071F00AF8274075F25E025E024D7901D000F
:05072D0093FEBF08006F
:070732004005EEC4540FFE68
:09073900301806EE0303543FFEE4
:0E074200530603EE602BBE03158F82C0071214
:0E0750000BD6AA82AB83ACF0FDD0076302018A
:02075E00800415
:0407600074015EFAC8
:0E0764007E00C002C0068F82120A6615811543
:010772008105
:010773002263
:0C077400AF82901DD2E493FE601B7D005C
:07078000C3ED9E50147C70D4
:07078700EC60047B0180021D
:02078E007B00EE
:06079000EB60031C80F188
:030796000D80E7EC
:0C079900C007121057E582D0076525F458
:0A07A500FEEF901B14935EF5822214
:0A07AF00C07BE581F57B2404F58191
:0E07B900AF82901D12E4932F2FFE2F24049088
:0607C7001D0093BF1000AD
:0C07CD005021743F555AFE7D007C007BDB
:0E07D90000C006C005C004C0038F82120CA32E
:0907E700E58124FCF5810208956E
:0C07F0007401555AFA8F82C007C0021233
:0C07FC000BD6A87B08A68208A68308A6DE
:0E080800F008F6D0028A047D007E007F00A872
:0C0816007B08E6620408E6620508E66262
:0E0822000608E66207EC4D4E4FD00760668A6E
:0E083000037C007D007E00C007C002C003C034
:0E083E0004C005C0068F82120CA3E58124FCC5
:0E084C00F581D002D00774075F25E025E02477
:0E085A00D5901D0093FE53060374015EFD62EF
:0E08680002EE6029EA601074075F901B149383
:09087600FE74FFC39E5228800AA3
:0A087F0074075F901B1493FE4228DB
:0C088900530707C0028F8212089B1581E4
:06089500857B81D07B226F
:08089B00C07B85817BAF82C2A6
:0C08A300187EFFEFC31324CE901D0093BD
:0E08AF00FD74015F75F004A4F5F005F0ED8016
:0108BD000238
:0208BE00C31362
:0B08C000D5F0FB540FFDBD0102800FBE
:0608CB00BD020302095DFD
:0608D100BD03030209C48F
:0308D700020A27EB
:0E08DA00EFFE25E025E024D5901D0093FDE5FE
:0C08E8007B24FDF874016675F002A4F595
:0608F400F005F0ED8002AA
:0208FA00C31326
:0B08FC00D5F0FB540CFDBD0402800A87
:05090700BD0802800A9A
:05090C00BD0C49800A4A
:05091100D218020A27C4
:05091600C218020A27CF
:0C091B00E57B24FDF8E660178FF005F086
:04092700E524800241
:02092B00C313F4
:0B092D00D5F0FB5401FD24FF921802DE
:020938000A278C
:0E093A008F82C006120BD6AA82AB83ACF0FDF2
:0C094800D006630201EA4B4C4D24FF92E4
:0409540018020A2754
:050958007EFF020A27EA
:0E095D008F82C007120BD6AA82AB83ACF0FDCE
:0C096B00D007EA4B4C4D24FF92188F0679
:0C097700E57B24FDF8E66018EF2F25E07A
:0C09830024D5901D0093FD30E705C2183C
:03098F00020A2732
:050992007EFF020A27B0
:0E099700EF2F25E024D6901D0093FD5305C0E0
:0509A500BD4002800AC4
:0509AA00BD8002800980
:0509AF00BDC00E800830
:0409B400D218806F66
:0409B800C218806B76
:0409BC00B218806786
:0409C0007EFF8063D3
:0E09C40074082FFEEF2F25E024D5901D009320
:0C09D200FDE57B24FDF874016675F00261
:0809DE00A4F5F005F0ED800224
:0209E600C31339
:0B09E800D5F0FB540CFDBD0402800A9A
:0509F300BD08028009AF
:0509F800BD0C2A80087F
:0409FD00C218802676
:040A0100D218802265
:0E0A050074082FF582C006120BD6AB82AC83AC
:0E0A1300ADF0FFD006630301EB4C4D4F24FF06
:040A210092188002A5
:020A25007EFF52
:0C0A2700EE24EF402DA218E433FB7C000D
:0E0A33007D007F00C006C003C004C005C007E0
:0D0A41008E82120CA3E58124FCF581D00605
:0B0A4E008E82C006121740D00650F543
:030A5900D07B222D
:0A0A5C00AF8274402FF582021740AC
:080A6600C07B85817BAF82E5B6
:0C0A6E007B24FCF886030886047D007ED3
:0E0A7A0000C007C003C004C005C0068F821272
:0D0A88000CA3E58124FCF581D0078F8212BC
:050A95001740D07B2298
:070A9A00C2187518007F006F
:030AA100BF08008B
:030AA400400122EC
:0C0AA7007E00EF2436F97700EF2408F8F9
:0E0AB3007600EF2410F87600EFC31324CE90E7
:0E0AC1001D0093FD74015F75F004A4F5F005AF
:040ACF00F0ED8002C4
:020AD300C3134B
:0B0AD500D5F0FB540FFDBD01028013A3
:050AE000BD020280557B
:050AE500BD0302800FBB
:060AEA00BD0903020B5ED2
:030AF000020B7680
:060AF300EF243FF876003D
:0E0AF900EF2F25E024D5901D0093FD5305C07E
:050B0700BD4002800A60
:050B0C00BD8002800B1A
:050B1100BDC062800C74
:060B1600D2187E01805A96
:060B1C00C2187E018054A6
:080B22008FF005F0E5258002CB
:020B2A00C313F3
:0C0B2C00D5F0FB5401FD24FF92187E015F
:020B3800803CFF
:0E0B3A00EF2F25E0FD24D7901D0093FC30E73F
:050B480004C2187E014B
:0C0B4D0074D82D901D0093FD30E71ED2DF
:050B5900187E01801868
:0C0B5E00EF24FE40137780EF242DF87682
:0C0B6A0080EF2FFD2419F87600087600BB
:0C0B7600EE6035A218E433FB7C007D002B
:0C0B82007E00C007C023C003C004C005F3
:0E0B8E00C0068F82120CA3E58124FCF581D0F5
:030B9C0023D0075C
:0A0B9F008F82C007C023121740D058
:050BA90023D00750F10C
:0E0BAE00EF2F25E024D5901D0093FE53060383
:0C0BBC00BE010AEF901B1493FE4228803B
:010BC8000923
:090BC900EF901B1493F4FE522876
:040BD2000F020AA163
:0A0BD600C07BE581F57B2404F58166
:0D0BE000AF82901D12E4932F2F2F2404905C
:0C0BED001D0093FEEF24F04072BE0800D3
:0E0BF900403D74075FFE2410F987048C037CD6
:0C0C070000A87B08A60408A603EB3395A8
:0E0C1300E008F608F6EE2408F987057C007B61
:0C0C2100007A00A87B08ED26F6EC0836EF
:0B0C2D00F6EB0836F6EA0836F68058B1
:0E0C3800EF2408F987057C007407C39EFEE4D4
:0A0C46009CFC8EF005F074FF8002A4
:020C5000C313CC
:0C0C5200D5F0FBFE5205A87B08A60508A3
:0A0C5E007600087600087600802872
:0E0C68007E00EF24F0FFEE34FFFE8FF005F06B
:040C7600E5188002FB
:020C7A00C313A2
:0C0C7C00D5F0FB5401FFA87B08A6070878
:080C88007600087600087600F2
:0C0C9000A87B0886820886830886F0088E
:070C9C00E6857B81D07B227D
:080CA300C07B85817BAF8290CC
:0E0CAB001D12E4932F2F2F2404901D0093FEA2
:080CB900EF24F0402DBE0800FD
:0C0CC100401374075FFE2410F9E57B244B
:090CCD00FAF8088605A7058E0758
:0C0CD600EF2408F9E57B24FAF886037C83
:090CE200007D007E00A7038032B2
:0E0CEB00EF24F0FF901B1493FE74FFC39E5283
:0C0CF90018E57B24FAF8740156FB7C001F
:0B0D05007D007E008FF005F0EB800207
:020D100025E0DC
:0B0D1200D5F0FBFFE518FE42078F182C
:030D1D00D07B2266
:0C0D20007584007585FD758022E4F52BBC
:0C0D2C00F52CC2AF75E40075E71D75E6FC
:0E0D38000375E50075E71D75E60475E50475A5
:0E0D4600E71D75E60C75E50075E71D75E60DF9
:090D540075E5FF75E468D2AF22D9
:0400000002002332A5
:01000B0032C2
:030013000210D107
:03001B00021101CE
:0300820002001E5B
:05001E00120D5D80FEE3
:080D5D00C07B85817B0581A8A4
:0A0D65007B087600C218E5A70354CE
:0C0D6F0001FE24FF9219D2972097073054
:060D7B0019047E00800750
:070D8100901CFFE493FDFE4E
:0E0D8800901CFFE493AC962CFD8D9653963F85
:080D9600C006C023121A9FD011
:0C0D9E002353BDFE5391FC5392FC75984A
:0E0DAA005043BAE043BD0275BF2F75BEF04343
:0B0DB800BD01759955C023120D20D01D
:040DC30023C0231214
:060DC7001057858224D0C4
:050DCD0023D00685247F
:080DD200252019527C007D0070
:0E0DDA00C006901DD4E493FB7A00901DFEE449
:0B0DE80093C4540FFE8EF005F080064F
:060DF300EB2BFBEA33FAD2
:0E0DF900D5F0F7C3EB9CEA9DD006402375D1E0
:0A0E07006075D21D75D34075D161EE
:0E0E1100E5D1248050FAC2AF75C2A575C35A50
:090E1F00D2AF0CBC00B50D80B28D
:080E2800C006C023121089D09E
:040E300023C02312A6
:070E340010A5D023D0062019
:070E3B00190BC006C02312D1
:060E42000A9AD023D0063D
:020E4800D2973F
:0E0E4A00C2AF75C2A575C35AD2AF901D0DE49C
:070E580093FDBDFF028003C2
:030E5F00020FA5DA
:060E6200301103020FA590
:080E6800E57A30E003020FA55A
:090E7000C006C023121057858250
:060E790025D023D006E5A0
:060E7F0024B525028031BC
:020E85007D00EE
:030E8700BD0800A3
:090E8A005027E5246525FCED90DC
:0C0E93001B1493FB5C6016EB55287011DB
:0C0E9F008D82C006C005C023120085D063
:050EAB0023D005D00674
:030EB0000D80D4DE
:030EB3008525246E
:0B0EB600748025D1500BC006C0231231
:060EC1000549D023D00614
:020EC7007D00AC
:080EC900ED24F85003020FA50F
:0E0ED100C006ED2D25E024D5901D0093FC53A6
:0B0EDF00040C8D82C005C004C023126B
:0C0EEA000BD6AA82AB83AEF0D023D0045C
:0E0EF600D005EDC31324CE901D0093FF7401B0
:0C0F04005D75F004A4F5F005F0EF80022C
:020F1000C31309
:0B0F1200D5F0FB540FFFBF010280056B
:050F1D00D006020FA147
:0A0F2200D006BC0405BA01028009E4
:060F2C00BC0803EA6003AB
:030F3200BC0C668E
:0C0F3500ED2436F9E7FF547F7062ED2DCB
:0E0F410025E024D6901D0093FC743F5C2480B4
:0C0F4F00F7ED242DF98D037C000BBB0096
:020F5B00010C87
:0E0F5D00ECA2E713CB13CB74F62B901D009380
:0E0F6B00FC74015D640175F004A4F5F005F05E
:030F7900EC800207
:020F7C00C3139D
:0E0F7E00D5F0FB5407F7EF30E7198D82C0065F
:080F8C00C005C023121740D07C
:070F940023D005D006800602
:060F9B00ED2436F876009B
:040FA1000D020EC966
:060FA500200903300A11CF
:070FAB00C209C20AC006C022
:050FB20023121793D08B
:050FB70023D006800AB2
:020FBC007F6450
:080FBE008F051D8D07EF70F88F
:050FC600109802804AB2
:050FCB00AF99BF6308AF
:050FD00010990280FBF6
:030FD500759955B6
:060FD800BF2B0315961E5D
:060FDE00BF2D0305960E75
:0E0FE400BF7712C2AF75E40075E71C75E6FF1B
:070FF2008EE575E468D2AF43
:060FF900BF7003637A8162
:030FFF00BF7608B2
:0510020010990280FBC3
:03100700759908D0
:03100A00BF7408A8
:05100D0010990280FBB8
:03101200759908C5
:0B101500D297209718A87B08B6FF00B8
:081020005006A87B08068018A9
:06102800201803637A8129
:04102E00D218800E46
:0A103200A87B08E66006A87B0816FC
:02103C00800230
:02103E00C218D6
:08104000E57A5401FFB4010040
:0D104800E433FF24FF9297020E4A1581D079
:021055007B22FC
:081B14000102040810204080CA
:061057007F00D282C28579
:09105D00300406C282D282C204F2
:021066007E000A
:0E106800EE24F84012C280EF2FFF3081010FFE
:09107600A2819283D2800E80E970
:0A107F002004DBC282D2858F82229A
:0E10890075C1FFC2AF75A7E575C2A575C35A44
:03109700D2AF22B3
:0B109A00C2AF75C2A575C35AD2AF22C9
:0C10A500A2AF9218C2AF43A70475C2A509
:0810B10075C35AA21892AF2288
:0C10B900A2AF9218C2AFAFA75307FB8F85
:0C10C500A775C2A575C35AA21892AF22ED
:0E10D100C0E0C0D0C2AAC28E740F5589242080
:0E10DF00F589758B35758D80C28FD28ED2ABA0
:0610ED00757602C205D277
:0510F300037575007596
:0910F8007400D204D0D0D0E03223
:0C110100C023C0E0C0F0C082C083C00763
:0E110D00C006C005C004C003C002C001C0007F
:0C111B00C0D075D000E576FF24F1500331
:0311270002141E91
:07112A00EF2F2F901131732C
:0711310002115E02141E0210
:0611380011D102128B022E
:06113E00129402130902E5
:06114400141E02141E023D
:06114A00141E02141E0237
:06115000132D02139502AD
:06115600141E0213B90291
:02115C00140776
:0E115E00C28E740F55892420F589758B80751B
:0A116C008D80C28FD28EE578B57930
:03117600028051A3
:08117900E579246AF98782126E
:0B1181001504503DC2AAE5767032E56F
:0A118C0079246AF9E7FF20E50774F3
:06119600204FF775770001
:0B119C0074FC257740051214698016D2
:0611A7000579537907C22F
:0411AD000DC212124B
:0C11B100143DC28E758DF0758B00D28E3F
:0511BD00D2AA02141E7D
:0611C200057953790702D4
:0211C800141EF3
:0711CA00C28ED2AA02141E1E
:0A11D100A28BB39218C28B7576034F
:0A11DB00758D00E575700A75750149
:0511E500C206C2070272
:0211EA00141ED1
:0A11EC00747F2575401C301808B20E
:0411F60005E5752571
:0311FA0074F57415
:0511FD00E5752575F504
:0612020075600302141EDA
:0612080075758102141E41
:0A120E00C28EC28FA205201801B3A2
:0A1218005026E572700E74CCB57418
:0312220002D206EF
:07122500740CB57402D2073E
:07122C00200613200710E566
:05123300722453F8E5F0
:0512380074F66273056D
:03123D00728002BA
:02124000C203E7
:05124200100D02801DEB
:07124700300614300311759D
:07124E007704101202800971
:07125500E54E2404F54E53A1
:02125C004E3C06
:06125E0012143D02141EF3
:0712640030031E20061B20D1
:0C126B000718740F55892410F589758D43
:0C127700FA758B70D28E757604D2AA0234
:02128300141E37
:0612850012143D02141ECC
:09128B00758D8075760202141EB7
:0A129400300B64E57224FB505EC2CB
:0E129E008E740F55892410F589758DEF758BB0
:0812AC0042D28EA2109208E567
:0812B4005830E71F855682C087
:0C12BC00571214B3AF821581BFFF0280EF
:0112C8000223
:0212C900D20849
:0912CB00E556701CE5577018D2BD
:0312D4000880147B
:0C12D700901D17E493FFB5560B901D18F6
:0812E300E493FFB55702D208A5
:0912EB0074FFB57305300802D24E
:0112F40009F0
:0612F50075760502141ECF
:0812FB00E57224FE5002D20945
:0613030012143D02141E4D
:0A130900C28E74FFB5731330080A9A
:06131300D20E121469C2A3
:041319000D02141E8F
:06131D0012143D02141E33
:06132300D20F121469C292
:041329000D02141E7F
:08132D00E5722453F987073033
:041335000E027FCC59
:05133900300F027F0CE3
:09133E00C2AA740AB5760280030C
:0313470002141E6F
:0A134A00E575247F402CE5755F7007
:0913540008D296C20CB205800219
:02135D00D20CB0
:08135F00E5757007757501C208
:03136700058006F8
:05136A00E5752575F595
:01136F007508
:07137000E57570037575813E
:0513770075760B8013E8
:09137C00200506D296C20C800285
:02138500D20C88
:061387000572757500758A
:02138D00760DDB
:06138F00758D1202141E10
:0A139500E57270077401B5750205DA
:01139F0077D6
:0A13A000C296A20C828B5007C20D0A
:0513AA0012143D800655
:0613AF0075760A758D6ED3
:0413B500C28B806502
:0E13B900C296C28E740F55892410F589758D69
:0A13C700FB758B90D28E200E0330D0
:0213D1000F0506
:0513D30012143D802B07
:0C13D800740F5558FF7E0074072FFFE4CF
:0C13E4003EFEAC727D00C3EF9CEE648006
:0C13F0008DF063F08095F05007D20A12D7
:0413FC00143D800319
:0314000075760EF0
:04140300C28B801701
:0E140700C28E740F55892420F589758D6E757F
:091415008B80C28FD28E75760A1D
:0C141E00D204D0D0D000D001D002D00306
:0E142A00D004D005D006D007D083D082D0F0F9
:05143800D0E0D02332DA
:0A143D00757600C28BC28EC2AB753B
:0A1447007300757200C28E740F5519
:0C145100892410F589758D89758BAFC258
:0A145D000EC20FC28FD28ED2AAD2A7
:02146700AB22B6
:0E146900C28E740F55892420F589758D6E751D
:0C1477008B80C28F740F55582407FF753E
:0414830073FF7E0075
:0C148700C3EE9F500BEE2453F9E7FD620A
:04149300730E80F064
:07149700EF2453F8A673C215
:04149E0006C207D2A9
:0514A2000D75760A75CE
:0A14A7007500757200C2AAD28ED241
:0214B100AB226C
:0A14B300C07B85817BAF827EFF9035
:0814BD001D16E493FDBDFF00C4
:0C14C5005038201035901D16E493602E66
:0714D100901D16E493FD1DC0
:0E14D800ED6024ED2DFC2417901D0093FBEF1A
:0C14E600B5031374182C901D0093FCE556
:0A14F2007B24FDF8E6B504028D0628
:0314FC001D80D977
:0514FF008E82D07B226B
:0A150400C07BE581F57B2404F5812E
:0C150E00AF82C2187DFE7E00EFA2E5E473
:09151A0033FC24FF9219BF80008C
:05152300400302165018
:0C152800C005C006EF2323540124FF92ED
:0B1534001A53071F8F82C007C005C0BC
:0C153F0023120BD6AA82AB83ACF0FED0C6
:0A154B0023D005D007A87B08A602F4
:0E15550008A60308A60408A606901D11E4933C
:0E156300FE0EEF2FFD2EFC04901D0093FEB532
:0415710007028006E7
:06157500D006D005800F36
:0E157B00D006D0058C8275831DE493FCFD7EA6
:011589000061
:09158A00BDFE06BE000302172F8E
:0A1593007553BC901D17E493FC8C07
:0A159D0054901D18E493FC8C55EDEA
:0C15A7002DFD2417901D0093FE8E56743D
:0A15B300182D901D0093FE8E577551
:0615BD005900301A05750B
:0415C3005A40800307
:0315C700755A80D2
:0E15CA00901D12E4932F2FFE2F2404901D007D
:0C15D80093FE24F95006EE24FBFE800276
:0215E4007E0186
:0C15E60074E02EF558EE24FE500F740641
:0A15F2002E2453F9A87B088605A7F4
:0315FC0005801057
:0C15FF00A87B08743F56FAE4FBFCFDEAF0
:04160B00255AF55A0D
:0C160F00EE24FD500E74052E2453F9A8A3
:07161B007B08088605A70506
:0C162200EE24FC500F74042E2453F9A891
:08162E007B0808088605A705EA
:0C163600EE24FB501074032E2453F9A87E
:091642007B080808088606A706CB
:05164B00D21802172F68
:0A1650007553B0901D17E493FE8E51
:0A165A0054901D18E493FE8E558590
:031664004C56855C
:0A1667004D5753071FEF24FA5003FC
:0316710002172D30
:07167400EF2F2F90167B738E
:07167B0002172D02168D027B
:0616820016990216B002E9
:0516880016C102172746
:08168D0075586074C22552F586
:041695005902172DB2
:081699007558637443254EF5FA
:0516A10059755A407567
:0616A6005B00755C12D22E
:0416AC001202172DE2
:0716B0007556007557007527
:0616B70058E175590175B0
:0416BD005A40806CA3
:0216C1007F00A8
:0A16C300C3EF954F5042E550702C24
:0A16CD00740A2F2453F9EF25519001
:0C16D7001C0093F7AD517E008F037C00D7
:0E16E300EB2DFDEC3EFEBD601CBE0019740A2E
:0816F1002F2453F8A67A800FA4
:0A16F900740A2F2453F9EF255190D5
:051703001D0093FEF73C
:031708000F80B897
:09170B007463254FF55874424542
:061714004EF5597440453A
:04171A004FF55A85A8
:03171E00505B8598
:03172100515CD246
:031724001280062A
:0617270075586075598140
:02172D00D218D0
:08172F0030190674DF5553F573
:01173700535E
:06173800A218857B81D0A0
:02173E007B220C
:07174000AF82C218BF400098
:0C174700501B8F82C007C023121A89E5D6
:0C17530082D023D0075444FEBE44028024
:01175F000485
:04176000D218802AF1
:09176400AD787E000DBD00010E00
:0C176D005305077E00AB797C00EBB5054E
:0717790006ECB50602800E2C
:08178000E578246AF8A60705CC
:0517880078537807D240
:01178D001843
:05178E00D28EA218221A
:08179300C07B85817B0581C24A
:08179B0009AF5974C35FFEADF4
:0717A3005AE556FC7034E525
:0917AA00577030E57A20E00302DB
:0217B300198992
:0E17B500EE700EBDC00BC006C005121A6ED03D
:0317C30005D00648
:0517C600BE01028003DA
:0317CB0002198977
:0617CE00ED600302198921
:0917D40075828312174002198985
:0817DD00E55830E7030218B7DC
:0C17E500901D17E493FBECB50302800399
:0317F10002198951
:0B17F400901D18E493FBB55702800322
:0317FF0002198943
:05180200BE4202801847
:05180700BE4302804F0A
:05180C00BE8002806AAD
:05181100BE8102807B96
:06181600BE83030218AEC0
:03181C0002198925
:06181F00201103021989EB
:0C182500743C5FF5525305F0BD800D755A
:0C1831008281C00512174012198ED005EC
:06183D00ED6003021989B1
:04184300855A4F85EE
:031847005B50856E
:06184A005C517582811261
:0918500017407582841217400252
:021859001989EB
:0B185B00743C5FF552BD800343A208FF
:06186600ED600302198988
:0D186C0075828112174075828212174002AA
:021879001989CB
:06187B003011030219897F
:04188100D2118554A7
:031885004C85553A
:051888004D754E00C289
:04188D0012021989A1
:07189100E554B54C02800391
:03189800021989A9
:07189B00E555B54D02800385
:0318A2000219899F
:0618A50010110302198975
:0318AB0002198996
:0918AE00758285121740021989A8
:0618B700EE600302198936
:0C18BD00C005C0578C821214B3AF821516
:0918C90081D005BFFF030219895B
:0E18D200901D11E493FEF58275831DE49325AD
:0D18E000E02EFC0E74C05DFBE4BB80010433
:0118ED00FBFF
:0818EE00C3EE9C4003021989BE
:0E18F6008E8275831DE493FAEFB50202800323
:0319040002198441
:0E190700C004EE04901D0093FAF582C007C0E4
:0E19150006C005C003C002121A89AC82D002BF
:0C192300D003D005D006D007A87B08A692
:0C192F0004D004EB6031C003A87B0874F6
:08193B001456FBBB14028004EA
:04194300D003801F2E
:0E194700D0038A82C007C006C005C004C003DA
:0E195500C0021207AFD002D003D004D005D0DC
:0319630006D007A4
:0C196600ED701BC002A87B08740C56FA40
:05197200BA0C02800424
:04197700D002800E0C
:09197B00D0028A82120A5C800588
:051984000E0E0218EE3A
:051989001581D07B2256
:0A198E00C07BE581F57B2404F581A0
:08199800A87B08740F555AF6F4
:0A19A000E57670FCC2AF75E400AEFE
:0A19AA005CAD5B74015D241CFCA819
:0519B4007B080876002D
:0A19B900A87B0808A97B09C3E69784
:0519C3004003021A635D
:0C19C800ED7030C0048E027C00A87B088B
:0E19D4000886037F00EB2AFAEF3CFCBA6005A0
:0519E200BC00028004BE
:0419E700D004801098
:0A19EB00D004A87B0808740A262423
:0619F50053F9877A80021D
:0219FB008CE777
:0A19FD00A87B0808E62EF5E6A87B9B
:0C1A07000808740A262453F987E58E03B2
:0A1A13007F00A87B0808E57B240390
:0C1A1D00F9E6F7097700E57B2403F8E602
:0E1A29002BFB08E63F53033F7F00BB3F25BF6A
:0C1A37000022A87B0886037F001BBBFF79
:021A4300011F81
:0C1A4500E57B2403F8E6B5030708E6B5CE
:041A51000702800602
:061A550075E46875E40071
:081A5B00A87B0808060219B976
:0A1A630075E468D2AF857B81D07B6B
:011A6D002256
:0C1A6E00E57670FCC2AF75E40075E71D62
:0A1A7A0075E617855BE5855CE575F0
:051A8400E468D2AF226E
:0E1A8900AF82901D12E493FE0E0E0EEF2E2F74
:081A97002F901D0093F582223F
:0E1A9F0075950075911475924CC2967589214B
:0E1AAD00758F00C28CC28E758D80758B80C2C5
:0C1ABB008FC20475A88075E80075B8049F
:0A1AC70075B70CD28A757A2EC2069C
:051AD100C207C20EC2B5
:041AD6000FC209D260
:051ADA000B757800759A
:061ADF007900754E00C203
:041AE50012C211C256
:051AE9001012143D2263
:06005200E478FFF6D8FD82
:080030007900E94400601B7A2D
:0500380000901B1C7884
:03003D000075A0AB
:0A00400000E493F2A308B8000205E3
:08004A00A0D9F4DAF275A0FF61
:0E1AEE0074FE2581F8E68582F0A4C0E08582B2
:0E1AFC00F018E6A4F582D0E025F0C58386F050
:061B0A00A42583F58322EF
:080058007800E84400600A7919
:030060000075A088
:0600630000E4F309D8FCE3
:080069007800E84400600C7906
:0B00710000900000E4F0A3D8FCD9FAD6
:0300230075817B69
:0A002600121B10E582600302001EA9
:041B100075820022B8
:00000001FF
