:20007F00C008E581F5082405F581854982C04A12130EAF821581E5082403F8A607E5082479
:20009F0003F8B6FF030203A2901D11E493F58275831DE493FEA808087600A80808C3E69E84
:2000BF004003020399901D11E493FC0CA80808E625E0FB2C901D0093FCE5082403F8E6B556
:2000DF0004028003020392901D11E49324022B901D0093FCF582C006C004121795D004D0BC
:2000FF0006EC24F8FB8BF005F07401800225E0D5F0FBFBBC0800501EE54D540124FF92182B
:20011F0092F0C006C004C00385F0238C8212053ED003D004D006EC24F84003020392BC0CCF
:20013F00004003020392C0037401554DFA7B00C006C004C003C002C0038C82120483158168
:20015F001581D003D004D006A80808087600E5082404F87600E5082405F876008C077D0020
:20017F00EF24F8FCED34FFFABC0007BA0004D003801ED003BC0105BA00028047BC0205BAB8
:20019F0000028078BC0306BA000302024D020284901DD8E493FCA8080808740F5CF6901DB1
:2001BF00EFE493FCE5082404F874035CF6901DEFE4930303543FFCE5082405F874035CF669
:2001DF00020284901DD8E493FC5304F0A8080808ECC4540FF6901DEFE493C4540FFCE5084D
:2001FF002404F874035CF6901DEFE49323235403FCE5082405F874035CF68069901DD9E421
:20021F0093FCA8080808740F5CF6901DF0E493FCE5082404F874035CF6901DF0E49303039B
:20023F00543FFCE5082405F874035CF68037901DD9E493FC5304F0A8080808ECC4540FF679
:20025F00901DF0E493C4540FFCE5082404F874035CF6901DF0E49323235403FCE5082405AF
:20027F00F874035CF6C003901DEDE493FCEF24F8FAED34FFCA25E0CA33FB8AF005F0EC8007
:20029F0002C313D5F0FBFC74035CFFA8080808E614FC8CF005F07401800225E0D5F0FBFAFC
:2002BF00BF0004D003800AD003BF0102804D020392AC4DBC80028005BC810D800874FFC342
:2002DF009A523D8003EA423DC006A8080808E614FCF582C0041203DBAA82AD83AEF0FFD07A
:2002FF0004EA4D4E4F24FF921892F0C00685F0238C8212053ED006D0068078901DF1E4933E
:20031F0052038B07AD4DE4BD800104FC6003EF6006BD8127EF6024EA553C601F74FFC39A61
:20033F00523CE5082405F8B6010674FFC39A523AE5082405F8B60203EA423ABD8103EF602A
:20035F0006EC602FEF602CEA553C7027EA423CE5082404F8B6010674FFC39A523AE50824D1
:20037F0004F8B60203EA423AA8080808E614242CF87600A80808060200B9E53BB53A0280BF
:20039F0002D201850881D00822854982C04A1217ADAF821581BFFF01228F82C0071203DBC1
:2003BF00D0078F82C007121795AE82D00753060CBE0C0874402FF58202156922AF827E00C8
:2003DF00BF0800E433FD6027C0068FF005F07B017C008006EB2BFBEC33FCD5F0F7AA377E9D
:2003FF0000EA5203EE5204D006EB4C60027E01ED7033BF0C00502E8F047D00EC24F8FCED93
:20041F0034FF8CF005F07C017D008006EC2CFCED33FDD5F0F7AA397B00EA5204EB5205ECE0
:20043F004D60027E01BF0C00402C7D00EF24F4FFED34FF8FF005F07F017D008006EF2FFF81
:20045F00ED33FDD5F0F7AB387C00EB5207EC5205EF4D60027E017F007D007C008E828F8307
:20047F008DF0EC22C008858108AF82BF0800E433FE6030E50824FCF8E6084670168FF0051C
:20049F00F07401800225E0D5F0FBFD74FFC39D523780108FF005F07401800225E0D5F0FB78
:2004BF00FD4237EE703BBF0C005036E50824FCF8E608467019EF24F8F5F005F0740180021F
:2004DF0025E0D5F0FBFE740FC39E52398013EF24F8F5F005F07401800225E0D5F0FBFE4257
:2004FF0039BF0C004036E50824FCF8E608467019EF24F4F5F005F07401800225E0D5F0FB04
:20051F00FE74FFC39E52388013EF24F4F5F005F07401800225E0D5F0FBFF4238D00822C0FD
:20053F000885810805810581AF82901DEBE493FE8FF005F0EE8002C313D5F0FB5401FE244B
:20055F00FF92192018033019062018030208AFA218E433FD7E00C007C023C005C0068F82C2
:20057F0012048315811581D023D007A80808087600A808087600901DD8E493FC53040F8F7C
:20059F00027B00C00774012AFEE43BFF7D00ECB50606EDB507028004D0078008D007A808FE
:2005BF0008087601C007901DD8E49354F0C4540FFE74012AFCE43BFD7F00EEB50406EFB5E2
:2005DF0005028004D0078008D007A80808087602C007901DD9E493FE53060F74012AFCE45A
:2005FF003BFD7F00EEB50406EFB505028004D0078008D007A80808087603C007901DD9E4A9
:20061F009354F0C4540FFE74012AFCE43BFD7F00EEB50406EFB505028004D0078008D00777
:20063F00A80808087604A8080808E6605FC002C003901DEDE493FEA808080886047D00ECB5
:20065F0024FFFAED34FFCA25E0CA33FB8AF005F0EE8002C313D5F0FB54036006D003D002A0
:20067F00802AD003D002901DEEE493FE1CBCFF011DEDCC25E0CC33FD8CF005F0EE8002C3A9
:20069F0013D5F0FBFEA8080874035EF6C002C0038FF005F07D017E008006ED2DFDEE33FE36
:2006BF00D5F0F7AB3C7C00EB5205EC5206D003D002ED4E60030208AF8F82C007C003C0021D
:2006DF00C023121795E582D023D002D003D0075414FEBE140280030208AF0ABA00010BEB53
:2006FF00A2E713CA13CAFB74F92A901D0093FE74015FFDBD010553060F800874F05EFDC4C1
:20071F00540FFE7D007C00201824A80808E66043A80808B601108FF005F0E53D8002C31356
:20073F00D5F0FB30E02DA80808B602005025A218E433FBBB010280030207D1A80808B60261
:20075F0000406F8FF005F0E53D8002C313D5F0FB20E05F74E22F901D0093FBFD6018901DDC
:20077F00EAE493FB8FF005F0EB8002C313D5F0FB5401FBBB013A901DF2E493FB8FF005F0BC
:20079F00EB8002C313D5F0FB20E0138FF005F07401800225E0D5F0FBF4FB523A80148FF066
:2007BF0005F07401800225E0D5F0FBFB423A80027C01A218E433FBBB012BA80808E66049F9
:2007DF00A80808B601028041A80808B6020040158FF005F0E53D8002C313D5F0FB5401FB05
:2007FF00BB01028024301803020892A80808B6010280030208928FF005F0E53D8002C31313
:20081F00D5F0FB5401FBBB016A74DA2F901D0093FBFD705D901DEAE493FB8FF005F0EB8019
:20083F0002C313D5F0FB5401FBBB010B7C8074E22F901D0093FBFD901DF2E493FB8FF0059C
:20085F00F0EB8002C313D5F0FB20E0128FF005F07401800225E0D5F0FBFB423A80158FF0B9
:20087F0005F07401800225E0D5F0FBF4FB523A80027C11EC6014EF242CF974804DF7EF243B
:20089F0024F95304F0EC4EF78006EF242CF87600850881D0082275D16075D20E75D3A00581
:2008BF0034E4B534020535E53424FFFEE53534FFFFEEF4FEEFF4FFE5345206E53552077D33
:2008DF0000BD10005032EE30E0247C00BC0800501DEC2424F9870353030FEBB5050DEC24FD
:2008FF002CF9E7FB247F5003EB14F70C80DEEFC313CE13CEFF0D80C97F00EF24F8500302D4
:20091F0009F4EF242CF98706BE800280030209F0D2018FF005F07401800225E0D5F0FBFE37
:20093F00EF2424F9E7FD20E4030209CB901DF2E493FD8FF005F0ED8002C313D5F0FB20E01B
:20095F0005EE423A8005EEF4FD523AEF242CF87600901DEAE493FD8FF005F0ED8002C313A8
:20097F00D5F0FBFC74015CFDBD01668F037C000BBB00010CECA2E713CB13CB74F92B901D53
:20099F000093FC74015FFBBB010553040F800874F05CFBC4540FFC74E22F901D0093FB602D
:2009BF0030ED602D74804BF6A7048025901DF2E493FD8FF005F0ED8002C313D5F0FB20E05D
:2009DF0007EEF4FD523A8003EE423AEF242CF876000F02091975D16122853A82120A57122A
:2009FF000AE7C292C28D758C6F758AFF74F0558904F589758F00D28C901DF3E493653AF505
:200A1F00387F00BF0800502A8FF005F07401800225E0D5F0FBFE553AFDE53B5206EDB506E5
:200A3F0002800C740C2FF582C007121569D0070F80D1853A3BC20122AF82E53B6FFEE4FCD8
:200A5F00FDEE30E00EEF30E0067C007D1080047C007D20EE30E10CEF30E1054304048003E5
:200A7F00430408EE30E20CEF30E2054305408003430580EE30E30CEF30E305430401800344
:200A9F00430402EE30E40CEF30E4054304408003430480EE30E50CEF30E505430501800323
:200ABF00430502EE30E60CEF30E6054304108003430420EE30E70CEF30E705430504800387
:200ADF004305088C828D8322AE82AF838E047D00C282C2837E00EE24F8402274805C2354BC
:200AFF000124FF9280EC2CFC74805F235401FD24FF9281EF2FFFD283C2830E80D9D282C25B
:200B1F008222901D99E493F53A901DF6E493FF7E00EE24FC4046EE75F002A4FCADF08CF0ED
:200B3F0005F0EF8002C313D5F0FBFC74035CFDBD01148EF005F07401800225E0D5F0FBFCD1
:200B5F0074FFC39C523ABD02108EF005F07401800225E0D5F0FBFC423A0E80B5901DF7E4D7
:200B7F0093FF7E00EE24FC404CEE75F002A4FBACF08BF005F0EF8002C313D5F0FBFB740333
:200B9F005BFDBD011774042EF5F005F07401800225E0D5F0FBFC74FFC39C523ABD0213742D
:200BBF00042EF5F005F07401800225E0D5F0FBFD423A0E80AF753B00D201901DF3E4936599
:200BDF003AF538E53AF4423E227580007584007585FFD292C2A9D288753900E4F53CF534DE
:200BFF00F535F53DC200C2AF75E40075E71D75E60375E50075E71D75E60475E50475E71D0E
:200C1F0075E60575E52075E71D75E60675E56075E71D75E60775E50175E71D75E60C75E5D7
:190C3F000075E71D75E60D75E5FF75E71D75E61275E59A75E468D2AF2224
:0400000002002332A5
:01000B0032C2
:03001300020F2CAD
:03001B00020F5C75
:03007C0002001E61
:05001E00120C5880FEE9
:200C58007F007E00C218E5A703540124FF9219C007C006C023121852D023D006D007D297FE
:200C78002097073019047D008007901BFFE493FCFD901BFFE493AB962BFC8C9653963F2040
:200C980019217C00BC3200501AC28C901D17E493F58C901D18E493F58AC28DD28C308DFD02
:200CB8000C80E1C007C006C005C023120EE4D023C023120F00D023C023120BE8D023D005DC
:200CD800D006D007201913C007C006C005C023120B21D023D005D006D00753BDFE5391FC2D
:200CF8005392FC75985043BAE043BD0275BF2F75BEF043BD01759955C007C006C005C023A0
:200D1800120EF5D023D005D006D007901D0DE493FCBCFF028003020E0C301003020E0CE564
:200D38006D30E003020E0C748025D15013C007C006C005C0231208B5D023D005D006D00739
:200D5800308D0F740F5589FCBC0107C28DD292853A80300113C007C006C005C0231209F810
:200D7800D023D005D006D007E53E605FC0058EF005F07B017C008006EB2BFBEC33FCD5F05D
:200D9800F7AA3E7D00EA5203ED5204D005EB4C6034740C2EF582C007C006C005C02312153C
:200DB80069D023D005D006D00750228EF005F07401800225E0D5F0FBFC74FFC39C523E0E30
:200DD80053060780080E53060780027E00E56970237440258D401D200C1A901D99E493FC02
:200DF800B53A02800F75E40075E71D75E699853AE575E468200803300919C208C209C00757
:200E1800C006C005C02312159CD023D005D006D007800A7C648C031B8B04EC70F810980273
:200E38008079AC99BC630810990280FB759955BC2B0315961DBC2D0305960DBC7712C2AFB0
:200E580075E40075E71B75E6FF8DE575E468D2AFBC7003636D81BC760810990280FB7599AE
:200E780023BC740810990280FB759902BC3100402AEC24C74025EC24CFF5F005F074018088
:200E98000225E0D5F0FB623AC007C006C005C0231209F8D023D005D006D007D297209712E8
:200EB800BFFF0050030F8012201803636D81D2188008EF60031F8002C218E56D5401FCB446
:0C0ED8000100E433FC24FF9297020D108F
:200EE40075C1FFC2AF75A7E575C2A575C35AD2AF22C2AF75C2A575C35AD2AF22A2AF9218B9
:200F0400C2AF43A70475C2A575C35AA21892AF22A2AF9218C2AFAFA75307FB8FA775C2A5BA
:080F240075C35AA21892AF2216
:200F2C00C0E0C0D0C2AAC28E740F55892420F589758B35758D80C28FD28ED2AB756902C20F
:200F4C0004D202756800756700D203D0D0D0E032C023C0E0C0F0C082C083C007C006C00593
:200F6C00C004C003C002C001C000C0D075D000E569FF24F15003021279EF2F2F900F8C7399
:200F8C00020FB902127902102C0210E60210EF0211640212790212790212790212790211F9
:200FAC00880211F0021279021214021262C28E740F55892420F589758B80758D80C28FD2D7
:200FCC008EE56BB56C028051E56C245DF98782121361503DC2AAE5697032E56C245DF9E73E
:200FEC00FF20E50774204FF7756A0074FC256A40051212C48016056C536C07C20CC2111275
:20100C001298C28E758DF0758B00D28ED2AA021279056C536C07021279C28ED2AA02127952
:20102C00A28BB39218C28B756903758D00E568700A756801C205C206021279747F25684069
:20104C001C301808B204E5682567F567E5682568F5686003021279756881021279C28EC209
:20106C008FA204201801B35026E565700E74CCB56702D205740CB56702D2062005132006FC
:20108C0010E5652446F8E567F6626605658002C202100C02801D300514300211756A041094
:2010AC0011028009E5412404F54153413C12129802127930021E20051B200618740F5589BC
:2010CC002410F589758DFA758B70D28E756904D2AA021279121298021279758D80756902F0
:2010EC00021279300A64E56524FB505EC28E740F55892410F589758DEF758B42D28EA20FFB
:20110C009207E54B30E71F854982C04A12130EAF821581BFFF028002D207E549701CE54A6C
:20112C007018D2078014901D17E493FFB5490B901D18E493FFB54A02D20774FFB566053093
:20114C000702D208756905021279E56524FE5002D208121298021279C28E74FFB56613302E
:20116C00070AD20D1212C4C20C021279121298021279D20E1212C4C20C021279E565244610
:20118C00F98707300D027FCC300E027F0CC2AA740AB569028003021279E568247F402CE50C
:2011AC00685F7008D296C20BB2048002D20BE5687007756801C2048006E5682568F568E590
:2011CC0068700375688175690B8013200406D296C20B8002D20B056575680075690D758D5C
:2011EC0012021279E56570077401B56802056AC296A20B828B5007C20C1212988006756929
:20120C000A758D6EC28B8065C296C28E740F55892410F589758DFB758B90D28E200D03300E
:20122C000E05121298802B740F554BFF7E0074072FFFE43EFEAC657D00C3EF9CEE64808D84
:20124C00F063F08095F05007D209121298800375690EC28B8017C28E740F55892420F58986
:20126C00758D6E758B80C28FD28E75690AD203D0D0D000D001D002D003D004D005D006D0CF
:20128C0007D083D082D0F0D0E0D02332756900C28BC28EC2AB756600756500C28E740F553C
:2012AC00892410F589758D89758BAFC20DC20EC28FD28ED2AAD2AB22C28E740F558924204D
:2012CC00F589758D6E758B80C28F740F554B2407FF7566FF7E00C3EE9F500BEE2446F9E7BB
:2012EC00FD62660E80F0EF2446F8A666C205C206D20C75690A756800756500C2AAD28ED298
:20130C00AB22C008858108AF827EFF901D16E493FDBDFF00503A200F37901D16E4936030C3
:20132C007D01901D16E493FCC39D4024ED2DFC2417901D0093FBEFB5031374182C901D007E
:20134C0093FCE50824FDF8E6B504028D060D80D28E82D00822C008E581F5082404F581AFD7
:20136C0082C218EFA2E5E433FE24FF9219BF80004003021479EF2323540124FF921A5307E8
:20138C001F8F82C007C0231203DBAB82AC83ADF0FED023D007A80808A60308A60408A605F0
:2013AC0008A6068F82C007C023121806AA82AE83D023D0078A05ED4E70030215587546BC38
:2013CC00901D17E493FC8C47901D18E493FC8C488E048C498D4A754C00301A05754D40801B
:2013EC0003754D80901D12E493FEEF75F003A42E2404901D0093FE24F95006EE24FBFE80DB
:20140C00027E0174E02EF54BEE24FE500F74062E2446F9A808088603A7038010A80808745C
:20142C003F56FAE4FBFCFDEA254DF54DEE24FD500E74052E2446F9A80808088605A705EE3F
:20144C0024FC500F74042E2446F9A8080808088605A705EE24FB501074032E2446F9A808D4
:20146C00080808088606A706D2180215587546B0901D17E493FE8E47901D18E493FE8E4825
:20148C00853F4985404A53071FEF24FA5003021556EF2F2F9014A4730215560214B6021487
:2014AC00C20214D90214EA021550754B6074C22545F54C021556754B6374432541F54C75A4
:2014CC004D40754E00754F12D211021556754900754A00754BE1754C01754D40806C7F003D
:2014EC00C3EF95425042E543702C740A2F2446F9EF2544901C0093F7AD447E008F037C00E6
:20150C00EB2DFDEC3EFEBD601CBE0019740A2F2446F8A66D800F740A2F2446F9EF254490C9
:20152C001D0093FEF70F80B874632542F54B74424541F54C74404542F54D85434E85444F0D
:20154C00D2118006754B60754C81D21830190674DF5546F546A218850881D00822AF82C29D
:20156C0018AD6B7E000DBD00010E5305077E00AB6C7C00EBB50506ECB50602800EE56B2412
:20158C005DF8A607056B536B07D218D28EA21822C208AF4C74C35FFEAD4DE549FC702BE5E5
:2015AC004A7027E56D20E00122EE700EBDC00BC006C00512177AD005D006BE010280012298
:2015CC00ED600122758283021569E54B30E703021682901D17E493FBECB5030280012290A2
:2015EC001D18E493FCB54A02800122BE42028015BE43028041BE80028056BE81028062BE41
:20160C008302806C22743C5FF5455305F0BD800D758281C00512156912169AD005ED60019E
:20162C0022854D42854E43854F44758281121569758284021569743C5FF545BD800343A2C9
:20164C0008ED704975828112156975828202156920103AD21085473F854840754100C211E2
:20166C0022E547B53F27E548B540221010012222758285021569EE701474C05DFFBF800708
:20168C00C00512007FD005ED70030203A822C008E581F5082404F581A80808740F554DF648
:2016AC00E56970FCC2AF75E400AE4FAD4E74015D241CFCA80808087600A8080808A90809E4
:2016CC00C3E697400302176FED7030C0048E027C00A808080886037F00EB2AFAEF3CFCBADE
:2016EC006005BC00028004D0048010D004A8080808740A262446F9876D80028CE7A8080897
:20170C0008E62EF5E6A8080808740A262446F987E58E037F00A8080808E5082403F9E6F7D9
:20172C00097700E5082403F8E62BFB08E63F53033F7F00BB3F25BF0022A8080886037F0004
:20174C001BBBFF011FE5082403F8E6B5030708E6B50702800675E46875E400A808080806C5
:20176C000216C575E468D2AF850881D00822E56970FCC2AF75E40075E71D75E617854EE50F
:20178C00854FE575E468D2AF22AF82901D12E493FE0E0E0EEF75F003A42E901D0093F582B1
:2017AC0022C008858108AF827EFFC006E50824FDF8E6C0E08F8212130EAF821581D00690B4
:2017CC001D11E493FDF58275831DE493FCBFFF0280237B000DC3EB9C501B8D8275831DE4B4
:2017EC0093FAEFB5020AED04901D0093FAFE8C030B0D0D80E08E82D00822AF827EFE901DFF
:20180C0011E493FD0DEF2F2DFD04901D0093FCB507098D8275831DE493FFFEBEFE02801DEA
:20182C00EE2EFE2417901D0093FD7F0074182E901D0093FE7C002FFFEC3DFD80047F007D43
:20184C00008F828D832275950075911475924CC296758921758F00C28CC28E758D80758B27
:20186C0080C28F75D20E75D3A075D161C20375A80075E800C2ABC2A8C2AAD2AF75B80475FE
:20188C00B70CD28A756D2EC205C206C20DC20EC208D20A756B00756C00754100C211C2101D
:0518AC00C20F021298BA
:06005200E478FFF6D8FD82
:200030007900E94400601B7A009018B5780075A000E493F2A308B8000205A0D9F4DAF275AA
:02005000A0FF0F
:200058007800E84400600A790075A000E4F309D8FC7800E84400600C7900900000E4F0A3A8
:04007800D8FCD9FADD
:0D00230075816D1218B1E582600302001EA8
:0418B100758200221A
:00000001FF
