:0B008500AC82AD83AEF0FF7A007B0080
:0E009000C3EC94FFED9407EE9400EF94004053
:06009E00140ABA00010B78
:0E00A400EFC313FFEE13FEED13FDEC13FC8013
:0100B200DD70
:0E00B300EAC40354F8FB7A008A008B01E4FAD9
:0E00C100FBE84204E94205EA4206EB42078CE6
:0700CF00828D838EF0EF2209
:04007C007509B375DA
:020080000A195B
:0E00D60053BDFE5391FC5392FC75985143BAF2
:0E00E400E043BD0275BF0275BEF043BD01D200
:0200F200992251
:0200F400AF82D9
:0500F60010990280FBDF
:0300FB008F9922B8
:0E00FE00AD82AE83AFF07C00758202C007C0F9
:0E010C0006C005C0041200F4D004D005D006D1
:02011A00D0070C
:0E011C008D828E838FF0121923FB601FEB2C57
:0E012A00FC8B82C007C006C005C0041200F4A2
:0E013800D004D005D006D0070DBD00D80E8033
:01014600D5E3
:0A014700ECC4540F2509F582E435DD
:0C0151000AF583E493F582C0041200F468
:0B015D00D004740F5C2509F582E43526
:0C0168000AF583E493F5821200F475821E
:04017400030200F48E
:0A017800C00B85810B058105810590
:0C01820081E582FFC4540FFEA90B09EEBA
:0A018E002509F582E4350AF583E443
:0C01980093F7740F5FFEE904F8EE2509F0
:0C01A400F582E4350AF583E493F674025A
:0E01B00029F8760089077E007D408F828E83BD
:0901BE008DF01200FE850B81D0CA
:0201C7000B2209
:0C01C900AF99C298E50830E706BF0202BB
:0201D50005081B
:0101D7002205
:0C01D800E508A2E713FEBF032A758206AB
:0E01E400C0061200F4D006C374818EF063F0E2
:0E01F2008095F05010EE14FDC00590000C75C5
:07020000F0401202A9158174
:040207007508FF2255
:0A020B00C3E5086480948C400122D2
:03021500BF3000F7
:0E021800400EEF24C640098F05ED24D0FDFFF7
:02022600801442
:03022800BF4100D3
:0E022B00400EEF24B940098F05ED24C9FDFFF8
:02023900800142
:01023B0022A0
:0A023C00E50830E00FEE240CF9E7AE
:0A024600C454F0FDF7EF4DF78006F9
:06025000EE240CF8A607E5
:0302560005082276
:0E19B30030313233343536373839414243440F
:0319C10045460098
:06025900A200201801B311
:0E025F00400C7582001214FA7582030214FA24
:01026D00226E
:06026E00A202201801B3FA
:0E027400400C7582011214FA7582050214FA0C
:010282002259
:07028300E582FFB524012212
:0C028A00EF652430E00C901A11E493FEA4
:060296004529F529800A4C
:09029C00901A12E493FE4529F5C5
:0102A500292F
:0302A6008F242280
:0A02A900C00B85810BC082C083C02A
:0902B300F0754400E545600D758D
:0A02BC004500AC245304FD8C8212AF
:0202C6000283B1
:0C02C800A80B0886820886830886F012C6
:0C02D4001923FC74F05CFBBBC00280032B
:0302E0000203C452
:0502E30053040F7B0035
:0302E800BB060052
:0D02EB00500EEB9019C493FAB50402800385
:0302F8000B80ED8B
:0302FB00BB06003F
:0502FE0040030204CDE5
:0C030300EB2B25E0242BF987020987036F
:0C030F000987060987071919197812A63A
:0C031B000208A60308A60608A607A80B07
:0E03270008740126FDE40836FE0886078D8264
:0E0335008E838FF0121923FDA3121923FEA34D
:0E034300121923FFA3121923FBA70509A70611
:0B03510009A70709A70375430F7F00F1
:03035C00BF1600C9
:05035F0040030204CD83
:0E036400EFC423541FFE74075F901A0C93FD24
:0C037200EE2425F98703ED5B601F74404A
:0E037E004FF582C007C006C0051214FAD00564
:0C038C00D006D007EE2425F98703EDF41D
:03039800FA5BF716
:0C039B00EE2428F98703ED5B601C8F82C4
:0E03A700C007C006C0051214FAD005D006D05B
:0C03B50007EE2428F98706EDF4FD5EF742
:0303C1000F809812
:0503C400BC8202800371
:0303C9000204CD5E
:0803CC00E50B24FDF8B6050065
:0503D40050030204CDFE
:0C03D900A80B08740126FDE40836FE089D
:0D03E50086078D828E838FF0121923FFA8EA
:0C03F2000B08740226FCE40836FD0886A7
:0E03FE00068C828D838EF0121923FEEFC454FC
:0C040C0001FD740C5E4205ED24FF921807
:0A04180092F0C007C006C02385F073
:0504220023120259D075
:0604270023D006A218928A
:0A042D000074605E24FF921892F044
:08043700C006C02385F023126A
:09043F00026ED023D006D007A202
:0A044800189202EEC4540124FF9242
:0A04520001EE235401FD24FF920384
:0A045C00E5246E30E014AD245305D2
:0E046600FE530601EE42058D82C0071202838E
:02047400D007AF
:09047600EF30E31E100402800ABD
:0A047F00758203C0071214FAD007BB
:05048900100502800ACD
:0A048E00758205C0071214FAD007AA
:0C049800EF30E131A80B08740426FDE4ED
:0D04A4000836FE0886078D828E838FF012C9
:0C04B1001923FDFF74035524FEEF30E218
:0404BD0003430604EB
:0704C100EF30E403430608DD
:0504C8008E8212028388
:0604CD00850B81D00B221B
:0C04D300E582FFC423541F2425F987068E
:0A04DF0074075F901A0C934EF72289
:0A04E900C00B85810BC082C083C0E8
:0C04F300F0E5812404F581E50B2404FCF5
:0C04FF002403F9A80B08868208868308F5
:0C050B0086F0121923F774022CF9A80BDB
:0E05170008740126FAE40836FB0886078A827B
:0C0525008B838FF0121923F7EC04F9A867
:0C0531000B08740226FDE40836FE088664
:0C053D00078D828E838FF0121923F7E5E2
:0A0549000B2404F9A80B0874032624
:0E055300FDE40836FE0886078D828E838FF049
:0C056100121923F7E50B2404F9870409A4
:0E056D0087050987060987078C828D838EF02B
:07057B00EF850B81D00B227C
:0A058200C00B85810B05810581ADDA
:0C058C0082AE83AFF0AC0B0CEC04F98DD8
:0C059800828E838FF0121923FCF7A90B50
:0605A400090DBD00010E6F
:0C05AA008D828E838FF0121923F7A90BAD
:0A05B600098782098783850B81D035
:0205C0000B220C
:0A05C200C00BE581F50B240BF58159
:0E05CC00E582FF75F003A4FE9019CA93FDBDF1
:0405DA000E0280038A
:0305DE000206D83A
:0805E100EF24F15003020A2F80
:0705E900EF2F2F9005F073C6
:0705F00002061D02063202A3
:0605F700064702061D028A
:0605FD00065C020632025A
:0606030006D50206D50237
:0606090006D50206D50231
:06060F0006D50206D5022B
:0606150006C302067C0290
:02061B00069D3A
:0C061D00A200E433FA7B007C007F008A1E
:09062900828B838CF0EF020A368B
:0C063200A202E433FA7B007C007F008A07
:09063E00828B838CF0EF020A3676
:0C064700A206E433FA7B007C007F008AEE
:09065300828B838CF0EF020A3661
:08065C00E4B5490474018001BA
:01066400E4B1
:04066500FFB40100DD
:0E066900E433FF7C007B007A008F828C838B51
:05067700F0EA020A3662
:0A067C0074015524FFE4BF000104DF
:04068600FFB40100BC
:0E068A00E433FF7C007B007A008F828C838B30
:05069800F0EA020A3641
:0C069D00AC247F005304FEE4BC0004BF4A
:0306A90000010449
:0406AC00FCB4010099
:0E06B000E433FC7F007B007A008C828F838B0A
:0506BE00F0EA020A361B
:0C06C300AA247B007C007F008A828B83CD
:0606CF008CF0EF020A3678
:0306D500020A2FE7
:0606D800BD0F03020A2F12
:0A06DE00EDB5430FE50B2405F87697
:0906E80012087600087640801427
:0A06F100ED2D25E0242BFDE50B2480
:0A06FB0005F8A60508760008764011
:0A070500EE24CAFEE43419FD8E82D2
:0C070F008D83A3E493FAE50B2405F8EABF
:0E071B0026F6E40836F68E828D83A3A3E493BF
:08072900FE24F95003020A2628
:07073100EE2E2E9007387335
:07073800020A2602078002FD
:06073F00086402074D02F0
:06074500089A02097F0280
:02074B0007B2F3
:0C074D00E50B2405F886820886830886E8
:0C075900F0121923FEE50B2408F8A60698
:0C076500087600087600087600E50B24FA
:0D07710008F886820886830886F008E602F4
:02077E000A3639
:0C078000E50B2405F886820886830886B5
:0C078C00F01204E9C8E50B2408C8A6829E
:0C07980008A68308A6F008F6E50B24086C
:0E07A400F886820886830886F008E6020A3688
:0C07B200E50B2405F88682088683088683
:0C07BE00F01204E9C8E50B2408C8A6826C
:0C07CA0008A68308A6F008F6E50B24083A
:0C07D600F8A90B09080808E6C31309097C
:0E07E20009F718E61319F718E61319F718E6C9
:0E07F0001319F7090909E7C313F719E713F7FF
:0E07FE0019E713F719E713F7901DFBE493FEBC
:0E080C0030E3457410C0E0740EC0E0E4C0E0BC
:0C081A00C0E0A80B0886820886830886D0
:0C082600F008E61218B6C8E50B2408C85C
:0E083200A68208A68308A6F008F6E58124FC3D
:0C084000F581E50B2408F8868208868309
:08084C000886F008E6020A36F6
:0C085400A80B0886820886830886F0083E
:04086000E6020A366C
:0C086400E50B2405F886820886830886D0
:0C087000F0120582AD82AE83E50B240877
:0D087C00F8A60508A606087600087600E537
:0C0889000B2408F886820886830886F09D
:0508950008E6020A362E
:0C089A00E50B2405F8868208868308869A
:0C08A600F0121923FE7D00E50B2405F87C
:0E08B200740126FAE40836FC0886078A828C58
:0E08C000838FF01219237F002EFEEF3DFDA85E
:0C08CE000B08A60608A605ED3395E0080F
:0C08DA00F608F6A80B08E6C0E008E6C02F
:0E08E600E008E6C0E008E6C0E0900019E4F586
:0E08F400F012193FAC82AD83AEF0FFE5812417
:0C090200FCF581A80B08A60408A6050857
:0C090E00A60608A607A80B08E62430F691
:0E091A0008E634F8F608E634FFF608E634FF87
:0E092800F6901DFEE493FFC2D575F00AEF3085
:06093600E704B2D5F40451
:0E093C00A430D50AF42401C5F0F43400C5F04F
:0C094A00FFE5F0FE3395E0FDFCA80B0873
:0E095600EF26F6EE0836F6ED0836F6EC08361B
:0C096400F6A80B0886820886830886F03F
:0D09700008E6120085AC82AD83AEF0FF02F8
:02097D000A3638
:0C097F00E50B2405F886820886830886B4
:0C098B00F0120582AE82AF83A80B08A614
:0C0997000608A607087600087600A80BEA
:0E09A30008E6C0E008E6C0E008E6C0E008E6AE
:0E09B100C0E09023E0E4F5F012193FAC82ADF7
:0C09BF0083AEF0FFE58124FCF581A80B5D
:0E09CB0008A60408A60508A60608A6077405D7
:0C09D900C0E0E4C0E0C0E0C0E0A80B08F3
:0E09E50086820886830886F008E61218B6ACF3
:0D09F30082AD83AEF0FFE58124FCF581A804
:0C0A00000B08A60408A60508A60608A618
:0C0A0C0007A80B0886820886830886F085
:0E0A180008E6120085AC82AD83AEF0FF8010C0
:090A260090FFFE74FFF5F080075B
:070A2F0090FFFF74FFF5F0DA
:060A3600850B81D00B22AC
:0C0A3C00E582FF701AE55B5401FE24FF08
:0A0A48009204400930000675820098
:030A52001214FA81
:060A5500300629C2042254
:0B0A5B00BF011AE55B5401FE24FF926E
:0A0A660005400930020675820112F6
:020A700014FA76
:060A720030060CC2052253
:080A7800BF0206C204C205D250
:010A8000066F
:010A81002252
:0E0A8200E582FF75F003A49019CA93FEBE0F23
:030A9000028003DE
:030A9300BE0E593B
:0E0A9600EFC423541FFD74075F901A0C93FCED
:0C0AA400ED2425F98703EC5B601F744013
:0E0AB0004FF582C007C005C0041214FAD0042E
:0C0ABE00D005D007ED2425F98703ECF4E7
:030ACA00FA5BF7DD
:0C0ACD00ED2428F98703EC5B602A8F827F
:0D0AD900C005C0041214FAD004D005ED24AD
:090AE60028F98707ECF45FF72200
:0C0AEF00E50830E70DEE9019C493F58285
:060AFB00120178754406AB
:010B010022D1
:0A0B0200C00B85810BC082C083C0C8
:030B0C00F07C007A
:030B0F00BC030024
:0C0B12005058A80B08EC26FAE40836FB4B
:0E0B1E000886078A828B838FF0121923FAFF54
:0A0B2C00603BECC40354F8FE7D00AA
:030B3600BD0800F7
:0E0B3900502EED901A0C93FB5F6022ED2EFB08
:0C0B470075F003A49019CA93FAE544600D
:060B530008BA0F02800346
:030B5900BA0E0AC7
:0A0B5C008B82120A82758201800963
:030B66000D80CD32
:030B69000C80A35A
:030B6C007582008F
:060B6F00850B81D00B2272
:0E0B750090002575F040120B02E5826001220F
:090B830090002875F040020B02FD
:070B8C0030041020010D9060
:090B93001A1475F0801200FE75C1
:030B9C00440622EA
:070B9F0030051020030D904A
:090BA6001A1B75F0801200FE75A7
:030BAF00440622D7
:060BB200200403200106EF
:060BB80020050F30030CC4
:0A0BBE00901A2275F0801200FE75F7
:020BC8004406E1
:010BCA002208
:0D0BCB0075D16075D27075D38075D161153C
:060BD8004CE544601AD553
:090BDE004417740125454011057E
:0A0BE7004574FB25455009740245D2
:060BF10024F582120283CC
:060BF700E54C30E0012294
:080BFD0030003BE549601AD508
:090C05004934901A0CE493FFE558
:060C0E002842078F289028
:0A0C14001A0FE493FE4FF528801D2F
:0C0C1E00901DFBE493FF30E614D5471155
:080C2A00901DFAE493F54790D8
:080C32001A0FE493FF4528F5B9
:010C3A002891
:0C0C3B0030021D901DFBE493FF30E51417
:090C4700D54711901DF7E493F567
:080C500047901A11E493FF45DF
:030C580028F52854
:0A0C5B00E54C5407705EE54B605A4B
:050C6500A20072017203
:080C6A00027203405074F225F0
:0A0C72004B5016901DFDE493FFE5C2
:0C0C7C004B24F2D39407F4901A0C93FE62
:030C88005F701C7E
:0C0C8B0074FA254B502C901DFCE493FFE4
:0C0C9700E54B24FAD39407F4901A0C9358
:040CA300FE5F60167A
:0A0CA700E54BC423541F2428F987ED
:0C0CB100077407554B901A0C93FE4FF788
:020CBD00154BD5
:080CBF00E54C702F754C78A282
:050CC700017203B3926D
:070CCC0018A206E433FFA2A9
:090CD30018E433FE5F6002C20662
:0C0CDC00901DFBE493FF30E40DD54A0AA4
:080CE800901DF9E493F54A7533
:020CF0004B15A2
:010CF20022DF
:0E0CF3007584037585037580FB1200D675D2DB
:090D01007075D38075D1617F008B
:030D0A00BF030024
:0A0D0D00500FEF2425F87600EF24C4
:070D170028F876000F80ECC4
:070D1E0075440075450075E6
:060D2500430F7508FF906A
:0B0D2B001D18E493FF747F5FF54CC2BD
:040D360001C200C234
:040D3A0003C202C22C
:040D3E0004C205C224
:050D420006754B007571
:060D47004A017547017529
:060D4D0048017549007524
:0A0D5300460075240075C1FFC2AF11
:0E0D5D0075A7E575C2A575C35AD2AF7582069B
:090D6B001200F47582060200F486
:0619C40004090B0C0D0EDE
:0E19CA000E007F0E007F0E007F0E007F0E00CD
:0E19D8007F0E007F00000101000602000202E7
:0E19E60003030300050302040E007F0E007FC2
:0E19F4000E007F02020304000304010304023C
:0A1A020003040303050003050103BC
:081A0C000102040810204080D3
:071A140030333032313000A5
:071A1B003033303238300097
:071A22003033303230300098
:0400000002002332A5
:01000B0032C2
:03001300020E4F8B
:03001B00020E7F53
:0300820002001E5B
:05001E00120D7480FECC
:070D7400121869C2977F000D
:030D7B00BF320084
:0E0D7E005016C28C758C00901D18E493F58AF7
:040D8C00C28DD28CB6
:060D9000308DFD0F80E52F
:020D96007F00DC
:0E0D9800EF24FC402C74032F901D0093FEEFFF
:0B0DA600901A2993FDEEB505028015A0
:0E0DB100C2AF75E40075E71D75E60D75E5FB34
:070DBF0075E468D2AF800368
:030DC6000F80CFCC
:030DC900120CF316
:0C0DCC00901D0DE493FFBFFF27201424AE
:0B0DD800E57B20E01F3098031201C9EA
:090DE300748025D15003120BCBE2
:070DEC00E5447003120B8CBB
:090DF300E5447021120B75801C0F
:0C0DFC00748025D1501630141375D1619D
:0A0E0800E57C24914004057C80067F
:060E12007582851214FA3E
:060E1800300D0312154D20
:0E0E1E00C2AF75C2A575C35AD2AFD297209746
:030E2C00107F64D0
:080E2F008F061E8E07EF70F81C
:060E37003097FD637B8192
:080E3D00E57B5401FFB4010044
:0A0E4500E433FF24FF9297020DCC66
:041A2900004C03F278
:011D0000FFE3
:021D010002409E
:021D0300004C92
:021D050003F2E7
:011D070023B8
:011D0800FFDB
:011D090000D9
:011D0C0000D6
:011D0D00FBDA
:021D1700FFFFCC
:0E0E4F00C0E0C0D0C2AAC28E740F5589242004
:0E0E5D00F589758B35758D80C28FD28ED2AB24
:060E6B00757702C209D2F6
:050E7100077576007515
:090E76007500D208D0D0D0E032A2
:0C0E7F00C023C0E0C0F0C082C083C007E8
:0E0E8B00C006C005C004C003C002C001C00004
:0A0E9900C0D075D000C00BE581F554
:0A0EA3000B2404F581E577FF24F12C
:050EAD005003021410C7
:070EB200EF2F2F900EB97322
:070EB900020EE60214100214
:060EC00011AA02126A02F1
:060EC60012730212FD028E
:060ECC00141002141002D4
:060ED200141002141002CE
:060ED800131F0213870244
:060EDE0014100213AB0228
:020EE40013F900
:0E0EE600C28E740F55892420F589758B807596
:0A0EF4008D80C28FD28EE579B57AA9
:040EFE00030211A337
:080F0200E57A246BF98707C2B0
:0C0F0A00187DFE7E00EFA2E5E433FC241D
:060F1600FF9219BF8000EC
:050F1C00400302104932
:0C0F2100C005C006EF2323540124FF92FA
:0B0F2D001A53071F8F82C007C005C0C9
:0C0F3800231205C2AA82AB83ACF0FED0ED
:0A0F440023D005D007A80B08A60271
:0E0F4E0008A60308A60408A606901D11E49349
:0E0F5C00FE0EEF2FFD2EFC04901D0093FEB53F
:040F6A0007028006F4
:060F6E00D006D005800F43
:0E0F7400D006D0058C8275831DE493FCFD7EB3
:010F8200006E
:090F8300BDFE06BE00030211527E
:0A0F8C007554BC901D17E493FC8C13
:0A0F960055901D18E493FC8C56EDF5
:0C0FA0002DFD2417901D0093FE8E577449
:0A0FAC00182D901D0093FE8E58755D
:060FB6005A00301A057517
:040FBC005B40800313
:030FC000755B80DE
:0E0FC300901D12E4932F2FFE2F2404901D008A
:0C0FD10093FE24F95006EE24FBFE800283
:020FDD007E0193
:0C0FDF0074E02EF559EE24FE500F74064D
:0A0FEB002E2454F9A80B088605A770
:030FF50005801064
:0C0FF800A80B08743F56FAE4FBFCFDEA6D
:04100400255BF55B18
:0C100800EE24FD500E74052E2454F9A8AF
:071014000B08088605A70583
:0C101B00EE24FC500F74042E2454F9A89D
:081027000B0808088605A70567
:0C102F00EE24FB501074032E2454F9A88A
:09103B000B080808088606A70648
:05104400D21802115258
:0A1049007554B0901D17E493FE8E5D
:0A10530055901D18E493FE8E56859B
:03105D004D578567
:0A1060004E5853071FEF24F8500309
:03106A0002115020
:07106D00EF2F2F90107473A8
:0710740002115002108C0272
:06107B0010980210AF0204
:0610810010C10211210262
:05108700112B021147CE
:08108C0075596074C22553F58B
:041094005A0211509B
:081098007559637443254FF5FF
:0510A0005A755B40756C
:0610A5005C00755D12D233
:0410AB0015021150C9
:0710AF00755700755800752C
:0610B60059E1755A0175B5
:0510BC005B4002115031
:0210C1007F00AE
:0A10C300C3EF9550503CE551702634
:0A10CD00740A2F2454F87600AD5287
:0E10D7007E008F037C00EB2DFDEC3EFEBD6025
:0B10E5001CBE0019740A2F2454F8A64A
:0310F0007B800FF3
:0A10F300740A2F2454F9EF255290DF
:0510FD001D0093FEF749
:031102000F80BE9D
:0911050074632550F5597442454C
:06110E004FF55A74404544
:0411140050F55B85B2
:03111800515C85A2
:03111B00525DD250
:03111E0015802F0A
:07112100755960755A81C287
:031128001480250B
:08112B007559647441454FF54C
:061133005A74404551F51D
:031139005B855281
:05113C005C755D057506
:061141005EA0D21580093A
:0811470075596074C2254FF5D3
:01114F005A45
:02115000D218B3
:0811520030190674DF5554F555
:01115A005440
:0A115B0030183DC2AAE5777032E5B6
:0A1165007A246BF9E7FF20E5077418
:06116F00204FF775780027
:0B11750074FC257840051214628016FF
:06118000057A537A07C254
:0411860011C215126B
:0C118A001434C28E758DF0758B00D28E6F
:05119600D2AA021410B2
:06119B00057A537A0702F9
:0211A100141028
:0711A300C28ED2AA02141053
:0A11AA00A28BB39218C28B75770375
:0A11B400758D00E576700A7576016E
:0511BE00C20AC20B0291
:0211C300141006
:0A11C500747F2576401C301808B234
:0411CF0009E5762593
:0311D30075F5753A
:0511D600E5762576F529
:0611DB007660030214100F
:0611E10075768102141076
:0A11E700C28EC28FA209201801B3C6
:0A11F100502CE573700E74CCB57538
:0311FB0002D20A13
:0711FE00740CB57502D20B61
:07120500200A19200B16E579
:08120C007324E94010E573248E
:0612140054F8E575F662D6
:05121A00740573800261
:02121F00C20704
:05122100101102801D08
:07122600300A1430071175B6
:07122D00780410150280098E
:07123400E54F2404F54F53C0
:02123B004F3C26
:06123D001214340214102B
:0712430030071E200A1B20EA
:0C124A000B18740F55892410F589758D60
:0C125600FA758B70D28E757704D2AA0254
:02126200141066
:0612640012143402141004
:09126A00758D80757702021410E5
:06127300200F030212F738
:0C127900E57324F85078C28E740F55897C
:0D1285002410F589758DEF758B42D28EC255
:071292000CE55930E71F8550
:051299005782C058124D
:0B129E0014ACAF821581BFFF0280027C
:0212A900D20C65
:0912AB00E557701CE5587018D2DB
:0312B4000C801497
:0C12B700901D17E493FFB5570B901D1815
:0812C300E493FFB55802D20CC0
:0A12CB0074FFB57421740F5559FF2C
:0C12D5007E0074082FFFE43EFEAC737D29
:0C12E10000EFB5040BEEB50507D2163087
:0412ED000C02D20D10
:0612F100757705021410E0
:0612F70012143402141071
:0912FD00C28E301613300C0AD227
:0513060012121462C286
:04130B0011021410A7
:06130F0012143402141058
:06131500D213121462C2A3
:04131B001102141097
:08131F00E5732454F98707303F
:0413270012027FCC63
:05132B003013027F0CED
:09133000C2AA740AB57702800319
:031339000214108B
:0A133C00E576247F402CE5765F7013
:0913460008D296C210B20980021F
:02134F00D210BA
:08135100E5767007757601C214
:0313590009800602
:05135C00E5762576F5A1
:011361007615
:07136200E57670037576814A
:0513690075770B8013F5
:09136E00200906D296C21080028B
:02137700D21092
:0613790005737576007596
:02137F00770DE8
:06138100758D120214102C
:0A138700E57370077401B5760205E6
:0113910078E3
:0A139200C296A210828B5007C21110
:05139C0012143480066C
:0613A10075770A758D6EE0
:0413A700C28B806510
:0E13AB00C296C28E740F55892410F589758D77
:0A13B900FB758B90D28E20120330DA
:0213C300130510
:0513C500121434802B1E
:0C13CA00740F5559FF7E0074072FFFE4DC
:0C13D6003EFEAC737D00C3EF9CEE648013
:0C13E2008DF063F08095F05007D20E12E1
:0413EE001434800330
:0313F20075770EFE
:0413F500C28B801710
:0E13F900C28E740F55892420F589758D6E758E
:091407008B80C28FD28E75770A2A
:06141000D208850B81D01B
:0C1416000BD0D0D000D001D002D003D009
:0E14220004D005D006D007D083D082D0F0D001
:04143000E0D02332B3
:0A143400757700C28BC28EC2AB7543
:0A143E007400757300C28E740F5520
:0C144800892410F589758D89758BAFC261
:0A14540012C213C28FD28ED2AAD2A8
:04145E00ABC21622E5
:0E146200C28E740F55892420F589758D6E7524
:0C1470008B80C28F740F55592407FF7544
:04147C0074FF7E007B
:0C148000C3EE9F500BEE2454F9E7FD6210
:04148C00740E80F06A
:07149000EF2454F8A674C21A
:041497000AC20BD2A8
:05149B001175770A75D0
:0A14A0007600757300C2AAD28ED246
:0214AA00AB2273
:0A14AC00C00B85810BAF827EFF901C
:0814B6001D16E493FDBDFF00CB
:0E14BE005035901D16E493602E901D16E49399
:0214CC00FD1D04
:0E14CE00ED6024ED2DFC2417901D0093FBEF24
:0C14DC00B5031374182C901D0093FCE560
:0A14E8000B24FDF8E6B504028D06A2
:0314F2001D80D981
:0514F5008E82D00B22E5
:0714FA00AF82C218BF4000E1
:0C150100501B8F82C007C023121853E556
:0C150D0082D023D0075444FEBE4402806C
:0115190004CD
:04151A00D218802A39
:09151E00AD797E000DBD00010E47
:0C1527005305077E00AB7A7C00EBB50595
:0715330006ECB50602800E74
:08153A00E579246BF8A6070512
:0515420079537907D286
:01154700188B
:05154800D28EA2182262
:0A154D00C00BE581F50B2404F581C5
:09155700C20DAF5A74C35FFEAD72
:071560005BA80B08A605E5DE
:0915670057FB7049E5587045E599
:071570007B20E00302184D8F
:09157700EE7020A80B08B6C01AA2
:0C158000E57770FCC2AF75E40075E71D54
:0A158C0075E617855CE5855DE575E1
:04159600E468D2AF84
:05159A00BE0102800308
:03159F0002184DE2
:0915A200A80B08E6600302184DD5
:0915AB007582831214FA02184D36
:0815B400E55930E70302179826
:0C15BC00901D17E493FAEBB502028003C7
:0315C80002184DB9
:0B15CB00901D18E493FAB5580280034D
:0315D60002184DAB
:0815D900757C00BE4102802078
:0515E100BE4202802F54
:0615E600BE430302172CB6
:0615EC00BE80030217524D
:0615F200BE810302177424
:0615F800BE830302178D03
:0315FE0002184D83
:041601008D51855C26
:0B160500527582871214FA758286125B
:0516100014FA02184D60
:0616150020140302184D31
:0A161B00743C5FF553A80B08E65479
:0A162500F0F6A80B08B6800280035F
:03162F0002170B94
:0B1632007582811214FA740F555BFFE3
:0A163D00E57770FCC2AF75E400AA67
:0A1647005C74015A241CFBAE5DA880
:051651000B0808760003
:0C165600A80B0808C3E69F40030217061B
:0C166200EA703CC002E50B2403F8A60669
:0C166E00087600A80B080886047D00E543
:0C167A000B2403F8EC26FCED0836FDBC48
:071686006005BD00028004B5
:04168D00D0028026E1
:0A169100D002A80B0808740A2624F2
:06169B0054F9877B801664
:0B16A1008BE7A80B0808E62EF5E6A872
:0A16AC000B0808740A262454F9877D
:0116B600E54E
:0A16B7008E047D00A80B0808E50B67
:0C16C1002403F9E6F7097700E50B240389
:0E16CD00F8E62CFC08E63D53043F7D00BC3FD0
:0D16DB0022BD001F8F047D001CBCFF011DFF
:0C16E800E50B2403F8E6B5040708E6B59E
:0416F4000502800665
:0616F80075E46875E400D2
:0816FE00A80B080806021656AD
:0517060075E468D2AF9C
:09170B00A80B08E6600302184D6A
:04171400855B50851C
:031718005C51859C
:06171B005D52758281128F
:0917210014FA7582841214FA0214
:02172A00184D58
:0A172C00743C5FF553A80B08B6806B
:041736000343A208BF
:09173A00A80B08E6600302184D3B
:0D1743007582811214FA7582821214FA0266
:02175000184D32
:0617520030140302184DE3
:04175800D2148555CD
:03175C004D855662
:05175F004E754F00C2B1
:0C1764001575D16075D20B75D3B375D12B
:041770006102184DAD
:07177400E555B54D028003AD
:03177B0002184D04
:07177E00E556B54E028003A1
:0317850002184DFA
:05178800C21402184D1F
:09178D007582851214FAC21402DF
:02179600184DEC
:06179800EE600302184D93
:0C179E00C0588B821214ACAF821581BFC2
:0517AA00FF0302184DD1
:0E17AF00901D11E493FEF58275831DE49325D1
:0C17BD00E02EFD0EA80B0874C056FCE4E2
:0417C900BC800104DB
:0117CD00FC1F
:0817CE00C3EE9D400302184D1B
:0E17D6008E8275831DE493FBEFB50366EE046F
:0E17E400901D0093FBF582C007C006C005C033
:0E17F20004C003121853AA82D003D004D005FD
:0E180000D006D007EC602EC00474145AFCBC55
:04180E00140280043C
:04181200D004801F5F
:0E181600D0048B82C007C006C005C004C0030A
:0E182400C002120A3CD002D003D004D005D07E
:0318320006D007D6
:0C183500A80B08E6700D53020CBA0C0C56
:071841008B821204D3800525
:051848000E0E0217CE98
:06184D00850B81D00B2287
:0E185300AF82901D12E493FE0E0E0EEF2E2FAC
:081861002F901D0093F5822277
:0E18690075950075911475924CC29675892183
:0E187700758F00C28CC28E758D80758B80C2FD
:0C1885008FC20875A88075E80075B804D3
:0A18910075B70CD28A757B2EC20ACF
:05189B00C20BC212C2E5
:0418A00013C20DD290
:0518A4000F75790075CD
:0618A9007A00754F00C239
:0418AF0015C2141238
:0318B300143422C8
:06005200E478FFF6D8FD82
:080030007900E94400601B7A2D
:0500380000901A2D7874
:03003D000075A0AB
:0A00400000E493F2A308B8000205E3
:08004A00A0D9F4DAF275A0FF61
:080058007800E84400600A7919
:030060000075A088
:0600630000E4F309D8FCE3
:080069007800E84400600C7906
:0B00710000900000E4F0A3D8FCD9FAD6
:0618B600FBE58124FBF8B4
:0A18BC00E6F9087A20E4FCFDFEFFC7
:0E18C600E5822582F582E58333F583E5F03374
:0B18D400F5F0EB33FB4017DAE980422F
:0E18DF00E5822582F582E58333F583E5F0335B
:0518ED00F5F0EB33FBF8
:0E18F200EC33FCED33FDEE33FEEF33FFEC99EB
:0E190000ED96EE0896EF089618184013EC9935
:0E190E00FCED96FDEE0896FEEF0896FF181809
:03191C0043820102
:02191F00DABE2E
:02192100EB22B7
:0300230075817C68
:0A0026001219AFE582600302001E0C
:0E19230020F71430F6148883A88220F507E61A
:06193100A883758300226B
:03193700E280F754
:03193A00E4932211
:02193D00E022A6
:0E193F00AAF0FB74FB2581F8E58286F0A9F082
:0E194D0008A4FCADF0E58389F0A42DFDE4357F
:0E195B00F0FEE58286F0A42DFDE5F03EFEE4F0
:0E19690033FFEA89F0A42EFEE5F03FFFE58390
:0E19770086F0A42EFEE5F03FFFE5820886F024
:0E198500A42EFEE5F03FFFEB89F0A42FFFE556
:0E1993008386F0A42FFFEA1886F0A42FFFE54C
:0E19A10082080886F0A42F8EF08D838C82229F
:0419AF00758200221B
:00000001FF
