:0B008500AC82AD83AEF0FF7A007B0080
:0E009000C3EC94FFED9407EE9400EF94004053
:06009E00140ABA00010B78
:0E00A400EFC313FFEE13FEED13FDEC13FC8013
:0100B200DD70
:0E00B300EAC40354F8FB7A008A008B01E4FAD9
:0E00C100FBE84204E94205EA4206EB42078CE6
:0700CF00828D838EF0EF2209
:04007C007509887505
:020080000A195B
:0E00D60053BDFE5391FC5392FC75985143BAF2
:0E00E400E043BD0275BF0275BEF043BD01D200
:0200F200992251
:0200F400AF82D9
:0500F60010990280FBDF
:0300FB008F9922B8
:0E00FE00AD82AE83AFF07C00758202C007C0F9
:0E010C0006C005C0041200F4D004D005D006D1
:02011A00D0070C
:0E011C008D828E838FF01218F8FB601FEB2C83
:0E012A00FC8B82C007C006C005C0041200F4A2
:0E013800D004D005D006D0070DBD00D80E8033
:01014600D5E3
:0A014700ECC4540F2509F582E435DD
:0C0151000AF583E493F582C0041200F468
:0B015D00D004740F5C2509F582E43526
:0C0168000AF583E493F5821200F475821E
:04017400030200F48E
:0A017800C00B85810B058105810590
:0C01820081E582FFC4540FFEA90B09EEBA
:0A018E002509F582E4350AF583E443
:0C01980093F7740F5FFEE904F8EE2509F0
:0C01A400F582E4350AF583E493F674025A
:0E01B00029F8760089077E007D408F828E83BD
:0901BE008DF01200FE850B81D0CA
:0201C7000B2209
:0C01C900AF99C298E50830E706BF0202BB
:0201D50005081B
:0101D7002205
:0C01D800E508A2E713FEBF032A758206AB
:0E01E400C0061200F4D006C374818EF063F0E2
:0E01F2008095F05010EE14FDC00590000C75C5
:07020000F0401202A9158174
:040207007508FF2255
:0A020B00C3E5086480948C400122D2
:03021500BF3000F7
:0E021800400EEF24C640098F05ED24D0FDFFF7
:02022600801442
:03022800BF4100D3
:0E022B00400EEF24B940098F05ED24C9FDFFF8
:02023900800142
:01023B0022A0
:0A023C00E50830E00FEE240CF9E7AE
:0A024600C454F0FDF7EF4DF78006F9
:06025000EE240CF8A607E5
:0302560005082276
:0E19880030313233343536373839414243443A
:03199600454600C3
:06025900A200201801B311
:0E025F00400C75820012148175820302148116
:01026D00226E
:06026E00A202201801B3FA
:0E027400400C758201121481758205021481FE
:010282002259
:07028300E582FFB524012212
:0C028A00EF652430E00C9019E6E493FED0
:060296004529F529800A4C
:09029C009019E7E493FE4529F5F1
:0102A500292F
:0302A6008F242280
:0A02A900C00B85810BC082C083C02A
:0902B300F0754400E545600D758D
:0A02BC004500AC245304FD8C8212AF
:0202C6000283B1
:0C02C800A80B0886820886830886F012C6
:0C02D40018F8FC74F05CFBBBC002800357
:0302E0000203C452
:0502E30053040F7B0035
:0302E800BB060052
:0D02EB00500EEB90199993FAB504028003B0
:0302F8000B80ED8B
:0302FB00BB06003F
:0502FE0040030204CDE5
:0C030300EB2B25E0242BF987020987036F
:0C030F000987060987071919197812A63A
:0C031B000208A60308A60608A607A80B07
:0E03270008740126FDE40836FE0886078D8264
:0E0335008E838FF01218F8FDA31218F8FEA3A5
:0E0343001218F8FFA31218F8FBA70509A70669
:0B03510009A70709A70375430F7F00F1
:03035C00BF1600C9
:05035F0040030204CD83
:0E036400EFC423541FFE74075F9019E193FD50
:0C037200EE2425F98703ED5B601F74404A
:0E037E004FF582C007C006C005121481D005DD
:0C038C00D006D007EE2425F98703EDF41D
:03039800FA5BF716
:0C039B00EE2428F98703ED5B601C8F82C4
:0E03A700C007C006C005121481D005D006D0D4
:0C03B50007EE2428F98706EDF4FD5EF742
:0303C1000F809812
:0503C400BC8202800371
:0303C9000204CD5E
:0803CC00E50B24FDF8B6050065
:0503D40050030204CDFE
:0C03D900A80B08740126FDE40836FE089D
:0D03E50086078D828E838FF01218F8FFA816
:0C03F2000B08740226FCE40836FD0886A7
:0E03FE00068C828D838EF01218F8FEEFC45428
:0C040C0001FD740C5E4205ED24FF921807
:0A04180092F0C007C006C02385F073
:0504220023120259D075
:0604270023D006A218928A
:0A042D000074605E24FF921892F044
:08043700C006C02385F023126A
:09043F00026ED023D006D007A202
:0A044800189202EEC4540124FF9242
:0A04520001EE235401FD24FF920384
:0A045C00E5246E30E014AD245305D2
:0E046600FE530601EE42058D82C0071202838E
:02047400D007AF
:09047600EF30E31E100402800ABD
:0A047F00758203C007121481D00734
:05048900100502800ACD
:0A048E00758205C007121481D00723
:0C049800EF30E131A80B08740426FDE4ED
:0D04A4000836FE0886078D828E838FF012C9
:0C04B10018F8FDFF74035524FEEF30E244
:0404BD0003430604EB
:0704C100EF30E403430608DD
:0504C8008E8212028388
:0604CD00850B81D00B221B
:0C04D300E582FFC423541F2425F987068E
:0A04DF0074075F9019E1934EF722B5
:0A04E900C00B85810BC082C083C0E8
:0C04F300F0E5812404F581E50B2404FCF5
:0C04FF002403F9A80B08868208868308F5
:0C050B0086F01218F8F774022CF9A80B07
:0E05170008740126FAE40836FB0886078A827B
:0C0525008B838FF01218F8F7EC04F9A893
:0C0531000B08740226FDE40836FE088664
:0C053D00078D828E838FF01218F8F7E50E
:0A0549000B2404F9A80B0874032624
:0E055300FDE40836FE0886078D828E838FF049
:0C0561001218F8F7E50B2404F9870409D0
:0E056D0087050987060987078C828D838EF02B
:07057B00EF850B81D00B227C
:0A058200C00B85810B05810581ADDA
:0C058C0082AE83AFF0AC0B0CEC04F98DD8
:0C059800828E838FF01218F8FCF7A90B7C
:0605A400090DBD00010E6F
:0C05AA008D828E838FF01218F8F7A90BD9
:0A05B600098782098783850B81D035
:0205C0000B220C
:0A05C200C00BE581F50B240BF58159
:0E05CC00E582FF75F003A4FE90199F93FDBD1C
:0405DA000E0280038A
:0305DE000206D83A
:0805E100EF24F150030209DCD4
:0705E900EF2F2F9005F073C6
:0705F00002061D02063202A3
:0605F700064702061D028A
:0605FD00065C020632025A
:0606030006D50206D50237
:0606090006D50206D50231
:06060F0006D50206D5022B
:0606150006C302067C0290
:02061B00069D3A
:0C061D00A200E433FA7B007C007F008A1E
:09062900828B838CF0EF0209E3DF
:0C063200A202E433FA7B007C007F008A07
:09063E00828B838CF0EF0209E3CA
:0C064700A206E433FA7B007C007F008AEE
:09065300828B838CF0EF0209E3B5
:08065C00E4B5490474018001BA
:01066400E4B1
:04066500FFB40100DD
:0E066900E433FF7C007B007A008F828C838B51
:05067700F0EA0209E3B6
:0A067C0074015524FFE4BF000104DF
:04068600FFB40100BC
:0E068A00E433FF7C007B007A008F828C838B30
:05069800F0EA0209E395
:0C069D00AC247F005304FEE4BC0004BF4A
:0306A90000010449
:0406AC00FCB4010099
:0E06B000E433FC7F007B007A008C828F838B0A
:0506BE00F0EA0209E36F
:0C06C300AA247B007C007F008A828B83CD
:0606CF008CF0EF0209E3CC
:0306D5000209DC3B
:0606D800BD0F030209DC66
:0A06DE00EDB5430FE50B2405F87697
:0906E80012087600087640801427
:0A06F100ED2D25E0242BFDE50B2480
:0A06FB0005F8A60508760008764011
:0A070500EE249FFEE43419FD8E82FD
:0C070F008D83A3E493FAE50B2405F8EABF
:0E071B0026F6E40836F68E828D83A3A3E493BF
:08072900FE24F950030209D37C
:07073100EE2E2E9007387335
:070738000209D30207800251
:06073F00080F02074D0245
:06074500084502092A022A
:02074B0007B2F3
:0C074D00E50B2405F886820886830886E8
:0C075900F01218F8FEE50B2408F8A606C4
:0C076500087600087600087600E50B24FA
:0D07710008F886820886830886F008E602F4
:02077E0009E38D
:0C078000E50B2405F886820886830886B5
:0C078C00F01204E9C8E50B2408C8A6829E
:0C07980008A68308A6F008F6E50B24086C
:0E07A400F886820886830886F008E60209E3DC
:0C07B200E50B2405F88682088683088683
:0C07BE00F01204E9C8E50B2408C8A6826C
:0C07CA0008A68308A6F008F6E50B24083A
:0E07D600F8080808E6C313F618E613F618E64E
:0E07E40013F618E613F6080808E6C313F61815
:0C07F200E613F618E613F618E613F6E519
:0C07FE000B2408F886820886830886F029
:05080A0008E60209E30D
:0C080F00E50B2405F88682088683088625
:0C081B00F0120582AD82AE83E50B2408CC
:0D082700F8A60508A606087600087600E58C
:0C0834000B2408F886820886830886F0F2
:0508400008E60209E3D7
:0C084500E50B2405F886820886830886EF
:0C085100F01218F8FE7D00E50B2405F8FD
:0E085D00740126FAE40836FC0886078A828CAD
:0E086B00838FF01218F87F002EFEEF3DFDA8DF
:0C0879000B08A60608A605ED3395E00864
:0C088500F608F6A80B08E6C0E008E6C084
:0E089100E008E6C0E008E6C0E0900019E4F5DB
:0E089F00F0121914AF82AE83ADF0FCE5812497
:0C08AD00FCF581A80B08A60708A60608A9
:0C08B900A60508A604A80B08E62430F6EB
:0E08C50008E634F8F608E634FFF608E634FFDD
:0E08D300F6901DFEE493FBC2D575F00AEB30E3
:0608E100E704B2D5F404A7
:0E08E700A430D50AF42401C5F0F43400C5F0A5
:0C08F500FBE5F0FA3395E0FEFFA80B08CD
:0E090100EB26F6EA0836F6EE0836F6EF083674
:0C090F00F6A80B0886820886830886F094
:0D091B0008E6120085AC82AD83AEF0FF024D
:0209280009E3E1
:0C092A00E50B2405F88682088683088609
:0C093600F0120582AE82AF83A80B08A669
:0C0942000608A607087600087600A80B3F
:0E094E0008E6C0E008E6C0E008E6C0E008E603
:0E095C00C0E09023E0E4F5F0121914AC82AD77
:0C096A0083AEF0FFE58124FCF581A80BB2
:0E09760008A60408A60508A60608A6077488A9
:0C098400C0E07413C0E0E4C0E0C0E0A8D4
:0C0990000B0886820886830886F008E6C3
:0E099C0012188BAC82AD83AEF0FFE58124FC17
:0C09AA00F581A80B08A60408A60508A605
:0C09B6000608A607A80B088682088683A6
:0E09C2000886F008E6120085AC82AD83AEF028
:0309D000FF801095
:0909D30090FFFE74FFF5F08007AF
:0709DC0090FFFF74FFF5F02E
:0609E300850B81D00B2200
:0C09E900E582FF701AE55B5401FE24FF5C
:0A09F50092044009300006758200EC
:0309FF001214814E
:060A0200300629C20422A7
:0B0A0800BF011AE55B5401FE24FF92C1
:0A0A13000540093002067582011249
:020A1D00148142
:060A1F0030060CC20522A6
:080A2500BF0206C204C205D2A3
:010A2D0006C2
:010A2E0022A5
:0E0A2F00E582FF75F003A490199F93FEBE0FA1
:030A3D0002800331
:030A4000BE0E598E
:0E0A4300EFC423541FFD74075F9019E193FC6C
:0C0A5100ED2425F98703EC5B601F744066
:0E0A5D004FF582C007C005C004121481D004FA
:0C0A6B00D005D007ED2425F98703ECF43A
:030A7700FA5BF730
:0C0A7A00ED2428F98703EC5B602A8F82D2
:0D0A8600C005C004121481D004D005ED2479
:090A930028F98707ECF45FF72253
:0C0A9C00E50830E70DEE90199993F58203
:060AA800120178754406FE
:010AAE002225
:0A0AAF00C00B85810BC082C083C01C
:030AB900F07C00CE
:030ABC00BC030078
:0C0ABF005058A80B08EC26FAE40836FB9F
:0E0ACB000886078A828B838FF01218F8FAFFD4
:0A0AD900603BECC40354F8FE7D00FE
:030AE300BD08004B
:0E0AE600502EED9019E193FB5F6022ED2EFB88
:0C0AF40075F003A490199F93FAE544608C
:060B000008BA0F02800399
:030B0600BA0E0A1A
:0A0B09008B82120A2F758201800909
:030B13000D80CD85
:030B16000C80A3AD
:030B1900758200E2
:060B1C00850B81D00B22C5
:0E0B220090002575F040120AAFE582600122B6
:090B300090002875F040020AAFA4
:070B390030041020010D90B3
:090B400019E975F0801200FE7540
:030B49004406223D
:070B4C0030051020030D909D
:090B530019F075F0801200FE7526
:030B5C004406222A
:060B5F0020040320010642
:060B650020050F30030C17
:0A0B6B009019F775F0801200FE7576
:020B7500440634
:010B7700225B
:0D0B780075D16075D27075D38075D161158F
:060B85004CE544601AD5A6
:090B8B00441774012545401105D1
:0A0B94004574FB2545500974024525
:060B9E0024F5821202831F
:060BA400E54C30E00122E7
:080BAA0030003BE549601AD55B
:090BB20049349019E1E493FFE5D8
:060BBB002842078F28907C
:0A0BC10019E4E493FE4FF528801DAF
:0C0BCB00901DFBE493FF30E614D54711A9
:080BD700901DFAE493F547902C
:080BDF0019E4E493FF4528F539
:010BE70028E5
:0C0BE80030021D901DFBE493FF30E5146B
:090BF400D54711901DF7E493F5BB
:080BFD00479019E6E493FF455F
:030C050028F528A7
:0A0C0800E54C5407705EE54B605A9E
:050C1200A20072017256
:080C1700027203405074F22543
:0A0C1F004B5016901DFDE493FFE515
:0C0C29004B24F2D39407F49019E193FEE1
:030C35005F701CD1
:0C0C380074FA254B502C901DFCE493FF37
:0C0C4400E54B24FAD39407F49019E193D7
:040C5000FE5F6016CD
:0A0C5400E54BC423541F2428F98740
:0C0C5E00077407554B9019E193FE4FF707
:020C6A00154B28
:080C6C00E54C702F754C78A2D5
:050C7400017203B392C0
:070C790018A206E433FFA2FC
:090C800018E433FE5F6002C206B5
:0C0C8900901DFBE493FF30E40DD54A0AF7
:080C9500901DF9E493F54A7586
:020C9D004B15F5
:010C9F002232
:0E0CA0007584037585037580FB1200D675D22E
:090CAE007075D38075D1617F00DF
:030CB700BF030078
:0A0CBA00500FEF2425F87600EF2418
:070CC40028F876000F80EC18
:070CCB00754400754500753A
:060CD200430F7508FF90BE
:0B0CD8001D18E493FF747F5FF54CC211
:040CE30001C200C288
:040CE70003C202C280
:040CEB0004C205C278
:050CEF0006754B0075C5
:060CF4004A01754701757D
:060CFA0048017549007578
:0A0D00004600752400C2AF75E40040
:0E0D0A0075E71D75E60375E50075E71D75E6D6
:0E0D18000475E54C75E71D75E60575E5037578
:0E0D2600E71D75E60675E5F275E71D75E60733
:0E0D340075E52275E71D75E60C75E50075E79F
:0E0D42001D75E60D75E5FF75E468D2AF75C14D
:0E0D5000FFC2AF75A7E575C2A575C35AD2AF35
:0C0D5E007582061200F47582060200F493
:0619990004090B0C0D0E09
:0E199F000E007F0E007F0E007F0E007F0E00F8
:0E19AD007F0E007F0000010100060200020212
:0E19BB0003030300050302040E007F0E007FED
:0E19C9000E007F020203040003040103040267
:0A19D70003040303050003050103E8
:0819E1000102040810204080FF
:0719E90030333032313000D1
:0719F00030333032383000C3
:0719F70030333032303000C4
:0400000002002332A5
:01000B0032C2
:03001300020E16C4
:03001B00020E468C
:0300820002001E5B
:05001E00120D6A80FED6
:070D6A0012183CC2977F0044
:030D7100BF32008E
:0E0D7400501AC28C901D17E493F58C901D1838
:080D8200E493F58AC28DD28CC6
:060D8A00308DFD0F80E139
:030D9000120CA0A2
:0C0D9300901D0DE493FFBFFF27201524E6
:0B0D9F00E57B20E01F3098031201C923
:090DAA00748025D15003120B786E
:070DB300E5447003120B3947
:090DBA00E5447021120B22801C9B
:0C0DC300748025D1501630151375D161D5
:0A0DCF00E57C24914004057C8006B9
:060DD900758285121481F1
:060DDF00300D031214D4D4
:0E0DE500C2AF75C2A575C35AD2AFD297209780
:030DF300107F640A
:080DF6008F061E8E07EF70F856
:060DFE003097FD637B81CC
:080E0400E57B5401FFB401007D
:0A0E0C00E433FF24FF9297020D93D8
:0E0E1600C0E0C0D0C2AAC28E740F558924203D
:0E0E2400F589758B35758D80C28FD28ED2AB5D
:060E3200757702C209D22F
:050E380007757600754E
:090E3D007500D208D0D0D0E032DB
:0C0E4600C023C0E0C0F0C082C083C00721
:0E0E5200C006C005C004C003C002C001C0003D
:0C0E6000C0D075D000E577FF24F15003EE
:030E6C000211630D
:070E6F00EF2F2F900E7673A8
:070E7600020EA3021163024A
:060E7D000F16020FD00267
:060E83000FD902104E021F
:060E890011630211630277
:060E8F0011630211630271
:060E950010720210DA02E7
:060E9B0011630210FE02CB
:020EA100114CF2
:0E0EA300C28E740F55892420F589758B8075D9
:0A0EB1008D80C28FD28EE579B57AEC
:030EBB0002805161
:080EBE00E57A246BF98782122A
:0B0EC6001249503DC2AAE5777032E5EA
:0A0ED1007A246BF9E7FF20E50774AF
:060EDB00204FF7757800BE
:0B0EE10074FC257840051211AE80164D
:060EEC00057A537A07C2EB
:040EF20011C2161201
:0C0EF6001182C28E758DF0758B00D28EBB
:050F0200D2AA021163F8
:060F0700057A537A07028F
:020F0D0011636E
:070F0F00C28ED2AA02116399
:0A0F1600A28BB39218C28B7577030B
:0A0F2000758D00E576700A75760104
:050F2A00C20AC20B0227
:020F2F0011634C
:0A0F3100747F2576401C301808B2CA
:040F3B0009E5762529
:030F3F0075F575D0
:050F4200E5762576F5BF
:060F470076600302116355
:060F4D00757681021163BC
:0A0F5300C28EC28FA209201801B35C
:0A0F5D005026E573700E74CCB575D4
:030F670002D20AA9
:070F6A00740CB57502D20BF7
:070F7100200A13200B10E51C
:050F7800732454F8E5AC
:050F7D0075F662740529
:030F820073800277
:020F8500C207A1
:050F8700101102801DA5
:070F8C00300A143007117553
:070F9300780410160280092A
:070F9A00E54F2404F54F535D
:020FA1004F3CC3
:060FA3001211820211632D
:070FA90030071E200A1B2087
:0C0FB0000B18740F55892410F589758DFD
:0C0FBC00FA758B70D28E757704D2AA02F1
:020FC8001163B3
:060FCA0012118202116306
:090FD000758D8075770202116332
:0A0FD900300F64E57324FB505EC284
:0E0FE3008E740F55892410F589758DEF758B6E
:080FF10042D28EA214920CE51D
:080FF9005930E71F855782C043
:0C100100581211F8AF821581BFFF028069
:01100D0002E0
:02100E00D20C02
:09101000E557701CE5587018D278
:031019000C801434
:0C101C00901D17E493FFB5570B901D18B2
:08102800E493FFB55802D20C5D
:0910300074FFB57405300C02D206
:011039000DA9
:06103A0075770502116349
:08104000E57324FE5002D20DFD
:0610480012118202116387
:0A104E00C28E74FFB57413300C0A53
:06105800D2121211AEC21B
:04105E001102116307
:061062001211820211636D
:06106800D2131211AEC20A
:04106E0011021163F7
:08107200E5732454F9870730EF
:04107A0012027FCC13
:05107E003013027F0C9D
:09108300C2AA740AB577028003C9
:03108C00021163EB
:0A108F00E576247F402CE5765F70C3
:0910990008D296C210B2098002CF
:0210A200D2106A
:0810A400E5767007757601C2C4
:0310AC00098006B2
:0510AF00E5762576F551
:0110B40076C5
:0710B500E5767003757681FA
:0510BC0075770B8013A5
:0910C100200906D296C21080023B
:0210CA00D21042
:0610CC0005737576007546
:0210D200770D98
:0610D400758D120211638C
:0A10DA00E57370077401B576020596
:0110E4007893
:0A10E500C296A210828B5007C211C0
:0510EF001211828006D1
:0610F40075770A758D6E90
:0410FA00C28B8065C0
:0E10FE00C296C28E740F55892410F589758D27
:0A110C00FB758B90D28E2012033089
:021116001305BF
:05111800121182802B82
:0C111D00740F5559FF7E0074072FFFE48B
:0C1129003EFEAC737D00C3EF9CEE6480C2
:0C1135008DF063F08095F05007D20E1290
:041141001182800394
:0311450075770EAD
:04114800C28B8017BF
:0E114C00C28E740F55892420F589758D6E753D
:09115A008B80C28FD28E75770ADA
:0C116300D208D0D0D000D001D002D003C0
:0E116F00D004D005D006D007D083D082D0F0B7
:05117D00D0E0D0233298
:0A118200757700C28BC28EC2AB75F8
:0A118C007400757300C28E740F55D5
:0C119600892410F589758D89758BAFC216
:0A11A20012C213C28FD28ED2AAD25D
:0211AC00AB2274
:0E11AE00C28E740F55892420F589758D6E75DB
:0C11BC008B80C28F740F55592407FF75FB
:0411C80074FF7E0032
:0C11CC00C3EE9F500BEE2454F9E7FD62C7
:0411D800740E80F021
:0711DC00EF2454F8A674C2D1
:0411E3000AC20BD25F
:0511E7001175770A7587
:0A11EC007600757300C2AAD28ED2FD
:0211F600AB222A
:0A11F800C00B85810BAF827EFF90D3
:081202001D16E493FDBDFF0081
:0C120A005038201435901D16E493602E1F
:07121600901D16E493FD1D7D
:0E121D00ED6024ED2DFC2417901D0093FBEFD7
:0C122B00B5031374182C901D0093FCE513
:0A1237000B24FDF8E6B504028D0655
:031241001D80D934
:051244008E82D00B2298
:0A124900C00BE581F50B2404F581CC
:0C125300AF82C2187DFE7E00EFA2E5E431
:09125F0033FC24FF9219BF80004A
:05126800400302139594
:0C126D00C005C006EF2323540124FF92AB
:0B1279001A53071F8F82C007C005C07A
:0C128400231205C2AA82AB83ACF0FED09E
:0A12900023D005D007A80B08A60222
:0E129A0008A60308A60408A606901D11E493FA
:0E12A800FE0EEF2FFD2EFC04901D0093FEB5F0
:0412B60007028006A5
:0612BA00D006D005800FF4
:0E12C000D006D0058C8275831DE493FCFD7E64
:0112CE00001F
:0912CF00BDFE06BE00030214700E
:0A12D8007554BC901D17E493FC8CC4
:0A12E20055901D18E493FC8C56EDA6
:0C12EC002DFD2417901D0093FE8E5774FA
:0A12F800182D901D0093FE8E58750E
:061302005A00301A0575C7
:041308005B408003C3
:03130C00755B808E
:0E130F00901D12E4932F2FFE2F2404901D003A
:0C131D0093FE24F95006EE24FBFE800233
:021329007E0143
:0C132B0074E02EF559EE24FE500F7406FD
:0A1337002E2454F9A80B088605A720
:0313410005801014
:0C134400A80B08743F56FAE4FBFCFDEA1D
:04135000255BF55BC9
:0C135400EE24FD500E74052E2454F9A860
:071360000B08088605A70534
:0C136700EE24FC500F74042E2454F9A84E
:081373000B0808088605A70518
:0C137B00EE24FB501074032E2454F9A83B
:091387000B080808088606A706F9
:05139000D218021470E8
:0A1395007554B0901D17E493FE8E0E
:0A139F0055901D18E493FE8E56854C
:0313A9004D578518
:0A13AC004E5853071FEF24FA5003B8
:0313B60002146EB0
:0713B900EF2F2F9013C0730A
:0713C00002146E0213D202B9
:0613C70013DE0213F50223
:0513CD00140602146685
:0813D20075596074C22553F542
:0413DA005A02146E31
:0813DE007559637443254FF5B6
:0513E6005A755B407523
:0613EB005C00755D12D2EA
:0413F1001602146E5E
:0713F50075570075580075E3
:0613FC0059E1755A01756C
:041402005B40806863
:021406007F0065
:0A140800C3EF9550503CE5517026EB
:0A141200740A2F2454F87600AD523E
:0E141C007E008F037C00EB2DFDEC3EFEBD60DC
:0B142A001CBE0019740A2F2454F8A601
:031435007B800FAA
:0A143800740A2F2454F9EF25529096
:051442001D0093FEF700
:031447000F80BE55
:09144A0074632550F55974424504
:061453004FF55A744045FC
:0414590050F55B856A
:03145D00515C855A
:03146000525DD208
:03146300168008E8
:07146600755960755A81C23F
:01146D001569
:02146E00D21892
:0814700030190674DF5554F534
:01147800541F
:06147900A218850B81D0D2
:02147F000B223E
:07148100AF82C218BF40005A
:0C148800501B8F82C007C023121826E5FD
:0C14940082D023D0075444FEBE440280E6
:0114A0000447
:0414A100D218802AB3
:0914A500AD797E000DBD00010EC1
:0C14AE005305077E00AB7A7C00EBB5050F
:0714BA0006ECB50602800EEE
:0814C100E579246BF8A607058C
:0514C90079537907D200
:0114CE001805
:0514CF00D28EA21822DC
:0A14D400C00BE581F50B2407F5813C
:0914DE00C20DAF5A74C35FFEA8F1
:0514E7000B08A65BE507
:0914EC0057FC7036E5587032E53A
:0714F5007B20E00302180553
:0C14FC00EE700DA80B08B6C007C0061269
:04150800180BD006E6
:05150C00BE0102800396
:03151100021805B8
:09151400A80B08E66003021805AB
:09151D0075828312148102180585
:08152600E55930E703021750FC
:0C152E00901D17E493FBECB50302800352
:03153A000218058F
:0B153D00901D18E493FBB558028003DA
:0315480002180581
:08154B00757C00BE4202801B0A
:06155300BE43030216E492
:06155900BE800302170A28
:06155F00BE810302172CFF
:06156500BE8303021745DE
:03156B000218055E
:06156E0020150302180520
:0A157400743C5FF553A80B08E65421
:0A157E00F0F6A80B08B68002800307
:031588000216C385
:0C158B00758281121481E55CFF70030280
:0215970016C379
:05159900740F555BFE1C
:0A159E00E57770FCC2AF75E400AC05
:0A15A8005D74015FA80B0808082419
:0815B2001CF6A80B08087600E6
:0C15BA00A80B0808C3E69E40030216BE02
:0C15C600EF703CC007E50B2404F8A604FD
:0C15D200087600A80B080886027D00E5E2
:0C15DE000B2404F8EA26FAED0836FDBAEA
:0715EA006005BD0002800452
:0415F100D00780108F
:0A15F500D007A80B0808740A26248A
:0615FF0054F9877B806AAD
:0B160500E50B2406F8A604087600A8F8
:0A1610000B0808E50B2404F9E6F7C7
:0A161A00097700E50B2406F8E50B44
:0E1624002404F9E726FB09E70836FD4B602297
:0A163200E50B2406F8E50B2404F98B
:0E163C00E726FB09E70836FDC374079BE4644C
:0A164A00808DF063F08095F0501BD6
:0A165400E50B2403F886E7A80B0855
:0C165E0008E62CF5E6A80B0808740A2624
:05166A002454F987E59E
:0A166F008C037D00A80B0808E50BB2
:0C1679002406F9E6F7097700E50B2406CB
:0E168500F8E62BFB08E63D53033F7D00BB3F1C
:0D16930022BD001F8E027D001ABAFF011D4E
:0C16A000E50B2406F8E6B5020708E6B5E5
:0416AC0005028006AD
:0616B00075E46875E4001A
:0816B600A80B0808060215BA92
:0516BE0075E468D2AFE5
:0916C300A80B08E66003021805FB
:0416CC00855B508565
:0316D0005C5185E5
:0616D3005D5275828112D8
:0916D9001481758284121481024F
:0216E2001805E9
:0A16E400743C5FF553A80B08B680B4
:0416EE000343A20808
:0916F200A80B08E66003021805CC
:0D16FB0075828112148175828212148102A1
:021708001805C2
:06170A0030150302180572
:04171000D215855514
:031714004D8556AA
:051717004E754F00C2F9
:0C171C001675D16075D20B75D3B375D172
:04172800610218053D
:07172C00E555B54D028003F5
:0317330002180594
:07173600E556B54E028003E9
:03173D000218058A
:05174000C215021805AE
:09174500758285121481C215029F
:02174E0018057C
:06175000EE600302180523
:0C175600C0588C821211F8AF821581BFC0
:05176200FF0302180561
:0E176700901D11E493FEF58275831DE4932519
:0C177500E02EFD0EA80B0874C056FCE42A
:04178100BC80010423
:01178500FC67
:08178600C3EE9D4003021805AB
:0E178E008E8275831DE493FBEFB50366EE04B7
:0E179C00901D0093FBF582C007C006C005C07B
:0E17AA0004C003121826AA82D003D004D00572
:0E17B800D006D007EC602EC00474145AFCBC9E
:0417C6001402800485
:0417CA00D004801FA8
:0E17CE00D0048B82C007C006C005C004C00353
:0E17DC00C0021209E9D002D003D004D005D01B
:0317EA0006D0071F
:0C17ED00A80B08E6700D53020CBA0C0C9F
:0717F9008B821204D380056E
:051800000E0E02178628
:06180500850B81D00B22CF
:0C180B00E57770FCC2AF75E40075E71DC6
:0A18170075E617855CE5855DE57553
:05182100E468D2AF22D3
:0E182600AF82901D12E493FE0E0E0EEF2E2FD9
:081834002F901D0093F58222A4
:0E183C0075950075911475924CC296758921B0
:0E184A00758F00C28CC28E758D80758B80C22A
:0C1858008FC20875A88075E80075B80400
:0A18640075B70CD28A757B2EC20AFC
:05186E00C20BC212C212
:0418730013C20DD2BD
:051877000F75790075FA
:06187C007A00754F00C266
:0418820016C215C2B3
:05188600141211822282
:06005200E478FFF6D8FD82
:080030007900E94400601B7A2D
:05003800009019FE78A4
:03003D000075A0AB
:0A00400000E493F2A308B8000205E3
:08004A00A0D9F4DAF275A0FF61
:080058007800E84400600A7919
:030060000075A088
:0600630000E4F309D8FCE3
:080069007800E84400600C7906
:0B00710000900000E4F0A3D8FCD9FAD6
:06188B00FBE58124FBF8DF
:0A189100E6F9087A20E4FCFDFEFFF2
:0E189B00E5822582F582E58333F583E5F0339F
:0B18A900F5F0EB33FB4017DAE980425A
:0E18B400E5822582F582E58333F583E5F03386
:0518C200F5F0EB33FB23
:0E18C700EC33FCED33FDEE33FEEF33FFEC9916
:0E18D500ED96EE0896EF089618184013EC9961
:0E18E300FCED96FDEE0896FEEF0896FF181835
:0318F1004382012E
:0218F400DABE5A
:0218F600EB22E3
:0300230075817C68
:0A002600121984E582600302001E37
:0E18F80020F71430F6148883A88220F507E646
:06190600A8837583002296
:03190C00E280F77F
:03190F00E493223C
:02191200E022D1
:0E191400AAF0FB74FB2581F8E58286F0A9F0AD
:0E19220008A4FCADF0E58389F0A42DFDE435AA
:0E193000F0FEE58286F0A42DFDE5F03EFEE41B
:0E193E0033FFEA89F0A42EFEE5F03FFFE583BB
:0E194C0086F0A42EFEE5F03FFFE5820886F04F
:0E195A00A42EFEE5F03FFFEB89F0A42FFFE581
:0E1968008386F0A42FFFEA1886F0A42FFFE577
:0E19760082080886F0A42F8EF08D838C8222CA
:041984007582002246
:00000001FF
