:0400000002002332A5
:01000B0032C2
:03001300020E5684
:03001B00020E864C
:03007C0002001E61
:05001E0012007F80FECE
:0A007F007F007E00C218C219E5A739
:0C00890003540124FF921AC007C006C0F7
:0500950023121823D026
:0B009A0023D006D007D2972097032048
:0200A5001A053A
:0500A700901BFFE49333
:0E00AC00C297901BFFE493AC962CFD8D9653EB
:0900BA00963FD28C201A217D0032
:0300C300BD32004B
:0E00C600501AC28C901D17E493F58C901D18F3
:0800D400E493F58AC28DD28C81
:0600DC00308DFD0D80E1F6
:0E00E20075C1FFC2AF75A7E575C2A575C35AFB
:0E00F000D2AFC2AF43A70475C2A575C35AD2E2
:0B00FE00AFC007C006C023120DD0D019
:0A01090023D006D007201A0FC0070C
:08011300C006C023120CAFD09E
:05011B0023D006D0070F
:0E01200053BDFE75985043BAE043BD0275BF53
:09012E002F75BEF043BD017D00F8
:0E013700C2AF75C2A575C35AD2AF901D0DE4BC
:0701450093FCBCFF028003E4
:03014C0002026E3E
:06014F0030100302026EF5
:08015500E56E30E00302026ECA
:0E015D00748025D1502775D16075D20375D3FB
:0E016B009A75D1610D74035DFCBC0313C007CF
:0A017900C006C005C023120A51D0D1
:0701830023D005D006D007D0
:0E018A00308D20740F5589FCBC011874F0559F
:0E019800892402F589758F01758C50C28D4344
:0701A600A210D29275800047
:0C01AD00309018301917C007C006C005BC
:0601B900C023120D1ED050
:0901BF0023D005D006D007800210
:0201C800D2194A
:0A01CA00300113C007C006C005C0D5
:0501D40023120B88D08E
:0701D90023D005D006D0077A
:0C01E000E53F605FC0058EF005F07B017C
:0401EC007C0080060D
:0601F000EB2BFBEC33FCDD
:0C01F600D5F0F7AA3F7D00EA5203ED525D
:0E02020004D005EB4C6034740C2EF582C0075E
:0A021000C006C005C0231214C1D0BF
:0C021A0023D005D006D00750228EF0053E
:05022600F074018002EC
:02022B0025E0CC
:0C022D00D5F0FBFC74FFC39C523F0E5345
:040239000603800830
:06023D000E5306038002CF
:020243007E003B
:0B024500E56A70517440258D404B208D
:090250000C48901D99E493FCB5E3
:040259003B02803DA7
:0C025D0075E40075E71D75E699853BE52A
:0502690075E468802C23
:0C026E00748025D1502630102375D1611A
:0A027A00E56F24914004056F801623
:0C028400758285C007C006C005C02312AB
:0A02900014C1D023D005D006D0071A
:06029A00200803300919E1
:0A02A000C208C209C007C006C0056D
:0602AA00C023121514D060
:0902B00023D005D006D007800A16
:0202B9007C6463
:0802BB008C031B8B04EC70F8AE
:0802C300D297209712BFFF0043
:0502CB0050030F80123A
:0602D000201803636E819B
:0402D600D2188008B2
:0602DA00EF60031F80022B
:0202E000C21842
:0802E200E56E5401FCB40100BB
:0B02EA00E433FC24FF9297020137224E
:0A02F500C008858108058105810518
:0E02FF0081E582FF24F8FE8EF005F074018088
:01030D0002ED
:02030E0025E0E8
:07031000D5F0FBFEBF080061
:0A031700501AE54E540124FF92181D
:0C03210092F0C007C00685F0238F821206
:06032D0006DAD006D0073D
:08033300EF24F8400302055D10
:03033B00BF0C00F4
:05033E00400302055D13
:0C0343007401554EFD7C00C007C006C0D0
:0E034F0005C0048F8212061F15811581D0068D
:0D035D00D0077D007C007B008F027F00A890
:0C036A00080808EA24F8F6EF34FF08F653
:0C037600A8080808B6000608B6000280BF
:010382002B4F
:0C038300A8080808B6010608B6000280B1
:01038F004726
:0C039000A8080808B6020608B6000280A3
:01039C0066FA
:0C039D00A8080808B6030708B600030211
:0203A900042B23
:0303AB00020455F4
:0D03AE00C006901DD8E493FE740F5EFD9014
:0E03BB001DEFE493FE74035EFC901DEFE493CF
:0E03C9000303543FFE74035EFBD0060204558E
:0E03D700C006901DD8E49354F0C4540FFD905E
:0D03E5001DEFE493C4540FFE74035EFC9002
:0E03F2001DEFE49323235403FE74035EFBD03F
:0304000006805221
:0D040300C006901DD9E493FE740F5EFD90BD
:0E0410001DF0E493FE74035EFC901DF0E49377
:0D041E000303543FFE74035EFBD006802AEA
:0E042B00C006901DD9E49354F0C4540FFD9008
:0D0439001DF0E493C4540FFE74035EFC90AC
:0E0446001DF0E49323235403FE74035EFBD0E9
:0104540006A1
:0E045500C006901DEDE493FEEA24F8FAEF34A1
:0E046300FFCA25E0CA33FF8AF005F0EE8002E2
:02047100C313B3
:0E047300D5F0FBFE74035EFAED14FF8FF0056A
:08048100F0A8080874018002D4
:0204890025E06C
:0B048B00D5F0FBF6BA0004D006800A92
:07049600D006BA0102804804
:03049D0002055DF8
:0704A000AF4EBF8002800592
:0504A700BF8113800B72
:0A04AC00A8080874FFC396523E80B2
:0104B600063F
:0604B700A80808E6423E21
:0E04BD00ED14FFF582C007120577AE82AD8305
:0C04CB00ACF0FBD007EE4D4C4B24FF9230
:0904D7001892F085F0238F8212C7
:0504E00006DA02055DD3
:0C04E500901DF1E49352068E07AE4EE429
:0404F100BE800104C4
:0604F500FA6003EF60064F
:0604FB00BE8129EF60261E
:09050100A80808E6553D601EA89B
:0A050A00080874FFC396523DBB01C0
:0A05140009A8080874FFC396523BC3
:09051E00BB0206A80808E6423BF6
:06052700BE8103EF600637
:06052D00EA602DEF602AD8
:09053300A80808E6553D7022A855
:09053C000808E6423DBC0109A8D3
:08054500080874FFC396523B45
:09054D00BC0206A80808E6423BC6
:07055600ED14242CF87600DF
:07055D00E53CB53B02800202
:02056400D201C2
:06056600850881D0082287
:0B056C00AF8274402FF5821214C122F0
:07057700AF827E00BF080007
:0E057E00E433FD6027C0068FF005F07B017CA2
:03058C00008006E6
:06058F00EB2BFBEC33FC3A
:0C059500D5F0F7AA387E00EA5203EE52BF
:0905A10004D006EB4C60027E015F
:0605AA00ED7033BF0C00F0
:0E05B000502E8F047D00EC24F8FCED34FF8CFF
:0905BE00F005F07C017D008006CF
:0605C700EC2CFCED33FDFD
:0C05CD00D5F0F7AA3A7B00EA5204EB528A
:0705D90005EC4D60027E01FC
:0305E000BF0C004D
:0E05E300402C7D00EF24F4FFED34FF8FF00577
:0705F100F07F017D00800690
:0605F800EF2FFFED33FDC3
:0C05FE00D5F0F7AB397C00EB5207EC5253
:07060A0005EF4D60027E01C7
:0E0611007F007D007C008E828F838DF0EC22B6
:0A061F00C008858108AF82BF080003
:0C062900E433FE6030E50824FCF8E6082D
:0B0635004670168FF005F07401800283
:0206400025E0B3
:0C064200D5F0FBFD74FFC39D5238801002
:08064E008FF005F07401800239
:0206560025E09D
:06065800D5F0FBFD423865
:06065E00EE703BBF0C0032
:0C0664005036E50824FCF8E60846701942
:0B067000EF24F8F5F005F074018002A3
:02067B0025E078
:0C067D00D5F0FBFE740FC39E523A8013B0
:0B068900EF24F8F5F005F0740180028A
:0206940025E05F
:06069600D5F0FBFE423A24
:03069C00BF0C0090
:0C069F004036E50824FCF8E60846701917
:0B06AB00EF24F4F5F005F0740180026C
:0206B60025E03D
:0C06B800D5F0FBFE74FFC39E5239801386
:0B06C400EF24F4F5F005F07401800253
:0206CF0025E024
:0606D100D5F0FBFF4239E9
:0306D700D0082226
:0A06DA00C00885810805810581AF85
:0E06E40082901DEBE493FE8FF005F0EE800295
:0206F200C31330
:0B06F400D5F0FB5401FE24FF921920FA
:0506FF0018033019068C
:06070400201803020A4B5D
:0A070A00A218E433FD7E00C007C012
:0C07140023C005C0068F8212061F15814D
:0A0720001581D023D007A8080808AF
:0C072A007600A808087600901DD8E49323
:0E073600FC53040F8F027B00C00774012AFEE3
:0E074400E43BFF7D00ECB50606EDB507028034
:0107520004A2
:04075300D007800843
:08075700D007A808080876018C
:0E075F00C007901DD8E49354F0C4540FFE74EC
:0E076D00012AFCE43BFD7F00EEB50406EFB56B
:04077B0005028004EF
:04077F00D007800817
:08078300D007A808080876025F
:0E078B00C007901DD9E493FE53060F74012A97
:0E079900FCE43BFD7F00EEB50406EFB5050263
:0207A7008004CC
:0407A900D0078008ED
:0807AD00D007A8080808760334
:0E07B500C007901DD9E49354F0C4540FFE7495
:0E07C300012AFCE43BFD7F00EEB50406EFB515
:0407D1000502800499
:0407D500D0078008C1
:0807D900D007A8080808760407
:0C07E100A8080808E6605FC002C0039092
:0C07ED001DEDE493FEA808080886047DBA
:0E07F90000EC24FFFAED34FFCA25E0CA33FB02
:070807008AF005F0EE80020B
:02080E00C31312
:0D081000D5F0FB54036006D003D002802A0F
:0E081D00D003D002901DEEE493FE1CBCFF0140
:01082B001DAF
:0E082C00EDCC25E0CC33FD8CF005F0EE800223
:02083A00C313E6
:0B083C00D5F0FBFEA8080874035EF670
:0E084700C002C0038FF005F07D017E00800628
:06085500ED2DFDEE33FE67
:0C085B00D5F0F7AB3D7C00EB5205EC52F1
:0C08670006D003D002ED4E6003020A4BE5
:0B0873008F82C007C003C002C0231228
:0C087E00180DE582D023D002D003D00773
:08088A005414FEBE14028003A9
:03089200020A4B0C
:050895000ABA00010B8E
:0E089A00EBA2E713CA13CAFB74F92A901D00E3
:0E08A80093FE74015FFDBD010553060F80082D
:0808B60074F05EFDC4540FFE56
:0A08BE007D007C00201824A8080823
:0C08C800E66043A80808B601108FF00598
:0508D400F0E53E80028A
:0208D900C31347
:0608DB00D5F0FB30E02D1A
:0608E100A80808B60200A1
:0208E70050259A
:0A08E900A218E433FBBB01028003F8
:0308F30002096D8A
:0608F600A80808B602008C
:0A08FC00406F8FF005F0E53E80022A
:02090600C31319
:06090800D5F0FB20E05FCA
:0E090E0074E22F901D0093FBFD6018901DEA0F
:0A091C00E493FB8FF005F0EB80027E
:02092600C313F9
:09092800D5F0FB5401FBBB013AC0
:0D093100901DF2E493FB8FF005F0EB8002C7
:02093E00C313E1
:0E094000D5F0FB20E0138FF005F0740180026B
:02094E0025E0A2
:09095000D5F0FBF4FB523B8014CE
:080959008FF005F0740180022B
:0209610025E08F
:08096300D5F0FBFB423B8002D2
:02096B007C010D
:0A096D00A218E433FBBB012BA8081D
:0C09770008E66049A80808B601028041AB
:06098300A80808B60200FE
:0A09890040158FF005F0E53E8002F6
:02099300C3138C
:0B099500D5F0FB5401FBBB01028024E5
:0609A000301803020A2ECC
:0809A600A80808B60102800355
:0309AE00020A2E0C
:0809B1008FF005F0E53E800225
:0209B900C31366
:0909BB00D5F0FB5401FBBB016AFD
:0E09C40074DA2F901D0093FBFD705D901DEA0C
:0A09D200E493FB8FF005F0EB8002C8
:0209DC00C31343
:0E09DE00D5F0FB5401FBBB010B7C8074E22FB3
:0609EC00901D0093FBFDCD
:0D09F200901DF2E493FB8FF005F0EB800206
:0209FF00C31320
:0E0A0100D5F0FB20E0128FF005F074018002AA
:020A0F0025E0E0
:080A1100D5F0FBFB423B801510
:080A19008FF005F0740180026A
:020A210025E0CE
:090A2300D5F0FBF4FB523B80020C
:020A2C007C113B
:0C0A2E00EC6014EF242CF974804DF7EFFD
:0B0A3A002424F95304F0EC4EF7800672
:060A4500EF242CF87600FE
:060A4B00850881D008229D
:070A51000534E4B534020591
:010A58003568
:0A0A5900E53424FFFEE53534FFFF0D
:0B0A6300EEF4FEEFF4FFE5345206E570
:050A6E003552077D0078
:030A7300BD1000B3
:080A76005032EE30E0247C0058
:030A7E00BC0800B1
:0C0A8100501DEC2424F9870353030FEBF5
:0C0A8D00B5050DEC242CF9E7FB247F508C
:040A990003EB14F760
:030A9D000C80DEEC
:0A0AA000EFC313CE13CEFF0D80C983
:020AAA007F00CB
:080AAC00EF24F85003020B8750
:0B0AB400EF242CF98706BE80028003AF
:030ABF00020B83A4
:0A0AC200D2018FF005F074018002EC
:020ACC0025E023
:0C0ACE00D5F0FBFEEF2424F9E7FD20E446
:040ADA0003020B5EAA
:0D0ADE00901DF2E493FD8FF005F0ED800215
:020AEB00C31333
:0B0AED00D5F0FB20E005EE423B800549
:050AF800EEF4FD523B8D
:0C0AFD00EF242CF87600901DEAE493FD35
:070B09008FF005F0ED800202
:020B1000C3130D
:0E0B1200D5F0FBFC74015CFDBD01668F037C19
:060B2000000BBB00010CFC
:0E0B2600ECA2E713CB13CB74F92B901D0093B8
:0D0B3400FC74015FFBBB010553040F80083A
:080B410074F05CFBC4540FFCCE
:0E0B490074E22F901D0093FB6030ED602D7460
:070B5700804BF6A704802586
:0D0B5E00901DF2E493FD8FF005F0ED800294
:020B6B00C313B2
:0C0B6D00D5F0FB20E007EEF4FD523B80C9
:010B79000378
:030B7A00EE423B0D
:060B7D00EF242CF87600C5
:040B83000F020AACA7
:010B8700224B
:0C0B8800853B82120BE3E5828583F0FEC2
:0E0B94008E80C28CC28D758C6F758AFF74F0D6
:0E0BA200558904F589758F00D28C901DF3E4FF
:070BB00093653BF5397F005E
:030BB700BF080074
:0A0BBA0050218FF005F07401800255
:020BC40025E02A
:0A0BC600D5F0FBFE553BFDEE553C5B
:070BD000FCEDB504028003F7
:030BD700EE423FAC
:030BDA000F80DAAF
:040BDD00853B3CC256
:020BE1000122EF
:0C0BE300AF82E53C6FFEE4FCFDEE30E06C
:0B0BEF000EEF30E0067C027D00800469
:040BFA007C017D00FD
:0D0BFE00EE30E10CEF30E105430408800308
:030C0B004304049B
:0D0C0E00EE30E20CEF30E2054304208003DD
:030C1B004304107F
:0D0C1E00EE30E30CEF30E30543048080036B
:030C2B004304403F
:050C2E008C828D832281
:060C3300AE82AF838F05C5
:0A0C39008D04AB3BC282C2837A0037
:0E0C4300EA24F8402DC00574805C235401247F
:0E0C5100FF9280EC2CFCD283D283C28374808D
:0E0C5F005B23540124FF9284EB2BFBD285D241
:080C6D0085C2850AD00580CE86
:0E0C7500D286C286D2827B007C00C2827A00C8
:0B0C8300EA24F0401930930343030102
:050C8E00D283BA0F0043
:090C93005007ECCB25E0CB33FC4B
:050C9C00C2830A80E2A2
:0A0CA100EBB50606ECB50702800370
:030CAB00020C39FF
:010CAE002223
:080CAF00901D99E493F53B90C0
:070CB7001DF6E493FF7E002F
:0E0CBE00EE24FC4046EE75F002A4FCADF08C76
:060CCC00F005F0EF8002CC
:020CD200C3134A
:0E0CD400D5F0FBFC74035CFDBD01148EF00531
:050CE200F07401800226
:020CE70025E006
:0A0CE900D5F0FBFC74FFC39C523BE6
:0B0CF300BD02108EF005F074018002BD
:020CFE0025E0EF
:060D0000D5F0FBFD423BB3
:030D06000E80B5A7
:070D0900E53BF4FF8F3CD233
:070D100001901DF3E493655F
:050D17003BF539EF423D
:020D1C003F2274
:020D1E007F0054
:080D2000EF24FC5003020DB0AA
:080D28008FF005F07401800258
:020D300025E0BC
:0E0D3200D5F0FBFE901DF4E493FD8F037C00D2
:050D40000BBB00010CDB
:070D45008BF005F0ED8002C8
:020D4C00C313CF
:0E0D4E00D5F0FBFDEE5205901DF5E493FA8BF7
:060D5C00F005F0EA800240
:020D6200C313B9
:0E0D6400D5F0FBFBEE5203EBC454F0FB42054E
:0D0D7200901DF4E493FC8FF005F0EC80027E
:020D7F00C3139C
:0E0D8100D5F0FBFCEE5204901DF5E493FB8FC1
:060D8F00F005F0EB80020C
:020D9500C31386
:0E0D9700D5F0FBFB5206EEC454F0FE4204EC15
:090DA500F4FC523BED423B0F024D
:020DAE000D2016
:030DB000120B889B
:050DB300308DFD7F0002
:030DB800BFFA007F
:0E0DBB005012C2AF75C2A575C35AD2AFC28D19
:060DC900308DFD0F80E9F2
:010DCF002201
:0E0DD0007580007584007585FF74F0558924C8
:0E0DDE0002F589758F01758C5043A210D28CDE
:0A0DEC00C2A9D288753A00E4F53D73
:050DF600F534F535F5B0
:0A0DFB003EC200C2AF75E40075E7C8
:0E0E05001D75E60375E50075E71D75E60475BD
:0E0E1300E50475E71D75E60575E52075E71D1C
:0E0E210075E60675E56275E71D75E60775E571
:0E0E2F000175E71D75E60C75E50075E71D758C
:0E0E3D00E60D75E5FF75E71D75E61275E59A81
:0B0E4B0075E468D2AFC28875D1812227
:0818760001020408102040806B
:0E0E5600C0E0C0D0C2AAC28E740F55892420FD
:0E0E6400F589758B35758D80C28FD28ED2AB1D
:060E7200756A02C204D201
:050E7800027569007520
:090E7D006800D203D0D0D0E032AD
:0C0E8600C023C0E0C0F0C082C083C007E1
:0E0E9200C006C005C004C003C002C001C000FD
:0C0EA000C0D075D000E56AFF24F15003BB
:030EAC000211A38D
:070EAF00EF2F2F900EB67328
:070EB600020EE30211A3028A
:060EBD000F5602101002A6
:060EC300101902108E025E
:060EC90011A30211A302B7
:060ECF0011A30211A302B1
:060ED50010B202111A0226
:060EDB0011A302113E020A
:020EE100118C72
:0E0EE300C28E740F55892420F589758B807599
:0A0EF1008D80C28FD28EE56CB56DC6
:030EFB0002805121
:080EFE00E56D245EF987821204
:0B0F06001289503DC2AAE56A7032E576
:0A0F11006D245EF9E7FF20E5077488
:060F1B00204FF7756B008A
:0B0F210074FC256B40051211EE8016D9
:060F2C00056D536D07C2C4
:040F32000CC21112CA
:0C0F360011C2C28E758DF0758B00D28E3A
:050F4200D2AA0211A378
:060F4700056D536D070269
:020F4D0011A3EE
:070F4F00C28ED2AA0211A319
:0A0F5600A28BB39218C28B756A03D8
:0A0F6000758D00E569700A756901DE
:050F6A00C205C20602F1
:020F6F0011A3CC
:0A0F7100747F2569401C301808B297
:040F7B0004E56925FB
:030F7F0068F568AA
:050F8200E5692569F599
:060F87006960030211A3E2
:060F8D007569810211A349
:0A0F9300C28EC28FA204201801B321
:0A0F9D005026E566700E74CCB568AE
:030FA70002D2056E
:070FAA00740CB56802D206C9
:070FB100200513200610E5E6
:050FB800662447F8E586
:050FBD0068F662670503
:030FC20066800244
:020FC500C20266
:050FC700100C02801D6A
:070FCC00300514300211751D
:070FD3006B041011028009FC
:070FDA00E5422404F5425337
:020FE100423C90
:060FE3001211C20211A36D
:070FE90030021E20051B2051
:0C0FF0000618740F55892410F589758DC2
:0C0FFC00FA758B70D28E756A04D2AA02BE
:0210080011A332
:06100A001211C20211A345
:09101000758D80756A020211A3BE
:0A101900300A64E56624FB505EC255
:0E1023008E740F55892410F589758DEF758B2D
:0810310042D28EA20F9207E5E6
:081039004C30E71F854A82C01C
:0C1041004B121238AF821581BFFF0280F5
:01104D0002A0
:02104E00D207C7
:09105000E54A701CE54B7018D252
:03105900078014F9
:0C105C00901D17E493FFB54A0B901D187F
:08106800E493FFB54B02D2072F
:0910700074FFB56705300702D2D8
:01107900086E
:06107A00756A050211A3D6
:08108000E56624FE5002D208CF
:061088001211C20211A3C7
:0A108E00C28E74FFB5671330070A25
:06109800D20D1211EEC2A0
:04109E000C0211A38C
:0610A2001211C20211A3AD
:0610A800D20E1211EEC28F
:0410AE000C0211A37C
:0810B200E5662447F9870730C9
:0410BA000D027FCCD8
:0510BE00300E027F0C62
:0910C300C2AA740AB56A02800396
:0310CC000211A36B
:0A10CF00E569247F402CE5695F709D
:0910D90008D296C20BB204800299
:0210E200D20B2F
:0810E400E5697007756901C29E
:0310EC0004800677
:0510EF00E5692569F52B
:0110F4006992
:0710F500E5697003756981D4
:0510FC00756A0B801372
:09110100200406D296C20B800204
:02110A00D20B06
:06110C000566756900751F
:021112006A0D64
:06111400758D120211A30B
:0A111A00E56670077401B56902056F
:011124006B5F
:0A112500C296A20B828B5007C20C89
:05112F001211C2800650
:06113400756A0A758D6E5C
:04113A00C28B80657F
:0E113E00C296C28E740F55892410F589758DE6
:0A114C00FB758B90D28E200D03304E
:021156000E0584
:051158001211C2802B02
:0C115D00740F554CFF7E0074072FFFE458
:0C1169003EFEAC667D00C3EF9CEE64808F
:0C1175008DF063F08095F05007D2091255
:0411810011C2800314
:03118500756A0E7A
:04118800C28B80177F
:0E118C00C28E740F55892420F589758D6E75FD
:09119A008B80C28FD28E756A0AA7
:0C11A300D203D0D0D000D001D002D00385
:0E11AF00D004D005D006D007D083D082D0F077
:0511BD00D0E0D0233258
:0A11C200756A00C28BC28EC2AB75C5
:0A11CC006700756600C28E740F55AF
:0C11D600892410F589758D89758BAFC2D6
:0A11E2000DC20EC28FD28ED2AAD227
:0211EC00AB2234
:0E11EE00C28E740F55892420F589758D6E759B
:0C11FC008B80C28F740F554C2407FF75C8
:0412080067FF7E00FE
:0C120C00C3EE9F500BEE2447F9E7FD6293
:04121800670E80F0ED
:07121C00EF2447F8A667C2AA
:0412230005C206D228
:051227000C756A0A7558
:0A122C006900756600C2AAD28ED2D6
:02123600AB22E9
:0A123800C008858108AF827EFF9098
:081242001D16E493FDBDFF0041
:0C124A005038200F35901D16E493602EE4
:07125600901D16E493FD1D3D
:0E125D00ED6024ED2DFC2417901D0093FBEF97
:0C126B00B5031374182C901D0093FCE5D3
:0A1277000824FDF8E6B504028D0618
:031281001D80D9F4
:051284008E82D008225B
:0A128900C008E581F5082404F58192
:0C129300AF82C2187DFE7E00EFA2E5E4F1
:09129F0033FC24FF9219BF80000A
:0512A80040030213D514
:0C12AD00C005C006EF2323540124FF926B
:0B12B9001A53071F8F82C007C005C03A
:0C12C40023120577AA82AB83ACF0FED0A9
:0A12D00023D005D007A80808A602E5
:0E12DA0008A60308A60408A606901D11E493BA
:0E12E800FE0EEF2FFD2EFC04901D0093FEB5B0
:0412F6000702800665
:0612FA00D006D005800FB4
:0E130000D006D0058C8275831DE493FCFD7E23
:01130E0000DE
:09130F00BDFE06BE00030214B08D
:0A1318007547BC901D17E493FC8C90
:0A13220048901D18E493FC8C49ED7F
:0C132C002DFD2417901D0093FE8E4A74C6
:0A133800182D901D0093FE8E4B75DA
:061342004D00301A057594
:041348004E40800390
:03134C00754E805B
:0E134F00901D12E4932F2FFE2F2404901D00FA
:0C135D0093FE24F95006EE24FBFE8002F3
:021369007E0103
:0C136B0074E02EF54CEE24FE500F7406CA
:0A1377002E2447F9A808088605A7F0
:03138100058010D4
:0C138400A80808743F56FAE4FBFCFDEAE0
:04139000254EF54EA3
:0C139400EE24FD500E74052E2447F9A82D
:0713A0000808088605A705F7
:0C13A700EE24FC500F74042E2447F9A81B
:0813B300080808088605A705DB
:0C13BB00EE24FB501074032E2447F9A808
:0913C70008080808088606A706BC
:0513D000D2180214B068
:0A13D5007547B0901D17E493FE8EDB
:0A13DF0048901D18E493FE8E498526
:0313E900404A85F2
:0A13EC00414B53071FEF24FA500392
:0313F6000214AE30
:0713F900EF2F2F9014007389
:071400000214AE02141202F7
:06140700141E0214350260
:05140D0014460214A6C4
:08141200754C6074C22546F51B
:04141A004D0214AEBD
:08141E00754C6374432542F58F
:051426004D754E4075FC
:06142B004F00755012D2C3
:04143100110214AEE2
:07143500754A00754B0075BC
:06143C004CE1754D017545
:041442004E40806830
:021446007F0025
:0A144800C3EF9543503CE5447026C5
:0A145200740A2F2447F87600AD4518
:0E145C007E008F037C00EB2DFDEC3EFEBD609C
:0B146A001CBE0019740A2F2447F8A6CE
:031475006E800F77
:0A147800740A2F2447F9EF25459070
:051482001D0093FEF7C0
:031487000F80BE15
:09148A0074632543F54C744245DE
:0614930042F54D744045D6
:0414990043F54E8544
:03149D00444F8534
:0314A0004550D2E2
:0314A300118008AD
:0714A600754C60754D81C219
:0114AD00102E
:0214AE00D21852
:0814B00030190674DF5547F501
:0114B80047EC
:0614B900A218850881D095
:0214BF00082201
:0714C100AF82C218BF40001A
:0C14C800501B8F82C007C02312180DE5D6
:0C14D40082D023D0075444FEBE440280A6
:0114E0000407
:0414E100D218802A73
:0914E500AD6C7E000DBD00010E8E
:0C14EE005305077E00AB6D7C00EBB505DC
:0714FA0006ECB50602800EAE
:08150100E56C245EF8A6070565
:051509006C536C07D2D9
:01150E0018C4
:05150F00D28EA218229B
:0A151400C008E581F5082404F58104
:09151E00C208AF4D74C35FFEA8C2
:051527000808A64EE5D6
:09152C004AFC7036E54B7032E513
:071535006E20E0030217EC39
:0C153C00EE700DA80808B6C007C006122B
:0415480017F2D006C0
:05154C00BE0102800356
:031551000217EC92
:09155400A80808E660030217EC88
:09155D007582831214C10217EC1F
:08156600E54C30E703021737E2
:0C156E00901D17E493FBECB50302800312
:03157A000217EC69
:0B157D00901D18E493FBB54B028003A7
:031588000217EC5B
:08158B00756F00BE4202801BD7
:06159300BE43030216CB6B
:06159900BE80030216F102
:06159F00BE8103021713D8
:0615A500BE830302172CB7
:0315AB000217EC38
:0615AE002010030217ECFF
:0A15B400743C5FF546A80808E654F1
:0A15BE00F0F6A80808B680028003CA
:0315C8000216AA5E
:0C15CB007582811214C1E54FFB70030211
:0215D70016AA52
:0515D900740F554EFFE8
:0A15DE00E56A70FCC2AF75E400AED0
:0A15E8005074015B241CFCA80808E5
:0315F20008760078
:0C15F500A8080808C3E69F40030216A5E2
:0C160100EB703CC003E5082403F8A606CB
:0C160D00087600A808080886027D00E5A9
:0C161900082403F8EA26FAED0836FDBAB2
:071625006005BD0002800416
:04162C00D003801057
:0A163000D003A8080808740A262455
:06163A0047F9876E8016DF
:0B1640008CE7A8080808E62EF5E6A8D5
:0A164B00080808740A262447F987EE
:01165500E5AF
:0A1656008E027D00A8080808E508D0
:0C1660002403F9E6F7097700E5082403ED
:0E166C00F8E62AFA08E63D53023F7D00BA3F39
:0D167A0022BD001F8F027D001ABAFF011D66
:0C168700E5082403F8E6B5020708E6B504
:0416930005028006C6
:0616970075E46875E40033
:08169D00A8080808060215F573
:0516A50075E468D2AFFE
:0916AA00A80808E660030217EC31
:0416B300854E438598
:0316B7004F448518
:0616BA005045758281120B
:0916C00014C17582841214C102E8
:0216C90017EC1C
:0A16CB00743C5FF546A80808B680DD
:0416D5000343A20821
:0916D900A80808E660030217EC02
:0D16E2007582811214C17582821214C1023A
:0216EF0017ECF6
:0616F1003010030217ECAB
:0416F700D210854840
:0316FB00408549DE
:0516FE0041754200C22D
:0C1703001175D16075D20B75D3B375D190
:04170F00610217EC70
:07171300E548B54002800328
:03171A000217ECC7
:07171D00E549B5410280031C
:031724000217ECBD
:05172700C2100217ECE6
:09172C007582851214C1C210027D
:0217350017ECAF
:06173700EE60030217EC56
:0C173D00C04B8C82121238AF821581BFA5
:05174900FF030217EC94
:0E174E00901D11E493FEF58275831DE4932532
:0C175C00E02EFD0EA8080874C056FCE446
:04176800BC8001043C
:01176C00FC80
:08176D00C3EE9D40030217ECDE
:0E1775008E8275831DE493FBEFB50366EE04D0
:0E178300901D0093FBF582C007C006C005C094
:0E17910004C00312180DAA82D003D004D005A4
:0E179F00D006D007EC602EC00474145AFCBCB7
:0417AD00140280049E
:0417B100D004801FC1
:0E17B500D0048B82C007C006C005C004C0036C
:0E17C300C0021202F5D002D003D004D005D02F
:0317D10006D00738
:0C17D400A80808E6700D53020CBA0C0CBB
:0717E0008B8212056C8005ED
:0517E7000E0E02176D5B
:0617EC00850881D00822EF
:0C17F200E56A70FCC2AF75E40075E71DED
:0A17FE0075E617854FE58550E57587
:05180800E468D2AF22EC
:0E180D00AF82901D12E493FE0E0E0EEF2E2FF2
:08181B002F901D0093F58222BD
:0E18230075950075911475924CC296758921C9
:0E183100758F00C28CC28E758D80758B80C243
:0C183F008FC20375A88075E80075B8041E
:0A184B0075B70CD28A756E2EC20527
:05185500C206C20DC235
:04185A000EC208D2E0
:05185E000A756C007525
:061863006D00754200C299
:0418690011C210C2D6
:05186D000F1211C22260
:06005200E478FFF6D8FD82
:080030007900E94400601B7A2D
:050038000090187E7825
:03003D000075A0AB
:0A00400000E493F2A308B8000205E3
:08004A00A0D9F4DAF275A0FF61
:080058007800E84400600A7919
:030060000075A088
:0600630000E4F309D8FCE3
:080069007800E84400600C7906
:0B00710000900000E4F0A3D8FCD9FAD6
:0300230075816F75
:0A002600121872E582600302001E4A
:041872007582002259
:00000001FF
