:0400000002002332A5
:01000B0032C2
:03001300020F10C9
:03001B00020F4091
:03007C0002001E61
:05001E0012007F80FECE
:0A007F007F007E00C218C219E5A739
:0C00890003540124FF921AC007C006C0F7
:05009500231218DDD06C
:0B009A0023D006D007D2972097032048
:0200A5001A053A
:0500A700901BFFE49333
:0E00AC00C297901BFFE493AC962CFD8D9653EB
:0900BA00963FD28C201A217D0032
:0300C300BD32004B
:0E00C600501AC28C901D17E493F58C901D18F3
:0800D400E493F58AC28DD28C81
:0600DC00308DFD0D80E1F6
:0E00E20075C1FFC2AF75A7E575C2A575C35AFB
:0E00F000D2AFC2AF43A70475C2A575C35AD2E2
:0B00FE00AFC007C006C023120E9BD04D
:0A01090023D006D007201A0FC0070C
:08011300C006C023120D21D02B
:05011B0023D006D0070F
:0E01200053BDFE75985043BAE043BD0275BF53
:09012E002F75BEF043BD017D00F8
:0E013700C2AF75C2A575C35AD2AF901D0DE4BC
:0701450093FCBCFF028003E4
:03014C0002025A52
:06014F0030100302025A09
:08015500E56E30E00302025ADE
:0E015D00748025D1502775D16075D20375D3FB
:0E016B009A75D1610D74035DFCBC0313C007CF
:0A017900C006C005C023120A3DD0E5
:0701830023D005D006D007D0
:0E018A00308D0C740F5589FCBC0104C28DD25F
:0101980092D4
:0C019900309018301917C007C006C005D0
:0601A500C023120DE9D099
:0901AB0023D005D006D007800224
:0201B400D2195E
:0A01B600300113C007C006C005C0E9
:0501C00023120B74D0B6
:0701C50023D005D006D0078E
:0C01CC00E53F605FC0058EF005F07B0190
:0401D8007C00800621
:0601DC00EB2BFBEC33FCF1
:0C01E200D5F0F7AA3F7D00EA5203ED5271
:0E01EE0004D005EB4C6034740C2EF582C00773
:0A01FC00C006C005C02312157BD019
:0C02060023D005D006D00750228EF00552
:05021200F07401800200
:0202170025E0E0
:0C021900D5F0FBFC74FFC39C523F0E5359
:040225000607800840
:060229000E5306078002DF
:02022F007E004F
:0B023100E56A70517440258D404B20A1
:09023C000C48901D99E493FCB5F7
:040245003B02803DBB
:0C02490075E40075E71D75E699853BE53E
:0502550075E468802C37
:0C025A00748025D1502630102375D1612E
:0A026600E56F24914004056F801637
:0C027000758285C007C006C005C02312BF
:0A027C00157BD023D005D006D00773
:06028600200803300919F5
:0A028C00C208C209C007C006C00581
:06029600C0231215CED0BA
:09029C0023D005D006D007800A2A
:0202A5007C6477
:0802A7008C031B8B04EC70F8C2
:0802AF00D297209712BFFF0057
:0502B70050030F80124E
:0602BC00201803636E81AF
:0402C200D2188008C6
:0602C600EF60031F80023F
:0202CC00C21856
:0802CE00E56E5401FCB40100CF
:0B02D600E433FC24FF92970201372262
:0A02E100C00885810805810581052C
:0E02EB0081E582FF24F8FE8EF005F07401809C
:0102F9000202
:0202FA0025E0FD
:0702FC00D5F0FBFEBF080076
:0A030300501AE54E540124FF921831
:0C030D0092F0C007C00685F0238F82121A
:0603190006C6D006D00765
:08031F00EF24F8400302054938
:03032700BF0C0008
:05032A0040030205493B
:0C032F007401554EFD7C00C007C006C0E4
:0E033B0005C0048F8212060B15811581D006B5
:0D034900D0077D007C007B008F027F00A8A4
:0C035600080808EA24F8F6EF34FF08F667
:0C036200A8080808B6000608B6000280D3
:01036E002B63
:0C036F00A8080808B6010608B6000280C5
:01037B00473A
:0C037C00A8080808B6020608B6000280B7
:01038800660E
:0C038900A8080808B6030708B600030225
:0203950004174B
:030397000204411C
:0D039A00C006901DD8E493FE740F5EFD9028
:0E03A7001DEFE493FE74035EFC901DEFE493E3
:0E03B5000303543FFE74035EFBD006020441B6
:0E03C300C006901DD8E49354F0C4540FFD9072
:0D03D1001DEFE493C4540FFE74035EFC9016
:0E03DE001DEFE49323235403FE74035EFBD053
:0303EC0006805236
:0D03EF00C006901DD9E493FE740F5EFD90D2
:0E03FC001DF0E493FE74035EFC901DF0E4938C
:0D040A000303543FFE74035EFBD006802AFE
:0E041700C006901DD9E49354F0C4540FFD901C
:0D0425001DF0E493C4540FFE74035EFC90C0
:0E0432001DF0E49323235403FE74035EFBD0FD
:0104400006B5
:0E044100C006901DEDE493FEEA24F8FAEF34B5
:0E044F00FFCA25E0CA33FF8AF005F0EE8002F6
:02045D00C313C7
:0E045F00D5F0FBFE74035EFAED14FF8FF0057E
:08046D00F0A8080874018002E8
:0204750025E080
:0B047700D5F0FBF6BA0004D006800AA6
:07048200D006BA0102804818
:0304890002054920
:07048C00AF4EBF80028005A6
:05049300BF8113800B86
:0A049800A8080874FFC396523E80C6
:0104A2000653
:0604A300A80808E6423E35
:0E04A900ED14FFF582C007120563AE82AD832D
:0C04B700ACF0FBD007EE4D4C4B24FF9244
:0904C3001892F085F0238F8212DB
:0504CC0006C60205490F
:0C04D100901DF1E49352068E07AE4EE43D
:0404DD00BE800104D8
:0604E100FA6003EF600663
:0604E700BE8129EF602632
:0904ED00A80808E6553D601EA8B0
:0A04F600080874FFC396523DBB01D5
:0A05000009A8080874FFC396523BD7
:09050A00BB0206A80808E6423B0A
:06051300BE8103EF60064B
:06051900EA602DEF602AEC
:09051F00A80808E6553D7022A869
:090528000808E6423DBC0109A8E7
:08053100080874FFC396523B59
:09053900BC0206A80808E6423BDA
:07054200ED14242CF87600F3
:07054900E53CB53B02800216
:02055000D201D6
:06055200850881D008229B
:0B055800AF8274402FF58212157B2249
:07056300AF827E00BF08001B
:0E056A00E433FD6027C0068FF005F07B017CB6
:03057800008006FA
:06057B00EB2BFBEC33FC4E
:0C058100D5F0F7AA387E00EA5203EE52D3
:09058D0004D006EB4C60027E0173
:06059600ED7033BF0C0004
:0E059C00502E8F047D00EC24F8FCED34FF8C13
:0905AA00F005F07C017D008006E3
:0605B300EC2CFCED33FD11
:0C05B900D5F0F7AA3A7B00EA5204EB529E
:0705C50005EC4D60027E0110
:0305CC00BF0C0061
:0E05CF00402C7D00EF24F4FFED34FF8FF0058B
:0705DD00F07F017D008006A4
:0605E400EF2FFFED33FDD7
:0C05EA00D5F0F7AB397C00EB5207EC5267
:0705F60005EF4D60027E01DC
:0E05FD007F007D007C008E828F838DF0EC22CB
:0A060B00C008858108AF82BF080017
:0C061500E433FE6030E50824FCF8E60841
:0B0621004670168FF005F07401800297
:02062C0025E0C7
:0C062E00D5F0FBFD74FFC39D5238801016
:08063A008FF005F0740180024D
:0206420025E0B1
:06064400D5F0FBFD423879
:06064A00EE703BBF0C0046
:0C0650005036E50824FCF8E60846701956
:0B065C00EF24F8F5F005F074018002B7
:0206670025E08C
:0C066900D5F0FBFE740FC39E523A8013C4
:0B067500EF24F8F5F005F0740180029E
:0206800025E073
:06068200D5F0FBFE423A38
:03068800BF0C00A4
:0C068B004036E50824FCF8E6084670192B
:0B069700EF24F4F5F005F07401800280
:0206A20025E051
:0C06A400D5F0FBFE74FFC39E523980139A
:0B06B000EF24F4F5F005F07401800267
:0206BB0025E038
:0606BD00D5F0FBFF4239FD
:0306C300D008223A
:0A06C600C00885810805810581AF99
:0E06D00082901DEBE493FE8FF005F0EE8002A9
:0206DE00C31344
:0B06E000D5F0FB5401FE24FF9219200E
:0506EB001803301906A0
:0606F000201803020A3786
:0A06F600A218E433FD7E00C007C027
:0C07000023C005C0068F8212060B158175
:0A070C001581D023D007A8080808C3
:0C0716007600A808087600901DD8E49337
:0E072200FC53040F8F027B00C00774012AFEF7
:0E073000E43BFF7D00ECB50606EDB507028048
:01073E0004B6
:04073F00D007800857
:08074300D007A80808087601A0
:0E074B00C007901DD8E49354F0C4540FFE7400
:0E075900012AFCE43BFD7F00EEB50406EFB57F
:040767000502800403
:04076B00D00780082B
:08076F00D007A8080808760273
:0E077700C007901DD9E493FE53060F74012AAB
:0E078500FCE43BFD7F00EEB50406EFB5050277
:020793008004E0
:04079500D007800801
:08079900D007A8080808760348
:0E07A100C007901DD9E49354F0C4540FFE74A9
:0E07AF00012AFCE43BFD7F00EEB50406EFB529
:0407BD0005028004AD
:0407C100D0078008D5
:0807C500D007A808080876041B
:0C07CD00A8080808E6605FC002C00390A6
:0C07D9001DEDE493FEA808080886047DCE
:0E07E50000EC24FFFAED34FFCA25E0CA33FB16
:0707F3008AF005F0EE800220
:0207FA00C31327
:0D07FC00D5F0FB54036006D003D002802A24
:0E080900D003D002901DEEE493FE1CBCFF0154
:010817001DC3
:0E081800EDCC25E0CC33FD8CF005F0EE800237
:02082600C313FA
:0B082800D5F0FBFEA8080874035EF684
:0E083300C002C0038FF005F07D017E0080063C
:06084100ED2DFDEE33FE7B
:0C084700D5F0F7AB3D7C00EB5205EC5205
:0C08530006D003D002ED4E6003020A370D
:0B085F008F82C007C003C002C023123C
:0C086A0018C7E582D023D002D003D007CD
:080876005414FEBE14028003BD
:03087E00020A3734
:050881000ABA00010BA2
:0E088600EBA2E713CA13CAFB74F92A901D00F7
:0E08940093FE74015FFDBD010553060F800841
:0808A20074F05EFDC4540FFE6A
:0A08AA007D007C00201824A8080837
:0C08B400E66043A80808B601108FF005AC
:0508C000F0E53E80029E
:0208C500C3135B
:0608C700D5F0FB30E02D2E
:0608CD00A80808B60200B5
:0208D3005025AE
:0A08D500A218E433FBBB010280030C
:0308DF00020959B2
:0608E200A80808B60200A0
:0A08E800406F8FF005F0E53E80023E
:0208F200C3132E
:0608F400D5F0FB20E05FDF
:0E08FA0074E22F901D0093FBFD6018901DEA24
:0A090800E493FB8FF005F0EB800292
:02091200C3130D
:09091400D5F0FB5401FBBB013AD4
:0D091D00901DF2E493FB8FF005F0EB8002DB
:02092A00C313F5
:0E092C00D5F0FB20E0138FF005F0740180027F
:02093A0025E0B6
:09093C00D5F0FBF4FB523B8014E2
:080945008FF005F0740180023F
:02094D0025E0A3
:08094F00D5F0FBFB423B8002E6
:020957007C0121
:0A095900A218E433FBBB012BA80831
:0C09630008E66049A80808B601028041BF
:06096F00A80808B6020012
:0A09750040158FF005F0E53E80020A
:02097F00C313A0
:0B098100D5F0FB5401FBBB01028024F9
:06098C00301803020A1AF4
:08099200A80808B60102800369
:03099A00020A1A34
:08099D008FF005F0E53E800239
:0209A500C3137A
:0909A700D5F0FB5401FBBB016A11
:0E09B00074DA2F901D0093FBFD705D901DEA20
:0A09BE00E493FB8FF005F0EB8002DC
:0209C800C31357
:0E09CA00D5F0FB5401FBBB010B7C8074E22FC7
:0609D800901D0093FBFDE1
:0D09DE00901DF2E493FB8FF005F0EB80021A
:0209EB00C31334
:0E09ED00D5F0FB20E0128FF005F074018002BF
:0209FB0025E0F5
:0809FD00D5F0FBFB423B801525
:080A05008FF005F0740180027E
:020A0D0025E0E2
:090A0F00D5F0FBF4FB523B800220
:020A18007C114F
:0C0A1A00EC6014EF242CF974804DF7EF11
:0B0A26002424F95304F0EC4EF7800686
:060A3100EF242CF8760012
:060A3700850881D00822B1
:070A3D000534E4B5340205A5
:010A4400357C
:0A0A4500E53424FFFEE53534FFFF21
:0B0A4F00EEF4FEEFF4FFE5345206E584
:050A5A003552077D008C
:030A5F00BD1000C7
:080A62005032EE30E0247C006C
:030A6A00BC0800C5
:0C0A6D00501DEC2424F9870353030FEB09
:0C0A7900B5050DEC242CF9E7FB247F50A0
:040A850003EB14F774
:030A89000C80DE00
:0A0A8C00EFC313CE13CEFF0D80C997
:020A96007F00DF
:080A9800EF24F85003020B7378
:0B0AA000EF242CF98706BE80028003C3
:030AAB00020B6FCC
:0A0AAE00D2018FF005F07401800200
:020AB80025E037
:0C0ABA00D5F0FBFEEF2424F9E7FD20E45A
:040AC60003020B4AD2
:0D0ACA00901DF2E493FD8FF005F0ED800229
:020AD700C31347
:0B0AD900D5F0FB20E005EE423B80055D
:050AE400EEF4FD523BA1
:0C0AE900EF242CF87600901DEAE493FD49
:070AF5008FF005F0ED800217
:020AFC00C31322
:0E0AFE00D5F0FBFC74015CFDBD01668F037C2E
:060B0C00000BBB00010C10
:0E0B1200ECA2E713CB13CB74F92B901D0093CC
:0D0B2000FC74015FFBBB010553040F80084E
:080B2D0074F05CFBC4540FFCE2
:0E0B350074E22F901D0093FB6030ED602D7474
:070B4300804BF6A70480259A
:0D0B4A00901DF2E493FD8FF005F0ED8002A8
:020B5700C313C6
:0C0B5900D5F0FB20E007EEF4FD523B80DD
:010B6500038C
:030B6600EE423B21
:060B6900EF242CF87600D9
:040B6F000F020A98CF
:010B7300225F
:070B7400853B82120BCA123F
:0E0B7B000C5AC292C28D758C6F758AFF74F091
:0E0B8900558904F589758F00D28C901DF3E418
:070B970093653BF5397F0077
:030B9E00BF08008D
:0A0BA10050218FF005F0740180026E
:020BAB0025E043
:0A0BAD00D5F0FBFE553BFDEE553C74
:070BB700FCEDB50402800310
:030BBE00EE423FC5
:030BC1000F80DAC8
:040BC400853B3CC26F
:020BC800012208
:0C0BCA00AF82E53C6FFEE4FCFDEE30E085
:0B0BD6000EEF30E0067C207D00800464
:040BE1007C107D0007
:0D0BE500EE30E10CEF30E105430508800320
:030BF200430504B4
:0D0BF500EE30E20CEF30E205430480800397
:030C020043044068
:0D0C0500EE30E30CEF30E305430502800301
:030C120043050196
:0D0C1500EE30E40CEF30E405430580800371
:030C220043054047
:0D0C2500EE30E50CEF30E5054304028003DE
:030C320043040177
:0D0C3500EE30E60CEF30E6054305208003AD
:030C420043051057
:0D0C4500EE30E70CEF30E7054304088003B4
:030C520043040454
:050C55008C828D83225A
:0A0C5A00C008858108C082C0830530
:0A0C640081A80808088605A8080802
:040C6E0086037C007D
:0A0C72008D028B07E5082403F8A6A5
:070C7C003BC282C2837E002F
:0E0C8300EE24F84038C00574805A2354012432
:0D0C9100FF9280EA2AFAD283D283C283E563
:0C0C9E00082403F874805623540124FF3E
:0C0CAA009284E5082403F8E625E0F6D269
:0A0CB60085D285C2850ED00580C3EB
:060CC000D286C2867E0010
:0E0CC600EE24F8401774805F235401FA24FFD7
:0E0CD4009280EF2FFFD283D283C2830E80E482
:0A0CE200D2827E007F00C2827A00F9
:0B0CEC00EA24F0401930930343060196
:050CF700D283BA0F00DA
:090CFC005007EFCE25E0CE33FFD6
:050D0500C2830A80E238
:0C0D0A00A80808E6B5060708E6B50702D1
:020D1600800358
:030D1800020C7258
:060D1B00850881D00822CA
:080D2100901D99E493F53B904D
:070D29001DF6E493FF7E00BC
:0E0D3000EE24FC4046EE75F002A4FCADF08C03
:060D3E00F005F0EF800259
:020D4400C313D7
:0E0D4600D5F0FBFC74035CFDBD01148EF005BE
:050D5400F074018002B3
:020D590025E093
:0A0D5B00D5F0FBFC74FFC39C523B73
:0B0D6500BD02108EF005F0740180024A
:020D700025E07C
:060D7200D5F0FBFC423B42
:030D78000E80B535
:080D7B00901DF7E493FF7E00D8
:0E0D8300EE24FC404CEE75F002A4FBACF08BAD
:060D9100F005F0EF800206
:020D9700C31384
:0E0D9900D5F0FBFB74035BFDBD011774042E47
:080DA700F5F005F07401800273
:020DAF0025E03D
:0A0DB100D5F0FBFC74FFC39C523B1D
:0E0DBB00BD021374042EF5F005F074018002E1
:020DC90025E023
:060DCB00D5F0FBFD423BE8
:030DD1000E80AFE2
:070DD400E53BF4FF8F3CD268
:070DDB0001901DF3E4936594
:050DE2003BF539EF4272
:020DE7003F22A9
:020DE9007F0089
:080DEB00EF24FC5003020E7B13
:080DF3008FF005F0740180028D
:020DFB0025E0F1
:0E0DFD00D5F0FBFE901DF4E493FD8F037C0007
:050E0B000BBB00010C0F
:070E10008BF005F0ED8002FC
:020E1700C31303
:0E0E1900D5F0FBFDEE5205901DF5E493FA8B2B
:060E2700F005F0EA800274
:020E2D00C313ED
:0E0E2F00D5F0FBFBEE5203EBC454F0FB420582
:0D0E3D00901DF4E493FC8FF005F0EC8002B2
:020E4A00C313D0
:0E0E4C00D5F0FBFCEE5204901DF5E493FB8FF5
:060E5A00F005F0EB800240
:020E6000C313BA
:0E0E6200D5F0FBFB5206EEC454F0FE4204EC49
:090E7000F4FC523BED423B0F0281
:020E79000DEB7F
:030E7B00120B74E3
:050E7E00308DFD7F0036
:030E8300BFFA00B3
:0E0E86005012C2AF75C2A575C35AD2AFC28D4D
:060E9400308DFD0F80E926
:010E9A002235
:0E0E9B007580007584007585FFD292C2A9D2C1
:080EA90088753A00E4F53DF5FF
:040EB10034F535F5EA
:0A0EB5003EC200C2AF75E40075E70D
:0E0EBF001D75E60375E50075E71D75E6047503
:0E0ECD00E50475E71D75E60575E52075E71D62
:0E0EDB0075E60675E56075E71D75E60775E5B9
:0E0EE9000175E71D75E60C75E50075E71D75D2
:0E0EF700E60D75E5FF75E71D75E61275E59AC7
:0B0F050075E468D2AFC28875D181226C
:081930000102040810204080B0
:0E0F1000C0E0C0D0C2AAC28E740F5589242042
:0E0F1E00F589758B35758D80C28FD28ED2AB62
:060F2C00756A02C204D246
:050F3200027569007565
:090F37006800D203D0D0D0E032F2
:0C0F4000C023C0E0C0F0C082C083C00726
:0E0F4C00C006C005C004C003C002C001C00042
:0C0F5A00C0D075D000E56AFF24F1500300
:030F660002125D17
:070F6900EF2F2F900F7073B2
:070F7000020F9D02125D0259
:060F770010100210CA0276
:060F7D0010D3021148022E
:060F8300125D02125D0286
:060F8900125D02125D0280
:060F8F00116C0211D402F6
:060F9500125D0211F802DA
:020F9B001246FC
:0E0F9D00C28E740F55892420F589758B8075DE
:0A0FAB008D80C28FD28EE56CB56D0B
:030FB50002805166
:080FB800E56D245EF987821249
:0B0FC0001343503DC2AAE56A7032E501
:0A0FCB006D245EF9E7FF20E50774CE
:060FD500204FF7756B00D0
:0B0FDB0074FC256B40051212A8801664
:060FE600056D536D07C20A
:040FEC000CC2111210
:0C0FF000127CC28E758DF0758B00D28EC5
:050FFC00D2AA02125D03
:06100100056D536D0702AE
:02100700125D78
:07100900C28ED2AA02125DA3
:0A101000A28BB39218C28B756A031D
:0A101A00758D00E569700A75690123
:05102400C205C2060236
:02102900125D56
:0A102B00747F2569401C301808B2DC
:0410350004E5692540
:0310390068F568EF
:05103C00E5692569F5DE
:0610410069600302125D6C
:0610470075698102125DD3
:0A104D00C28EC28FA204201801B366
:0A1057005026E566700E74CCB568F3
:0310610002D205B3
:07106400740CB56802D2060E
:07106B00200513200610E52B
:05107200662447F8E5CB
:0510770068F662670548
:03107C0066800289
:02107F00C202AB
:05108100100C02801DAF
:071086003005143002117562
:07108D006B04101102800941
:07109400E5422404F542537C
:02109B00423CD5
:06109D0012127C02125D3C
:0710A30030021E20051B2096
:0C10AA000618740F55892410F589758D07
:0C10B600FA758B70D28E756A04D2AA0203
:0210C200125DBD
:0610C40012127C02125D15
:0910CA00758D80756A0202125D49
:0A10D300300A64E56624FB505EC29B
:0E10DD008E740F55892410F589758DEF758B73
:0810EB0042D28EA20F9207E52C
:0810F3004C30E71F854A82C062
:0C10FB004B1212F2AF821581BFFF028081
:0111070002E5
:02110800D2070C
:09110A00E54A701CE54B7018D297
:031113000780143E
:0C111600901D17E493FFB54A0B901D18C4
:08112200E493FFB54B02D20774
:09112A0074FFB56705300702D21D
:0111330008B3
:06113400756A0502125D60
:08113A00E56624FE5002D20814
:0611420012127C02125D96
:0A114800C28E74FFB5671330070A6A
:06115200D20D1212A8C22A
:041158000C02125D16
:06115C0012127C02125D7C
:06116200D20E1212A8C219
:041168000C02125D06
:08116C00E5662447F98707300E
:041174000D027FCC1D
:05117800300E027F0CA7
:09117D00C2AA740AB56A028003DB
:0311860002125DF5
:0A118900E569247F402CE5695F70E2
:0911930008D296C20BB2048002DE
:02119C00D20B74
:08119E00E5697007756901C2E3
:0311A600048006BC
:0511A900E5692569F570
:0111AE0069D7
:0711AF00E569700375698119
:0511B600756A0B8013B7
:0911BB00200406D296C20B80024A
:0211C400D20B4C
:0611C60005667569007565
:0211CC006A0DAA
:0611CE00758D1202125D96
:0A11D400E56670077401B5690205B5
:0111DE006BA5
:0A11DF00C296A20B828B5007C20CCF
:0511E90012127C8006DB
:0611EE00756A0A758D6EA2
:0411F400C28B8065C5
:0E11F800C296C28E740F55892410F589758D2C
:0A120600FB758B90D28E200D033093
:021210000E05C9
:0512120012127C802B8C
:0C121700740F554CFF7E0074072FFFE49D
:0C1223003EFEAC667D00C3EF9CEE6480D4
:0C122F008DF063F08095F05007D209129A
:04123B00127C80039E
:03123F00756A0EBF
:04124200C28B8017C4
:0E124600C28E740F55892420F589758D6E7542
:091254008B80C28FD28E756A0AEC
:0C125D00D203D0D0D000D001D002D003CA
:0E126900D004D005D006D007D083D082D0F0BC
:05127700D0E0D023329D
:0A127C00756A00C28BC28EC2AB750A
:0A1286006700756600C28E740F55F4
:0C129000892410F589758D89758BAFC21B
:0A129C000DC20EC28FD28ED2AAD26C
:0212A600AB2279
:0E12A800C28E740F55892420F589758D6E75E0
:0C12B6008B80C28F740F554C2407FF750D
:0412C20067FF7E0044
:0C12C600C3EE9F500BEE2447F9E7FD62D9
:0412D200670E80F033
:0712D600EF2447F8A667C2F0
:0412DD0005C206D26E
:0512E1000C756A0A759E
:0A12E6006900756600C2AAD28ED21C
:0212F000AB222F
:0A12F200C008858108AF827EFF90DE
:0812FC001D16E493FDBDFF0087
:0C1304005038200F35901D16E493602E29
:07131000901D16E493FD1D82
:0E131700ED6024ED2DFC2417901D0093FBEFDC
:0C132500B5031374182C901D0093FCE518
:0A1331000824FDF8E6B504028D065D
:03133B001D80D939
:05133E008E82D00822A0
:0A134300C008E581F5082404F581D7
:0C134D00AF82C2187DFE7E00EFA2E5E436
:0913590033FC24FF9219BF80004F
:05136200400302148F9E
:0C136700C005C006EF2323540124FF92B0
:0B1373001A53071F8F82C007C005C07F
:0C137E0023120563AA82AB83ACF0FED002
:0A138A0023D005D007A80808A6022A
:0E13940008A60308A60408A606901D11E493FF
:0E13A200FE0EEF2FFD2EFC04901D0093FEB5F5
:0413B00007028006AA
:0613B400D006D005800FF9
:0E13BA00D006D0058C8275831DE493FCFD7E69
:0113C8000024
:0913C900BDFE06BE000302156A18
:0A13D2007547BC901D17E493FC8CD6
:0A13DC0048901D18E493FC8C49EDC5
:0C13E6002DFD2417901D0093FE8E4A740C
:0A13F200182D901D0093FE8E4B7520
:0613FC004D00301A0575DA
:041402004E408003D5
:03140600754E80A0
:0E140900901D12E4932F2FFE2F2404901D003F
:0C14170093FE24F95006EE24FBFE800238
:021423007E0148
:0C14250074E02EF54CEE24FE500F74060F
:0A1431002E2447F9A808088605A735
:03143B0005801019
:0C143E00A80808743F56FAE4FBFCFDEA25
:04144A00254EF54EE8
:0C144E00EE24FD500E74052E2447F9A872
:07145A000808088605A7053C
:0C146100EE24FC500F74042E2447F9A860
:08146D00080808088605A70520
:0C147500EE24FB501074032E2447F9A84D
:0914810008080808088606A70601
:05148A00D21802156AF2
:0A148F007547B0901D17E493FE8E20
:0A14990048901D18E493FE8E49856B
:0314A300404A8537
:0A14A600414B53071FEF24FA5003D7
:0314B000021568BA
:0714B300EF2F2F9014BA7314
:0714BA000215680214CC02C8
:0614C10014D80214EF0232
:0514C700150002156094
:0814CC00754C6074C22546F561
:0414D4004D02156848
:0814D800754C6374432542F5D5
:0514E0004D754E407542
:0614E5004F00755012D209
:0414EB00110215686D
:0714EF00754A00754B007502
:0614F6004CE1754D01758B
:0414FC004E40806876
:021500007F006A
:0A150200C3EF9543503CE54470260A
:0A150C00740A2F2447F87600AD455D
:0E1516007E008F037C00EB2DFDEC3EFEBD60E1
:0B1524001CBE0019740A2F2447F8A613
:03152F006E800FBC
:0A153200740A2F2447F9EF254590B5
:05153C001D0093FEF705
:031541000F80BE5A
:0915440074632543F54C74424523
:06154D0042F54D7440451B
:0415530043F54E8589
:03155700444F8579
:03155A004550D227
:03155D00118008F2
:07156000754C60754D81C25E
:011567001073
:02156800D21897
:08156A0030190674DF5547F546
:011572004731
:06157300A218850881D0DA
:02157900082246
:07157B00AF82C218BF40005F
:0C158200501B8F82C007C0231218C7E561
:0C158E0082D023D0075444FEBE440280EB
:01159A00044C
:04159B00D218802AB8
:09159F00AD6C7E000DBD00010ED3
:0C15A8005305077E00AB6D7C00EBB50521
:0715B40006ECB50602800EF3
:0815BB00E56C245EF8A60705AB
:0515C3006C536C07D21F
:0115C800180A
:0515C900D28EA21822E1
:0A15CE00C008E581F5082404F5814A
:0915D800C208AF4D74C35FFEA808
:0515E1000808A64EE51C
:0915E6004AFC7036E54B7032E559
:0715EF006E20E0030218A6C4
:0C15F600EE700DA80808B6C007C0061271
:0416020018ACD0064A
:05160600BE010280039B
:03160B000218A61C
:09160E00A80808E660030218A612
:0916170075828312157B0218A6EE
:08162000E54C30E7030217F16D
:0C162800901D17E493FBECB50302800357
:031634000218A6F3
:0B163700901D18E493FBB54B028003EC
:031642000218A6E5
:08164500756F00BE4202801B1C
:06164D00BE4303021785F5
:06165300BE80030217AB8C
:06165900BE81030217CD63
:06165F00BE83030217E642
:031665000218A6C2
:061668002010030218A689
:0A166E00743C5FF546A80808E65436
:0A167800F0F6A80808B6800280030F
:03168200021764E8
:0C16850075828112157BE54FFB7003029B
:021691001764DC
:05169300740F554EFF2D
:0A169800E56A70FCC2AF75E400AE15
:0A16A2005074015B241CFCA808082A
:0316AC00087600BD
:0C16AF00A8080808C3E69F400302175F6C
:0C16BB00EB703CC003E5082403F8A60611
:0C16C700087600A808080886027D00E5EF
:0C16D300082403F8EA26FAED0836FDBAF8
:0716DF006005BD000280045C
:0416E600D00380109D
:0A16EA00D003A8080808740A26249B
:0616F40047F9876E801625
:0B16FA008CE7A8080808E62EF5E6A81B
:0A170500080808740A262447F98733
:01170F00E5F4
:0A1710008E027D00A8080808E50815
:0C171A002403F9E6F7097700E508240332
:0E172600F8E62AFA08E63D53023F7D00BA3F7E
:0D17340022BD001F8F027D001ABAFF011DAB
:0C174100E5082403F8E6B5020708E6B549
:04174D00050280060B
:0617510075E46875E40078
:08175700A8080808060216AFFD
:05175F0075E468D2AF43
:09176400A80808E660030218A6BB
:04176D00854E4385DD
:031771004F44855D
:0617740050457582811250
:09177A00157B75828412157B02B7
:0217830018A6A6
:0A178500743C5FF546A80808B68022
:04178F000343A20866
:09179300A80808E660030218A68C
:0D179C0075828112157B75828212157B0209
:0217A90018A680
:0617AB003010030218A635
:0417B100D210854885
:0317B50040854923
:0517B80041754200C272
:0C17BD001175D16075D20B75D3B375D1D6
:0417C900610218A6FB
:0717CD00E548B5400280036E
:0317D4000218A652
:0717D700E549B54102800362
:0317DE000218A648
:0517E100C2100218A671
:0917E60075828512157BC2100208
:0217EF0018A63A
:0617F100EE60030218A6E1
:0C17F700C04B8C821212F2AF821581BF31
:05180300FF030218A61E
:0E180800901D11E493FEF58275831DE4932577
:0C181600E02EFD0EA8080874C056FCE48B
:04182200BC80010481
:01182600FCC5
:08182700C3EE9D40030218A668
:0E182F008E8275831DE493FBEFB50366EE0415
:0E183D00901D0093FBF582C007C006C005C0D9
:0E184B0004C0031218C7AA82D003D004D0052F
:0E185900D006D007EC602EC00474145AFCBCFC
:0418670014028004E3
:04186B00D004801F06
:0E186F00D0048B82C007C006C005C004C003B1
:0E187D00C0021202E1D002D003D004D005D088
:03188B0006D0077D
:0C188E00A80808E6700D53020CBA0C0C00
:07189A008B82120558800546
:0518A1000E0E021827E5
:0618A600850881D0082234
:0C18AC00E56A70FCC2AF75E40075E71D32
:0A18B80075E617854FE58550E575CC
:0518C200E468D2AF2232
:0E18C700AF82901D12E493FE0E0E0EEF2E2F38
:0818D5002F901D0093F5822203
:0E18DD0075950075911475924CC2967589210F
:0E18EB00758F00C28CC28E758D80758B80C289
:0C18F9008FC20375A88075E80075B80464
:0A19050075B70CD28A756E2EC2056C
:05190F00C206C20DC27A
:041914000EC208D225
:051918000A756C00756A
:06191D006D00754200C2DE
:0419230011C210C21B
:051927000F12127C22EA
:06005200E478FFF6D8FD82
:080030007900E94400601B7A2D
:0500380000901938786A
:03003D000075A0AB
:0A00400000E493F2A308B8000205E3
:08004A00A0D9F4DAF275A0FF61
:080058007800E84400600A7919
:030060000075A088
:0600630000E4F309D8FCE3
:080069007800E84400600C7906
:0B00710000900000E4F0A3D8FCD9FAD6
:0300230075816F75
:0A00260012192CE582600302001E8F
:04192C00758200229E
:00000001FF
